:100000000C9449000C9486040C9490040C949A046B
:100010000C94A4040C94AE040C94B8040C94EE0557
:100020000C94C2040C9468000C9468000C947C122C
:100030000C941D140C9450040C9466040C94CC0481
:100040000C943F040C94640C0C9468000C946800AD
:100050000C9468000C9468000C9468000C94680080
:100060000C945B040C9468000C9468000C94680079
:100070000C9468000C9468000C9468000C94680060
:100080000C9468000C9468000C94680000081C181C
:10009000141011241FBECFEFD0E1DEBFCDBF11E0A1
:1000A000A0E0B1E0EAE7FDE200E00BBF02C007908C
:1000B0000D92AE30B107D9F712E0AEE0B1E001C069
:1000C0001D92A733B107E1F70E943B110C94BC16B7
:1000D0000C9400008FB7F894992708958FBF089566
:1000E000282F9FB7F894662349F0E82FFF27ED5695
:1000F000FE4F8081882311F021E006C0E22FFF2708
:10010000ED56FE4F608320E0892F99278FBF822F05
:1001100099270895E82F8FB7F894282F332790E078
:10012000FF27ED56FE4F8081861709F491E02FBF1F
:10013000892F99270895882311F06E9A08956E9853
:100140000895882311F06F9A08956F98089580E0BC
:100150000E949B00BA9ABB98B99A6C9A80E00E9460
:10016000A100709A6B986A98689881E00E949B0041
:100170000895282F9FB7F894E82FFF27E65CFE4FDD
:1001800080818F3F81F4E0913502E21771F40BC05A
:100190002093290204C0FF27E65CFE4F20832093B2
:1001A000350220E007C025E005C0809129028F3F7D
:1001B00091F7EECF892F99278FBF822F9927089526
:1001C0000F931F93182F0FB7F89461E080E00E94FF
:1001D0007000882371F51093020180910501882336
:1001E000A9F580911601823089F588E00CC00E9443
:1001F000A70080911601882349F481E080931601BD
:10020000109250018AE00E94B9002AC080916201D8
:100210008F3F31F5E0910401EE2311F11CC01092E3
:10022000030104C0FF27EE59FE4F10821092040113
:1002300017C081E090E002C0880F991F1A95E2F77D
:1002400020911501282B209315010AC080911601D9
:100250008823E1F6CCCF809103018F3F19F7DFCFE0
:10026000802F99278FBF80E090E01F910F91089514
:100270001F93182F81E00E949B001FB9779BFECF30
:100280008FB199271F9108958F929F92AF92BF923D
:10029000CF92DF92EF92FF920F931F93CF93DF9352
:1002A0008FB7F8949927C0903002D0903102809097
:1002B0008C0190908D01C0917401D09175012091B5
:1002C0001F01309120019AE0A92EB12CAC0EBD1E69
:1002D0002A153B0508F459018FBF7401EC0EFD1E71
:1002E00086010C0F1D1F14C0C114D10419F0F801B0
:1002F000808101C080E00E9438018114910411F0D6
:10030000F701808321960894E11CF11C0F5F1F4FB9
:10031000C5010197C817D90738F381E00E94A100F1
:100320009FB7F894C114D10431F0CC0EDD1EF60154
:1003300080818FB901C01FB8D0937501C09374013B
:10034000892F99278FBF80E090E0DF91CF911F9197
:100350000F91FF90EF90DF90CF90BF90AF909F9064
:100360008F9008952FB7F89433275093200140932E
:100370001F01909331028093300270938D0160933E
:100380008C0110927501109274012FBF452B29F03A
:100390008FB10E9444019927089589E00E94B90015
:1003A00080E090E008958FB7F89499271092950116
:1003B0008FBF089580E88093380110925301109206
:1003C0002C021092280210924F0108951F93CF9390
:1003D000DF93182F8FB7F894C82FDD2760E080E0F7
:1003E0000E948A00882321F0CFBF80E090E005C002
:1003F000CFBF812F0E9438019927DF91CF911F91A4
:100400000895CF93DF93FC0115A6DC019E96ED01C4
:100410001B821A82198280E886A7DF91CF91089506
:100420002F923F924F925F926F927F928F929F9204
:10043000AF92BF92CF92DF92EF92FF920F931F93F2
:10044000CF93DF93CDB7DEB728970FB6F894DEBF12
:100450000FBECDBF2090590130905A0140905B01F2
:1004600050905C016624772488244EE4A42E33E85F
:10047000B32ECC24DD24EE24FF2400E010E0222D56
:10048000332D442D552D662D772D882D90E00E941B
:10049000AB1429833A834B835C836D837E838F8384
:1004A0009887822E932EA42EB52E2401350100E2CA
:1004B0000E94A915A22EB32EC42ED52EC301B201BF
:1004C00096958795779567956A0D7B1D8C1D9D1D6B
:1004D00097FF05C09F776F5F7F4F8F4F9F4F609350
:1004E000590170935A0180935B0190935C012896A7
:1004F0000FB6F894DEBF0FBECDBFDF91CF911F9135
:100500000F91FF90EF90DF90CF90BF90AF909F90B2
:100510008F907F906F905F904F903F902F900895B5
:100520008FB7F89460917801709179012CB53DB541
:1005300006B602FE04C06F5F7F4F2CB53DB599270C
:100540008FBF88279927CB01772766274427552710
:10055000622B732B842B952B0895EF92FF920F93B0
:100560001F930E9490027B018C01209163013091C6
:100570006401409165015091660180915E01909106
:100580005F01A0916001B0916101820F931FA41FD0
:10059000B51FE216F3060407150730F0821793071C
:1005A000A407B50758F005C082179307A407B5073D
:1005B000E0F5E816F9060A071B07B8F59C01AD013E
:1005C0002E193F09400B510B213060E8360760E0DF
:1005D000460760E0560768F180E090E8A0E0B0E0F0
:1005E000E80EF91E0A1F1B1FE0926301F0926401DE
:1005F000009365011093660180E090E8AFEFBFEFD4
:10060000E80EF91E0A1F1B1F205030484040504082
:1006100020935E0130935F0140936001509361012C
:1006200020E030E840E050E014C020E030E040E05E
:1006300050E08093630190936401A0936501B093AF
:10064000660110925E0110925F011092600110929B
:100650006101A901B7012CB53DB5C9018E199F09EA
:1006600003968417950720F0B9016D5F7F4F02C094
:10067000640F751F6115710511F461E070E0615040
:1006800070407BBD6ABD80E186BF87B7806187BF50
:100690001F910F91FF90EF9008950F931F930FB745
:1006A000F89411276093630170936401809365014E
:1006B0009093660120935E0130935F014093600147
:1006C000509361010E94AD020FBF1F910F910895D9
:1006D00097B79F7D97BF90E296BF882319F08EB59C
:1006E000806402C08EB58F7B8EBD87B7806287BF66
:1006F00080E090E008957FB7F89462B720912201DE
:1007000030912301409124015091250106B601FE4C
:100710000FC081B792B7280F311D411D511D2F5FAA
:100720003F4F4F4F5F4F290F311D411D511D04C0D9
:10073000260F311D411D511D872F99278FBFCA01DB
:10074000B9010895DF92EF92FF920F931F938FB735
:10075000F894282F3327D22E91B782B746B798172F
:1007600011F041FF02C02FBF6AC08091730188233E
:10077000E1F10E947B03E0908F01F09090010091E5
:1007800091011091920120913401309135014091F5
:100790003601509137016E197F09800B910B62175A
:1007A00073078407950720F01092730171E01EC053
:1007B0002E0D3F1D401F511F80912201909123015A
:1007C000A0912401B0912501281B390B4A0B5B0B2A
:1007D000273E31054105510540F4822F223010F0AB
:1007E00070E005C070E082E002C070E086EE682F25
:1007F000615000B601FCFDCF82B7681709F46F5F46
:100800002091220130912301409124015091250132
:10081000DA01C9010196A11DB11D860F911DA11D0F
:10082000B11D82179307A407B50710F4622F6095D6
:1008300061BFDFBE772319F080E00E94B9001F91ED
:100840000F91FF90EF90DF900895AFB7F894BB271A
:10085000E1E0E093730160938F01709390018093C6
:10086000910190939201209334013093350140938C
:10087000360150933701AFBF0E94A20308951F9223
:100880000F920FB60F9211248F9383B783BF00B6D8
:1008900000FCFDCF8F910F900FBE0F901F90189509
:1008A00078941F920F920FB60F9211240F900FBEE3
:1008B0000F901F90189578941F920F920FB60F9279
:1008C00011240F900FBE0F901F90189578941F92CF
:1008D0000F920FB60F9211242F933F938F939F93F4
:1008E0002FB7F89433278091780190917901019680
:1008F00090937901809378012FBF9F918F913F91C1
:100900002F910F900FBE0F901F9018951F920F926E
:100910000FB60F9211240F900FBE0F901F901895D5
:100920001F920F920FB60F9211240F900FBE0F90CF
:100930001F9018951F920F920FB60F9211240F90CF
:100940000FBE0F901F9018951F920F920FB60F9227
:1009500011240F900FBE0F901F9018951F920F92A9
:100960000FB60F9211240F900FBE0F901F90189585
:100970001F920F920FB60F9211240F900FBE0F907F
:100980001F9018951F920F920FB60F9211240F907F
:100990000FBE0F901F9018951F920F920FB60F92D7
:1009A00011242F933F934F935F936F937F938F9374
:1009B0009F93AF93BF93EF93FF9383B783BF00B62B
:1009C00000FCFDCF81B799270196AA27BB2720916C
:1009D0002201309123014091240150912501280FDB
:1009E000391F4A1F5B1F209322013093230140933C
:1009F00024015093250178940E94A203FF91EF9166
:100A0000BF91AF919F918F917F916F915F914F9126
:100A10003F912F910F900FBE0F901F9018950F933D
:100A20001F93CF93DF93182F8FB7F894C82FDD272C
:100A30000C2F61E080E00E947000882321F0CFBF7E
:100A400085E090E024C0809105018823A1F4809185
:100A50001601823081F409C082E080931601109261
:100A600005010E94A700B89AC0981093020180E087
:100A70000FBF99270CC080911601882369F38FB7A7
:100A8000F8949927109293018FBF81E0F1CFDF9105
:100A9000CF911F910F9108951F9383E00E940F053E
:100AA0009927182F882319F083E00E94E000812FF6
:100AB00099271F91089561E081E00E9470008823CA
:100AC000E9F48FB7F894282F332780911201909181
:100AD0001301892B11F02FBF20C081E090E090938B
:100AE0001301809312012FBFDD9A0E94900224E12E
:100AF00030E040E050E00E944D030FC062E081E032
:100B00000E948A00882319F089E090E0089561E04E
:100B100081E00E948A00882319F080E090E0089527
:100B200085E090E00895EF92FF920F931F93CF938B
:100B3000DF93182F7B01042F8FB7F894C82FDD2780
:100B400060E080E00E948A00882321F0CFBF80E02F
:100B500090E014C0CFBF1064812F992790936C014F
:100B600080936B010E943801182F402F5527B70141
:100B700080E090E00E94B201812F9927DF91CF9110
:100B80001F910F91FF90EF900895C09860911D0103
:100B900070911E0141E08FE30E949305089582E069
:100BA00090E090934A018093490181E08093530142
:100BB00020E030E080910201843011F421E030E047
:100BC000232B29F484E00E940F05882319F40E9446
:100BD000C505089584E00E94E00008951F920F92D9
:100BE0000FB60F9211242F933F934F935F936F9300
:100BF0007F938F939F93AF93BF93EF93FF938091D6
:100C0000490190914A01019749F482E090E0909364
:100C10004A01809349010E94CF0505C080914F0190
:100C20008F5F80934F01FF91EF91BF91AF919F91A3
:100C30008F917F916F915F914F913F912F910F9085
:100C40000FBE0F901F9018951F9380911501882358
:100C500009F04BC0109102011F3F09F046C060E04F
:100C60000E948A00882309F440C081E08093CE016D
:100C7000809139018823E1F11092CE0185E090E066
:100C800045C0923069F5C09A8091030120E030E0C0
:100C90008F3F11F421E030E0232BE9F4109305019C
:100CA0008F3F19F42FEF30E00DC0282F3327F901C3
:100CB000EE59FE4F8081809303018F3F11F4109312
:100CC000040110832093500181E0809316018AE093
:100CD0000E94B90005C0109305011092160111C0C1
:100CE00080911601882369F00FC081E090E00EC06A
:100CF0008091050190911601882319F2923021F01C
:100D0000EFCF80E00E949B0080E090E01F9108956B
:100D10001F93CF93DF939FB7F894C92FDD271C2F24
:100D200090910201981721F0CFBF81E090E03AC086
:100D30008FEF80930201309115013323F1F48FB7C7
:100D4000F8949927109293018FBF0E942406CFBF79
:100D500011C02093020181E090E002C0880F991F2A
:100D60004A95E2F7809538233093150188E00E9478
:100D7000B9001FBF80E090E015C080E065E0E32F80
:100D8000FF270E942C16292F492F5527CF01042E0B
:100D900002C0959587950A94E2F780FDDACF822FFD
:100DA0008F5FEFCFDF91CF911F9108951F93CF9366
:100DB000DF938FB7F894C82FDD271C2F809149014E
:100DC00090914A01892B29F484E00E948806CFBFC4
:100DD0001EC01092530180914F01882311F0B799E2
:100DE00004C00E9908C0882319F0815080934F01E8
:100DF0000E94CF050BC081E090E090934A01809360
:100E0000490110924F0184E00E9488061FBFDF91C4
:100E1000CF911F9108950E94DA01C09AC09888E08E
:100E20000E94E60188E00E94E601C09A84E00E94E8
:100E300088060E94D6060895FF920F931F93CF93C2
:100E4000DF93F82E8B018FB7F894C82FDD2760E071
:100E500080E00E948A00882321F0CFBF80E090E0EC
:100E60000CC0CFBF8F2D0E943801812F99270E947F
:100E70003801802F0E9438019927DF91CF911F916F
:100E80000F91FF9008951F931FB7F89480914E0122
:100E9000882319F460E070E009C060E080912F02BF
:100EA000882309F461E081E0682777278091560163
:100EB000882319F480E090E00AC090E080919801C6
:100EC000882309F491E081E09827892F9927762FCC
:100ED0006627770F770F770FE4E0880F991FEA9561
:100EE000E1F7826E9262682B792B81E10E941C07E8
:100EF000812F99278FBF1F9108958FB7F894992755
:100F00006091CD018FBF85E0689FB0011124625DC3
:100F10007E4F706488E10E941C070895EF92FF9253
:100F20001F93CF93DF93E0905701F0905801F701A2
:100F300082A59927182F882309F41FE1C098809172
:100F40004D01811749F0612F77276F717070606EC6
:100F5000706885E10E941C0710934D01F701108114
:100F60008FB7F894C82FDD2760E080E00E948A00E8
:100F7000882311F0CFBF12C0CFBF8EE390E09093D3
:100F80006C0180936B018EE30E9438011150412F58
:100F9000552760E070E0C7010E94B201DF91CF9158
:100FA0001F91FF90EF900895FF920F931F93CF939F
:100FB000DF93EC01F62E61E082E00E94700088234E
:100FC00019F085E090E069C08091CF018F5F809338
:100FD000CF0181508B838FB7F894082F112762E0DF
:100FE00081E00E948A00882329F40FBF0E94D30168
:100FF00081E052C08FB7F894992724E020939401A0
:101000008FBFD0937201C09371010FBF8DE0F80EB6
:10101000FE01F192898199278072907089831182F3
:1010200089819927816498688983892F9927818389
:101030001CA618A619A619AA18AA1FA680E88EA78A
:1010400061E06093970140917101509172018FB7F7
:10105000F894282F33278091170190911801883038
:10106000910511F0019711F02FBF15C082E090E0BB
:1010700090931801809317016093360250935801A2
:1010800040935701109221012FBF0E944C058823E5
:1010900011F40E948E0780E09927DF91CF911F9174
:1010A0000F91FF900895FA01422F2D3118F082E040
:1010B00090E0089583876683872F992787832FB7CA
:1010C000F894332780915401909155012FBF848368
:1010D000892F992785832FB7F894332780910601AC
:1010E000909107012FBF8087892F99278187809151
:1010F0000901882369F0109209018FE38287642F28
:10110000CF010E94D4079927282F8823A9F417C05C
:10111000842F99279093700180936F01F0931C01A5
:10112000E0931B018CE00E94B900809109018823A3
:1011300049F489E090E008958FEF80930901822FB0
:101140009927089510925D0180E090E00895AF9294
:10115000BF92CF92DF92EF92FF920F931F935B01AA
:101160006C016091820161FF1FC020917A01309172
:101170007B0140917C0150917D01E0907E01F090D7
:101180007F010091800110918101D601C501821B70
:10119000930BA40BB50B8E159F05A007B10720F08C
:1011A000EAE7F1E090E021C0E3E8F1E060918B0133
:1011B00061FF7EC0209183013091840140918501BF
:1011C00050918601E0908701F0908801009189019B
:1011D00010918A01A21AB30AC40AD50AAE14BF0438
:1011E000C006D10608F464C091E060FF04C08085A9
:1011F0008D7F808708C02E0D3F1D401F511F20830B
:10120000318342835383992309F052C020910F0107
:10121000309110012F5F3F4F3093100120930F0149
:1012200080910E01882309F043C0809100019091C4
:1012300001018093A601892F99278093A50120930E
:10124000A801832F99278093A70149E951E08FEFE7
:1012500080939F018093A00186E08093A4018091F8
:10126000760190917701892B19F55093770140937E
:10127000760181E18093990180910C018823A9F086
:1012800010920C0124E06FEF7FEF86E00E9453087C
:101290009927282F882349F081E080930C01109230
:1012A000770110927601222319F481E080930E01D8
:1012B00081E00E94B9001F910F91FF90EF90DF90A5
:1012C000CF90BF90AF9008951F93CF93DF93182FC7
:1012D000EB01E82FFF27EE0FFF1FEA58FE4F1182A8
:1012E000108210920C01E0917601F0917701309715
:1012F00021F080912D0280FF0FC081E080930C01CE
:1013000003C08EE00E94B9001123C1F4C959D14035
:10131000A9F410920E0112C020812D50332767814D
:101320007727762F662786819927682B792BAF013F
:1013300083850E945308882339F3E3CFDF91CF914F
:101340001F9108959B0180910C01882349F46091BD
:101350007601709177016217730711F40E94640996
:101360000895CF92DF92EF92FF920F931F93CF9346
:10137000DF938C01F62E6A01E22E8FB7F894C82F06
:10138000DD2760E080E00E948A00882321F0CFBF43
:1013900080E090E01EC0CFBF0F0D111D802F806830
:1013A0000E943801F82E16950795802F807C0E94A8
:1013B00038010E2D0AC0EE2DFF27E01BF109EC0DC0
:1013C000FD1D80810E94380101500023A1F78F2D5F
:1013D0009927DF91CF911F910F91FF90EF90DF90B0
:1013E000CF900895CF93DF93CDB7DEB724970FB694
:1013F000F894DEBF0FBECDBF8FB7F8949927209128
:101400005401309155012983232F33272A832091BA
:101410006701309168012B83232F33272C838FBFE3
:1014200024E0AE014F5F5F4F60E088E691E00E94EC
:10143000B10924960FB6F894DEBF0FBECDBFDF9181
:10144000CF9108951F93182F81E090E09093180199
:1014500080931701109239010E9424068FB7F894E7
:101460009927109311018FBF84E00E94B9001F914A
:101470000895CF92DF92EF92FF920F931F93CFB612
:10148000F894DD240E941002DC01CB0166E470E0D8
:101490000E9438165BE0E52EF12CE80EF91EF09262
:1014A0003302E09232020E94900200271127A80125
:1014B00097010E944D03CFBE1F910F91FF90EF90B7
:1014C000DF90CF9008951F93CF93DF938FB7F89459
:1014D000C82FDD271C2F80911701909118010897C4
:1014E000C9F489E00E94E60183E00E948806C09A60
:1014F00081E090E090931801809317018FB7F894E2
:10150000992723E0209311018FBF84E00E94B90046
:10151000CFBF30C0C09880913602882311F085E09B
:1015200001C084E00E94E60183FD09C080E00E94C2
:10153000E60183FF04C085E090E020E003C083E083
:1015400090E021E09093180180931701C09A1FBF8B
:10155000222341F01092210183E00E9488060E941C
:10156000390A08C00E94900220E431E040E050E0D7
:101570000E944D03DF91CF911F910895EF92FF924A
:101580000F931F93CF93DF938B0180916B01909109
:101590006C0186FF40C18F7B8F3309F08EC1C091F3
:1015A0001D01D0911E01588150934B01809149013A
:1015B00090914A018530910509F443C08630910528
:1015C00009F48AC0029709F01FC185E090E090936A
:1015D0004A018093490140913801852F992701964E
:1015E000242F3327281739074CF1B79906C00E99D5
:1015F00004C0451B41504093380140914B014A3291
:10160000E8F44423A1F0BE016F5F7F4F483018F02B
:1016100047E050E007C086E090E090934A01809355
:101620004901552780E090E00E94B20146C1109226
:101630005301C09A84E00E948806E3C00E940B0711
:101640003CC186E090E090934A01809349018091EB
:101650005601882309F439C0809198018823A9F59F
:10166000898185FF32C08F814E812FB7F89433274F
:1016700060916701709168012FBF9927982F882783
:101680005527842B952B8617970759F08F812E812C
:101690009927982F88273327822B932B8F5F9F4F73
:1016A000A1F489818770813081F4C09AC0988AE062
:1016B0000E94E601C09AC09840914B01475028967D
:1016C000BE018FE30E949305F8C040914B01475043
:1016D00055272896BE01A6CFC09A80914F01882336
:1016E00039F484E00E94880680914F01882311F02C
:1016F000B7990AC00E9B08C090912802992321F047
:1017000080914B018B3038F480911D0190911E0126
:101710000E9401023DC0913001F5E0912C02FF27AB
:10172000EE0FFF1FEE0FFF1FEC52FE4F20813181A5
:1017300042815381E0911D01F0911E0121ABBB2735
:10174000A52F942F832F80ABCA01AA27BB2787A779
:10175000252F33274427552726A780912C02992728
:10176000019668E070E00E944C1680932C028091F4
:101770002802815080932802882351F080911D0116
:1017800090911E010E94010210922C0210922802D8
:1017900080914B01FE01E80FF11D808187FF31C070
:1017A000012B79F169816770E0911D01F0911E01B3
:1017B000623019F5A0915701B0915801109709F1C5
:1017C00080911701909118010797D9F4ED019B8141
:1017D00083819817B1F487B78F7E87BF908181E0AE
:1017E0008CA7E90FF11D8291319688A780818F77B0
:1017F00089A780E00E94220A04C0613011F48BE0C6
:101800002AC00E94D60659C010925301C09A84E0A3
:101810000E94880652C08E3309F04FC0C09A809152
:101820001701909118010897C9F4C09889E00E94A7
:10183000E601C09A83E00E94880681E090E09093E0
:101840001801809317018FB7F894992723E020930C
:1018500011018FBF84E00E94B9002FC08091360231
:10186000882349F484E090E0909318018093170155
:101870000E94630A22C083E00E94880683E090E011
:1018800090931801809317010E941002DC01CB0194
:1018900066E371E00E9438166BE0E62EF12CE80E4C
:1018A000F91EF0923301E09232010E94900200276B
:1018B0001127A80197010E944D03DF91CF911F913D
:1018C0000F91FF90EF9008951F920F920FB60F9215
:1018D00011242F933F934F935F936F937F938F9335
:1018E0009F93AF93BF93EF93FF932FB1E0918C0140
:1018F000F0918D01309739F08091740190917501CC
:10190000E80FF91F20838091740190917501019671
:10191000909375018093740180E00E94A100409132
:101920001F015091200180917401909175018417DD
:10193000950718F40E9444011CC060918C017091BD
:101940008D01809130029091310210928D011092A0
:101950008C011092310210923002109220011092EC
:101960001F0110927501109274012FB120E00E94A6
:10197000BE0AFF91EF91BF91AF919F918F917F919F
:101980006F915F914F913F912F910F900FBE0F90EC
:101990001F901895AF92BF92CF92DF92EF92FF9275
:1019A0000F931F93CF93DF93873009F4C7C188301B
:1019B00098F4833009F44CC1843038F4813009F450
:1019C0005BC0823008F0DBC024C0853009F494C1CC
:1019D000863008F0ACC142C18B3009F4D8C28C30DB
:1019E00038F4893009F49BC28A3008F0BCC2E1C1E6
:1019F0008D3039F08D3008F4BAC38E3009F013C43D
:101A000001C480912D02882309F40DC440E051E007
:101A1000D8C380914C01882361F52091D001309189
:101A2000D1014091D2015091D301EFB7F894FF2733
:101A300060918F017091900180919101909192013C
:101A4000E0903401F090350100913601109137019A
:101A50006E0D7F1D801F911FEFBF2093D00130932B
:101A6000D1014093D2015093D30110924C010E94B6
:101A700025040E947B036EC00E947B035B016C0106
:101A80008FB7F8949927109273018FBF80918201CC
:101A900081FF25C080917A0190917B01A0917C010A
:101AA000B0917D01A6019501281B390B4A0B5B0BF8
:101AB000E0907E01F0907F01009180011091810102
:101AC000E21AF30A040B150B3FEFE3163FEFF306A0
:101AD0003FEF03073FE7130711F061E009C09FEFF5
:101AE000E92E9FEFF92E9FEF092F9FE7192F60E056
:101AF00080918B0181FF24C08091830190918401AA
:101B0000A0918501B0918601A6019501281B390B92
:101B10004A0B5B0BDA01C9012091870130918801E2
:101B20004091890150918A01281B390B4A0B5B0BAC
:101B30002E153F05400751071CF479018A0103C0A7
:101B4000662309F470C31E141F04100611062CF03E
:101B5000C601B5010E94A70866C3E092D001F092C9
:101B6000D1010093D2011093D30181E080934C0105
:101B7000A8019701C601B5010E94250454C30FB7FF
:101B8000F894112781E00E94680381E0E82EF12C8F
:101B9000F0921801E0921701109219011092390188
:101BA00010924D010FBF0FB7F89411270E94DA0170
:101BB000F0924A01E09249011092530189B78F7B5C
:101BC00089BF80E488BF8AB780628ABF8AB78F7E68
:101BD0008ABF89B7806489BF0FBF8FB7F894C82FB9
:101BE000DD278091120190911301049719F483E08D
:101BF0000E94E601CFBF0FB7F8941127C09A80E08A
:101C00000E9488060FBF8FB7F894992722E020938F
:101C100094018FBF0E947B0360937A0170937B01D4
:101C200080937C0190937D0184EF91E0A0E0B0E08F
:101C300080937E0190937F01A0938001B0938101F6
:101C4000809182018E7F82608093820181E0AEC0AC
:101C50008FB7F8949927109294016EC08FB7F894BB
:101C60009927F09011018FBF63E081E00E948A0004
:101C7000882359F10FB7F894112710921801109288
:101C8000170187B78F7E87BF87B78F7D87BF83E0B8
:101C90000E948806C09A0FBF0FB7F89411271092C0
:101CA0004A01109249010E94DA01C09A89B78F7BDC
:101CB00089BF0FBF1092130110921201DE98DD98B8
:101CC000DE9A83E00E94B90007C08FB7F894992785
:101CD00022E0209394018FBFC0917101D0917201D5
:101CE0000E94D3018A858F3309F09DC28FEF8093C4
:101CF00009014F2DBE015DC28FB7F894282F3327FD
:101D0000122F80913402882309F581E080933402F8
:101D10008091120190911301049721F481E00E94B7
:101D2000E00003C086E00E94B9001FBF7CC28FB7ED
:101D3000F8949927109234028FBF75C28FB7F89428
:101D4000282F332780911401882311F02FBF6BC2F5
:101D50002FBF80B3992716E0969587951A95E1F7DE
:101D6000182F11709091690180916A018917D9F03B
:101D70001917C9F484E090E0909313018093120145
:101D80008FB7F894992721E0209314018FBF60E06A
:101D900070E08DE10E941C070E94F209C09AC09871
:101DA00082E00E94B90010936A0187E00E94B900A6
:101DB0003AC28FB7F8949927109102018FBF123061
:101DC00009F460C0133030F4112359F0113009F0D8
:101DD0002AC243C0133009F46FC0143009F023C283
:101DE0009BC0C0988FB7F894C82FDD27809112014F
:101DF00090911301029779F583E090E0909313019D
:101E00008093120168E170E08DE10E941C0781E07F
:101E1000809369011092140180B39927B6E09695DA
:101E20008795BA95E1F78170907080936A0187E099
:101E30000E94B90081E00E94E6016FE772E08CE148
:101E40000E941C070E947D070E94430766E57AE214
:101E500087E10E941C07CFBFE6C1C09886E00E94C0
:101E6000E6010E947D070E9443070E94F209C09A82
:101E7000C09883E00E94E601C09A81E00E94880633
:101E800086E094CFC0988FB7F894C82FDD2760E024
:101E900080E00E948A00882311F0CFBF0AC0CFBF24
:101EA00083E50E94380180E00E94380180E00E94B2
:101EB0003801C09A82E02DC08FB7F89499272091FD
:101EC00017018FBF243039F0283041F0223001F55E
:101ED0000E948E07A8C10E94630AA5C1C09889E02C
:101EE0000E94E601C09A83E00E9488068FB7F894AA
:101EF000992721E030E030931801209317018FBF1C
:101F00008FB7F8949927109311018FBF84E04ECFBB
:101F100083E00E94880687C10E94C50584C10FB76F
:101F2000F894112740911F015091200160918C017C
:101F300070918D01809130029091310210928D014B
:101F400010928C01109231021092300210922001F6
:101F500010921F01109275011092740120E00E94EE
:101F6000BE0A0FBF60C12FB7F8943327809150018C
:101F70008093050182E0809316012FBF80910501B7
:101F8000882309F050C1B89AC09888E00FCFA0917B
:101F90001D01B0911E011C91FD01E10FF11D808119
:101FA000881F8827881FED018BA780818F7789A7DD
:101FB0003197808188A7E0911D01F0911E018FB7B4
:101FC000F894992720914E018FBF2223F9F0878141
:101FD00046812FB7F89433276091670170916801AB
:101FE0002FBF9927982F88275527842B952B861745
:101FF000970761F0878126819927982F88273327B3
:10200000822B932B8F5F9F4F09F0A8C01D3008F4DF
:10201000A5C0A0911D01B0911E01ED018985288503
:102020009927582F44273327422B532B6B818FEF4F
:1020300080932E028FB7F894782F20E030E0E6E20C
:10204000F1E0808191818417950731F482818617B0
:1020500009F474C020932E022F5F3F4F3396243033
:10206000310579F77FBF90912E023FB7F8949F3FDB
:1020700021F080911A01891799F420911A01822F79
:102080009927FC01EE0FFF1FE80FF91FEA5DFE4FD5
:102090005183408362832F5F237020931A010CC009
:1020A000892F9927FC01EE0FFF1FE80FF91FEA5D4A
:1020B000FE4F518340836283832F99278FBFFD0199
:1020C00083A5882309F446C082858F3309F042C076
:1020D000878146812FB7F89433276091060170916C
:1020E00007012FBF9927982F88275527842B952BD9
:1020F0008617970761F0ED018F812E819927982F20
:1021000088273327822B932B8F5F9F4F19F5ED0183
:102110008B858630F9F41031E9F48C852D8599276B
:10212000982F88273327822B932B8130910541F4F8
:102130008FB7F89499272BB334E009C07FBF0AC04A
:10214000029741F48FB7F89499272BB332E02327F5
:102150002BBB8FBFB0931E01A0931D018FB7F894C6
:102160009927109253018FBF0E94D6065CC09091B0
:102170005D0180910901981709F455C090930901F8
:102180009923D9F4C0911B01D0911C0160916F017A
:102190008FE38A87CE010E94D407482F5527442316
:1021A00009F441C08FEF8093090160911B01709188
:1021B0001C018B850E94A20936C08FEF8093090114
:1021C00032C090912D02852F8923B9F0E42FFF278B
:1021D000EE0FFF1FEA58FE4F2081318111821082DD
:1021E000852F8095982390932D02442331F429590B
:1021F0003140B1F410920E0113C04F5F483098F493
:10220000550FDFCF80910C01E82FFF27EE0FFF1F46
:10221000EA58FE4F6081718141E00E94640903C069
:10222000550F41E0CECFDF91CF911F910F91FF90DD
:10223000EF90DF90CF90BF90AF90089580912902EA
:102240008F3FB1F0282F3327F901E65CFE4F8081E4
:10225000809329028F3F11F4809335028FEF8083A2
:102260002F3F31F0822F0E94CA0C81E090E0089548
:1022700080E090E008951F931FB7F8944FE050E07E
:102280006FEF70E08AE391E00E94B5168FEF8093C4
:1022900029028093350281E08EBD88E080BF83E013
:1022A00083BF8CB59DB54AE72CB53DB528173907D6
:1022B00008F44150442311F0C901F6CF92B782B718
:1022C0008917E9F32CB53DB592B782B78917E9F3C1
:1022D0008CB59DB5821B930B409625E0969587950E
:1022E0002A95E1F790932B0280932A0213BE83B7BD
:1022F0008EBD8EB580BF12BE1DBC1CBC8FEF86BFCD
:1023000086B780937C0080B7992787709070892B5F
:10231000D1F7D29AD19AD09ADA9AD99AD89A15BA8C
:102320008FEF84BBD498DC981DBC1CBC87B784603D
:1023300087BF8EB5887F84608EBD80E285BF0E9496
:102340001E118823E1F78FEF80935101E6E2F1E05F
:102350008FEF9FEF918380831282339621E0E233E7
:10236000F207C1F70E9410026093CF018091000133
:10237000909101010196AA27BB2780935901909360
:102380005A01A0935B01B0935C0184EF91E09093BC
:102390001E0180931D018E98B89A8C988FEF8093C0
:1023A0006201109293011092940110929501109283
:1023B0009601B89AD69AD59A8FB7F8949927209112
:1023C0000601309107018FBF3093680120936701A8
:1023D00080910801992790935501809354018FE1D2
:1023E00080938E018AE18093CD0181E080934E013C
:1023F00010922F02809356011092980180B7886046
:1024000080BF8BE083BF86EE81BF87B7826087BFC6
:102410000E94A2030E941E118823E1F7812F9927B1
:102420008FBF78940E945B058FB7F894482F55278B
:1024300048C087B7992783709070892B19F4E5E01D
:10244000F0E013C080B7992787709070892BD1F77F
:1024500081B792B7891B8C3030F082B7853F18F472
:10246000E3E0F0E002C0E2E0F0E087B7887BC1F48F
:1024700080917D008B7FA1F46E9912C08AB19091FA
:102480009A00892B807C61F48091740082FD08C0E1
:10249000379B03C081E090E005C085E090E002C07A
:1024A00080E090E025B78E1708F4E82FFF27E45767
:1024B000FF4FE491237E2062E22BE5BF789488955C
:1024C000F894809129028F3F09F4B3CF282F332746
:1024D000F901E65CFE4F8081809329028F3F11F461
:1024E000809335028FEF80832F3F09F4A2CF4FBF37
:1024F000822F0E94CA0C98CF78941F920F920FB629
:102500000F9211242F923F924F925F926F927F927F
:102510008F929F92AF92BF92CF92DF92EF92FF92F3
:102520000F931F932F933F934F935F936F937F93DB
:102530008F939F93AF93BF93CF93DF93EF93FF93CB
:10254000CCB5DDB580E286BF8FB7F894282E0E9407
:1025500090029E01261B370B2901662457FC6094CC
:10256000762C460E571E681E791E80911701909199
:1025700018018530910521F0069709F0E0C0BFC031
:1025800086E090E0909318018093170131E0332E9C
:10259000309252011092190180E00E946803E0918C
:1025A0005701F091580141AABB27A72D962D852DE3
:1025B00080ABC301AA27BB2787A7872D9927AA2706
:1025C000BB2786A7E0915701F091580185A5882384
:1025D00009F484C06081655077274F01860E971EED
:1025E000F4012081E1808281A3809927AA27BB275B
:1025F000BA2FA92F982F8827332744275527522FE2
:10260000442733272227FF24002711278701FF248F
:10261000EE242E293F29402B512BBB24CC24DD2432
:102620002A293B294C295D29822B932BA42BB52BDE
:1026300084199509A609B7098383292F3A2F4B2FAF
:10264000552722839D014427552721838B2F9927C6
:10265000AA27BB278083C09824E0A40180E090E0F3
:102660000E94B109C09AF4012081E1808281A38097
:102670009927AA27BB27BA2FA92F982F8827332756
:1026800044275527522F442733272227FF2400278A
:1026900011278701FF24EE242E293F29402B512B9F
:1026A000BB24CC24DD242A293B294C295D29822BFB
:1026B000932BA42BB52B840D951DA61DB71D8383CD
:1026C000292F3A2F4B2F552722839D014427552729
:1026D00021838B2F9927AA27BB278083E09157015D
:1026E000F0915801818185FF02C03092390183E069
:1026F0000E94880687B78F7E87BF84997AC0109220
:10270000520181E00E946803E0915701F091580165
:10271000818185FF0FC087E090E09093180180933E
:1027200017010E94900220E031E040E050E00E945A
:102730004D0303C080E00E94220A849B5AC080910E
:102740001901882391F580915201882371F511E0D8
:10275000109352010E94680380B320912802283010
:1027600098F4E0912C02E20FFF27E770F070EE0F73
:10277000FF1FEE0FFF1FEC52FE4F4082518262821C
:1027800073822F5F2093280210931901D0936E015A
:10279000C0936D0184992DC0992734E09695879553
:1027A0003A95E1F7182F117001C010E080915201A5
:1027B0008130F9F4109252010E94680310921901BD
:1027C0001123B9F480916D0190916E01C81BD90B52
:1027D0002A9778F480912802882319F081508093F9
:1027E00028028091570190915801009711F00E94A2
:1027F00001022FBEFF91EF91DF91CF91BF91AF9179
:102800009F918F917F916F915F914F913F912F9108
:102810001F910F91FF90EF90DF90CF90BF90AF90FE
:102820009F908F907F906F905F904F903F902F90F0
:102830000F900FBE0F901F90189578941F920F92D3
:102840000FB60F9211241F932F933F934F935F93D3
:102850006F937F938F939F93AF93BF93EF93FF9368
:1028600087B78F7E87BF78941FB7F89480915E01F9
:1028700090915F01A0916001B09161010097A10565
:10288000B10509F051C08091170190911801853070
:10289000910561F18630910530F48330910549F05E
:1028A000049781F51AC087309105F1F0089751F52A
:1028B00014C0869B0FC084E090E090931801809331
:1028C00017010E94900227E030E040E050E00E94B3
:1028D0004D0318C00E94390A15C00E944C05882378
:1028E00089F40E94630A0EC080E00AC089E00E9459
:1028F000E60181E00E94680383E00E94880687E089
:102900000E94220A8091120190911301019771F4A3
:1029100082E090E09093130180931201DE98DE9A9A
:1029200080E00E94E00002C00E94AD02812F992742
:102930008FBFFF91EF91BF91AF919F918F917F9149
:102940006F915F914F913F912F911F910F900FBE0B
:102950000F901F901895ACE2B0E0E1EBF4E10C941D
:102960007E16222E332E442E552E662E772E882E3E
:10297000992EFE013196A8E01192AA95E9F72982D5
:102980003A824B825C826D827E828F829886FE01C3
:102990003996B8E01192BA95E9F7A986BA86CB863E
:1029A000DC86ED86FE860F87188B89819A81AB8144
:1029B000BC8189A79AA7ABA7BCA77C018D018FEF2B
:1029C0009FEFA0E0B0E0E822F9220A231B2389A5AB
:1029D0009AA5ABA5BCA51D014424552489859A85DB
:1029E000AB85BC858DA39EA3AFA3B8A75C016D0189
:1029F0008FEF9FEFA0E0B0E0A822B922CA22DB222D
:102A00008DA19EA1AFA1B8A53D0188249924C8013C
:102A1000B701A60195010E945F1669A37AA38BA353
:102A20009CA3C801B701A40193010E945F167B011A
:102A30008C01C201B101A60195010E945F165B01E4
:102A40006C01C201B101A40193010E945F163B0118
:102A50004C01EA0CFB1C0C1D1D1D89A19AA1ABA108
:102A6000BCA19D01442755272E0D3F1D401F511F1E
:102A70002A153B054C055D0540F480E090E0A1E09F
:102A8000B0E0680E791E8A1E9B1ECA01AA27BB27CA
:102A9000860D971DA81DB91D8D8F9E8FAF8FB8A372
:102AA000A9013327222789A19AA1ABA1BCA1A070BB
:102AB000B070280F391F4A1F5B1F298F3A8F4B8F29
:102AC0005C8FA98CBA8CCB8CDC8CED8CFE8C0F8D42
:102AD00018A1FE01719698E011929A95E9F7ED8A96
:102AE000FE8A0F8B188F2D813E814F8158856DA1F5
:102AF0007EA18FA198A50E945F163B014C012D85F8
:102B00003E854F85588969A57AA58BA59CA50E940D
:102B10005F162D893E894F89588D260F371F481F14
:102B2000591F260D371D481D591D2D8B3E8B4F8B70
:102B3000588F6D887E888F88988C2A2D3B2D4C2D40
:102B40005D2D662D772D882D992DE2E1AC960C94A4
:102B50009A16A0E1B0E0EFEAF5E10C947E16222E81
:102B6000332E442E552E662E772E882E992E002336
:102B700009F466C088E0FE01319611928A95E9F762
:102B800029833A834B835C836D837E838F8298870E
:102B9000E0E2E01B1E16CCF52D813E814F81588569
:102BA000602F772767FD7095DA01C901062E04C0F2
:102BB000B695A795979587950A94D2F78D879E87A6
:102BC000AF87B88B04C0220F331F441F551FEA95EF
:102BD000D2F789819A81AB81BC8104C0B695A79553
:102BE000979587956A95D2F7282B392B4A2B5B2B23
:102BF00029873A874B875C8729843A844B845C8495
:102C00006D847E848F8498881BC01D861E861F86D7
:102C1000188A2E2F332727FD3095309521953F4F69
:102C20008D819E81AF81B88504C0B695A795979593
:102C300087952A95D2F789879A87AB87BC87DCCF9F
:102C4000222D332D442D552D662D772D882D992D30
:102C5000E2E160960C949A16991B79E004C0991FE2
:102C6000961708F0961B881F7A95C9F780950895E6
:102C7000AA1BBB1B51E107C0AA1FBB1FA617B707A2
:102C800010F0A61BB70B881F991F5A95A9F78095BE
:102C90009095BC01CD01089597FB092E07260AD017
:102CA00077FD04D0E5DF06D000201AF47095619519
:102CB0007F4F0895F6F7909581959F4F0895629FF5
:102CC000D001739FF001829FE00DF11D649FE00D24
:102CD000F11D929FF00D839FF00D749FF00D659F85
:102CE000F00D9927729FB00DE11DF91F639FB00D84
:102CF000E11DF91FBD01CF01112408952F923F92CC
:102D00004F925F926F927F928F929F92AF92BF92FB
:102D1000CF92DF92EF92FF920F931F93CF93DF93A7
:102D2000CDB7DEB7CA1BDB0B0FB6F894DEBF0FBE04
:102D3000CDBF09942A88398848885F846E847D8451
:102D40008C849B84AA84B984C884DF80EE80FD8053
:102D50000C811B81AA81B981CE0FD11D0FB6F894C9
:102D6000DEBF0FBECDBFED010895DC0101C06D9344
:0A2D700041505040E0F70895FFCFF6
:0E2D7A000100FFFFFFFF010022FFFFFF01002D
:00000001FF
