S01800006275696C642F6D6963617A2F6D61696E2E73726563E5
S11300000C9449000C9415040C941F040C942904BA
S11300100C9433040C943D040C9447040C94530640
S11300200C9451040C9468000C9468000C940F1305
S11300300C94BB0A0C94DF030C94F5030C945B043E
S11300400C94CE030C94F60C0C9468000C94680089
S11300500C9468000C9468000C9468000C9468007C
S11300600C94EA030C9468000C9468000C946800E7
S11300700C9468000C9468000C9468000C9468005C
S11300800C9468000C9468000C94680000081C1818
S1130090141011241FBECFEFD0E1DEBFCDBF11E09D
S11300A0A0E0B1E0E0E9FDE200E00BBF02C0079090
S11300B00D92AE30B107D9F712E0AEE0B1E001C065
S11300C01D92AF3DB107E1F70E94CE110C94C71603
S11300D00C9400008FB7F894992708958FBF089562
S11300E0282F9FB7F894662349F0E82FFF27ED5691
S11300F0FE4F8081882311F021E006C0E22FFF2704
S1130100ED56FE4F608320E0892F99278FBF822F01
S113011099270895E82F8FB7F894282F332790E074
S1130120FF27ED56FE4F8081861709F491E02FBF1B
S1130130892F99270895882311F06E9A08956E984F
S11301400895882311F06F9A08956F98089580E0B8
S11301500E949B00BA9ABB98B99A6C9A80E00E945C
S1130160A100709A6B986A98689881E00E949B003D
S11301700895282F9FB7F894E82FFF27E85CFE4FD7
S113018080818F3F81F4E091DD02E21771F40BC0AE
S11301902093D10204C0FF27E85CFE4F2083209304
S11301A0DD0220E007C025E005C08091D1028F3F29
S11301B091F7EECF892F99278FBF822F9927089522
S11301C01F93182F81E00E949B001FB9779BFECFDD
S11301D08FB199271F9108958F929F92AF92BF92EA
S11301E0CF92DF92EF92FF920F931F93CF93DF93FF
S11301F08FB7F8949927C090D802D090D9028090F4
S11302008C0190908D01C0917401D0917501209161
S11302101D0130911E019AE0A92EB12CAC0EBD1E19
S11302202A153B0508F459018FBF7401EC0EFD1E1D
S113023086010C0F1D1F14C0C114D10419F0F8015C
S1130240808101C080E00E94E0008114910411F0DB
S1130250F701808321960894E11CF11C0F5F1F4F66
S1130260C5010197C817D90738F381E00E94A1009E
S11302709FB7F894C114D10431F0CC0EDD1EF60101
S113028080818FB901C01FB8D0937501C0937401E8
S1130290892F99278FBF80E090E0DF91CF911F9144
S11302A00F91FF90EF90DF90CF90BF90AF909F9011
S11302B08F9008952FB7F894332750931E014093DD
S11302C01D019093D9028093D80270938D0160939D
S11302D08C0110927501109274012FBF452B29F0E7
S11302E08FB10E94EC009927089589E00E94B9001B
S11302F080E090E008958FB7F894992710929501C3
S11303008FBF089580E880933601109251011092B6
S1130310D4021092D00210924D010895CF93DF932E
S1130320FC01E458FF4F1582DF011696ED011B8294
S11303301A82198280E88683DF91CF9108952F92E3
S11303403F924F925F926F927F928F929F92AF9261
S1130350BF92CF92DF92EF92FF920F931F93CF93AE
S1130360DF93CDB7DEB728970FB6F894DEBF0FBE84
S1130370CDBF2090570130905801409059015090C2
S11303805A016624772488244EE4A42E33E8B32E3D
S1130390CC24DD24EE24FF2400E010E0222D332DB4
S11303A0442D552D662D772D882D90E00E94B6148E
S11303B029833A834B835C836D837E838F83988701
S11303C0822E932EA42EB52E2401350100E20E9424
S11303D0B415A22EB32EC42ED52EC301B201969508
S11303E08795779567956A0D7B1D8C1D9D1D97FFDD
S11303F005C09F776F5F7F4F8F4F9F4F609357016B
S1130400709358018093590190935A0128960FB61E
S1130410F894DEBF0FBECDBFDF91CF911F910F9136
S1130420FF90EF90DF90CF90BF90AF909F908F9010
S11304307F906F905F904F903F902F9008958FB76B
S1130440F89460917801709179012CB53DB506B6A8
S113045002FE04C06F5F7F4F2CB53DB599278FBF57
S113046088279927CB017727662744275527622BAE
S1130470732B842B952B0895EF92FF920F931F9368
S11304800E941F027B018C01209161013091620165
S1130490409163015091640180915C0190915D01F0
S11304A0A0915E01B0915F01820F931FA41FB51F3D
S11304B0E216F3060407150730F082179307A40722
S11304C0B50758F005C082179307A407B507E0F5F0
S11304D0E816F9060A071B07B8F59C01AD012E19A9
S11304E03F09400B510B213060E8360760E04607B6
S11304F060E0560768F180E090E8A0E0B0E0E80E24
S1130500F91E0A1F1B1FE0926101F0926201009321
S113051063011093640180E090E8AFEFBFEFE80E51
S1130520F91E0A1F1B1F20503048404050402093A2
S11305305C0130935D0140935E0150935F0120E0C4
S113054030E840E050E014C020E030E040E050E00B
S11305508093610190936201A0936301B09364015D
S113056010925C0110925D0110925E0110925F0185
S1130570A901B7012CB53DB5C9018E199F09039690
S11305808417950720F0B9016D5F7F4F02C0640F97
S1130590751F6115710511F461E070E061507040E0
S11305A07BBD6ABD80E186BF87B7806187BF1F912D
S11305B00F91FF90EF9008950F931F930FB7F89446
S11305C0112760936101709362018093630190939A
S11305D0640120935C0130935D0140935E0150936C
S11305E05F010E943C020FBF1F910F91089597B7BE
S11305F09F7D97BF90E296BF882319F08EB58064E3
S113060002C08EB58F7B8EBD87B7806287BF80E0C6
S113061090E008957FB7F89462B72091200130915B
S11306202101409122015091230106B601FE0FC021
S113063081B792B7280F311D411D511D2F5F3F4FC8
S11306404F4F5F4F290F311D411D511D04C0260F0F
S1130650311D411D511D872F99278FBFCA01B90133
S11306600895DF92EF92FF920F931F938FB7F89440
S1130670282F3327D22E91B782B746B7981711F097
S113068041FF02C02FBF6AC0809173018823E1F14A
S11306900E940A03E0908F01F09090010091910173
S11306A01091920120913201309133014091340133
S11306B0509135016E197F09800B910B62177307F6
S11306C08407950720F01092730171E01EC02E0D6F
S11306D03F1D401F511F8091200190912101A09145
S11306E02201B0912301281B390B4A0B5B0B273ED7
S11306F031054105510540F4822F223010F070E09D
S113070005C070E082E002C070E086EE682F6150A0
S113071000B601FCFDCF82B7681709F46F5F209122
S11307202001309121014091220150912301DA01ED
S1130730C9010196A11DB11D860F911DA11DB11DF9
S113074082179307A407B50710F4622F609561BF61
S1130750DFBE772319F080E00E94B9001F910F914A
S1130760FF90EF90DF900895AFB7F894BB27E1E0D6
S1130770E093730160938F017093900180939101D2
S113078090939201209332013093330140933401CA
S113079050933501AFBF0E94310308951F920F9209
S11307A00FB60F9211248F9383B783BF00B600FC5A
S11307B0FDCF8F910F900FBE0F901F9018957894D6
S11307C01F920F920FB60F9211240F900FBE0F902D
S11307D01F90189578941F920F920FB60F921124C0
S11307E00F900FBE0F901F90189578941F920F9240
S11307F00FB60F9211242F933F938F939F932FB78C
S1130800F89433278091780190917901019690931F
S11308107901809378012FBF9F918F913F912F9100
S11308200F900FBE0F901F9018951F920F920FB646
S11308300F9211240F900FBE0F901F9018951F92C6
S11308400F920FB60F9211240F900FBE0F901F90AE
S113085018951F920F920FB60F9211240F900FBE8E
S11308600F901F9018951F920F920FB60F9211249C
S11308700F900FBE0F901F9018951F920F920FB6F6
S11308800F9211240F900FBE0F901F9018951F9276
S11308900F920FB60F9211240F900FBE0F901F905E
S11308A018951F920F920FB60F9211240F900FBE3E
S11308B00F901F9018951F920F920FB60F9211244C
S11308C02F933F934F935F936F937F938F939F9354
S11308D0AF93BF93EF93FF9383B783BF00B600FC3E
S11308E0FDCF81B799270196AA27BB272091200124
S11308F0309121014091220150912301280F391F89
S11309004A1F5B1F20932001309321014093220151
S11309105093230178940E943103FF91EF91BF918A
S1130920AF919F918F917F916F915F914F913F9183
S11309302F910F900FBE0F901F9018950F931F9338
S1130940CF93DF93182F8FB7F894C82FDD270C2F80
S113095061E080E00E947000882321F0CFBF85E031
S113096090E024C0809105018823A1F480911401B2
S1130970823081F409C082E0809314011092050151
S11309800E94A700B89AC0981093020180E00FBF9C
S113099099270CC080911401882369F38FB7F894C8
S11309A09927109293018FBF81E0F1CFDF91CF910E
S11309B01F910F9108950F931F93182F0FB7F89459
S11309C061E080E00E947000882371F510930201B9
S11309D0809105018823A9F580911401823089F55D
S11309E088E00CC00E94A70080911401882349F478
S11309F081E08093140110924E018AE00E94B900B4
S1130A002AC0809160018F3F31F5E0910401EE230B
S1130A1011F11CC01092030104C0FF27E05AFE4FDD
S1130A2010821092040117C081E090E002C0880F88
S1130A30991F1A95E2F720911301282B2093130193
S1130A400AC0809114018823E1F6CCCF8091030180
S1130A508F3F19F7DFCF802F99278FBF80E090E079
S1130A601F910F9108951F9383E00E949E0499277C
S1130A70182F882319F083E00E94DB04812F992723
S1130A801F910895CF92DF92EF92FF920F931F93DD
S1130A90CFB6F894DD240E949F01DC01CB0166E40B
S1130AA070E00E9443166BE0E62EF12CE80EF91E6E
S1130AB0F092DB02E092DA020E941F020027112763
S1130AC0A80197010E94DC02CFBE1F910F91FF90F5
S1130AD0EF90DF90CF900895CF92DF92EF92FF9244
S1130AE00F931F93CF93DF938C01F62E6A01E22EAE
S1130AF08FB7F894C82FDD2760E080E00E948A0059
S1130B00882321F0CFBF80E090E01EC0CFBF0F0D3F
S1130B10111D802F80680E94E000F82E169507951D
S1130B20802F807C0E94E0000E2D0AC0EE2DFF274E
S1130B30E01BF109EC0DFD1D80810E94E0000150D5
S1130B400023A1F78F2D9927DF91CF911F910F914A
S1130B50FF90EF90DF90CF900895CF93DF93CDB7C0
S1130B60DEB724970FB6F894DEBF0FBECDBF8FB7A4
S1130B70F894992720915201309153012983232F0E
S1130B8033272A8320916501309166012B83232F1B
S1130B9033272C838FBF24E0AE014F5F5F4F60E0AB
S1130BA088E691E00E946C0524960FB6F894DEBFA7
S1130BB00FBECDBFDF91CF9108951F93CF93DF93E5
S1130BC0182F8FB7F894C82FDD2760E080E00E94CB
S1130BD08A00882321F0CFBF80E090E005C0CFBF1A
S1130BE0812F0E94E0009927DF91CF911F910895F2
S1130BF0EF92FF920F931F93CF93DF93182F7B01F4
S1130C00042F8FB7F894C82FDD2760E080E00E949E
S1130C108A00882321F0CFBF80E090E014C0CFBFCA
S1130C201064812F992790936A01809369010E942F
S1130C30E000182F402F5527B70180E090E00E9474
S1130C405A01812F9927DF91CF911F910F91FF9026
S1130C50EF900895C09860911B0170911C0141E0D0
S1130C608FE30E94F805089582E090E09093480194
S1130C708093470181E08093510120E030E080912E
S1130C800201843011F421E030E0232B29F484E0C4
S1130C900E949E04882319F40E942A06089584E081
S1130CA00E94DB0408951F920F920FB60F92112435
S1130CB02F933F934F935F936F937F938F939F9360
S1130CC0AF93BF93EF93FF938091470190914801B5
S1130CD0019749F482E090E09093480180934701A2
S1130CE00E94340605C080914D018F5F80934D01B1
S1130CF0FF91EF91BF91AF919F918F917F916F91F0
S1130D005F914F913F912F910F900FBE0F901F90C5
S1130D1018951F9380911301882309F04BC01091FB
S1130D2002011F3F09F046C060E00E948A00882348
S1130D3009F440C081E08093220280913701882326
S1130D40E1F11092220285E090E045C0923069F50D
S1130D50C09A8091030120E030E08F3F11F421E03C
S1130D6030E0232BE9F4109305018F3F19F42FEFA2
S1130D7030E00DC0282F3327F901E05AFE4F80815F
S1130D80809303018F3F11F4109304011083209387
S1130D904E0181E0809314018AE00E94B90005C0ED
S1130DA0109305011092140111C08091140188233D
S1130DB069F00FC081E090E00EC080910501909130
S1130DC01401882319F2923021F0EFCF80E00E94C1
S1130DD09B0080E090E01F9108951F93CF93DF93D1
S1130DE09FB7F894C92FDD271C2F90910201981703
S1130DF021F0CFBF81E090E03AC08FEF80930201F1
S1130E00309113013323F1F48FB7F894992710929A
S1130E1093018FBF0E948906CFBF11C020930201A6
S1130E2081E090E002C0880F991F4A95E2F780950F
S1130E3038233093130188E00E94B9001FBF80E07B
S1130E4090E015C080E065E0E32FFF270E9437168D
S1130E50292F492F5527CF01042E02C09595879538
S1130E600A94E2F780FDDACF822F8F5FEFCFDF9114
S1130E70CF911F9108951F93CF93DF938FB7F89469
S1130E80C82FDD271C2F8091470190914801892BA1
S1130E9029F484E00E94ED06CFBF1EC010925101D8
S1130EA080914D01882311F0B79904C00E9908C0B0
S1130EB0882319F0815080934D010E9434060BC0A1
S1130EC081E090E0909348018093470110924D0196
S1130ED084E00E94ED061FBFDF91CF911F9108951A
S1130EE00E948201C09AC09888E00E94DD0588E0D3
S1130EF00E94DD05C09A84E00E94ED060E943B0733
S1130F000895FF920F931F93CF93DF93F82E8B01D5
S1130F108FB7F894C82FDD2760E080E00E948A0034
S1130F20882321F0CFBF80E090E00CC0CFBF8F2D8D
S1130F300E94E000812F99270E94E000802F0E94E8
S1130F40E0009927DF91CF911F910F91FF900895B1
S1130F501F931FB7F89480914C01882319F460E023
S1130F6070E009C060E08091D702882309F461E051
S1130F7081E06827772780915401882319F480E061
S1130F8090E00AC090E080919801882309F491E0F0
S1130F9081E09827892F9927762F6627770F770F77
S1130FA0770FB4E0880F991FBA95E1F7826E9262C9
S1130FB0682B792B81E10E948107812F99278FBFAC
S1130FC01F9108958FB7F8949927609121028FBFDC
S1130FD085E0689FB0011124625D7E4F706488E1F2
S1130FE00E9481070895FF920F931F93CF93DF937D
S1130FF0C0915501D0915601C458DF4F8A81CC5716
S1131000D0409927182F882309F41FE1C0988091B4
S11310104B01811749F0612F77276F717070606EF3
S1131020706885E10E94810710934B01F8808FB7A7
S1131030F894082F112760E080E00E948A0088233A
S113104011F00FBF12C00FBF8EE390E090936A01BE
S1131050809369018EE30E94E000FA944F2D552796
S113106060E070E0CE010E945A01DF91CF911F91A0
S11310700F91FF900895FF920F931F93CF93DF93E7
S1131080EC01F62E61E082E00E947000882319F0E2
S113109085E090E06DC0809123028F5F80932302EE
S11310A081508B838FB7F894082F112762E081E079
S11310B00E948A00882329F40FBF0E947B0181E0EB
S11310C056C0DE01A458BF4F8FB7F894992724E087
S11310D0209394018FBFD0937001C0936F010FBF11
S11310E08DE0F80EFE01F19289819927807290704B
S11310F08983118289819927816498688983892FDA
S113110099278183FD0114821C9211821186108615
S1131110178280E8868361E06093970140916F01B4
S1131120509170018FB7F894282F332780911501BF
S1131130909116018830910511F0019711F02FBF9D
S113114015C082E090E0909316018093150160939E
S1131150DE02509356014093550110921F012FBF98
S11311600E943305882311F40E94F30780E0992735
S1131170DF91CF911F910F91FF900895FA01422FB3
S1131180213718F082E090E0089583876683872FE3
S1131190992787832FB7F894332780915201909130
S11311A053012FBF8483892F992785832FB7F89400
S11311B0332780910601909107012FBF8087892FE3
S11311C09927818780910901882369F01092090188
S11311D08FE38287642FCF010E943B089927282F31
S11311E08823A9F417C0842F992790936E018093C4
S11311F06D01F0931A01E09319018CE00E94B9008B
S113120080910901882349F489E090E008958FEFE3
S113121080930901822F9927089510925B0180E041
S113122090E00895AF92BF92CF92DF92EF92FF9237
S11312300F931F935B016C016091820161FF1FC0DA
S113124020917A0130917B0140917C0150917D0184
S1131250E0907E01F0907F01009180011091810166
S1131260D601C501821B930BA40BB50B8E159F05EC
S1131270A007B10720F0EAE7F1E090E021C0E3E83D
S1131280F1E060918B0161FF73C020918301309183
S113129084014091850150918601E0908701F0908E
S11312A088010091890110918A01A21AB30AC40A23
S11312B0D50AAE14BF04C006D10608F459C091E0A3
S11312C060FF04C080858D7F808708C02E0D3F1D80
S11312D0401F511F2083318342835383992309F094
S11312E047C020917101309172012F5F3F4F3093BD
S11312F072012093710180910E018823C9F58091B8
S113130000018093A5012093140249E951E08FEF75
S113131080939F018093A00186E08093A401809133
S1131320760190917701892B19F5509377014093B9
S113133076018DE78093990180910C018823A9F0AF
S113134010920C0120E76FEF7FEF86E00E94BE0849
S11313509927282F882349F081E080930C0110926B
S1131360770110927601222319F481E080930E0113
S113137081E00E94B9001F910F91FF90EF90DF90E0
S1131380CF90BF90AF9008951F93CF93DF93182F02
S1131390EB01E82FFF27EE0FFF1FEA58FE4F1182E3
S11313A0108210920C01E0917601F0917701309750
S11313B021F08091D50280FF0FC081E080930C0161
S11313C003C08EE00E94B9001123C1F4C959D14071
S11313D0A9F410920E0112C020812D503327678189
S11313E07727762F662786819927682B792BAF017B
S11313F083850E94BE08882339F3E3CFDF91CF9120
S11314001F9108959B0180910C01882349F46091F8
S11314107601709177016217730711F40E94C40971
S113142008951F93182F81E090E090931601809304
S11314301501109237010E9489068FB7F8949927F5
S113144010930F018FBF84E00E94B9001F9108958B
S113145061E081E00E9470008823E9F48FB7F8947A
S1131460282F33278091100190911101892B11F0BD
S11314702FBF20C081E090E0909311018093100170
S11314802FBFDD9A0E941F0224E130E040E050E0CB
S11314900E94DC020FC062E081E00E948A0088237F
S11314A019F089E090E0089561E081E00E948A00EB
S11314B0882319F080E090E0089585E090E0089595
S11314C01F93CF93DF938FB7F894C82FDD271C2F7A
S11314D080911501909116010897C9F489E00E9442
S11314E0DD0583E00E94ED06C09A81E090E09093D0
S11314F01601809315018FB7F894992723E0209360
S11315000F018FBF84E00E94B900CFBF30C0C098E4
S11315108091DE02882311F085E001C084E00E94FE
S1131520DD0583FD09C080E00E94DD0583FF04C062
S113153085E090E020E003C083E090E021E0909318
S1131540160180931501C09A1FBF222341F0109207
S11315501F0183E00E94ED060E94420508C00E941C
S11315601F0220E431E040E050E00E94DC02DF9101
S1131570CF911F91089578941F920F920FB60F92F6
S113158011241F932F933F934F935F936F937F93F4
S11315908F939F93AF93BF93EF93FF9387B78F7E00
S11315A087BF78941FB7F89480915C0190915D0196
S11315B0A0915E01B0915F010097A105B10509F00A
S11315C051C080911501909116018530910561F10A
S11315D08630910530F48330910549F0049781F504
S11315E01AC087309105F1F0089751F514C0869B15
S11315F00FC084E090E090931601809315010E943F
S11316001F0227E030E040E050E00E94DC0218C0F6
S11316100E94420515C00E943305882389F40E9464
S1131620600A0EC080E00AC089E00E94DD0581E006
S11316300E94F70283E00E94ED0687E00E94110AEF
S11316408091100190911101019771F482E090E072
S11316509093110180931001DE98DE9A80E00E943D
S1131660DB0402C00E943C02812F99278FBFFF91A7
S1131670EF91BF91AF919F918F917F916F915F9106
S11316804F913F912F911F910F900FBE0F901F907C
S11316901895EF92FF920F931F93CF93DF938B01D3
S11316A08091690190916A0186FF47C18F7B8F33D6
S11316B009F095C1C0911B01D0911C015881509330
S11316C0490180914701909148018530910509F4C1
S11316D043C08630910509F48AC0029709F026C1F7
S11316E085E090E090934801809347014091360152
S11316F0852F99270196242F3327281739074CF172
S1131700B79906C00E9904C0451B41504093360159
S1131710409149014E37E8F44423A1F0BE016F5FC4
S11317207F4F483018F047E050E007C086E090E073
S11317309093480180934701552780E090E00E94F0
S11317405A014DC110925101C09A84E00E94ED06E5
S1131750EAC00E94700743C186E090E0909348017C
S11317608093470180915401882309F439C0809102
S113177098018823A9F5898185FF32C08F814E8124
S11317802FB7F894332760916501709166012FBFDC
S11317909927982F88275527842B952B86179707E9
S11317A059F08F812E819927982F88273327822BF0
S11317B0932B8F5F9F4FA1F489818770813081F4CF
S11317C0C09AC0988AE00E94DD05C09AC0984091F2
S11317D0490147502896BE018FE30E94F805FFC0D7
S11317E040914901475055272896BE01A6CFC09A7B
S11317F080914D01882339F484E00E94ED068091A4
S11318004D01882311F0B7990AC00E9B08C090912E
S1131810D002992321F0809149018B3038F48091D2
S11318201B0190911C010E948E013FC0913011F563
S1131830E091D402FF27EE0FFF1FEE0FFF1FE85DBC
S1131840FD4F2081318142815381E0911B01F09150
S11318501C01E458FF4F2187BB27A52F942F832F0A
S11318608087CA01AA27BB278783252F33274427CC
S1131870552726838091D4029927019668E070E069
S11318800E9457168093D4028091D0028150809395
S1131890D002882351F080911B0190911C010E9479
S11318A08E011092D4021092D00280914901FE015F
S11318B0E80FF11D808187FF36C0012BA1F16981FA
S11318C06770C0911B01D0911C01623041F5E09119
S11318D05501F0915601309731F1809115019091A5
S11318E01601079701F593818B819817E1F487B767
S11318F08F7E87BFDF01A458BF4F988181E0FD012F
S11319008483FE01E90FF11D829131968C938081CD
S11319108F77FD01818380E00E94110A04C0613049
S113192011F48BE02AC00E943B0759C01092510168
S1131930C09A84E00E94ED0652C08E3309F04FC075
S1131940C09A80911501909116010897C9F4C09826
S113195089E00E94DD05C09A83E00E94ED0681E0E3
S113196090E090931601809315018FB7F89499270E
S113197023E020930F018FBF84E00E94B9002FC0A1
S11319808091DE02882349F484E090E0909316016C
S1131990809315010E94600A22C083E00E94ED0634
S11319A083E090E090931601809315010E949F01BB
S11319B0DC01CB0166E371E00E9443162BE0E22ECA
S11319C0F12CE80EF91EF0923101E09230010E94F0
S11319D01F0200271127A80197010E94DC02DF9152
S11319E0CF911F910F91FF90EF9008951F920F9246
S11319F00FB60F9211242F933F934F935F936F93DE
S1131A007F938F939F93AF93BF93EF93FF932FB1E4
S1131A10E0918C01F0918D01309739F0809174013F
S1131A2090917501E80FF91F2083809174019091C2
S1131A3075010196909375018093740180E00E9472
S1131A40A10040911D0150911E018091740190915B
S1131A5075018417950718F40E94EC001CC060916E
S1131A608C0170918D018091D8029091D9021092CD
S1131A708D0110928C011092D9021092D80210920A
S1131A801E0110921D0110927501109274012FB164
S1131A9020E00E94490BFF91EF91BF91AF919F917C
S1131AA08F917F916F915F914F913F912F910F9003
S1131AB00FBE0F901F901895AF92BF92CF92DF92F6
S1131AC0EF92FF920F931F93CF93DF93873009F424
S1131AD0C7C1883098F4833009F44CC1843038F499
S1131AE0813009F45BC0823008F0DBC024C085304B
S1131AF009F494C1863008F0ACC142C18B3009F4BA
S1131B00D8C28C3038F4893009F49BC28A3008F08A
S1131B10BCC2E1C18D3039F08D3008F4BBC38E30C6
S1131B2009F014C402C48091D502882309F40EC4B8
S1131B3040E051E0D9C380914A01882361F52091A6
S1131B402402309125024091260250912702EFB7DA
S1131B50F894FF2760918F01709190018091910119
S1131B6090919201E0903201F090330100913401A0
S1131B70109135016E0D7F1D801F911FEFBF2093C3
S1131B802402309325024093260250932702109298
S1131B904A010E94B4030E940A036EC00E940A0311
S1131BA05B016C018FB7F8949927109273018FBF72
S1131BB08091820181FF25C080917A0190917B01FF
S1131BC0A0917C01B0917D01A6019501281B390BE0
S1131BD04A0B5B0BE0907E01F0907F010091800145
S1131BE010918101E21AF30A040B150B3FEFE3167F
S1131BF03FEFF3063FEF03073FE7130711F061E000
S1131C0009C0FFEFEF2EFFEFFF2EFFEF0F2FFFE7CF
S1131C101F2F60E080918B0181FF24C0809183019C
S1131C2090918401A0918501B0918601A60195014E
S1131C30281B390B4A0B5B0BDA01C9012091870180
S1131C40309188014091890150918A01281B390BF8
S1131C504A0B5B0B2E153F05400751071CF4790115
S1131C608A0103C0662309F471C31E141F041006FD
S1131C7011062CF0C601B5010E94120967C3E09257
S1131C802402F0922502009326021093270281E099
S1131C9080934A01A8019701C601B5010E94B403CB
S1131CA055C30FB7F894112781E00E94F702E1E0D1
S1131CB0EE2EF12CF0921601E0921501109217010C
S1131CC01092370110924B010FBF0FB7F8941127F0
S1131CD00E948201F0924801E09247011092510162
S1131CE089B78F7B89BF80E488BF8AB780628ABF47
S1131CF08AB78F7E8ABF89B7806489BF0FBF8FB7C9
S1131D00F894C82FDD278091100190911101049758
S1131D1019F483E00E94DD05CFBF0FB7F8941127B3
S1131D20C09A80E00E94ED060FBF8FB7F894992700
S1131D3022E0209394018FBF0E940A0360937A01EA
S1131D4070937B0180937C0190937D018AEF90E0F6
S1131D50A0E0B0E080937E0190937F01A093800186
S1131D60B0938101809182018E7F82608093820191
S1131D7081E0AEC08FB7F8949927109294016EC099
S1131D808FB7F8949927F0900F018FBF63E081E03B
S1131D900E948A00882359F10FB7F89411271092F2
S1131DA016011092150187B78F7E87BF87B78F7D85
S1131DB087BF83E00E94ED06C09A0FBF0FB7F89467
S1131DC0112710924801109247010E948201C09A83
S1131DD089B78F7B89BF0FBF109211011092100138
S1131DE0DE98DD98DE9A83E00E94B90007C08FB7C1
S1131DF0F894992722E0209394018FBFC0916F013A
S1131E00D09170010E947B018A858F3309F09EC2B4
S1131E108FEF809309014F2DBE015EC28FB7F894F6
S1131E20282F3327122F8091DC02882309F581E0C3
S1131E308093DC028091100190911101049721F4A8
S1131E4081E00E94DB0403C086E00E94B9001FBF4A
S1131E507DC28FB7F89499271092DC028FBF76C2A7
S1131E608FB7F894282F332780911201882311F01B
S1131E702FBF6CC22FBF80B3992776E096958795C4
S1131E807A95E1F7182F117090916701809168019C
S1131E908917D9F01917C9F484E090E090931101DF
S1131EA0809310018FB7F894992721E020931201B1
S1131EB08FBF60E070E08DE10E9481070E94AD0554
S1131EC0C09AC09882E00E94B9001093680187E02C
S1131ED00E94B9003BC28FB7F89499271091020170
S1131EE08FBF123009F460C0133030F4112359F05D
S1131EF0113009F02BC243C0133009F46FC0143001
S1131F0009F024C29BC0C0988FB7F894C82FDD276E
S1131F108091100190911101029779F583E090E08E
S1131F20909311018093100168E170E08DE10E94AB
S1131F30810781E0809367011092120180B3992791
S1131F4066E0969587956A95E1F781709070809325
S1131F50680187E00E94B90081E00E94DD056FE717
S1131F6072E08CE10E9481070E94E2070E94A807A8
S1131F7066E57AE287E10E948107CFBFE7C1C09896
S1131F8086E00E94DD050E94E2070E94A8070E94E5
S1131F90AD05C09AC09883E00E94DD05C09A81E037
S1131FA00E94ED0686E094CFC0988FB7F894C82FAE
S1131FB0DD2760E080E00E948A00882311F0CFBF13
S1131FC00AC0CFBF83E50E94E00080E00E94E000E9
S1131FD080E00E94E000C09A82E02DC08FB7F894A0
S1131FE09927209115018FBF243039F0283041F012
S1131FF0223001F50E94F307A9C10E94600AA6C11C
S1132000C09889E00E94DD05C09A83E00E94ED0635
S11320108FB7F894992721E030E03093160120938C
S113202015018FBF8FB7F894992710930F018FBFB5
S113203084E04ECF83E00E94ED0688C10E942A0608
S113204085C10FB7F894112740911D0150911E01CD
S113205060918C0170918D018091D8029091D90288
S113206010928D0110928C011092D9021092D80214
S113207010921E0110921D011092750110927401AC
S113208020E00E94490B0FBF61C12FB7F89433279A
S113209080914E018093050182E0809314012FBF4B
S11320A080910501882309F051C1B89AC09888E04D
S11320B00FCFE0911B01F0911C01DF01A458BF4F29
S11320C01081E10FF11D8081881F8827881FED0191
S11320D08B8380818F778983319780818C93E09182
S11320E01B01F0911C018FB7F894992720914C01A2
S11320F08FBF2223F9F0878146812FB7F8943327C5
S113210060916501709166012FBF9927982F8827E8
S11321105527842B952B8617970761F08781268195
S11321209927982F88273327822B932B8F5F9F4FD4
S113213009F0A7C01D3008F4A4C0A0911B01B09100
S11321401C01ED01898528859927582F44273327B9
S1132150422B532B6B818FEF8093D6028FB7F89469
S1132160782F20E030E0E4E2F1E08081918184176F
S1132170950731F48281861709F47CC02093D60236
S11321802F5F3F4F33962430310579F77FBF90910D
S1132190D6023FB7F8949F3F21F080911801891728
S11321A099F420911801822F9927FC01EE0FFF1F4B
S11321B0E80FF91FEC5DFE4F5183408362832F5F6C
S11321C02370209318010CC0892F9927FC01EE0F6E
S11321D0FF1FE80FF91FEC5DFE4F518340836283BC
S11321E0832F99278FBFA458BF4FFD018381AC571C
S11321F0B040882309F441C0ED018A858F3309F08A
S11322003CC08F814E812FB7F8943327609106012B
S1132210709107012FBF9927982F88275527842B62
S1132220952B8617970761F0FD01878126819927F1
S1132230982F88273327822B932B8F5F9F4FE9F4A6
S1132240ED018B858630C9F41D37B9F4A558BF4F0D
S11322508C91AB57B040992780FF02C0DA9801C037
S1132260DA9A81FF02C0D99801C0D99A82FF04C0CA
S1132270D89803C07FBF01C0D89AB0931C01A09323
S11322801B018FB7F8949927109251018FBF0E94B8
S11322903B075CC090915B0180910901981709F498
S11322A055C0909309019923D9F4C0911901D09193
S11322B01A0160916D018FE38A87CE010E943B0869
S11322C0482F5527442309F441C08FEF8093090117
S11322D06091190170911A018B850E94020A36C01F
S11322E08FEF8093090132C09091D502852F892305
S11322F0B9F0E42FFF27EE0FFF1FEA58FE4F2081AD
S1132300318111821082852F809598239093D50274
S1132310442331F429593140B1F410920E0113C011
S11323204F5F483098F4550FDFCF80910C01E82FB0
S1132330FF27EE0FFF1FEA58FE4F6081718141E0D5
S11323400E94C40903C0550F41E0CECFDF91CF9165
S11323501F910F91FF90EF90DF90CF90BF90AF90BF
S113236008958091D1028F3FB1F0282F3327F901CE
S1132370E85CFE4F80818093D1028F3F11F48093FB
S1132380DD028FEF80832F3F31F0822F0E945C0D9E
S113239081E090E0089580E090E008951F931FB7D6
S11323A0F8944FE050E06FEF70E088E391E00E9412
S11323B0C0168FEF8093D1028093DD0281E08EBD41
S11323C088E080BF83E083BF8CB59DB54AE72CB518
S11323D03DB52817390708F44150442311F0C901C9
S11323E0F6CF92B782B78917E9F32CB53DB592B70A
S11323F082B78917E9F38CB59DB5821B930B409680
S1132400A5E096958795AA95E1F79093D3028093DA
S1132410D20213BE83B78EBD8EB580BF12BE1DBC63
S11324201CBC8FEF86BF86B780937C0080B799274A
S113243087709070892BD1F7D29AD19AD09ADA9A70
S1132440D99AD89A15BA8FEF84BBD498DC981DBC5E
S11324501CBC87B7846087BF8EB5887F84608EBDBF
S113246080E285BF0E94B1118823E1F78FEF80934A
S11324704F01E4E2F1E08FEF9FEF918380831282BA
S1132480339621E0E033F207C1F70E949F01609385
S1132490230280910001909101010196AA27BB2794
S11324A08093570190935801A0935901B0935A0116
S11324B088E492E090931C0180931B018E98B89A53
S11324C08C988FEF80936001109293011092940185
S11324D01092950110929601B89AD69AD59A8FB710
S11324E0F894992720910601309107018FBF30930A
S11324F06601209365018091080199279093530107
S1132500809352018FE180938E018AE180932102AE
S113251081E080934C011092D70280935401109271
S1132520980180B7886080BF8BE083BF86EE81BF4F
S113253087B7826087BF0E9431030E94B11188234C
S1132540E1F7812F99278FBF78940E94280A8FB7CB
S1132550F894482F552748C087B7992783709070FF
S1132560892B19F4E5E0F0E013C080B79927877050
S11325709070892BD1F781B792B7891B8C3030F0DA
S113258082B7853F18F4E3E0F0E002C0E2E0F0E057
S113259087B7887BC1F480917D008B7FA1F46E990D
S11325A012C08AB190919A00892B807C61F4809149
S11325B0740082FD08C0379B03C081E090E005C031
S11325C085E090E002C080E090E025B78E1708F423
S11325D0E82FFF27E457FF4FE491237E2062E22B8C
S11325E0E5BF78948895F8948091D1028F3F09F4DF
S11325F0B3CF282F3327F901E85CFE4F8081809305
S1132600D1028F3F11F48093DD028FEF80832F3F3F
S113261009F4A2CF4FBF822F0E945C0D98CF78940B
S11326201F920F920FB60F9211242F923F924F9246
S11326305F926F927F928F929F92AF92BF92CF924E
S1132640DF92EF92FF920F931F932F933F934F9339
S11326505F936F937F938F939F93AF93BF93CF9326
S1132660DF93EF93FF93CCB5DDB580E286BF8FB7E0
S1132670F894282E0E941F029E01261B370B290165
S1132680662457FC6094762C460E571E681E791EED
S113269080911501909116018530910521F00697DE
S11326A009F0E6C0C5C086E090E0909316018093DF
S11326B0150131E0332E309250011092170180E061
S11326C00E94F702E0915501F0915601E458FF4F42
S11326D04186BB27A72D962D852D8087C301AA2768
S11326E0BB278783872D9927AA27BB278683E09159
S11326F05501F0915601E458FF4F8581EC57F040A5
S1132700882309F484C06081655077274F01860EC1
S1132710971EF4012081E1808281A3809927AA2752
S1132720BB27BA2FA92F982F88273327442755274B
S1132730522F442733272227FF24002711278701FC
S1132740FF24EE242E293F29402B512BBB24CC24DB
S1132750DD242A293B294C295D29822B932BA42B88
S1132760B52B84199509A609B7098383292F3A2F14
S11327704B2F552722839D014427552721838B2FD7
S11327809927AA27BB278083C09824E0A40180E06E
S113279090E00E946C05C09AF4012081E18082815E
S11327A0A3809927AA27BB27BA2FA92F982F882758
S11327B0332744275527522F442733272227FF2422
S11327C0002711278701FF24EE242E293F29402BBF
S11327D0512BBB24CC24DD242A293B294C295D29F7
S11327E0822B932BA42BB52B840D951DA61DB71DF1
S11327F08383292F3A2F4B2F552722839D0144276A
S1132800552721838B2F9927AA27BB278083E09103
S11328105501F0915601818185FF02C03092370144
S113282083E00E94ED0687B78F7E87BF84997AC0C4
S11328301092500181E00E94F702E0915501F0915D
S11328405601818185FF0FC087E090E090931601C7
S1132850809315010E941F0220E031E040E050E027
S11328600E94DC0203C080E00E94110A849B5AC0CB
S113287080911701882391F580915001882371F587
S113288011E0109350010E94F70280B32091D0020E
S1132890283098F4E091D402E20FFF27E770F0703B
S11328A0EE0FFF1FEE0FFF1FE85DFD4F40825182C8
S11328B0628273822F5F2093D00210931701D0930A
S11328C06C01C0936B0184992DC09927B4E096954F
S11328D08795BA95E1F7182F117001C010E0809127
S11328E050018130F9F4109250010E94F7021092C5
S11328F017011123B9F480916B0190916C01C81BED
S1132900D90B2A9778F48091D002882319F081504A
S11329108093D0028091550190915601009711F057
S11329200E948E012FBEFF91EF91DF91CF91BF9155
S1132930AF919F918F917F916F915F914F913F9153
S11329402F911F910F91FF90EF90DF90CF90BF9048
S1132950AF909F908F907F906F905F904F903F903B
S11329602F900F900FBE0F901F901895ACE2B0E01F
S1132970ECEBF4E10C948916222E332E442E552EC2
S1132980662E772E882E992EFE013196A8E011929C
S1132990AA95E9F729823A824B825C826D827E8213
S11329A08F829886FE013996B8E01192BA95E9F7BC
S11329B0A986BA86CB86DC86ED86FE860F87188BC1
S11329C089819A81AB81BC8189A79AA7ABA7BCA74F
S11329D07C018D018FEF9FEFA0E0B0E0E822F922A7
S11329E00A231B2389A59AA5ABA5BCA51D014424D4
S11329F0552489859A85AB85BC858DA39EA3AFA3F9
S1132A00B8A75C016D018FEF9FEFA0E0B0E0A822B2
S1132A10B922CA22DB228DA19EA1AFA1B8A53D0196
S1132A2088249924C801B701A60195010E946A1659
S1132A3069A37AA38BA39CA3C801B701A401930142
S1132A400E946A167B018C01C201B101A6019501A5
S1132A500E946A165B016C01C201B101A4019301D9
S1132A600E946A163B014C01EA0CFB1C0C1D1D1D47
S1132A7089A19AA1ABA1BCA19D01442755272E0D84
S1132A803F1D401F511F2A153B054C055D0540F4B1
S1132A9080E090E0A1E0B0E0680E791E8A1E9B1EE3
S1132AA0CA01AA27BB27860D971DA81DB91D8D8FA6
S1132AB09E8FAF8FB8A3A9013327222789A19AA19A
S1132AC0ABA1BCA1A070B070280F391F4A1F5B1FB7
S1132AD0298F3A8F4B8F5C8FA98CBA8CCB8CDC8C72
S1132AE0ED8CFE8C0F8D18A1FE01719698E0119269
S1132AF09A95E9F7ED8AFE8A0F8B188F2D813E8116
S1132B004F8158856DA17EA18FA198A50E946A1658
S1132B103B014C012D853E854F85588969A57AA5D1
S1132B208BA59CA50E946A162D893E894F89588DD4
S1132B30260F371F481F591F260D371D481D591DC5
S1132B402D8B3E8B4F8B588F6D887E888F88988C09
S1132B502A2D3B2D4C2D5D2D662D772D882D992DFD
S1132B60E2E1AC960C94A516A0E1B0E0EAEBF5E145
S1132B700C948916222E332E442E552E662E772E33
S1132B80882E992E002309F466C088E0FE01319650
S1132B9011928A95E9F729833A834B835C836D8389
S1132BA07E838F829887E0E2E01B1E16CCF52D8190
S1132BB03E814F815885602F772767FD7095DA0134
S1132BC0C901062E04C0B695A795979587950A94D2
S1132BD0D2F78D879E87AF87B88B04C0220F331F2F
S1132BE0441F551FEA95D2F789819A81AB81BC8134
S1132BF004C0B695A795979587956A95D2F7282B23
S1132C00392B4A2B5B2B29873A874B875C8729848E
S1132C103A844B845C846D847E848F8498881BC042
S1132C201D861E861F86188A2E2F332727FD309572
S1132C30309521953F4F8D819E81AF81B88504C029
S1132C40B695A795979587952A95D2F789879A87F8
S1132C50AB87BC87DCCF222D332D442D552D662D1B
S1132C60772D882D992DE2E160960C94A516991B79
S1132C7079E004C0991F961708F0961B881F7A956F
S1132C80C9F780950895AA1BBB1B51E107C0AA1F71
S1132C90BB1FA617B70710F0A61BB70B881F991FF9
S1132CA05A95A9F780959095BC01CD01089597FB9D
S1132CB0092E07260AD077FD04D0E5DF06D00020D0
S1132CC01AF4709561957F4F0895F6F79095819564
S1132CD09F4F0895629FD001739FF001829FE00D82
S1132CE0F11D649FE00DF11D929FF00D839FF00D87
S1132CF0749FF00D659FF00D9927729FB00DE11D33
S1132D00F91F639FB00DE11DF91FBD01CF0111240F
S1132D1008952F923F924F925F926F927F928F927B
S1132D209F92AF92BF92CF92DF92EF92FF920F9356
S1132D301F93CF93DF93CDB7DEB7CA1BDB0B0FB660
S1132D40F894DEBF0FBECDBF09942A88398848881D
S1132D505F846E847D848C849B84AA84B984C884B3
S1132D60DF80EE80FD800C811B81AA81B981CE0FAA
S1132D70D11D0FB6F894DEBF0FBECDBFED0108958F
S1132D80DC0101C06D9341505040E0F70895FFCF3E
S1112D900100FFFFFFFF010022FFFFFF010013
S9030000FC
