:100000000C9460010C9450070C945A070C946407EC
:100010000C946E070C9478070C9482070C94960C41
:100020000C948C070C947F010C947F010C94781B2A
:100030000C94AF100C941A070C9430070C943E0BE0
:100040000C9409070C94EA120C9439090C947F0162
:100050000C94B5090C947F010C947F010C947F01E2
:100060000C9425070C940B0B0C94EA0A0C94F50ADB
:100070000C94000B0C941E0B0C94CD0A0C947F0175
:100080000C94DF0A0C947F010C947F018013B3134E
:100090003314A714AD14FC1417151E1559150F169B
:1000A000321646163C17681740184C184E1851184F
:1000B000761870135F1978138E19000021104220F2
:1000C00063308440A550C660E770088129914AA139
:1000D0006BB18CC1ADD1CEE1EFF1311210027332B0
:1000E0005222B5529442F772D662399318837BB389
:1000F0005AA3BDD39CC3FFF3DEE362244334200440
:100100000114E664C774A44485546AA54BB52885D8
:100110000995EEE5CFF5ACC58DD55336722611168F
:100120003006D776F6669556B4465BB77AA7199728
:100130003887DFF7FEE79DD7BCC7C448E558866817
:10014000A7784008611802282338CCC9EDD98EE978
:10015000AFF9488969990AA92BB9F55AD44AB77AEF
:10016000966A711A500A333A122AFDDBDCCBBFFBC8
:100170009EEB799B588B3BBB1AABA66C877CE44CFF
:10018000C55C222C033C600C411CAEED8FFDECCD18
:10019000CDDD2AAD0BBD688D499D977EB66ED55ECF
:1001A000F44E133E322E511E700E9FFFBEEFDDDF68
:1001B000FCCF1BBF3AAF599F788F8891A981CAB1F4
:1001C000EBA10CD12DC14EF16FE18010A100C23026
:1001D000E3200450254046706760B9839893FBA3E1
:1001E000DAB33DC31CD37FE35EF3B1029012F32276
:1001F000D2323542145277625672EAB5CBA5A89531
:1002000089856EF54FE52CD50DC5E234C324A014C5
:1002100081046674476424540544DBA7FAB79987C0
:10022000B8975FE77EF71DC73CD7D326F236910615
:10023000B01657667676154634564CD96DC90EF908
:100240002FE9C899E9898AB9ABA944586548067865
:100250002768C018E1088238A3287DCB5CDB3FEB20
:100260001EFBF98BD89BBBAB9ABB754A545A376AB5
:10027000167AF10AD01AB32A923A2EFD0FED6CDDF0
:100280004DCDAABD8BADE89DC98D267C076C645C05
:10029000454CA23C832CE01CC10C1FEF3EFF5DCF00
:1002A0007CDF9BAFBABFD98FF89F176E367E554E55
:1002B000745E932EB23ED10EF01E00081C1814106E
:1002C00011241FBECFEFD0E1DEBFCDBF11E0A0E013
:1002D000B1E0E6EAFEE300E00BBF02C007900D923A
:1002E000AE31B107D9F714E0AEE1B1E001C01D9223
:1002F000AB38B107E1F70E94CD190C94521F0C9452
:1003000000008FB7F894992708958FBF0895282F7C
:100310009FB7F894662349F0E82FFF27E55BFC4F71
:100320008081882311F021E006C0E22FFF27E55BE2
:10033000FC4F608320E0892F99278FBF822F992758
:100340000895E82F8FB7F894282F332790E0FF27E0
:10035000E55BFC4F8081861709F491E02FBF892F60
:1003600099270895882311F06E9A08956E9808953C
:10037000882311F06F9A08956F98089580E00E9485
:10038000B201BA9ABB98B99A6C9A80E00E94B801FF
:10039000709A6B986A98689881E00E94B2010895FB
:1003A0000F931F93CF93DF93182F8FB7F894C82F15
:1003B000DD270C2F61E080E00E948701882321F077
:1003C000CFBF85E090E024C080910D018823A1F487
:1003D00080912901823081F409C082E08093290153
:1003E00010920D010E94BE01B89AC09810930A01A4
:1003F00080E00FBF99270CC080912901882369F301
:100400008FB7F894992710924B038FBF81E0F1CFFB
:10041000DF91CF911F910F910895282F9FB7F894E6
:10042000E82FFF27E05AFE4F80818F3F81F4E09153
:100430008504E21771F40BC02093FD0304C0FF276D
:10044000E05AFE4F20832093850420E007C025E07A
:1004500005C08091FD038F3F91F7EECF892F99273B
:100460008FBF822F992708951F93182F81E00E9434
:10047000B2011FB9779BFECF8FB199271F910895C5
:100480008F929F92AF92BF92CF92DF92EF92FF92A4
:100490000F931F93CF93DF938FB7F8949927C09052
:1004A0007D04D0907E048090400390904103C091E1
:1004B0003302D091340220914401309145019AE0F9
:1004C000A92EB12CAC0EBD1E2A153B0508F459010E
:1004D0008FBF7401EC0EFD1E86010C0F1D1F14C092
:1004E000C114D10419F0F801808101C080E00E949C
:1004F00034028114910411F0F7018083219608944D
:10050000E11CF11C0F5F1F4FC5010197C817D907E8
:1005100038F381E00E94B8019FB7F894C114D10468
:1005200031F0CC0EDD1EF60180818FB901C01FB8FD
:10053000D0933402C0933302892F99278FBF80E074
:1005400090E0DF91CF911F910F91FF90EF90DF909E
:10055000CF90BF90AF909F908F9008952FB7F89451
:100560003327509345014093440190937E04809338
:100570007D04709341036093400310923402109203
:1005800033022FBF452B29F08FB10E9440029927DB
:10059000089589E00E940D0280E090E008958FB7F1
:1005A000F894992710924D038FBF08958A5991406E
:1005B00051F410921F01E2E0F1E082E0819391E0BA
:1005C000EA30F907D9F708951F931FB7F89480917F
:1005D0008104882341F48DE00E940D02882319F4E0
:1005E00081E080938104812F99278FBF1F91089507
:1005F000382FFA01422F213618F082E090E008955A
:100600006683872F992785833387418780913501BA
:1006100090913601892B19F085E090E008952FB76D
:10062000F894332785E08093380110923901F093D4
:100630003401E093330182E090E09093360180939F
:10064000350110923B0110923A01445F409337010B
:100650002FBF9FB7F89480912402882311F020E0E7
:1006600006C081E0809324021092250221E0892FA8
:1006700099278FBF222329F00E94E40280E090E0B6
:100680000895109236011092350181E090E00895AE
:10069000EF92FF920F931F93CF93DF93182F7B015D
:1006A000042FE82FFF27EE0FFF1FEB5CFD4F118299
:1006B000108210921B01A0913502B0913602109762
:1006C00021F080917A0480FF0EC081E080931B01AD
:1006D00003C084E10E940D021123C9F4602FC701F9
:1006E0000E94D60214C0FD01359624813327ED0106
:1006F0006D817727762F662781819927682B792B43
:10070000AD0186810E94F802882331F3E2CFDF91A8
:10071000CF911F910F91FF90EF9008958FB7F894AC
:1007200060913702709138022CB53DB506B602FED5
:1007300004C06F5F7F4F2CB53DB599278FBF8827C9
:100740009927CB017727662744275527622B732BE0
:10075000842B952B0895EF92FF920F931F930E9485
:100760008E037B018C01209114023091150240917F
:100770001602509117028091960190919701A091D5
:100780009801B0919901820F931FA41FB51FE21623
:10079000F3060407150730F082179307A407B5077F
:1007A00058F005C082179307A407B507E0F5E816CF
:1007B000F9060A071B07B8F59C01AD012E193F0980
:1007C000400B510B213060E8360760E0460760E0DF
:1007D000560768F180E090E8A0E0B0E0E80EF91E6E
:1007E0000A1F1B1FE0921402F092150200931602DA
:1007F0001093170280E090E8AFEFBFEFE80EF91E0C
:100800000A1F1B1F20503048404050402093960143
:1008100030939701409398015093990120E030E87C
:1008200040E050E014C020E030E040E050E0809331
:10083000140290931502A0931602B093170210921F
:100840009601109297011092980110929901A901B6
:10085000B7012CB53DB5C9018E199F0903968417C0
:10086000950720F0B9016D5F7F4F02C0640F751FBF
:100870006115710511F461E070E0615070407BBD5D
:100880006ABD80E186BF87B7806187BF1F910F91E6
:10089000FF90EF9008950F931F930FB7F8941127CF
:1008A00060931402709315028093160290931702BE
:1008B00020939601309397014093980150939901AA
:1008C0000E94AB030FBF1F910F9108959FB7F8943B
:1008D000809143038A3011F020E006C020E080912F
:1008E0008301843009F421E0892F99278FBF2223C7
:1008F00049F08FE00E940D028FB7F894992710926B
:10090000300106C08FB7F894992721E02093300179
:100910008FBF08952FB7F89433278CB95E9A2FBFF5
:100920000895FC016115710519F481E090E00895C6
:1009300080911C0290911D02892B19F085E090E0B6
:10094000089570935C0360935B03F0931D02E09342
:100950001C02109285011092840181E0809386012F
:100960005E9A569A808121E030E030938501209391
:1009700084010E948A0480E090E008958091410102
:100980008E7F809341018EE780937A0161E070E071
:100990008AE791E00E9491049927089580E8809366
:1009A0005D0110928201109279041092FC03109262
:1009B0007E010895CF93DF93FC01E459FF4F158228
:1009C000DF011696ED011B821A82198280E8868368
:1009D000DF91CF9108952F923F924F925F926F9245
:1009E0007F928F929F92AF92BF92CF92DF92EF92BF
:1009F000FF920F931F93CF93DF93CDB7DEB7289766
:100A00000FB6F894DEBF0FBECDBF20908D013090A1
:100A10008E0140908F0150909001662477248824A5
:100A2000AEE4AA2EF3E8BF2ECC24DD24EE24FF246E
:100A300000E010E0222D332D442D552D662D772D0D
:100A4000882D90E00E941F1D29833A834B835C838D
:100A50006D837E838F839887822E932EA42EB52E4E
:100A60002401350100E20E941D1EA22EB32EC42EC9
:100A7000D52EC301B20196958795779567956A0D36
:100A80007B1D8C1D9D1D97FF05C09F776F5F7F4F5E
:100A90008F4F9F4F60938D0170938E0180938F01D4
:100AA0009093900128960FB6F894DEBF0FBECDBF8D
:100AB000DF91CF911F910F91FF90EF90DF90CF903A
:100AC000BF90AF909F908F907F906F905F904F906E
:100AD0003F902F90089597B79F7D97BF90E296BF64
:100AE000882319F08EB5806402C08EB58F7B8EBDD1
:100AF00087B7806287BF80E090E008957FB7F89461
:100B000062B72091470130914801409149015091CD
:100B10004A0106B601FE0FC081B792B7280F311DFA
:100B2000411D511D2F5F3F4F4F4F5F4F290F311D0B
:100B3000411D511D04C0260F311D411D511D872F20
:100B400099278FBFCA01B9010895AF92BF92CF9282
:100B5000DF92EF92FF920F931F93CF93DF935B018E
:100B60006C016091460261FF1FC020913E023091EE
:100B70003F024091400250914102E0904202F090C9
:100B800043020091440210914502D601C501821B27
:100B9000930BA40BB50B8E159F05A007B10720F092
:100BA000EEE3F2E090E021C0E7E4F2E060914F0272
:100BB00061FF84C020914702309148024091490270
:100BC00050914A02E0904B02F0904C0200914D028D
:100BD00010914E02A21AB30AC40AD50AAE14BF0479
:100BE000C006D10608F46AC091E060FF04C08085A9
:100BF0008D7F808708C02E0D3F1D401F511F208311
:100C0000318342835383992309F058C080911F0197
:100C1000882309F053C0C6EAD1E0A2E0B1E0FE01AA
:100C20008D91992781831082329681E0E63BF80707
:100C3000B9F780912001909121018093B701892F0C
:100C40009927888B2FB7F89433278BB394E08927A3
:100C50008BBB2FBFAF014C51504088E08093A00167
:100C600010929F0185E08093A501809135029091BB
:100C70003602892B19F5509336024093350282E1F2
:100C80008093A30180911B018823A9F010921B017E
:100C900022E168E070E085E00E94F8029927282FA1
:100CA000882349F081E080931B0110923602109254
:100CB0003502222319F481E080931F0181E00E9414
:100CC0000D02DF91CF911F910F91FF90EF90DF9078
:100CD000CF90BF90AF900895DF92EF92FF920F9365
:100CE0001F938FB7F894282F3327D22E91B782B74E
:100CF00046B7981711F041FF02C02FBF6AC080911C
:100D00002A028823E1F10E947E05E0904703F090DB
:100D100048030091490310914A03209159013091F1
:100D20005A0140915B0150915C016E197F09800B63
:100D3000910B621773078407950720F010922A021F
:100D400071E01EC02E0D3F1D401F511F80914701B5
:100D500090914801A0914901B0914A01281B390B9B
:100D60004A0B5B0B273E31054105510540F4822FAC
:100D7000223010F070E005C070E082E002C070E048
:100D800086EE682F615000B601FCFDCF82B7681770
:100D900009F46F5F2091470130914801409149016A
:100DA00050914A01DA01C9010196A11DB11D860FBA
:100DB000911DA11DB11D82179307A407B50710F45B
:100DC000622F609561BFDFBE772319F080E00E943B
:100DD0000D021F910F91FF90EF90DF900895AFB734
:100DE000F894BB27E1E0E0932A02609347037093F5
:100DF00048038093490390934A0320935901309309
:100E00005A0140935B0150935C01AFBF0E946C0696
:100E100008951F920F920FB60F9211248F9383B7EC
:100E200083BF00B600FCFDCF8F910F900FBE0F90D7
:100E30001F90189578941F920F920FB60F9211245D
:100E40000F900FBE0F901F90189578941F920F92DD
:100E50000FB60F9211240F900FBE0F901F90189590
:100E600078941F920F920FB60F9211242F933F93F5
:100E70008F939F932FB7F8943327809137029091E7
:100E80003802019690933802809337022FBF9F91CA
:100E90008F913F912F910F900FBE0F901F9018953B
:100EA0001F920F920FB60F9211240F900FBE0F904A
:100EB0001F9018951F920F920FB60F9211240F904A
:100EC0000FBE0F901F9018951F920F920FB60F92A2
:100ED00011240F900FBE0F901F9018951F920F9224
:100EE0000FB60F9211240F900FBE0F901F90189500
:100EF0001F920F920FB60F9211240F900FBE0F90FA
:100F00001F9018951F920F920FB60F9211240F90F9
:100F10000FBE0F901F9018951F920F920FB60F9251
:100F200011240F900FBE0F901F901895EAEBF0E080
:100F30006927660FF11DE60FF11DC895982F802DCA
:100F40003196C89590250895982F80913C0188236B
:100F500089F5992379F531E030933C0180911401B2
:100F600080933D0120913101822F817080935E0139
:100F70008091190190911A0190933F0180933E0155
:100F8000809132018093400132273170267EE32F19
:100F9000FF27EE0FFF1FEB5EFE4F80819181909344
:100FA0001A0180931901232B2093310182E10E94C1
:100FB0000D0208958091310180FF02C08B7F01C036
:100FC0008D7F8093310108950F931F93082F162F63
:100FD000809183018130D9F0813038F0823009F47A
:100FE0004AC0833009F00EC159C0002309F43EC144
:100FF00010925503109254031092450310925D0312
:101000001092870110923A02109239021FC10023F8
:1010100009F02CC18091390290913A020E94960702
:1010200090933A028093390282E080938301109377
:101030005D03143409F0E6C00BC18695869503C0A4
:10104000809131018695817009F0DCC08091310179
:10105000992311F0846001C08260809331018091F6
:101060003101877E886080933101109232018FEFC9
:1010700080931401FBC0002309F0C4C06093870172
:101080008091390290913A020E94960790933A0219
:101090008093390283E080938301E8C08091450307
:1010A0008F3F09F4AFC0002309F447C0823008F431
:1010B000A9C0E0915403EE2309F4D1C04E2F415052
:1010C000E42FFF27EC5AFC4F82819927382F2227E3
:1010D000442311F4E2E002C0E42FE150FF27EC5A70
:1010E000FC4F82819927282B392B809139029091CE
:1010F0003A022817390709F085C080E00E94A4074A
:101100003091870180912B0220912C02982F9F5FB4
:10111000963008F090E0921709F474C0E82FFF278A
:10112000E55DFD4F32838F5F80932B02863010F098
:1011300010922B020E94E40265C0823008F44EC077
:10114000E0915503FF27EC5AFC4F8281482F552729
:10115000342F20913101822F869586958695837054
:1011600099278130910519F00297F9F40EC0277E76
:10117000206120933101442311F485E001C080E017
:10118000809332013093140110C08091320188376E
:1011900060F4E0911901F0911A01E80FF11D40830C
:1011A000809132018F5F8093320180915503E82F47
:1011B000FF27EC5AFC4F62818F5F80935503833089
:1011C00010F01092550377278091390290913A02DE
:1011D0000E94960790933A028093390280915403BB
:1011E000E82FFF27EC5AFC4F12838F5F8093540344
:1011F000833010F010925403809145038F5F8093E9
:10120000450334C010925503109254031092830189
:101210001092450310925D031092870110923A02DA
:1012200010923902809141018D7F8093410181E0CC
:101230000E94A40780913001882331F084E08093DC
:1012400083010E94660412C0002381F081E023CF55
:1012500080913101982F917080FDEFCEF1CE809179
:1012600058039927382F222742E036CF1F910F913C
:1012700008951F920F920FB60F9211242F933F9350
:101280004F935F936F937F938F939F93AF93BF938E
:10129000EF93FF935F9B3DC06CB1E0913B02F091F7
:1012A0003C023097F9F080917F0490918004E80F20
:1012B000F91F608301969093800480937F042091AE
:1012C000890430918A048217930718F110923C0226
:1012D00010923B02809142038330D9F057981092CC
:1012E000420317C06E3719F460E081E010C08091AE
:1012F00041016D3721F48260809341010AC081FF72
:1013000005C08D7F8093410180E2682780E00E94C4
:10131000E407FF91EF91BF91AF919F918F917F91E2
:101320006F915F914F913F912F910F900FBE0F9052
:101330001F901895982F8D57823068F48091410145
:1013400081608093410180E28927809344038DE787
:1013500080937A0102C090937A0161E070E08AE79D
:1013600091E00E9491049927089578941F920F921A
:101370000FB60F921124FF920F931F932F933F9359
:101380004F935F936F937F938F939F93AF93BF938D
:10139000CF93DF93EF93FF932091840130918501E8
:1013A00080915B0390915C032817390780F4E091EA
:1013B0001C02F0911D02E20FF31F80812F5F3F4F4F
:1013C00030938501209384010E948A04D0C010923A
:1013D0001D0210921C0210928601569880914101C4
:1013E00080FF0EC08E7F80934101809144038093E3
:1013F0007A0161E070E08AE791E00E949104B7C051
:1014000080914303843009F494C0853040F48230E5
:1014100021F18330B8F5813009F0A4C00DC08630C9
:1014200009F495C0863008F48BC0873009F496C063
:10143000883009F097C099C0809113020E949A09E0
:10144000182F83E0809343036091130280918704F7
:10145000909188040E94960710C0809100040E9419
:101460009A09182F83E080934303609100048091D0
:101470008704909188040E94960790938804809333
:1014800087046EC0FFB6F894E0913D02FF27EE0F8F
:10149000FF1FED5DFD4F80810E949A09082F10917A
:1014A0003D02C12FDD27FE01EE0FFF1FED5DFD4F59
:1014B000608180918704909188040E9496079093A0
:1014C000880480938704209195012F5F20939501D4
:1014D000113039F580913801E0913301F0913401F8
:1014E000E80FF11DE0818F5F809338019091370103
:1014F000981730F482E08093240240E050E002C06C
:101500004E2F5527DE01AA0FBB1FFD01EE5DFD4FDB
:101510008081823031F02F3F21F0AD5DBD4F4C9383
:1015200003C084E080934303102F8F2D99278FBF32
:1015300017C0809187040E949A09182F85E00BC07C
:10154000809188040E949A09182F86E004C00E94A6
:10155000BE04182F87E08093430302C088E003C0D5
:10156000112329F089E0809343030E94E402FF9154
:10157000EF91DF91CF91BF91AF919F918F917F912B
:101580006F915F914F913F912F911F910F91FF901C
:101590000F900FBE0F901F9018951F920F920FB6CD
:1015A0000F9211248F9380919B0087FF02C080913E
:1015B0009C008F910F900FBE0F901F9018957894FC
:1015C0001F920F920FB60F9211240F900FBE0F9023
:1015D0001F90189578941F920F920FB60F921124B6
:1015E0000F900FBE0F901F90189578941F920F9236
:1015F0000FB60F9211240F900FBE0F901F901895E9
:1016000078941F920F920FB60F9211240F900FBE75
:101610000F901F90189578941F920F920FB60F920B
:1016200011248F939F9380918800909189009F91BE
:101630008F910F900FBE0F901F90189578941F9266
:101640000F920FB60F9211242F933F938F939F9376
:101650002FB7F894332780919201909193010196CE
:1016600090939301809392012FBF9F918F913F910F
:101670002F910F900FBE0F901F9018951F920F92F1
:101680000FB60F9211242F933F934F935F936F9355
:101690007F938F939F93AF93BF93EF93FF9383B702
:1016A00083BF00B600FCFDCF81B799270196AA271A
:1016B000BB27209147013091480140914901509149
:1016C0004A01280F391F4A1F5B1F2093470130939F
:1016D00048014093490150934A0178940E946C0656
:1016E000FF91EF91BF91AF919F918F917F916F91FA
:1016F0005F914F913F912F910F900FBE0F901F90D0
:1017000018950F931F93182F0FB7F89461E080E09E
:101710000E948701882371F510930A0180910D01C1
:101720008823A9F580912901823089F588E00CC0D1
:101730000E94BE0180912901882349F481E08093B1
:10174000290110927F018AE00E940D022AC0809137
:1017500012028F3F31F5E0910C01EE2311F11CC014
:1017600010920B0104C0FF27EE5EFD4F1082109215
:101770000C0117C081E090E002C0880F991F1A95F4
:10178000E2F720912801282B209328010AC080919C
:1017900029018823E1F6CCCF80910B018F3F19F707
:1017A000DFCF802F99278FBF80E090E01F910F91AE
:1017B00008951F9383E00E94D0019927182F882352
:1017C00019F083E00E94810B812F99271F910895C2
:1017D00061E081E00E9487018823E9F48FB7F894E3
:1017E000282F33278091250190912601892B11F014
:1017F0002FBF20C081E090E09093260180932501C7
:101800002FBFDD9A0E948E0324E130E040E050E0DB
:101810000E944B040FC062E081E00E94A101882376
:1018200019F089E090E0089561E081E00E94A10153
:10183000882319F080E090E0089585E090E0089515
:101840001F93CF93DF93182F8FB7F894C82FDD27FE
:1018500060E080E00E94A101882321F0CFBF80E0FA
:1018600090E005C0CFBF812F0E9434029927DF91FD
:10187000CF911F910895EF92FF920F931F93CF93F3
:10188000DF93182F7B01042F8FB7F894C82FDD2723
:1018900060E080E00E94A101882321F0CFBF80E0BA
:1018A00090E014C0CFBF1064812F992790931F023E
:1018B00080931E020E943402182F402F5527B70133
:1018C00080E090E00E94AE02812F9927DF91CF91B6
:1018D0001F910F91FF90EF900895C0986091420181
:1018E0007091430141E08FE30E943B0C089582E038
:1018F00090E0909378018093770181E0809382015A
:1019000020E030E080910A01843011F421E030E0E1
:10191000232B29F484E00E94D001882319F40E942B
:101920006D0C089584E00E94810B08951F920F9220
:101930000FB60F9211242F933F934F935F936F93A2
:101940007F938F939F93AF93BF93EF93FF93809178
:10195000770190917801019749F482E090E09093AB
:101960007801809377010E94770C05C080917E01F9
:101970008F5F80937E01FF91EF91BF91AF919F9117
:101980008F917F916F915F914F913F912F910F9028
:101990000FBE0F901F9018951F93809128018823E8
:1019A00009F04BC010910A011F3F09F046C060E0EA
:1019B0000E94A101882309F440C081E08093520372
:1019C00080915F018823E1F11092520385E090E05D
:1019D00045C0923069F5C09A80910B0120E030E05B
:1019E0008F3F11F421E030E0232BE9F410930D0137
:1019F0008F3F19F42FEF30E00DC0282F3327F90166
:101A0000EE5EFD4F808180930B018F3F11F41093A8
:101A10000C01108320937F0181E0809329018AE0EB
:101A20000E940D0205C010930D011092290111C0F2
:101A300080912901882369F00FC081E090E00EC0F9
:101A400080910D0190912901882319F2923021F0A3
:101A5000EFCF80E00E94B20180E090E01F910895F6
:101A60001F93CF93DF939FB7F894C92FDD271C2FC7
:101A700090910A01981721F0CFBF81E090E03AC021
:101A80008FEF80930A01309128013323F1F48FB74F
:101A9000F894992710924B038FBF0E94CC0CCFBFB4
:101AA00011C020930A0181E090E002C0880F991FC5
:101AB0004A95E2F7809538233093280188E00E9408
:101AC0000D021FBF80E090E015C080E065E0E32FCD
:101AD000FF270E94A01E292F492F5527CF01042E32
:101AE00002C0959587950A94E2F780FDDACF822FA0
:101AF0008F5FEFCFDF91CF911F9108951F93CF9309
:101B0000DF938FB7F894C82FDD271C2F80917701C2
:101B100090917801892B29F484E00E94300DCFBF89
:101B20001EC01092820180917E01882311F0B79926
:101B300004C00E9908C0882319F0815080937E015B
:101B40000E94770C0BC081E090E090937801809325
:101B5000770110927E0184E00E94300D1FBFDF915B
:101B6000CF911F9108950E94CE04C09AC09888E03A
:101B70000E94200C88E00E94200CC09A84E00E9401
:101B8000300D0E947E0D0895FF920F931F93CF9307
:101B9000DF93F82E8B018FB7F894C82FDD2760E014
:101BA00080E00E94A101882321F0CFBF80E090E077
:101BB0000CC0CFBF8F2D0E943402812F99270E9425
:101BC0003402802F0E9434029927DF91CF911F9118
:101BD0000F91FF9008951F931FB7F89480917D0196
:101BE000882319F460E070E009C060E080917C0413
:101BF000882309F461E081E06827772780918A01D2
:101C0000882319F480E090E00AC090E080915003AE
:101C1000882309F491E081E09827892F9927762F6E
:101C20006627770F770F770FF4E0880F991FFA95E3
:101C3000E1F7826E9262682B792B81E10E94C40DDC
:101C4000812F99278FBF1F9108958FB7F8949927F7
:101C5000609151038FBF85E0689FB0011124625DE0
:101C60007E4F706488E10E94C40D0895FF920F9327
:101C70001F93CF93DF93C0918B01D0918C01C459F6
:101C8000DF4F8A81CC56D0409927182F882309F43A
:101C90001FE1C09880917C01811749F0612F77275F
:101CA0006F717070606E706885E10E94C40D109352
:101CB0007C01F8808FB7F894082F112760E080E04E
:101CC0000E94A101882311F00FBF12C00FBF8EE345
:101CD00090E090931F0280931E028EE30E943402D4
:101CE000FA944F2D552760E070E0CE010E94AE02BD
:101CF000DF91CF911F910F91FF900895FF920F9365
:101D00001F93CF93DF93EC01F62E61E082E00E94F7
:101D10008701882319F085E090E06DC0809153031E
:101D20008F5F8093530381508B838FB7F894082F74
:101D3000112762E081E00E94A101882329F40FBFEE
:101D40000E94CF0281E056C0DE01A459BF4F8FB779
:101D5000F894992724E020934C038FBFD093290255
:101D6000C09328020FBF8DE0F80EFE01F192898129
:101D70009927807290708983118289819927816463
:101D800098688983892F99278183FD0114821C9289
:101D9000118211861086178280E8868361E0609345
:101DA0004F0340912802509129028FB7F894282FB1
:101DB000332780912A0190912B018830910511F0F1
:101DC000019711F02FBF15C082E090E090932B0196
:101DD00080932A016093860450938C0140938B0179
:101DE000109246012FBF0E94D90B882311F40E9444
:101DF000360E80E09927DF91CF911F910F91FF90D0
:101E00000895FA01422F213618F082E090E00895FB
:101E100083876683872F992787832FB7F894332783
:101E200080918801909189012FBF8483892F992700
:101E300085832FB7F894332780910E0190910F017D
:101E40002FBF8087892F992781878091110188234F
:101E500069F0109211018FE38287642FCF010E94F5
:101E60007E0E9927282F8823A9F417C0842F99273D
:101E70009093270280932602F0932F01E0932E0186
:101E80008CE00E940D0280911101882349F489E0C1
:101E900090E008958FEF80931101822F9927089584
:101EA0001092910180E090E008951F93CF93DF930B
:101EB000182FEB01E82FFF27EE0FFF1FEE57FC4F07
:101EC0001182108210921C01E0918203F091830331
:101ED000309721F08091940180FF0FC081E08093C2
:101EE0001C0103C086E10E940D021123C1F4C15000
:101EF000D440A9F410921E0112C020812D50332726
:101F000067817727762F662786819927682B792B1B
:101F1000AF0183850E94010F882339F3E3CFDF915E
:101F2000CF911F9108959B0180911C01882349F452
:101F300060918203709183036217730711F40E940A
:101F4000550F0895CF92DF92EF92FF920F931F9358
:101F5000CF93DF938C01F62E6A01E22E8FB7F894AF
:101F6000C82FDD2760E080E00E94A101882321F0D6
:101F7000CFBF80E090E01EC0CFBF0F0D111D802F9E
:101F800080680E943402F82E16950795802F807C79
:101F90000E9434020E2D0AC0EE2DFF27E01BF1092E
:101FA000EC0DFD1D80810E94340201500023A1F739
:101FB0008F2D9927DF91CF911F910F91FF90EF9077
:101FC000DF90CF900895CF93DF93CDB7DEB72497FE
:101FD0000FB6F894DEBF0FBECDBF8FB7F894992728
:101FE00020918801309189012983232F33272A8367
:101FF00020911802309119022B83232F33272C8331
:102000008FBF24E0AE014F5F5F4F60E088E691E054
:102010000E94A20F24960FB6F894DEBF0FBECDBF6C
:10202000DF91CF9108951F93182F81E090E0909356
:102030002B0180932A0110925F010E94CC0C8FB774
:10204000F8949927109324018FBF84E00E940D0219
:102050001F910895CF92DF92EF92FF920F931F93FB
:10206000CFB6F894DD240E94EB04DC01CB0166E4DA
:1020700070E00E94AC1E5BE0E52EF12CE80EF91E2C
:10208000F0928304E09282040E948E0300271127BD
:10209000A80197010E944B04CFBE1F910F91FF90A2
:1020A000EF90DF90CF9008951F93CF93DF938FB77A
:1020B000F894C82FDD271C2F80912A0190912B01C5
:1020C0000897C9F489E00E94200C83E00E94300D3B
:1020D000C09A81E090E090932B0180932A018FB702
:1020E000F894992723E0209324018FBF84E00E9475
:1020F0000D02CFBF30C0C09880918604882311F0B4
:1021000085E001C084E00E94200C83FD09C080E0CE
:102110000E94200C83FF04C085E090E020E003C013
:1021200083E090E021E090932B0180932A01C09AF4
:102130001FBF222341F01092460183E00E94300D20
:102140000E942A1008C00E948E0320E431E040E083
:1021500050E00E944B04DF91CF911F910895789435
:102160001F920F920FB60F9211241F932F933F933C
:102170004F935F936F937F938F939F93AF93BF938F
:10218000EF93FF9387B78F7E87BF78941FB7F8943C
:102190008091960190919701A0919801B091990139
:1021A0000097A105B10509F051C080912A019091D5
:1021B0002B018530910561F18630910530F4833033
:1021C000910549F0049781F51AC087309105F1F027
:1021D000089751F514C0869B0FC084E090E090935F
:1021E0002B0180932A010E948E0327E030E040E01B
:1021F00050E00E944B0418C00E942A1015C00E9493
:10220000D90B882389F40E9454100EC080E00AC0C4
:1022100089E00E94200C81E00E946B0583E00E940F
:10222000300D87E00E9413108091250190912601C6
:10223000019771F482E090E090932601809325014C
:10224000DE98DE9A80E00E94810B02C00E94AB0300
:10225000812F99278FBFFF91EF91BF91AF919F91F0
:102260008F917F916F915F914F913F912F911F912E
:102270000F900FBE0F901F901895EF92FF920F9343
:102280001F93CF93DF938B0180911E0290911F02C9
:1022900086FF47C18F7B8F3309F095C1C091420102
:1022A000D0914301588150937901809177019091A9
:1022B00078018530910509F443C08630910509F411
:1022C0008AC0029709F026C185E090E090937801DA
:1022D0008093770140915D01852F99270196242FE6
:1022E0003327281739074CF1B79906C00E9904C057
:1022F000451B415040935D01409179014E36E8F411
:102300004423A1F0BE016F5F7F4F483018F047E0D3
:1023100050E007C086E090E09093780180937701C9
:10232000552780E090E00E94AE024DC110928201DC
:10233000C09A84E00E94300DEAC00E94B30D43C1F0
:1023400086E090E0909378018093770180918A01F4
:10235000882309F439C0809150038823A9F5898125
:1023600085FF32C08F814E812FB7F894332760915B
:102370001802709119022FBF9927982F8827552787
:10238000842B952B8617970759F08F812E819927DB
:10239000982F88273327822B932B8F5F9F4FA1F491
:1023A00089818770813081F4C09AC0988AE00E9448
:1023B000200CC09AC0984091790147502896BE01E0
:1023C0008FE30E943B0CFFC0409179014750552795
:1023D0002896BE01A6CFC09A80917E01882339F449
:1023E00084E00E94300D80917E01882311F0B7991E
:1023F0000AC00E9B08C09091FC03992321F08091A4
:1024000079018B3038F480914201909143010E9410
:10241000DA043FC0913011F5E0917904FF27EE0F07
:10242000FF1FEE0FFF1FEE59FC4F208131814281CB
:102430005381E0914201F0914301E459FF4F21871C
:10244000BB27A52F942F832F8087CA01AA27BB27DC
:102450008783252F332744275527268380917904A6
:102460009927019668E070E00E94C01E809379046D
:102470008091FC0381508093FC03882351F080916C
:102480004201909143010E94DA0410927904109263
:10249000FC0380917901FE01E80FF11D808187FF27
:1024A00036C0012BA1F169816770C0914201D091C2
:1024B0004301623041F5E0918B01F0918C0130973E
:1024C00031F180912A0190912B01079701F59381B9
:1024D0008B819817E1F487B78F7E87BFDF01A459FE
:1024E000BF4F988181E0FD018483FE01E90FF11D5A
:1024F000829131968C9380818F77FD01818380E07A
:102500000E94131004C0613011F48BE02AC00E94B5
:102510007E0D59C010928201C09A84E00E94300D55
:1025200052C08E3309F04FC0C09A80912A01909119
:102530002B010897C9F4C09889E00E94200CC09A2A
:1025400083E00E94300D81E090E090932B01809316
:102550002A018FB7F894992723E0209324018FBF95
:1025600084E00E940D022FC080918604882349F4E4
:1025700084E090E090932B0180932A010E945410F4
:1025800022C083E00E94300D83E090E090932B0105
:1025900080932A010E94EB04DC01CB0166E371E029
:1025A0000E94AC1E6BE0E62EF12CE80EF91EF092B4
:1025B0005801E09257010E948E0300271127A801BD
:1025C00097010E944B04DF91CF911F910F91FF90D3
:1025D000EF9008951F920F920FB60F9211242F9330
:1025E0003F934F935F936F937F938F939F93AF939B
:1025F000BF93EF93FF932FB1E0914003F09141031C
:10260000309739F08091330290913402E80FF91F2E
:10261000208380913302909134020196909334028A
:102620008093330280E00E94B801409144015091B0
:10263000450180913302909134028417950718F474
:102640000E9440021CC06091400370914103809140
:102650007D0490917E0410924103109240031092E9
:102660007E0410927D041092450110924401109254
:102670003402109233022FB120E00E943D11FF91ED
:10268000EF91BF91AF919F918F917F916F915F91EA
:102690004F913F912F910F900FBE0F901F90189563
:1026A000AF92BF92CF92DF92EF92FF920F931F9360
:1026B000CF93DF93CDB7DEB724970FB6F894DEBF84
:1026C0000FBECDBFE82FFF27E731F10508F037C671
:1026D000EA5BFF4FEE0FFF1F0590F491E02D099488
:1026E00080917A04882309F42AC690E011E0C4C5D9
:1026F00080919401882309F422C640E051E0EDC5A1
:1027000080917B01882361F520915E0330915F0306
:102710004091600350916103EFB7F894FF276091F7
:102720004703709148038091490390914A03E090D8
:102730005901F0905A0100915B0110915C016E0DFE
:102740007F1D801F911FEFBF20935E0330935F03B7
:10275000409360035093610310927B010E94EF0647
:102760000E947E056DC00E947E055B016C018FB7E3
:10277000F894992710922A028FBF8091460281FF18
:1027800025C080913E0290913F02A0914002B091FD
:102790004102A6019501281B390B4A0B5B0BE09007
:1027A0004202F09043020091440210914502E21A65
:1027B000F30A040B150B3FEFE3163FEFF3063FEF71
:1027C00003073FE7130711F061E009C0FFEFEF2EA9
:1027D000FFEFFF2EFFEF0F2FFFE71F2F60E080912D
:1027E0004F0281FF21C08091470290914802A09141
:1027F0004902B0914A02A6019501281B390B4A0BE8
:102800005B0BDA01C90120914B0230914C024091DF
:102810004D0250914E02281B390B4A0B5B0B2E15B3
:102820003F05400751072CF0662309F488C5A8012D
:10283000970112161306140615062CF0C601B501F1
:102840000E94A5057CC520935E0330935F034093EF
:1028500060035093610381E080937B01C601B50161
:102860000E94EF066CC50FB7F894112781E00E9413
:102870006B05E1E0EE2EF12CF0922B01E0922A01A3
:1028800010922C0110925F0110927C010FBF0FB7C4
:10289000F89411270E94CE04F0927801E09277011B
:1028A0001092820189B78F7B89BF80E488BF8AB785
:1028B00080628ABF8AB78F7E8ABF89B7806489BFEA
:1028C0000FBF8FB7F894082F1127809125019091A1
:1028D0002601049719F483E00E94200C0FBF0FB764
:1028E000F8941127C09A80E00E94300D0FBF8FB777
:1028F000F894992722E020934C038FBF0E947E0515
:1029000060933E0270933F02809340029093410295
:1029100088EE93E0A0E0B0E08093420290934302FF
:10292000A0934402B0934502809146028E7F82605C
:102930008093460281E00E940D02E2E0F1E082E035
:10294000819331E0EA30F307D9F78EE0AFC08FB75B
:10295000F894992710924C036FC08FB7F894992779
:10296000F09024018FBF63E081E00E94A1018823E1
:1029700059F10FB7F894112710922B0110922A01E8
:1029800087B78F7E87BF87B78F7D87BF83E00E9421
:10299000300DC09A0FBF0FB7F8941127109278012D
:1029A000109277010E94CE04C09A89B78F7B89BFAD
:1029B0000FBF1092260110922501DE98DD98DE9A55
:1029C00083E00E940D0207C08FB7F894992722E098
:1029D00020934C038FBF00912802109129020E947E
:1029E000CF02F80182858F3309F0A9C48FEF80935D
:1029F00011014F2DB80164C28FB7F894282F3327E7
:102A0000122F80918404882309F581E08093840447
:102A10008091250190912601049721F481E00E9484
:102A2000810B03C086E00E940D021FBF88C48FB7D0
:102A3000F8949927109284048FBF81C48FB7F894BB
:102A4000282F332780912701882311F02FBF77C4C7
:102A50002FBF80B3992776E0969587957A95E1F711
:102A6000182F117090911A0280911B028917D9F0CA
:102A70001917C9F484E090E0909326018093250112
:102A80008FB7F894992721E0209327018FBF60E04A
:102A900070E08DE10E94C40D0E94E30FC09AC098BF
:102AA00082E00E940D0210931B0287E00E940D023B
:102AB00046C48FB7F894992710910A018FBF12303E
:102AC00009F460C0133030F4112359F0113009F0CB
:102AD00036C443C0133009F46FC0143009F02FC45A
:102AE0009BC0C0988FB7F894082F112780912501BB
:102AF00090912601029779F583E090E0909326016A
:102B00008093250168E170E08DE10E94C40D81E0B1
:102B100080931A021092270180B3992766E0969558
:102B200087956A95E1F78170907080931B0287E02A
:102B30000E940D0281E00E94200C6FE772E08CE1A0
:102B40000E94C40D0E94250E0E94EB0D66E57AE2FC
:102B500087E10E94C40D0FBFF2C3C09886E00E94B7
:102B6000200C0E94250E0E94EB0D0E94E30FC09ADC
:102B7000C09883E00E94200CC09A81E00E94300D32
:102B800086E094CFC0988FB7F894082F112760E0A3
:102B900080E00E94A101882311F00FBF0AC00FBF7F
:102BA00083E50E94340280E00E94340280E00E94AB
:102BB0003402C09A82E02DC08FB7F89499272091F3
:102BC0002A018FBF243039F0283041F0223001F53E
:102BD0000E94360EB4C30E945410B1C3C09889E05D
:102BE0000E94200CC09A83E00E94300D8FB7F894A9
:102BF000992721E030E030932B0120932A018FBFE9
:102C00008FB7F8949927109324018FBF84E04ECF9B
:102C100083E00E94300D93C30E946D0C90C30FB7E8
:102C2000F89411274091440150914501609140036F
:102C30007091410380917D0490917E041092410334
:102C40001092400310927E0410927D041092450170
:102C500010924401109234021092330220E00E943C
:102C60003D1179CF2FB7F894332780917F0180935E
:102C70000D0182E0809329012FBF80910D018823EF
:102C800009F05DC3B89AC09888E010CFE091420186
:102C9000F0914301DF01A459BF4F10819F01210F23
:102CA000311DF9018081881F8827881FFD018383DA
:102CB000F90180818F77FD01818321503040F90136
:102CC00080818C93E0914201F09143018FB7F89499
:102CD000992720917D018FBF2223F9F087814681BA
:102CE0002FB7F894332760911802709119022FBF03
:102CF0009927982F88275527842B952B8617970778
:102D000061F0878126819927982F88273327822B86
:102D1000932B8F5F9F4F09F0A6C01D3008F4A3C00E
:102D2000A0914201B0914301FD0181852085992741
:102D3000582F44273327422B532B63818FEF8093E7
:102D40007B048FB7F894782F20E030E0EBE4F1E0DB
:102D5000808191818417950729F48281861731F14A
:102D600020937B042F5F3F4F33962430310581F74A
:102D70007FBF90917B043FB7F8949F3F21F08091F3
:102D80002D018917A9F420912D01822F9927FC018B
:102D9000EE0FFF1FE80FF91FE55BFE4F51834083E5
:102DA00062832F5F237020932D010EC07FBF57C019
:102DB000892F9927FC01EE0FFF1FE80FF91FE55B34
:102DC000FE4F518340836283832F99278FBFA4597D
:102DD000BF4FFD018381AC56B040882309F43FC04A
:102DE000FD0182858F3309F03AC0878146812FB774
:102DF000F894332760910E0170910F012FBF99272E
:102E0000982F88275527842B952B8617970759F0DD
:102E1000878126819927982F88273327822B932B08
:102E20008F5F9F4FE1F4FD0183858436C1F480916B
:102E30001F018823A1F4133191F42FB7F89433279D
:102E40008BB391E089278BBB2FBF97858585E82FB2
:102E5000FF27EE5FFE4F8081823009F49083B093AC
:102E60004301A09342018FB7F894992710928201F1
:102E70008FBF0E947E0D63C29091910180911101DC
:102E8000981709F45CC2909311019923E9F4009119
:102E90002E0110912F01609126028FE3F8018287A5
:102EA000C8010E947E0E482F5527442309F447C2CB
:102EB0008FEF8093110160912E0170912F01F80125
:102EC00083850E94930F3BC28FEF8093110137C21D
:102ED0008FB7F894109281042091430340E028308A
:102EE00009F441E030E0293009F431E0442311F4E1
:102EF000332351F010924303E0913D02FF27EE0F80
:102F0000FF1FEE5DFD4F108299278FBF442311F400
:102F1000332319F1809100048F5F80930004809126
:102F200013028334A1F49FB7F89420912C0280916E
:102F30002B02821741F0822F8F5F80932C02863004
:102F400010F010922C02892F99278FBF0AC0A0E0A1
:102F5000442309F4A1E071E006C0222311F010E03F
:102F600069C0A0E070E08FB7F894992720913001F4
:102F70008FBF222341F08FB7F89499272AE020933E
:102F800043038FBF43C08FB7F89499276091220203
:102F9000409124028FBF8FB7F894282F332750E039
:102FA00090912B0280912C02981709F451E02FBFC9
:102FB000552349F5662339F55FB7F89482E080938D
:102FC00022028FB7F894282F332740E090912B02EC
:102FD00080912C02981709F441E02FBF442311F08F
:102FE00080E006C0E0912C02FF27E55DFD4F828165
:102FF00080932302852F99278FBF83E48093130248
:1030000010923D020BC04150423010F010E007C05A
:1030100085E48093130281E080933D0211E07723E1
:1030200049F08FB7F8949927A09339018FBF81E1B8
:103030000E940D02809143038A3019F40E946604B5
:103040007EC1112309F47BC12FB7F8943327109266
:103050008804109287041092950181E080934303C5
:103060002FBF0E94BE04882309F469C18FB7F8946A
:10307000992729E0209343038FBF0E94E4025FC198
:10308000569857981092420310928601539A549A78
:10309000579A0E94E80B53C180E108CD5398549889
:1030A0004EC110923601109235018FB7F8949927CE
:1030B000409139018FBF80913A01811143E0209105
:1030C00033013091340180913B01882309F037C1ED
:1030D00080911B01882309F032C160913502709103
:1030E00036026217730709F02AC1F4C08FB7F8944B
:1030F000992720913D0100913E0110913F013091AF
:103100004001F0905E018FBF222309F09EC0932FF3
:103110009C50F8018385853009F097C0943309F0FD
:1031200094C0A801445F5F4F86AD27AD9927982FC3
:1031300088273327822B932BAA27BB278093200134
:1031400090932101A0932201B093230184AD25AD7A
:103150009927982F88273327822B932B80933E041F
:10316000892F992780933D0480912001909121011E
:1031700080934004892F992780933F04EDE2F4E087
:103180009801245D3F4FD901AD90BD90CD90DD9069
:103190009D01A192B192C192D192B4E0ED33FB07AF
:1031A00091F7A982BA82CB82DC82F0979A01D90189
:1031B0004D915D916D917D919D01419351936193ED
:1031C0007193B4E0ED32FB0791F749835A836B8327
:1031D0007C83AF014C5250408FEF80930704809363
:1031E000080486E080930C0480918203909183030D
:1031F000892B59F5509383034093820381E4809394
:10320000010480911C018823A9F010921C0124E381
:103210006FEF7FEF86E00E94010F9927282F882308
:1032200049F081E080931C01109283031092820385
:10323000222359F42FB7F89433278BB392E08927D0
:103240008BBB2FBF81E080931E018FB7F894EF2DC9
:10325000FF27EE0FFF1FEB5EFE4F118300832091CF
:103260003101FF2011F02B7F01C02D7F2093310110
:1032700010923C019927E0CB20917A04812F822380
:10328000C1F0E92FFF27EE0FFF1FEB5CFD4F4081E0
:10329000518111821082812F8095282320937A04F6
:1032A000992339F463E0CA010E94D602110F91E01C
:1032B000E3CF9F5F983008F042C0110FDDCF8091BF
:1032C0001B01E82FFF27EE0FFF1FEB5CFD4F608116
:1032D000718141E00E94480332C090919401852F92
:1032E0008923B9F0E42FFF27EE0FFF1FEE57FC4FA5
:1032F0002081318111821082852F809598239093AF
:103300009401442331F421503440B1F410921E0151
:1033100013C04F5F483098F4550FDFCF80911C01E8
:10332000E82FFF27EE0FFF1FEE57FC4F60817181E2
:1033300041E00E94550F03C0550F41E0CECF2496C7
:103340000FB6F894DEBF0FBECDBFDF91CF911F91B6
:103350000F91FF90EF90DF90CF90BF90AF900895C6
:103360008091FD038F3FB1F0282F3327F901E05AF8
:10337000FE4F80818093FD038F3F11F4809385047D
:103380008FEF80832F3F31F0822F0E94501381E016
:1033900090E0089580E090E00895FF920F931F93CE
:1033A000FFB6F89447E150E06FEF70E080E691E0FF
:1033B0000E944B1F8FEF8093FD038093850481E073
:1033C0008EBD88E080BF83E083BF8CB59DB54AE7A2
:1033D0002CB53DB52817390708F44150442311F0A6
:1033E000C901F6CF92B782B78917E9F32CB53DB57D
:1033F00092B782B78917E9F38CB59DB5821B930B01
:10340000409615E0969587951A95E1F79093FF03FE
:103410008093FE0313BE83B78EBD8EB580BF12BEF0
:103420001DBC1CBC8FEF86BF86B780937C0080B725
:10343000992787709070892BD1F7D29AD19AD09A18
:10344000DA9AD99AD89A15BA8FEF84BBD498DC98B7
:10345000109289001092880080917D008460809392
:103460007D0080918A00887F826080938A001DBCE5
:103470001CBC87B7846087BF8EB5887F84608EBD93
:1034800080E285BF0E94B0198823E1F712E006E0D0
:103490006091FE037091FF0388279927BCE0660FB7
:1034A000771F881F991FBA95D1F720E031EE40E0D1
:1034B00050E00E94D31E2150304029B9832F992714
:1034C000809390001BB9009395001AB8209399003F
:1034D0008093980010939B0000939D0010929A0097
:1034E00084E490E090935A0380935903109222024F
:1034F000109224021092430310929501109213022D
:103500001092000410928804109287041092810493
:1035100010923D02109255031092540310928301B1
:103520001092450310925D031092870110923A02A7
:103530001092390210922C0210922B028FEF80937E
:103540008001EBE4F1E08FEF9FEF918380831282A3
:10355000339621E0E735F207C1F70E94EB04609350
:10356000530380910001909101010196AA27BB2786
:1035700080938D0190938E01A0938F01B093900161
:1035800084E893E090934301809342018E98B89A27
:103590008C988FEF8093120210924B0310924C0381
:1035A00010924D0310924E03B89AD69AD59A8FB7BF
:1035B000F894992720910E0130910F018FBF30931D
:1035C0001902209318028091100199279093890184
:1035D000809388018FE1809346038AE180935103B1
:1035E00081E080937D0110927C0480938A01109287
:1035F000500380B7886080BF8BE083BF86EE81BFB9
:1036000087B7826087BF0E946C060E94B01988232A
:10361000E1F78F2D99278FBF78948EE00E940D02DD
:103620008FB7F894482F552748C087B799278370DC
:103630009070892B19F4E5E0F0E013C080B799276A
:1036400087709070892BD1F781B792B7891B8C3026
:1036500030F082B7853F18F4E3E0F0E002C0E2E02A
:10366000F0E087B7887BC1F480917D008B7FA1F467
:103670006E9912C08AB190919A00892B807C61F476
:103680008091740082FD08C0379B03C081E090E008
:1036900005C085E090E002C080E090E025B78E177D
:1036A00008F4E82FFF27E654FD4FE491237E2062C3
:1036B000E22BE5BF78948895F8948091FD038F3FC5
:1036C00009F4B3CF282F3327F901E05AFE4F808148
:1036D0008093FD038F3F11F4809385048FEF8083E7
:1036E0002F3F09F4A2CF4FBF822F0E94501398CFD3
:1036F00078941F920F920FB60F9211242F923F923F
:103700004F925F926F927F928F929F92AF92BF92F1
:10371000CF92DF92EF92FF920F931F932F933F93DD
:103720004F935F936F937F938F939F93AF93BF93C9
:10373000CF93DF93EF93FF93CCB5DDB580E286BFE7
:103740008FB7F894282E0E948E039E01261B370BFC
:103750002901662457FC6094762C460E571E681E7D
:10376000791E80912A0190912B018530910521F0DD
:10377000069709F0E6C0C5C086E090E090932B0163
:1037800080932A0131E0332E3092810110922C0176
:1037900080E00E946B05E0918B01F0918C01E4596F
:1037A000FF4F4186BB27A72D962D852D8087C3010E
:1037B000AA27BB278783872D9927AA27BB2786831C
:1037C000E0918B01F0918C01E459FF4F8581EC561B
:1037D000F040882309F484C06081655077274F0149
:1037E000860E971EF4012081E1808281A3809927B3
:1037F000AA27BB27BA2FA92F982F8827332744271A
:103800005527522F442733272227FF24002711272B
:103810008701FF24EE242E293F29402B512BBB2466
:10382000CC24DD242A293B294C295D29822B932B8A
:10383000A42BB52B84199509A609B7098383292FD1
:103840003A2F4B2F552722839D014427552721834B
:103850008B2F9927AA27BB278083C09824E0A40137
:1038600080E090E00E94A20FC09AF4012081E180E4
:103870008281A3809927AA27BB27BA2FA92F982F27
:103880008827332744275527522F442733272227B9
:10389000FF24002711278701FF24EE242E293F292A
:1038A000402B512BBB24CC24DD242A293B294C2935
:1038B0005D29822B932BA42BB52B840D951DA61D62
:1038C000B71D8383292F3A2F4B2F552722839D0124
:1038D0004427552721838B2F9927AA27BB2780832D
:1038E000E0918B01F0918C01818185FF02C03092C3
:1038F0005F0183E00E94300D87B78F7E87BF849978
:103900007AC01092810181E00E946B05E0918B01E9
:10391000F0918C01818185FF0FC087E090E090934A
:103920002B0180932A010E948E0320E031E040E0C9
:1039300050E00E944B0403C080E00E941310849B5F
:103940005AC080912C01882391F5809181018823B0
:1039500071F511E0109381010E946B0580B32091F5
:10396000FC03283098F4E0917904E20FFF27E77018
:10397000F070EE0FFF1FEE0FFF1FEE59FC4F40825D
:103980005182628273822F5F2093FC0310932C017B
:10399000D0932102C093200284992DC0992704E07E
:1039A000969587950A95E1F7182F117001C010E0E0
:1039B000809181018130F9F4109281010E946B05A0
:1039C00010922C011123B9F48091200290912102D0
:1039D000C81BD90B2A9778F48091FC03882319F02F
:1039E00081508093FC0380918B0190918C01009712
:1039F00011F00E94DA042FBEFF91EF91DF91CF9179
:103A0000BF91AF919F918F917F916F915F914F91F6
:103A10003F912F911F910F91FF90EF90DF90CF90EA
:103A2000BF90AF909F908F907F906F905F904F90DE
:103A30003F902F900F900FBE0F901F901895ACE203
:103A4000B0E0E5E2FDE10C94141F222E332E442E4B
:103A5000552E662E772E882E992EFE013196A8E0DF
:103A60001192AA95E9F729823A824B825C826D8293
:103A70007E828F829886FE013996B8E01192BA95BF
:103A8000E9F7A986BA86CB86DC86ED86FE860F87A7
:103A9000188B89819A81AB81BC8189A79AA7ABA732
:103AA000BCA77C018D018FEF9FEFA0E0B0E0E82282
:103AB000F9220A231B2389A59AA5ABA5BCA51D0144
:103AC0004424552489859A85AB85BC858DA39EA306
:103AD000AFA3B8A75C016D018FEF9FEFA0E0B0E04E
:103AE000A822B922CA22DB228DA19EA1AFA1B8A52E
:103AF0003D0188249924C801B701A60195010E94BF
:103B0000F51E69A37AA38BA39CA3C801B701A401E6
:103B100093010E94F51E7B018C01C201B101A60137
:103B200095010E94F51E5B016C01C201B101A40167
:103B300093010E94F51E3B014C01EA0CFB1C0C1D7D
:103B40001D1D89A19AA1ABA1BCA19D0144275527A8
:103B50002E0D3F1D401F511F2A153B054C055D05CD
:103B600040F480E090E0A1E0B0E0680E791E8A1E8B
:103B70009B1ECA01AA27BB27860D971DA81DB91D2C
:103B80008D8F9E8FAF8FB8A3A9013327222789A1DC
:103B90009AA1ABA1BCA1A070B070280F391F4A1F19
:103BA0005B1F298F3A8F4B8F5C8FA98CBA8CCB8C83
:103BB000DC8CED8CFE8C0F8D18A1FE01719698E0C7
:103BC00011929A95E9F7ED8AFE8A0F8B188F2D8155
:103BD0003E814F8158856DA17EA18FA198A50E943D
:103BE000F51E3B014C012D853E854F85588969A501
:103BF0007AA58BA59CA50E94F51E2D893E894F892B
:103C0000588D260F371F481F591F260D371D481D79
:103C1000591D2D8B3E8B4F8B588F6D887E888F88DA
:103C2000988C2A2D3B2D4C2D5D2D662D772D882DC2
:103C3000992DE2E1AC960C94301FA0E1B0E0E3E2F4
:103C4000FEE10C94141F222E332E442E552E662E88
:103C5000772E882E992E002309F466C088E0FE0195
:103C6000319611928A95E9F729833A834B835C83D5
:103C70006D837E838F829887E0E2E01B1E16CCF571
:103C80002D813E814F815885602F772767FD709584
:103C9000DA01C901062E04C0B695A79597958795B8
:103CA0000A94D2F78D879E87AF87B88B04C0220F06
:103CB000331F441F551FEA95D2F789819A81AB8142
:103CC000BC8104C0B695A795979587956A95D2F75C
:103CD000282B392B4A2B5B2B29873A874B875C870C
:103CE00029843A844B845C846D847E848F84988894
:103CF0001BC01D861E861F86188A2E2F332727FD80
:103D00003095309521953F4F8D819E81AF81B8854B
:103D100004C0B695A795979587952A95D2F7898778
:103D20009A87AB87BC87DCCF222D332D442D552DB0
:103D3000662D772D882D992DE2E160960C94301F29
:103D4000991B79E004C0991F961708F0961B881FED
:103D50007A95C9F780950895AA1BBB1B51E107C04E
:103D6000AA1FBB1FA617B70710F0A61BB70B881F0B
:103D7000991F5A95A9F780959095BC01CD0108959A
:103D800097FB092E07260AD077FD04D0E5DF06D081
:103D900000201AF4709561957F4F0895F6F790957D
:103DA00081959F4F0895A1E21A2EAA1BBB1BFD010E
:103DB0000DC0AA1FBB1FEE1FFF1FA217B307E4070A
:103DC000F50720F0A21BB30BE40BF50B661F771F62
:103DD000881F991F1A9469F7609570958095909542
:103DE0009B01AC01BD01CF010895629FD001739F7B
:103DF000F001829FE00DF11D649FE00DF11D929F87
:103E0000F00D839FF00D749FF00D659FF00D9927C5
:103E1000729FB00DE11DF91F639FB00DE11DF91FE9
:103E2000BD01CF01112408952F923F924F925F92CE
:103E30006F927F928F929F92AF92BF92CF92DF92BA
:103E4000EF92FF920F931F93CF93DF93CDB7DEB71F
:103E5000CA1BDB0B0FB6F894DEBF0FBECDBF0994B3
:103E60002A88398848885F846E847D848C849B840A
:103E7000AA84B984C884DF80EE80FD800C811B8118
:103E8000AA81B981CE0FD11D0FB6F894DEBF0FBE47
:103E9000CDBFED010895DC0101C06D93415050404C
:063EA000E0F70895FFCFDA
:103EA60001000200000000000000FFFFFFFF01000C
:0E3EB60022FFFFFFFF5002C802500201010070
:00000001FF
