:100000000C9449010C9468010C9468010C946801EB
:100010000C9468010C9468010C9468010C946801BC
:100020000C9468010C9468010C9468010C946801AC
:100030000C9468010C9468010C9468010C943A19B2
:100040000C94F8180C9468010C94F3160C94680145
:100050000C946F170C9468010C9468010C9468015F
:100060000C9468010C94C5180C94A4180C94AF1847
:100070000C94BA180C94D8180C9487180C94680136
:100080000C9499180C9468010C94680100002110DC
:10009000422063308440A550C660E77008812991F2
:1000A0004AA16BB18CC1ADD1CEE1EFF1311210029A
:1000B00073325222B5529442F772D6623993188342
:1000C0007BB35AA3BDD39CC3FFF3DEE36224433466
:1000D00020040114E664C774A44485546AA54BB592
:1000E00028850995EEE5CFF5ACC58DD5533672263A
:1000F00011163006D776F6669556B4465BB77AA7E2
:1001000019973887DFF7FEE79DD7BCC7C448E55885
:100110008668A7784008611802282338CCC9EDD931
:100120008EE9AFF9488969990AA92BB9F55AD44AD9
:10013000B77A966A711A500A333A122AFDDBDCCB81
:10014000BFFB9EEB799B588B3BBB1AABA66C877CA5
:10015000E44CC55C222C033C600C411CAEED8FFDD1
:10016000ECCDCDDD2AAD0BBD688D499D977EB66E79
:10017000D55EF44E133E322E511E700E9FFFBEEF21
:10018000DDDFFCCF1BBF3AAF599F788F8891A981E3
:10019000CAB1EBA10CD12DC14EF16FE18010A100CD
:1001A000C230E3200450254046706760B9839893BD
:1001B000FBA3DAB33DC31CD37FE35EF3B10290121D
:1001C000F322D2323542145277625672EAB5CBA589
:1001D000A89589856EF54FE52CD50DC5E234C3246D
:1001E000A01481046674476424540544DBA7FAB75D
:1001F0009987B8975FE77EF71DC73CD7D326F236BD
:100200009106B01657667676154634564CD96DC9A8
:100210000EF92FE9C899E9898AB9ABA9445865480C
:1002200006782768C018E1088238A3287DCB5CDBFC
:100230003FEB1EFBF98BD89BBBAB9ABB754A545A5C
:10024000376A167AF10AD01AB32A923A2EFD0FEDC8
:100250006CDD4DCDAABD8BADE89DC98D267C076CAC
:10026000645C454CA23C832CE01CC10C1FEF3EFF9C
:100270005DCF7CDF9BAFBABFD98FF89F176E367EFC
:10028000554E745E932EB23ED10EF01E00081C181F
:10029000141011241FBECFEFD0E1DEBFCDBF11E09F
:1002A000A0E0B1E0E6EDF6E400E00BBF02C007908D
:1002B0000D92A831B107D9F713E0A8E1B1E001C070
:1002C0001D92AC36B107E1F70E94BD1E0C946A2363
:1002D0000C9400008F929F92AF92BF92CF92DF92C8
:1002E000EF92FF920F931F93CF93DF934A01C0E0E9
:1002F000D0E00F2EF0E0EF2EF0E0FF2EF0E00F2F19
:10030000F0E01F2FF02D5B016C0117C0F50121916A
:100310003191419151915F01F6016191719181910A
:1003200091916F010E948B219B01AC01C801B70123
:100330000E9405207B018C012196C815D90534F354
:10034000C801B701DF91CF911F910F91FF90EF90FE
:10035000DF90CF90BF90AF909F908F9008958F9235
:100360009F92AF92BF92CF92DF92EF92FF920F9344
:100370001F93CF93DF934B01590168017C018A01E0
:10038000C0E0D0E00FC0A601B401F70181919191C6
:100390007F010E946A01F8016193719381939193A7
:1003A0008F012196CA15DB0574F3DF91CF911F9160
:1003B0000F91FF90EF90DF90CF90BF90AF909F9004
:1003C0008F9008952F923F924F925F926F927F92FB
:1003D0008F929F92AF92BF92CF92DF92EF92FF9255
:1003E0000F931F93CF93DF93CDB7DEB724970FB64C
:1003F000F894DEBF0FBECDBF9A8389831B0129010C
:1004000038018A0188249924CC24DD2440C08B81C2
:100410009C81892B49F480E090E0A0E0B0E0F801F5
:1004200080839183A283B383D701ED91FD917D01F8
:10043000EC0DFD1D2081318142815381F5016191D7
:100440007191819191915F010E948B219B01AC017F
:10045000D8016D917D918D919C910E940520F801AC
:1004600060837183828393838B819C8101969C83BB
:100470008B83AB81BC81A415B5054CF20894811C1B
:10048000911C0C5F1F4FE4E0F0E0CE0EDF1E8614DF
:10049000970434F4A980BA8071011C821B82E9CFD1
:1004A00024960FB6F894DEBF0FBECDBFDF91CF917B
:1004B0001F910F91FF90EF90DF90CF90BF90AF9082
:1004C0009F908F907F906F905F904F903F902F9074
:1004D00008952F923F924F925F926F927F928F92E8
:1004E0009F92AF92BF92CF92DF92EF92FF920F93C3
:1004F0001F93CF93DF93CDB7DEB726970FB6F8944F
:10050000DEBF0FBECDBF7A8369835C834B83190145
:100510002801370146016C01AA24BB2455C0A1144F
:10052000B10451F480E090E0A0E0B0E0ED81FE8104
:1005300080839183A283B383D40120E030E049819A
:100540005A812AC08D919D91A816B90609F5DA0144
:10055000ED91FC91E00FF11F2081318142815381A7
:10056000F60160817181828193810E948B219B01C0
:10057000AC01AD81BE816D917D918D919C910E9468
:100580000520ED81FE81608371838283938307C0A0
:100590002F5F3F4F4E5F5F4F241535059CF2089447
:1005A000E11CF11C0C5F1F4F8D819E8104969E8380
:1005B0008D83E614F7040CF4B2CF0894A11CB11C8F
:1005C000A4E0B0E0CA0EDB1EA214B3044CF4EB812D
:1005D000FC81FE83ED83EE24FF2400E010E0E9CFF0
:1005E00026960FB6F894DEBF0FBECDBFDF91CF9138
:1005F0001F910F91FF90EF90DF90CF90BF90AF9041
:100600009F908F907F906F905F904F903F902F9032
:100610000895AF92BF92CF92DF92EF92FF920F9325
:100620001F935B016C01E894D7F879018A01E89483
:1006300017F9A8019701C601B5010E948721181674
:10064000BCF4A6019501C801B7010E946D209B0171
:10065000AC010E948B2120E030E040E85FE30E9483
:1006600005200E94F2219B01AC01C601B50125C005
:1006700020E030E040E050E0C801B7010E9487214F
:1006800018162CF060E070E080E090E018C0A8013F
:100690009701C601B5010E946D209B01AC010E942B
:1006A0008B2120E030E040E85FE30E9405200E94BB
:1006B000F2219B01AC01C801B7010E948B211F915F
:1006C0000F91FF90EF90DF90CF90BF90AF90089583
:1006D0002F923F924F925F926F927F928F929F9252
:1006E000AF92BF92CF92DF92EF92FF920F931F9340
:1006F000CF93DF93CDB7DEB7C25CD0400FB6F8948E
:10070000DEBF0FBECDBFCB54DF4F99838883C55B5F
:10071000D040C954DF4F79836883C75BD040C7544A
:10072000DF4F59834883C95BD040C554DF4F3983BD
:100730002883CB5BD040C354DF4F19830883CD5B44
:10074000D040C154DF4FF982E882CF5BD0406417BC
:10075000750714F40C94AE1229963FAF2EAF29976B
:100760002596FFAEEEAE259723965FAF4EAF23974B
:100770001C0121967FAF6EAF219720E030E040E072
:1007800050E0C757DF4F288339834A835B83C958BA
:10079000D040CB57DF4F288339834A835B83C558CA
:1007A000D040CF57DF4F288339834A835B83C158BA
:1007B000D0402B961FAE1EAE2B9727961FAE1EAEB7
:1007C000279744E050E01CC48DA99EA90196CD5501
:1007D000DF4F99838883C35AD0402B969FAF8EAF4B
:1007E0002B97CB57DF4F288139814A815B81C558D0
:1007F000D040CF57DF4F688179818A819B81C15872
:10080000D0400E948B212596AEADBFAD25976D934C
:100810007D938D939C931397EDA9FEA9C954DF4F47
:1008200028813981C75BD040E217F3070CF08BC1F8
:10083000810180E090E0A0E0B0E08F8B988FA98FDD
:10084000BA8FEE24FF24D801ED91FD918D012796FA
:100850002EAD3FAD2797E20FF31F208131814281FA
:1008600053815F776F89788D898D9A8D0E940520DD
:100870006F8B788F898F9A8F0894E11CF11C2196D9
:100880004EAD5FAD2197E416F506E9F620E030E0C5
:1008900040E050E00E946920882311F40C94B112CA
:1008A00071010F2EF0E0AF2EF0E0BF2EF0E0CF2E62
:1008B000F0E0DF2EF02D88249924D7010D911D91B1
:1008C0007D012796EEADFFAD27970E0F1F1FD801B4
:1008D0006D917D918D919C912F89388D498D5A8D87
:1008E0000E946D20F80160837183828393839B0152
:1008F000AC010E948B219B01AC01C601B5010E9495
:1009000005205B016C010894811C911C21962EAD81
:100910003FAD21978216930681F6D1014D905C90F0
:100920002796EEADFFAD27974E0E5F1ED201ED90DC
:10093000FD900D911C9120E030E040E050E0C801B6
:10094000B7010E94872188234CF0C601B5010E949F
:10095000F2219F779B01AC01505807C0C601B50139
:100960000E94F2219B01AC015F7739014A01C80165
:10097000B7010E948B21A60195010E94042069A75E
:100980007AA78BA79CA7A4019301C801B7010E9475
:100990000420F2016083718382839383C754DF4F05
:1009A00088819981C95BD04001972DA93EA928175C
:1009B000390709F49EC0ADACBEAC2D961FAE1EAE7D
:1009C0002D977DC0D601ED91FD916D0127968EADDD
:1009D0009FAD27978E0F9F1FEA0DFB1D2081318150
:1009E00042815381FC0160817181828193810E94E7
:1009F0008B219B01AC01C801B7010E9405207B013E
:100A00008C010894411C511C21962EAD3FAD2197BD
:100A100042165306B9F629A53AA54BA55CA50E9436
:100A20006D206B017C012101CF53DF4F19821882A9
:100A3000C15CD040D201ED91FD912D018F010A0DD5
:100A40001B1D27962EAD3FAD2797E20FF31F208188
:100A5000318142815381C701B6010E948B219B01E4
:100A6000AC01D8016D917D918D919C910E940520E2
:100A7000F8016083718382839383CF53DF4F288192
:100A80003981C15CD0402F5F3F4FCF53DF4F398357
:100A90002883C15CD04021964EAD5FAD21972417CD
:100AA000350741F62D968EAD9FAD2D9701962D966B
:100AB0009FAF8EAF2D97A4E0B0E0AA0EBB1E239689
:100AC0008EAD9FAD239701972D96EEADFFAD2D977F
:100AD000E817F90771F061010F2EF0E0EF2EF0E05A
:100AE000FF2EF0E00F2FF0E01F2FF02D44245524AF
:100AF00069CF7101CC24DD24D7010D911D917D01B9
:100B00002796EEADFFAD27970E0F1F1F2F89388D4B
:100B1000498D5A8DD8016D917D918D919C910E9446
:100B20008B21F80160837183828393830894C11CB5
:100B3000D11C21962EAD3FAD2197C216D30611F4DC
:100B40000C94BB12D9CF80E090E0A0E0B0E02996F1
:100B5000EEADFFAD299780839183A283B383CB57FA
:100B6000DF4F88839983AA83BB83C558D040CF5772
:100B7000DF4F88839983AA83BB83C158D040DCC1EF
:100B8000D101ED91FC91E00FF11F20813181428173
:100B900053815F77CF57DF4F688179818A819B814D
:100BA000C158D0400E940520CF57DF4F688379831A
:100BB0008A839B83C158D0400894E11CF11C0C5FD0
:100BC0001F4F2396EEADFFAD2397EE16FF06C1F63D
:100BD00020E030E040E050E0CF57DF4F688179817E
:100BE0008A819B81C158D0400E946920882369F482
:100BF00020E030E040E050E0CB57DF4F28833983DE
:100C00004A835B83C558D04097C127968EAC9FAC72
:100C100027970F2EF0E0AF2EF0E0BF2EF0E0CF2EA2
:100C2000F0E0DF2EF02DEE24FF2423C08401040D1C
:100C3000151DD8016D917D918D919C91CF57DF4FFE
:100C4000288139814A815B81C158D0400E946D2042
:100C5000F80160837183828393839B01AC010E94BE
:100C60008B219B01AC01C601B5010E9405205B01EF
:100C70006C010894E11CF11C24E030E0820E931E0C
:100C8000D1014D905C902396EEADFFAD2397EE160B
:100C9000FF0661F68DAC9EAC840C951CD401ED90E2
:100CA000FD900D911C9120E030E040E050E0C80143
:100CB000B7010E94872188234CF0C601B5010E942C
:100CC000F2219F779B01AC01505807C0C601B501C6
:100CD0000E94F2219B01AC015F77CB57DF4F288345
:100CE00039834A835B83C558D040C801B7010E944D
:100CF0008B21A60195010E9404205B016C01CB575A
:100D0000DF4F288139814A815B81C558D040C801B5
:100D1000B7010E940420F40160837183828393836E
:100D200027960EAD1FAD2797040D151D25968EAC89
:100D30009FAC2597EE24FF240EC0A6019501D80193
:100D40006D917D918D919C910E946D20F401608345
:100D50007183828393830894E11CF11C0C5F1F4F05
:100D600024E030E0820E931E23964EAD5FAD2397B4
:100D7000E416F50611F7C954DF4F88819981C75BE6
:100D8000D0400197ADA9BEA9A817B90709F4AAC018
:100D900051012F961FAE1EAE2F9784C0F501A28180
:100DA000B381AE0DBF1DF801208131814281538195
:100DB0006D917D918D919C910E948B219B01AC0145
:100DC000C401B3010E9405203B014C010894C11CE1
:100DD000D11C24E030E0E20EF31E0C5F1F4F23967F
:100DE0004EAD5FAD2397C416D506C1F62796EEAC7F
:100DF000FFAC279725968EAD9FAD2597CF53DF4F3C
:100E000099838883C15CD040CC24DD2422C0F501C5
:100E1000028113810E0D1F1DCF53DF4FA881B981B1
:100E2000C15CD0402D913D914D915C91C401B301C5
:100E30000E948B219B01AC01F8016081718182814C
:100E400093810E940520D8016D937D938D939C938F
:100E500013970894C11CD11CE4E0F0E0EE0EFF1ED5
:100E6000CF53DF4F28813981C15CD0402C5F3F4F89
:100E7000CF53DF4F39832883C15CD04023964EADDA
:100E80005FAD2397C416D50611F62F968EAD9FAD94
:100E90002F9701962F969FAF8EAF2F97A2E0B0E0CD
:100EA000AA0EBB1E21968EAD9FAD219701972F965E
:100EB000EEADFFAD2F97E817F907A1F02796EEAC3E
:100EC000FFAC27978701040D151D0F2EF0E06F2E44
:100ED000F0E07F2EF0E08F2EF0E09F2EF02DCC245E
:100EE000DD2474CF2796EEACFFAC2797E40CF51CFD
:100EF00000E010E014C0CF57DF4F288139814A81CC
:100F00005B81C158D040D7016D917D918D919C91AD
:100F10000E948B21F70160837183828393830F5F2B
:100F20001F4F24E030E0E20EF31E23964EAD5FAD7E
:100F3000239704171507F9F62996AEADBFAD29978B
:100F40006D917D918D919C919F772596EEADFFAD32
:100F5000259720813181428153815F770E9405204E
:100F60007B018C019B01AC01C757DF4F6881798100
:100F70008A819B81C958D0400E948721181644F06D
:100F8000C757DF4FE882F9820A831B83C958D040D4
:100F900029962EAD3FAD29972C5F3F4F29963FAF45
:100FA0002EAF299727964EAD5FAD27974C5F5F4FC9
:100FB00027965FAF4EAF279725968EAD9FAD2597AD
:100FC000049625969FAF8EAF25972396AEADBFAD05
:100FD000239711972396BFAFAEAF2397E2E0F0E0DF
:100FE0002E0E3F1E21962EAD3FAD21972150304051
:100FF00021963FAF2EAF21974DAD5EAD4C5F5F4F59
:101000005EAF4DAF2B968EAD9FAD2B979EAB8DAB4C
:10101000C754DF4FA881B981C95BD0408A179B07AD
:101020000CF4D2CB1197BAAFA9AFC754DF4F888168
:101030009981C95BD040880F991FC354DF4FE88165
:10104000F981CD5BD040E80FF91F32976D96FFAF65
:10105000EEAF6D97C754DF4F28813981C95BD0400F
:10106000220F331F220F331F69963FAF2EAF6997B0
:10107000245030406B963FAF2EAF6B971901C1548F
:10108000DF4F48815981CF5BD0406996AEADBFAD8F
:1010900069974A0F5B1F65965FAF4EAF65974450E7
:1010A000504067965FAF4EAF6797CB54DF4FE881F4
:1010B000F981C55BD040E80FF91F6196FFAFEEAF35
:1010C000619732976396FFAFEEAF639729AD3AAD64
:1010D000C955DF4F39832883C75AD040E7C1C95566
:1010E000DF4F48815981C75AD04089AD9AAD481722
:1010F00059070CF08AC120E030E040E050E0CB57C7
:10110000DF4F688179818A819B81C558D0400E94D8
:101110006920882309F430C1CD55DF4F48805980BC
:10112000C35AD040440C551C440C551CCD55DF4FC0
:10113000A881B981C35AD040AA0FBB1F6F96BFAF19
:10114000AEAF6F97C354DF4FC880D980CD5BD0401E
:10115000CA0EDB1E7201CD55DF4FA880B980C35A7D
:10116000D04031C06396AEADBFAD6397ED91FC91B9
:10117000D6010D911D916D01020D131DDF01AE0D04
:10118000BF1DE40DF51D20813181428153816D9198
:101190007D918D919C910E946D20CB57DF4F2881CE
:1011A00039814A815B81C558D0400E946D20F80189
:1011B00060837183828393830894A11CB11C24E013
:1011C00030E0E20EF31EC754DF4F48815981C95BFE
:1011D000D040A416B50634F27201CD55DF4FC88059
:1011E000D980C35AD0409BC06396AEADBFAD639764
:1011F0008D919C91800F911FF501A191B1915F019B
:10120000AE0DBF1D2D913D914D915C91DC016D9115
:101210007D918D919C910E948B219B01AC01C40119
:10122000B3010E9405203B014C01CF53DF4FE88101
:10123000F981C15CD0403196CF53DF4FF983E88309
:10124000C15CD0400C5F1F4FCF53DF4F28813981E5
:10125000C15CD040C754DF4F48815981C95BD04041
:10126000241735070CF2C354DF4FA880B980CD5B3B
:10127000D0406F968EAD9FAD6F97A80EB91ECD551D
:10128000DF4FA881B981C35AD040CF53DF4FB98314
:10129000A883C15CD0402DC0D501ED91FD915D01C9
:1012A0008F010E0D1F1DE20DF31D20813181428142
:1012B0005381C401B3010E948B219B01AC01F80151
:1012C00060817181828193810E940520D8016D9394
:1012D0007D938D939C931397CF53DF4FE881F981D2
:1012E000C15CD0403196CF53DF4FF983E883C15CB6
:1012F000D040CF53DF4F28813981C15CD040C754E3
:10130000DF4F48815981C95BD0402417350724F24B
:101310000894C11CD11C84E090E0E80EF91EC7546B
:10132000DF4FA881B981C95BD040CA16DB0624F51E
:101330008201C354DF4FA880B980CD5BD0406F9647
:10134000EEADFFAD6F97AE0EBF1ECD55DF4F2881BE
:101350003981C35AD040CF53DF4F39832883C15CD2
:10136000D0400F2EF0E06F2EF0E07F2EF0E08F2EB9
:10137000F0E09F2EF02D68CFCD55DF4F28813981C9
:10138000C35AD040220F331F220F331FCD55DF4FDA
:1013900008811981C35AD040000F111FC354DF4F79
:1013A00048815981CD5BD040040F151FCD55DF4FCB
:1013B00088819981C35AD04040E050E060E070E0FD
:1013C0001BC06D96EEADFFAD6D97A081B181A20FF0
:1013D000B31FF801E190F1908F01E20CF31CF701CB
:1013E00040835183628373834D935D936D937C93AC
:1013F000139701962C5F3F4FC754DF4FA881B981E7
:10140000C95BD0408A179B07E4F26D96AEADBFADC5
:101410006D97ED91FC91E20DF31D80E090E0A0E866
:10142000BFE380839183A283B3836796AEADBFADE4
:1014300067972D913D914D915C911397CB57DF4F5D
:10144000288339834A835B83C558D0406D96EEADBF
:10145000FFAD6D9732976D96FFAFEEAF6D972CEFA6
:101460003FEF220E331E14976796BFAFAEAF67975C
:1014700063964EAD5FAD63974250504063965FAF49
:101480004EAF6397C955DF4F88819981C75AD040C5
:10149000CD55DF4F99838883C35AD040DC01119723
:1014A000C955DF4FB983A883C75AD040C955DF4F0C
:1014B000E881F981C75AD040F7FF11CE61966EAC32
:1014C0007FAC61972EEF3FEF620E731E6B96AEAC52
:1014D000BFAC6B97C554DF4F48815981CB5BD0407F
:1014E00069968EAD9FAD6997480F591FA1965FAF62
:1014F0004EAFA19744505040A3965FAF4EAFA39715
:10150000C9ACDAAC5EC146010894811C911CA3965B
:10151000AEADBFADA397ED90FD900D911C91E9ADDF
:10152000FAADCE16DF06E4F49501C60140E050E0C6
:1015300060E070E009C0D301ED91FC91E20FF31F70
:10154000408351836283738301962C5F3F4FC7545E
:10155000DF4FE881F981C95BD0408E179F075CF3AC
:1015600020E030E040E050E0C801B7010E9469206F
:10157000882319F4A3019601F0C0A801970160E047
:1015800070E080E89FE30E946D206F87788B898BE5
:101590009A8B29AD3AADC216D30609F4A8C0A501AD
:1015A0004C5F5F4FA5965FAF4EAFA5979EA28DA2F1
:1015B00086C0D401ED91FC91BF016A0D7B1DA596FB
:1015C0002EAD3FADA597E20FF31F208131814281FF
:1015D0005381DB016D917D918D919C910E948B21B6
:1015E0009B01AC01C801B7010E9405207B018C0161
:1015F0000894411C511CE2E0F0E08E0E9F1EC9547D
:10160000DF4F28813981C75BD040421653068CF2E8
:10161000D301ED91FC91EA0DFB1D208131814281C6
:101620005381C801B7010E946D202F8538894989EF
:101630005A890E948B211B012C017301460126C08F
:10164000D701ED91FD917D01A5960EAD1FADA5973A
:101650000E0F1F1FEA0DFB1D208131814281538136
:10166000C201B1010E948B219B01AC01F801608194
:101670007181828193810E940520D8016D937D93B1
:101680008D939C9313970894811C911CC954DF4F30
:10169000E881F981C75BD0408E169F068CF22DA1A0
:1016A0003EA12F5F3F4F3EA32DA3A5964EAD5FAD4C
:1016B000A5974C5F5F4FA5965FAF4EAFA5978DA1E5
:1016C0009EA1C754DF4FA881B981C95BD0408A175A
:1016D0009B076CF4430126010F2EF0E0EF2EF0E0A3
:1016E000FF2EF0E00F2FF0E01F2FF02D81CF7301C0
:1016F000460119C0F701019111917F010A0D1B1DCF
:101700002F85388949895A89D8016D917D918D91AC
:101710009C910E948B21F801608371838283938363
:101720000894811C911CC954DF4F28813981C75B03
:10173000D04082169306F4F219C0DA01ED91FD91C2
:10174000AD01EA0DFB1D80E090E0A0E0B0E08083F9
:101750009183A283B3832F5F3F4FC954DF4FE8814A
:10176000F981C75BD0402E173F073CF3D3010D91A1
:101770001C910A0D1B1D20E030E040E85FE3F801FA
:1017800060817181828193810E940520D8016D93CF
:101790007D938D939C9313970894C108D108EEEF25
:1017A000FFEF6E0E7F1E2CEF3FEFA20EB31EA3962F
:1017B0004EAD5FADA39744505040A3965FAF4EAF80
:1017C000A397D7FEA0CE65968EAD9FAD6597049783
:1017D000AB969FAF8EAFAB976B96AEADBFAD6B9731
:1017E000A996BFAFAEAFA997A196EEADFFADA197F9
:1017F0003897A796FFAFEEAFA79729AD3AAD3E83D6
:101800002D8382C6D8016D917D918D919C919F779A
:10181000C757DF4F288139814A815B81C958D04041
:101820000E940520C757DF4F288139814A815B819B
:10183000C958D0400E946920882309F43AC1EFA01A
:10184000F8A40894E108F108F601608171818281B1
:1018500093819F77C757DF4F288139814A815B8108
:10186000C958D0400E940520C757DF4F28813981D1
:101870004A815B81C958D0400E946920882309F4BD
:10188000CEC6045010402CEF3FEFC20ED31EF8A678
:10189000EFA2A7014F5F5F4F09F4C1C6B3CFAF9668
:1018A000AEADBFADAF972D913D914D915C916F8DD8
:1018B00078A189A19AA10E948B213B014C019F77BD
:1018C000C757DF4F288139814A815B81C958D04091
:1018D0000E940520C757DF4F288139814A815B81EB
:1018E000C958D0400E946920882309F4B5C0CF535D
:1018F000DF4FE881F981C15CD040A080B180C28017
:10190000D380A6019501C401B3010E9409039B0184
:10191000AC01CF53DF4FA881B981C15CD0406D933A
:101920007D938D939C93139760E070E080E89FE334
:101930000E946D207B018C019B01AC01C601B501A9
:101940000E948B216F83788789879A87C401B301AE
:101950009058A80197010E948B216F8F78A389A3CB
:101960009AA3CB54DF4FE881F981C55BD040E19663
:10197000FFAFEEAFE1971CA21BA262C0E196AEAD35
:10198000BFADE197CD90DD90E196BFAFAEAFE197EF
:10199000CF54DF4F28803980C15BD0402C0C3D1CD8
:1019A000F1014080518062807380AD962EAD3FADD5
:1019B000AD97C20ED31ED6018D909D90AD90BC9078
:1019C0002F81388549855A85C301B2010E948B2138
:1019D0007B018C012F8D38A149A15AA1C501B40109
:1019E0000E948B219B01AC01C801B7010E94052018
:1019F000F10160837183828393832F8138854985C8
:101A00005A85C501B4010E948B217B018C012F8D69
:101A100038A149A15AA1C301B2010E948B219B01A7
:101A2000AC01C801B7010E940420D6016D937D93DB
:101A30008D939C931397EBA1FCA13196FCA3EBA390
:101A40002BA13CA1C954DF4F48815981C75BD040CD
:101A5000241735070CF492CF8BAD9CAD01969CAF4B
:101A60008BAFAF96AEADBFADAF971496AF96BFAF8D
:101A7000AEAFAF97CF53DF4FE881F981C15CD04063
:101A80003496CF53DF4FF983E883C15CD040AD96E5
:101A90002EAD3FADAD972C5F3F4FAD963FAF2EAF14
:101AA000AD974BAD5CAD8D819E81841795070CF091
:101AB000F6CEC555DF4FA881B981CB5AD0402D90C5
:101AC0003D904D905C90EFA1F8A52D813E81E217ED
:101AD000F30709F040C020E030E040E050E0C201F0
:101AE000B1010E94692088230CF0ECC4D201C1012D
:101AF000B058C555DF4FE881F981CB5AD04080837B
:101B00009183A283B383C354DF4F48815981CD5B56
:101B1000D04020E030E015C0DA01ED91FD91AD013B
:101B2000A9968EAD9FADA997E80FF91F808191818D
:101B3000A281B381B05880839183A283B3832F5F46
:101B40003F4FC754DF4FA881B981C95BD0402A17E6
:101B50003B0714F3B7C4EFA1F8A5EE0FFF1FEE0F7C
:101B6000FF1FCD54DF4FF983E883C35BD040C554DA
:101B7000DF4F28813981CB5BD0402E0F3F1FD90129
:101B80008D919D910D90BC91A02DCF56DF4F8883F4
:101B90009983AA83BB83C159D040A796AEADBFAD90
:101BA000A7972D913D914D915C91C357DF4F2883AD
:101BB00039834A835B83CD58D040C755DF4FE881D6
:101BC000F981C95AD040A080B180C280D380AB9641
:101BD000AEADBFADAB972D913D914D915C91CB5684
:101BE000DF4F288339834A835B83C559D040A201E4
:101BF0009101C357DF4F688179818A819B81CD58DC
:101C0000D0400E9404207B018C01A2019101C357A6
:101C1000DF4F688179818A819B81CD58D0400E94B5
:101C200005209B01AC01C801B7010E948B213B013B
:101C30004C01CB56DF4F288139814A815B81C559E0
:101C4000D040C601B5010E9404207B018C01CB5617
:101C5000DF4F288139814A815B81C559D040C60157
:101C6000B5010E9405209B01AC01C801B7010E948B
:101C70008B219B01AC01C401B3010E9405207B01B3
:101C80008C01CB56DF4F288139814A815B81C55950
:101C9000D040CA01B9010E940520C357DF4F2881F7
:101CA00039814A815B81CD58D0400E948B219B01B4
:101CB000AC01C801B7010E946D203B014C0120E03E
:101CC00030E040E85FE30E9409037B018C0120E0E3
:101CD00030E040E050E0C401B3010E948721A80138
:101CE00097015F7788231CF059016A0106C05901EA
:101CF0006A01D7FAD094D7F8D094A2019101CF56B7
:101D0000DF4F688179818A819B81C159D0400E94CF
:101D100004207B018C01A2019101CF56DF4F688125
:101D200079818A819B81C159D0400E9405209B0105
:101D3000AC01C801B7010E948B217B018C01A60177
:101D40009501C401B3010E9405209B01AC01C3575A
:101D5000DF4F688179818A819B81CD58D0400E9474
:101D60006D20CB56DF4F288139814A815B81C5596F
:101D7000D0400E9404209B01AC01CB56DF4F68810C
:101D800079818A819B81C559D0400E948B219B011A
:101D9000AC01C801B7010E940520CF56DF4F288152
:101DA00039814A815B81C159D0400E946D20C7565C
:101DB000DF4F688379838A839B83C959D040CD5490
:101DC000DF4FE881F981C35BD040ED96FFAFEEAF06
:101DD000ED978FA198A5880F991F880F991F9C01D7
:101DE0002C5F3F4FEB963FAF2EAFEB97C554DF4FC5
:101DF00048815981CB5BD0404E0F5F1FE9965FAFA2
:101E00004EAFE997C154DF4FA881B981CF5BD04075
:101E1000A80FB91FE796BFAFAEAFE797C554DF4F26
:101E2000E881F981CB5BD040E80FF91FE596FFAF61
:101E3000EEAFE597C154DF4F28813981CF5BD040A9
:101E4000CD54DF4F48815981C35BD040240F351FEB
:101E5000E3963FAF2EAFE3978FA198A520E030E047
:101E600040E85FE3C356DF4F288339834A835B83AF
:101E7000CD59D0402B8F3C8F4D8F5E8FCFC20196B6
:101E800098AF8FABE796EEADFFADE797E480F580B6
:101E900006811781E596EEADFFADE597248035808C
:101EA00046805780A80197016B8D7C8D8D8D9E8D0E
:101EB0000E948B215B016C01A8019701C356DF4F83
:101EC000688179818A819B81CD59D0400E948B2184
:101ED0003B014C01A6019501C756DF4F688179810E
:101EE0008A819B81C959D0400E9409037B018C01E2
:101EF000E396AEADBFADE3976D937D938D939C93C9
:101F000013979B01AC01C756DF4F688179818A81A5
:101F10009B81C959D0400E946D20C356DF4F688312
:101F200079838A839B83CD59D040A8019701C6014C
:101F3000B5010E946D206B8F7C8F8D8F9E8FC35655
:101F4000DF4F288139814A815B81CD59D040CF56FE
:101F5000DF4F688179818A819B81C159D0400E947D
:101F60008B217B018C012B8D3C8D4D8D5E8DC401B1
:101F7000B3010E948B219B01AC01C801B7010E94F3
:101F8000052069AB7AAB8BAB9CABC356DF4F288186
:101F900039814A815B81CD59D040C401B3010E948F
:101FA0008B217B018C012B8D3C8D4D8D5E8DCF5611
:101FB000DF4F688179818A819B81C159D0400E941D
:101FC0008B219B01AC01C801B7010E9404206B8BDF
:101FD0007C8B8D8B9E8B2B8D3C8D4D8D5E8DC201B0
:101FE000B1010E948B216DA77EA78FA798ABC35626
:101FF000DF4F288139814A815B81CD59D040C201B0
:10200000B1010E948B216B877C878D879E87C3548B
:10201000DF4FE881F981CD5BD040EF96FFAFEEAFA7
:10202000EF97CF53DF4F19821882C15CD04070C048
:10203000EF96AEADBFADEF97CD90DD90EF96BFAF11
:10204000AEAFEF97ED962EAC3FACED972C0C3D1C50
:10205000F1014080518062807380EB962EAD3FADE0
:10206000EB97C20ED31ED6018D909D90AD90BC9083
:10207000C356DF4F288139814A815B81CD59D040D9
:10208000C301B2010E948B217B018C012B8D3C8D01
:102090004D8D5E8DC501B4010E948B219B01AC0169
:1020A000C801B7010E940520F1016083718382831A
:1020B0009383C356DF4F288139814A815B81CD5993
:1020C000D040C501B4010E948B217B018C012B8D76
:1020D0003C8D4D8D5E8DC301B2010E948B219B0111
:1020E000AC01C801B7010E940420D6016D937D9315
:1020F0008D939C931397CF53DF4FE881F981C15C97
:10210000D0403196CF53DF4FF983E883C15CD04094
:10211000CF53DF4F28813981C15CD040C754DF4F96
:1021200048815981C95BD040241735070CF480CF12
:102130002DA53EA54FA558A969A97AA98BA99CA947
:102140000E9409037B018C01E996AEADBFADE99712
:102150006D937D938D939C93139720E030E040E046
:1021600050E00E946920882331F1A801970160E0C6
:1021700070E080E89FE30E946D207B018C019B0151
:10218000AC0169A97AA98BA99CA90E948B21C3568D
:10219000DF4F688379838A839B83CD59D040A80120
:1021A00097016DA57EA58FA598A90E948B216B8FA5
:1021B0007C8F8D8F9E8F2B893C894D895E89C3567C
:1021C000DF4F688179818A819B81CD59D0400E94FF
:1021D0008B217B018C012B853C854D855E856B8D2C
:1021E0007C8D8D8D9E8D0E948B219B01AC01C80141
:1021F000B7010E940520C756DF4F688379838A8321
:102200009B83C959D0402B853C854D855E85C3563F
:10221000DF4F688179818A819B81CD59D0400E94AE
:102220008B21C355DF4F688379838A839B83CD5A83
:10223000D0402B893C894D895E896B8D7C8D8D8D3D
:102240009E8D0E948B2169837A838B839C83CB54E0
:10225000DF4FE881F981C55BD040C158DF4FF9837A
:10226000E883CF57D040CF53DF4F19821882C15C2B
:10227000D04074C0C158DF4FA881B981CF57D0403A
:10228000CD90DD90C158DF4FB983A883CF57D040A0
:10229000ED962EAC3FACED972C0C3D1CF10140802F
:1022A000518062807380EB962EAD3FADEB97C20EEE
:1022B000D31ED6018D909D90AD90BC90C356DF4F3C
:1022C000288139814A815B81CD59D040C301B20157
:1022D0000E948B217B018C012B8D3C8D4D8D5E8D61
:1022E000C501B4010E948B219B01AC01C801B7015B
:1022F0000E940520F1016083718382839383C3561A
:10230000DF4F288139814A815B81CD59D040C50199
:10231000B4010E948B217B018C012B8D3C8D4D8D56
:102320005E8DC301B2010E948B219B01AC01C801EB
:10233000B7010E940420D6016D937D938D939C93E9
:102340001397CF53DF4FE881F981C15CD0403196BC
:10235000CF53DF4FF983E883C15CD040CF53DF4FC9
:1023600028813981C15CD040C954DF4F48815981EF
:10237000C75BD040241735070CF47CCF29813A8104
:102380004B815C81C355DF4F688179818A819B8154
:10239000CD5AD0400E940420CF56DF4F6883798306
:1023A0008A839B83C159D040ED968EAD9FADED974A
:1023B0000496ED969FAF8EAFED97EB96AEADBFADA9
:1023C000EB971496EB96BFAFAEAFEB97E996EEADF9
:1023D000FFADE9973496E996FFAFEEAFE997E79640
:1023E0002EAD3FADE7972C5F3F4FE7963FAF2EAF47
:1023F000E797E5964EAD5FADE5974C5F5F4FE5968D
:102400005FAF4EAFE597E3968EAD9FADE397049631
:10241000E3969FAF8EAFE3978FA998ADCF55DF4F6F
:10242000A881B981C15AD040A817B9070CF027CDAF
:10243000C154DF4FE881F981CF5BD040CD54DF4FED
:1024400028813981C35BD040E20FF31F80E090E028
:10245000A0E0B0E080839183A283B383C756DF4FAF
:10246000288139814A815B81C959D040AB96AEAD94
:10247000BFADAB972D933D934D935C931397CF5680
:10248000DF4F288139814A815B81C159D040C555D0
:10249000DF4FA881B981CB5AD0402D933D934D9306
:1024A0005C931397CB55DF4FE881F981C55AD04033
:1024B0003196CB55DF4FF983E883C55AD0407E97DC
:1024C00009F0A0C02D813E81215030403E832D83F4
:1024D000AB964EAD5FADAB9744505040AB965FAFFF
:1024E0004EAFAB97A9968EAD9FADA9970497A996CD
:1024F0009FAF8EAFA997A796AEADBFADA797149724
:10250000A796BFAFAEAFA797ED81FE81F7FDC2C022
:10251000A7962EAD3FADA7972C5F3F4FC555DF4F18
:1025200039832883CB5AD0403197CF55DF4FF98379
:10253000E883C15AD040AB964EAD5FADAB974450E7
:102540005040C755DF4F59834883C95AD040CB55B7
:10255000DF4F19821882C55AD04054C080E090E005
:102560009BC00F2EF0E06F2EF0E07F2EF0E08F2E5C
:10257000F0E09F2EF02DA40193016F89788D898D55
:102580009A8D0E948B212996AEADBFAD29976D9390
:102590007D938D939C931397C754DF4F88819981C6
:1025A000C95BD0400197EDA9FEA9E817F907B1F47E
:1025B00020E030E040E050E0CB57DF4F2883398304
:1025C0004A835B83C558D040CF57DF4F2883398378
:1025D0004A835B83C158D0400C949C0727960EAD6C
:1025E0001FAD279780E090E0A0E0B0E0CF57DF4F2D
:1025F00088839983AA83BB83C158D040EE24FF24EB
:102600000C94DC05AB960EAD1FADAB97A796CEAC88
:10261000DFACA797AD81BE81B8A7AFA3F3C8EE0C1E
:10262000FF1CEE0CFF1CCF54DF4FF982E882C15B28
:10263000D0408FA198A5880F991F880F991FC1546A
:10264000DF4FE881F981CF5BD040E80FF91FAF96EB
:10265000FFAFEEAFAF97C554DF4F28813981CB5B19
:10266000D040280F391FCF53DF4F39832883C15CF7
:10267000D040AD969FAF8EAFAD974FA158A55CAF40
:102680004BAF80E090E0A0E8BFE38F8F98A3A9A3B1
:10269000BAA307CA81E090E0CE53DF4F0FB6F8949B
:1026A000DEBF0FBECDBFDF91CF911F910F91FF9085
:1026B000EF90DF90CF90BF90AF909F908F907F90E2
:1026C0006F905F904F903F902F9008952F923F9280
:1026D0004F925F926F927F928F929F92AF92BF9232
:1026E000CF92DF92EF92FF920F931F93CF93DF93DE
:1026F0001B012A01E90137014801750186010E9489
:102700006803892BA9F1EE24FF2400E010E02DC01E
:1027100058010C5F1F4FFE01EA0DFB1DA401930140
:1027200060817181828193810E9469208823D4F421
:10273000A60120E030E010C0DA01ED91FD91AD017D
:10274000EA0DFB1D80819181A281B38189939993C8
:10275000A993B9932F5F3F4F221533056CF381E0A6
:1027600090E008C00894E11CF11CE414F50484F224
:1027700080E090E0DF91CF911F910F91FF90EF905B
:10278000DF90CF90BF90AF909F908F907F906F9091
:102790005F904F903F902F9008958FB7F8949927AE
:1027A00008958FBF08957FB7F89462B720912D01E7
:1027B00030912E0140912F015091300106B601FE5B
:1027C0000FC081B792B7280F311D411D511D2F5FDA
:1027D0003F4F4F4F5F4F290F311D411D511D04C009
:1027E000260F311D411D511D872F99278FBFCA010B
:1027F000B9010895282F9FB7F894E82FFF27E65CCA
:10280000FE4F80818F3F81F4E0916303E21771F402
:102810000BC02093DC0204C0FF27E65CFE4F208340
:102820002093630320E007C025E005C08091DC020F
:102830008F3F91F7EECF892F99278FBF822F99274E
:102840000895DF92EF92FF920F931F938FB7F89442
:10285000282F3327D22E91B782B746B7981711F099
:1028600041FF02C02FBF6AC0809197018823E1F128
:102870000E94D313E090C802F090C9020091CA02EE
:102880001091CB02209131013091320140913301FE
:10289000509134016E197F09800B910B62177307F9
:1028A0008407950720F01092970171E01EC02E0D4D
:1028B0003F1D401F511F80912D0190912E01A0912D
:1028C0002F01B0913001281B390B4A0B5B0B273EBF
:1028D00031054105510540F4822F223010F070E09F
:1028E00005C070E082E002C070E086EE682F6150A3
:1028F00000B601FCFDCF82B7681709F46F5F209125
:102900002D0130912E0140912F0150913001DA01BB
:10291000C9010196A11DB11D860F911DA11DB11DFB
:1029200082179307A407B50710F4622F609561BF63
:10293000DFBE772319F086E00E94FA131F910F91F2
:10294000FF90EF90DF900895AFB7F894BB27E1E0D8
:10295000E09397016093C8027093C9028093CA0202
:102960009093CB0220933101309332014093330195
:1029700050933401AFBF0E94211408959FB7F8947B
:10298000282F332720FF02C0DA9801C0DA9A21FFEE
:1029900002C0D99801C0D99A22FF02C0D89801C0BC
:1029A000D89A892F99278FBF08951F931FB7F8943E
:1029B00080916203882339F40E94FA13882319F462
:1029C00081E080936203812F99278FBF1F91089523
:1029D0009FB7F8948091A5028A3011F020E006C0DC
:1029E00020E080914801843009F421E0892F992763
:1029F0008FBF222349F082E00E94FA138FB7F89428
:102A0000992710921B0106C08FB7F894992721E0EF
:102A100020931B018FBF08952FB7F89433278CB9EB
:102A20005E9A2FBF0895FC016115710519F481E0CC
:102A300090E008958091510190915201892B19F0F5
:102A400085E090E008957093D6026093D502F093EC
:102A50005201E093510110924A011092490181E024
:102A600080934B015E9A569A808121E030E030934A
:102A70004A01209349010E940C1580E090E00895DE
:102A800080912C018E7F80932C018EE780934201F0
:102A900061E070E082E491E00E94131599270895A7
:102AA000ECE8F0E06927660FF11DE60FF11DC8950F
:102AB000982F802D3196C89590250895982F809154
:102AC0002701882389F5992379F531E0309327018F
:102AD00080910A018093280120911C01822F81702E
:102AE0008093390180910F019091100190932A01F8
:102AF0008093290180911D0180932B013227317031
:102B0000267EE32FFF27EE0FFF1FE55FFE4F80813C
:102B100091819093100180930F01232B20931C012E
:102B200085E00E94FA13089580911C0180FF02C085
:102B30008B7F01C08D7F80931C0108950F931F939D
:102B4000082F162F809148018130D9F0813038F05C
:102B5000823009F44AC0833009F00EC159C0002305
:102B600009F43EC11092CF021092CE021092C70219
:102B70001092D70210924C011092A3011092A20160
:102B80001FC1002309F02CC18091A2019091A301E3
:102B90000E9450159093A3018093A20182E080933C
:102BA00048011093D702143409F0E6C00BC1869592
:102BB000869503C080911C018695817009F0DCC068
:102BC00080911C01992311F0846001C08260809380
:102BD0001C0180911C01877E886080931C011092EB
:102BE0001D018FEF80930A01FBC0002309F0C4C0D0
:102BF00060934C018091A2019091A3010E94501515
:102C00009093A3018093A20183E080934801E8C0E0
:102C10008091C7028F3F09F4AFC0002309F447C079
:102C2000823008F4A9C0E091CE02EE2309F4D1C0AD
:102C30004E2F4150E42FFF27E253FD4F8281992709
:102C4000382F2227442311F4E2E002C0E42FE150A0
:102C5000FF27E253FD4F82819927282B392B809142
:102C6000A2019091A3012817390709F085C080E0DF
:102C70000E945E1530914C0180919801209199013C
:102C8000982F9F5F963008F090E0921709F474C077
:102C9000E82FFF27E856FE4F32838F5F809398011D
:102CA000863010F0109298010E94D51465C08230D1
:102CB00008F44EC0E091CF02FF27E253FD4F82811E
:102CC000482F5527342F20911C01822F86958695F9
:102CD0008695837099278130910519F00297F9F450
:102CE0000EC0277E206120931C01442311F485E04F
:102CF00001C080E080931D0130930A0110C08091D3
:102D00001D01883760F4E0910F01F0911001E80F88
:102D1000F11D408380911D018F5F80931D01809183
:102D2000CF02E82FFF27E253FD4F62818F5F809330
:102D3000CF02833010F01092CF0277278091A2014A
:102D40009091A3010E9450159093A3018093A2013A
:102D50008091CE02E82FFF27E253FD4F12838F5F51
:102D60008093CE02833010F01092CE028091C70281
:102D70008F5F8093C70234C01092CF021092CE02B0
:102D8000109248011092C7021092D70210924C0183
:102D90001092A3011092A20180912C018D7F80934B
:102DA0002C0181E00E945E1580911B01882331F087
:102DB00084E0809348010E94E81412C0002381F04F
:102DC00081E023CF80911C01982F917080FDEFCE80
:102DD000F1CE8091D2029927382F222742E036CFB8
:102DE0001F910F9108951F920F920FB60F92112409
:102DF0002F933F934F935F936F937F938F939F9303
:102E0000AF93BF93EF93FF935F9B3DC06CB1E09195
:102E1000A601F091A7013097F9F08091600390919D
:102E20006103E80FF91F608301969093610380931B
:102E3000600320916603309167038217930718F1AE
:102E40001092A7011092A6018091A2028330D9F0BE
:102E500057981092A20217C06E3719F460E081E013
:102E600010C080912C016D3721F4826080932C0179
:102E70000AC081FF05C08D7F80932C0180E2682706
:102E800080E00E949E15FF91EF91BF91AF919F91BD
:102E90008F917F916F915F914F913F912F910F9003
:102EA0000FBE0F901F901895982F8D57823068F4A1
:102EB00080912C01816080932C0180E2892780938E
:102EC000C6028DE78093420102C09093420161E007
:102ED00070E082E491E00E94131599270895789498
:102EE0001F920F920FB60F921124FF920F931F9310
:102EF0002F933F934F935F936F937F938F939F9302
:102F0000AF93BF93CF93DF93EF93FF93209149014A
:102F100030914A018091D5029091D6022817390745
:102F200080F4E0915101F0915201E20FF31F808192
:102F30002F5F3F4F30934A01209349010E940C15A7
:102F4000D0C0109252011092510110924B0156982C
:102F500080912C0180FF0EC08E7F80932C01809188
:102F6000C6028093420161E070E082E491E00E9439
:102F70001315B7C08091A502843009F494C0853040
:102F800040F4823021F18330B8F5813009F0A4C0DB
:102F90000DC0863009F495C0863008F48BC08730A8
:102FA00009F496C0883009F097C099C0809150010B
:102FB0000E945417182F83E08093A502609150015E
:102FC00080916403909165030E94501510C0809118
:102FD00057030E945417182F83E08093A502609135
:102FE000570380916403909165030E94501590935C
:102FF0006503809364036EC0FFB6F894E091A80166
:10300000FF27EE0FFF1FEC5AFE4F80810E945417DE
:10301000082F1091A801C12FDD27FE01EE0FFF1F21
:10302000EC5AFE4F608180916403909165030E9489
:103030005015909365038093640320914F012F5F97
:1030400020934F01113039F580912301E0911E0149
:10305000F0911F01E80FF11DE0818F5F8093230144
:1030600090912201981730F482E08093550140E05E
:1030700050E002C04E2F5527DE01AA0FBB1FFD01F5
:10308000ED5AFE4F8081823031F02F3F21F0AC5A53
:10309000BE4F4C9303C084E08093A502102F8F2D68
:1030A00099278FBF17C0809164030E945417182F6F
:1030B00085E00BC0809165030E945417182F86E0AD
:1030C00004C00E944015182F87E08093A50202C01B
:1030D00088E003C0112329F089E08093A5020E94B3
:1030E000D514FF91EF91DF91CF91BF91AF919F9157
:1030F0008F917F916F915F914F913F912F911F9190
:103100000F91FF900F900FBE0F901F9018951F9278
:103110000F920FB60F9211248F9380919B0087FF1F
:1031200002C080919C008F910F900FBE0F901F9056
:10313000189578941F920F920FB60F9211240F904A
:103140000FBE0F901F90189578941F920F920FB694
:103150000F9211240F900FBE0F901F901895789426
:103160001F920F920FB60F9211240F900FBE0F9067
:103170001F90189578941F920F920FB60F921124FA
:103180000F900FBE0F901F90189578941F920F927A
:103190000FB60F9211248F939F9380918800909186
:1031A00089009F918F910F900FBE0F901F901895DF
:1031B00078941F920F920FB60F9211242F933F9382
:1031C0008F939F932FB7F89433278091A00190910C
:1031D000A10101969093A1018093A0012FBF9F911F
:1031E0008F913F912F910F900FBE0F901F901895C8
:1031F0001F920F920FB60F9211248F9383B783BF44
:1032000000B600FCFDCF8F910F900FBE0F901F9066
:103210001895AF92BF92CF92DF92EF92FF920F93E9
:103220001F93CF93DF935C01EB01880F991F0E94DE
:1032300067226C017C01CC0FDD1FCC0FDD1F00E08D
:1032400010E009C0CE010E946722F701819391939B
:103250007F010F5F1F4F0A151B05A4F3C601DF9105
:10326000CF911F910F91FF90EF90DF90CF90BF9083
:10327000AF9008951F920F920FB60F9211242F93C3
:103280003F934F935F936F937F938F939F93AF93EE
:10329000BF93EF93FF9383B783BF00B600FCFDCFCE
:1032A00081B799270196AA27BB2720912D0130913C
:1032B0002E0140912F0150913001280F391F4A1FD4
:1032C0005B1F20932D0130932E0140932F015093CB
:1032D000300178940E942114FF91EF91BF91AF913A
:1032E0009F918F917F916F915F914F913F912F911E
:1032F0000F900FBE0F901F901895EF92FF920F93B3
:103300001F93E091B101E1FF2BC02091A901309101
:10331000AA014091AB015091AC01E090AD01F09059
:10332000AE010091AF011091B001621B730B840BD1
:10333000950B6E157F058007910790F0E0FF04C0A4
:10334000ED7FE093B1010CC02E0D3F1D401F511FBA
:103350002093A9013093AA014093AB015093AC0193
:1033600087E00E94FA131F910F91FF90EF9008954C
:103370002F923F924F925F927F928F929F92AF9245
:10338000BF92CF92DF92EF92FF920F931F93CF9352
:10339000DF93CDB7DEB724970FB6F894DEBF0FBE2C
:1033A000CDBF833009F4C5C1843038F4813009F4CD
:1033B000E9C0823008F0B9C10DC0853009F4D8C128
:1033C000853008F4B9C1863009F41CC4873009F08F
:1033D0009FC44BC48FB7F894109262032091A5024A
:1033E00040E0283009F441E030E0293009F431E0D0
:1033F000442311F4332351F01092A502E091A80167
:10340000FF27EE0FFF1FED5AFE4F108299278FBF47
:10341000442311F4332319F1809157038F5F809374
:103420005703809150018334A1F49FB7F894209101
:10343000990180919801821741F0822F8F5F8093CC
:103440009901863010F010929901892F99278FBF2A
:103450000AC0A0E0442309F4A1E071E006C02223E1
:1034600011F010E069C0A0E070E08FB7F8949927E0
:1034700020911B018FBF222341F08FB7F894992729
:103480002AE02093A5028FBF43C08FB7F8949927F5
:1034900060915301409155018FBF8FB7F894282F49
:1034A000332750E09091980180919901981709F481
:1034B00051E02FBF552349F5662339F55FB7F894DE
:1034C00082E0809353018FB7F894282F332740E090
:1034D0009091980180919901981709F441E02FBFCC
:1034E000442311F080E006C0E0919901FF27E856DF
:1034F000FE4F828180935401852F99278FBF83E4EB
:10350000809350011092A8010BC04150423010F03E
:1035100010E007C085E48093500181E08093A8010A
:1035200011E0772349F08FB7F8949927A0932401ED
:103530008FBF84E00E94FA138091A5028A3019F4AB
:103540000E94E814E5C3112309F4E2C32FB7F894ED
:103550003327109265031092640310924F0181E0AB
:103560008093A5022FBF0E944015882309F4D0C381
:103570008FB7F894992729E02093A5028FBF0E9466
:10358000D514C6C3569857981092A20210924B01B8
:10359000539A549A579A68E070E088E090E00E944D
:1035A000091990935D0380935C0368E070E088E004
:1035B00090E00E9409199093A5018093A40168E00E
:1035C00070E088E090E00E94091990934E0180938A
:1035D0004D0161E070E088E090E00E94091990934D
:1035E000A4028093A30261E070E083E090E00E9477
:1035F00009199093CD028093CC0240E050E07CC347
:10360000E0915C03F0915D03E40FF51F0190F08100
:10361000E02DE20FF31F80E090E0A0E0B0E08083B7
:103620009183A283B383E091A401F091A501E40FFB
:10363000F51F0190F081E02DE20FF31F808391834D
:10364000A283B383E0914D01F0914E01E40FF51F89
:103650000190F081E02DE20FF31F80839183A2831C
:10366000B3832C5F3F4F2032310551F64E5F5F4FE1
:103670004031510509F040C32091CC023091CD0278
:10368000D901ED91FC9180E090E0A0E8BFE3808358
:103690009183A283B383F90142815381FA0180832C
:1036A0009183A283B383F90124813581F901808359
:1036B0009183A283B38380E090E020E030E040E09B
:1036C00050E0A091A302B091A402ED91FD9120835E
:1036D000318342835383029680319105B1F780E2B2
:1036E00090E00E94672290935F0380935E030E94A4
:1036F000D3136093A9017093AA018093AB019093B7
:10370000AC0184EF91E0A0E0B0E08093AD01909334
:10371000AE01A093AF01B093B0018091B1018E7F53
:1037200082608093B10187E001C083E00E94FA13B8
:10373000EFC253985498ECC21092210110922001CC
:103740008FB7F89499278FBFE0911E01F0911F0168
:1037500080912601882309F0DBC28385893809F02E
:10376000D7C2EF5DF24009F0D3C210921801D0C267
:103770008FB7F89499272091280180902901909083
:103780002A0130912B01709039018FBF222309F05B
:1037900021C2932F9C50F4018385893809F01AC205
:1037A000943209F017C2A401445F5F4F80911A015F
:1037B000883011F410921A01F40187A580931A0140
:1037C00060E070E0C090A401D090A5019A0184014E
:1037D000045D1F4FE0911A01FF27EE0FFF1FEC0D54
:1037E000FD1D0190F081E02DE60FF71FD9012D900E
:1037F0003D904D905D909D0129823A824B825C8282
:1038000089819A81AB81BC8180839183A283B383B8
:103810006C5F7F4F20173107E9F6FA0100A121A163
:10382000E0911A01FF27EE0FFF1F8091A3029091F4
:10383000A402E80FF91FE080F1801127102F002764
:103840003327022B132BB801882777FD8095982FFB
:103850000E94D72017FF06C020E030E040E857E480
:103860000E940520D7016D937D938D939C931397B0
:10387000E0911A01FF279F01220F331F220F331FF0
:10388000295A3E4FEE0FFF1FEC0DFD1D0190F081F8
:10389000E02D80819181A281B381F90180839183A0
:1038A000A283B38381E08093190160E070E0EE248D
:1038B000FF2431C0E0914D01F0914E01E40FF51F5E
:1038C000208131812E0D3F1DA091A401B091A50151
:1038D000AC0DBD1DF80181918F01E82FFF27EE0F80
:1038E000FF1FEE0FFF1F8D919C91E80FF91F808144
:1038F0009181A281B381F90180839183A283B383F3
:103900004E5F5F4F48305105A9F66F5F7F4F24E04F
:1039100030E0E20EF31E80911A019927861797076F
:1039200044F06B01CC0CDD1C40E050E000E011E005
:10393000C1CF80E090E020915E0330915F0340E0D2
:1039400050E060E070E0F90141935193619371930D
:10395000049680329105C1F7C0905C03D0905D035E
:1039600040911A0155274F5F5F4F06EAA02E02E0F3
:10397000B02E0F2EF7E1EF2EF7EBFF2EF1ED0F2F0C
:10398000F8E31F2FF02D64E070E080914D019091DD
:103990004E010E946613892B11F140911A0155279F
:1039A0004F5F5F4F67E571E080915E0390915F0329
:1039B0000E946A016093350170933601809337014C
:1039C000909338019F772FE632E143E85AE30E9453
:1039D000872118163CF481E08093190108C01092E9
:1039E000190165C080911901882309F460C02091F4
:1039F0001A0133272F5F3F4F6091A3027091A402F9
:103A000001E010E048E553E080915E0390915F0390
:103A10000E94E20120911A0133272F5F3F4F6091EE
:103A2000A4017091A50108E010E047E751E0809102
:103A30005E0390915F030E94E2016091CC0270915D
:103A4000CD0214E0C12E11E0D12EB1E0EB2EF12C0D
:103A500003E010E028E030E044E451E087E791E043
:103A60000E946902609158037091590380915A0332
:103A700090915B03209144013091450140914601B2
:103A8000509147010E940420209135013091360168
:103A900040913701509138015F770E946D2060930B
:103AA00058037093590380935A0390935B0380915A
:103AB0001801882309F086C0809119010E94BE1464
:103AC00080911A01992780930E0310920D03809123
:103AD00019018823C9F08091580390915903A0914E
:103AE0005A03B0915B0389839A83AB83BC8389813A
:103AF0009A81AB81BC818093EB029093EC02A093FE
:103B0000ED02B093EE0216C020E030E040E85FEB3B
:103B1000EBEEF2E029833A834B835C8389819A81BF
:103B2000AB81BC8181939193A193B19383E0EB30FE
:103B3000F80781F78FEF8093E5028093E40289E82C
:103B40008093EA0284E28093E802809120019091C0
:103B50002101892B09F039C02FB7F894332785E06C
:103B600080932301109224018FED92E090931F0126
:103B700080931E0182E090E09093210180932001C8
:103B8000109226011092250180E3809322012FBF1D
:103B90009FB7F89480915501882311F020E006C06A
:103BA00081E0809355011092560121E0892F9927D9
:103BB0008FBF222309F4A3C00E94D51481E0809313
:103BC000180103C087E00E94BE1480911A018F5F24
:103BD00080931A018FB7F894E72DFF27EE0FFF1F90
:103BE000E55FFE4F9182808220911C01772011F0C9
:103BF0002B7F01C02D7F20931C0110922701992754
:103C00008FBF86C080914301882361F52091D8023F
:103C10003091D9024091DA025091DB02EFB7F8946B
:103C2000FF276091C8027091C9028091CA029091E9
:103C3000CB02E0903101F0903201009133011091FC
:103C400034016E0D7F1D801F911FEFBF2093D8029E
:103C50003093D9024093DA025093DB021092430171
:103C60000E94A4140E94D31351C00E94D3137B015D
:103C70008C018FB7F8949927109297018FBF80918C
:103C8000B10181FF45C08091A9019091AA01A09145
:103C9000AB01B091AC01A8019701281B390B4A0B6D
:103CA0005B0BDA01C9012091AD013091AE01409169
:103CB000AF015091B001281B390B4A0B5B0B2F3F12
:103CC0008FEF38078FEF48078FE7580709F1121673
:103CD000130614061506C4F42093D8023093D902B3
:103CE0004093DA025093DB0281E080934301C801E4
:103CF000B7010E94A4140CC020E030E081CC1092E7
:103D000021011092200161CFC801B7010E947D19E5
:103D100024960FB6F894DEBF0FBECDBFDF91CF91D2
:103D20001F910F91FF90EF90DF90CF90BF90AF90D9
:103D30009F908F907F905F904F903F902F9008952D
:103D40008091DC028F3FB1F0282F3327F901E65C28
:103D5000FE4F80818093DC028F3F11F480936303D8
:103D60008FEF80832F3F31F0822F0E94B81981E0BE
:103D700090E0089580E090E00895FF920F931F93E4
:103D8000FFB6F89448E050E06FEF70E08AE391E00E
:103D90000E9463238FEF8093DC028093630381E0B2
:103DA0008EBD88E080BF83E083BF8CB59DB54AE7B8
:103DB0002CB53DB52817390708F44150442311F0BC
:103DC000C901F6CF92B782B78917E9F32CB53DB593
:103DD00092B782B78917E9F38CB59DB5821B930B17
:103DE000409635E0969587953A95E1F79093DE02F7
:103DF0008093DD0213BE83B78EBD8EB580BF12BE29
:103E00001DBC1CBC8FEF86BF86B780937C0080B73B
:103E1000992787709070892BD1F715BA8FEF84BBE3
:103E2000D498DC98109289001092880080917D00CF
:103E3000846080937D0080918A00887F8260809377
:103E40008A00D29AD19AD09ADA9AD99AD89A80E2EC
:103E500085BF0E94A01E8823E1F780B7886080BFDD
:103E60008BE083BF86EE81BF87B7826087BF0E94E9
:103E7000211412E006E06091DD027091DE028827D5
:103E800099272CE0660F771F881F991F2A95D1F775
:103E900020E031EE40E050E00E94452221503040C9
:103EA00029B9832F9927809390001BB9009395001F
:103EB0001AB8209399008093980010939B00009368
:103EC0009D0010929A0084E490E09093D402809335
:103ED000D30210925301109255011092A502109234
:103EE0004F011092500110925703109265031092E7
:103EF0006403109262031092A8011092CF021092F4
:103F0000CE02109248011092C7021092D70210926E
:103F10004C011092A3011092A201109299011092EB
:103F200098010E94A01E8823E1F78F2D99278FBF4B
:103F3000789481E00E94FA138FB7F894482F5527A0
:103F400048C087B7992783709070892B19F4E5E0F2
:103F5000F0E013C080B7992787709070892BD1F754
:103F600081B792B7891B8C3030F082B7853F18F447
:103F7000E3E0F0E002C0E2E0F0E087B7887BC1F464
:103F800080917D008B7FA1F46E9912C08AB19091CF
:103F90009A00892B807C61F48091740082FD08C0B6
:103FA000379B03C081E090E005C085E090E002C04F
:103FB00080E090E025B78E1708F4E82FFF27E4573C
:103FC000FD4FE491237E2062E22BE5BF7894889533
:103FD000F8948091DC028F3F09F4B3CF282F332768
:103FE000F901E65CFE4F80818093DC028F3F11F483
:103FF000809363038FEF80832F3F09F4A2CF4FBFDD
:10400000822F0E94B81998CF5058BB27AA270ED0EC
:1040100044C135D130F03AD120F031F49F3F11F452
:104020001EF42AC10EF4E095E7FB20C1E92F46D12A
:1040300080F3BA17620773078407950718F071F4C5
:104040009EF55EC10EF4E0950B2EBA2FA02D0B014C
:10405000B90190010C01CA01A0011124FF27591BCD
:1040600099F0593F50F4503E68F11A16F040A22FD3
:10407000232F342F4427585FF3CF46953795279544
:10408000A795F0405395C9F77EF41F16BA0B620B43
:10409000730B840BBAF09150A1F0FF0FBB1F661F8A
:1040A000771F881FC2F70EC0BA0F621F731F841FCD
:1040B00048F4879577956795B795F7959E3F08F0F3
:1040C000B3CF9395880F08F09927EE0F97958795B2
:1040D0000895A8D008F481E008950CD0DEC0D6D0B1
:1040E00040F0CDD030F021F45F3F19F0BFC0511146
:1040F00008C1C2C0E3D098F39923C9F35523B1F3A3
:10410000951B550BBB27AA2762177307840738F046
:104110009F5F5F4F220F331F441FAA1FA9F333D0A5
:104120000E2E3AF0E0E830D091505040E695001C59
:10413000CAF729D0FE2F27D0660F771F881FBB1F15
:10414000261737074807AB07B0E809F0BB0B802DEF
:10415000BF01FF2793585F4F2AF09E3F510568F03B
:1041600085C0CFC05F3FECF3983EDCF38695779532
:104170006795B795F7959F5FC9F7880F911D96953D
:10418000879597F90895E1E0660F771F881FBB1F99
:10419000621773078407BA0720F0621B730B840B46
:1041A000BA0BEE1F88F7E0950895E89409C097FBD5
:1041B0003EF490958095709561957F4F8F4F9F4FFE
:1041C0009923A9F0F92F96E9BB279395F695879542
:1041D00077956795B795F111F8CFFAF4BB0F11F405
:1041E00060FF1BC06F5F7F4F8F4F9F4F16C08823AC
:1041F00011F096E911C0772321F09EE8872F762FE2
:1042000005C0662371F096E8862F70E060E02AF022
:104210009A95660F771F881FDAF7880F969587950E
:1042200097F90895990F0008550FAA0BE0E8FEEFE3
:1042300016161706E807F907C0F012161306E4076A
:10424000F50798F0621B730B840B950B39F40A2663
:1042500061F0232B242B252B21F408950A2609F441
:10426000A140A6958FEF811D811D089597F99F6745
:1042700080E870E060E008959FEF80EC08950024EE
:104280000A941616170618060906089500240A94BB
:1042900012161306140605060895092E0394000C41
:1042A00011F4882352F0BB0F40F4BF2B11F460FFD0
:1042B00004C06F5F7F4F8F4F9F4F089557FD9058F9
:1042C000440F551F59F05F3F71F04795880F97FBDA
:1042D000991F61F09F3F79F0879508951216130694
:1042E0001406551FF2CF4695F1DF08C016161706C3
:1042F0001806991FF1CF86957105610508940895F8
:10430000E894BB2766277727CB0197F908958ADFC2
:1043100008F48FEF08950BD0C0CFB1DF28F0B6DFDF
:1043200018F0952309F0A2CFA7CF1124EACFC6DF5A
:10433000A0F3959FD1F3950F50E0551F629FF001B8
:10434000729FBB27F00DB11D639FAA27F00DB11D11
:10435000AA1F649F6627B00DA11D661F829F22279A
:10436000B00DA11D621F739FB00DA11D621F839F21
:10437000A00D611D221F749F3327A00D611D231FF7
:10438000849F600D211D822F762F6A2F11249F5745
:1043900050408AF0E1F088234AF0EE0FFF1FBB1F68
:1043A000661F771F881F91505040A9F79E3F510507
:1043B00070F05CCFA6CF5F3FECF3983EDCF38695C0
:1043C00077956795B795F795E7959F5FC1F7FE2BB2
:1043D000880F911D9695879597F9089511F40EF41D
:1043E0004BCF3EC073DFD0F39923D9F3CEF39F5761
:1043F000550B87FF43D00024A0E640EA9001805887
:104400005695979528F4805C660F771F881F20F0DB
:1044100026173707480730F4621B730B840B2029DB
:1044200031294A2BA69517940794202531254A2730
:1044300058F7660F771F881F20F0261737074807A1
:1044400030F4620B730B840B200D311D411DA095C0
:1044500081F7B901842F9158880F96958795089513
:104460009F3F31F0915020F4879577956795B795E8
:10447000880F911D9695879597F908959150504012
:10448000660F771F881FD2F70895A1E21A2EAA1B84
:10449000BB1BFD010DC0AA1FBB1FEE1FFF1FA217F4
:1044A000B307E407F50720F0A21BB30BE40BF50BF1
:1044B000661F771F881F991F1A9469F7609570957A
:1044C000809590959B01AC01BD01CF010895CF93DC
:1044D000DF93AC01029710F442E050E0A0916A0330
:1044E000B0916B03FD01C0E0D0E020E030E020C0DF
:1044F000808191818417950769F482819381209747
:1045000019F09B838A8304C090936B0380936A03A2
:10451000CF0132C04817590738F42115310519F079
:104520008217930708F49C01EF010280F381E02DCC
:104530003097F1F62115310589F1C901841B950BDE
:10454000049708F4A901E0E0F0E026C08D919C9169
:10455000119782179307E9F44817590779F4ED0189
:104560008A819B81309719F09383828304C0909352
:104570006B0380936A03CD0102964CC0841B950B9C
:10458000FD01E80FF91F4193519302978D939C937E
:104590003DC0FD01A281B3811097C1F680916803EF
:1045A00090916903892B41F480911301909114013A
:1045B000909369038093680320911501309116014F
:1045C0002115310541F42DB73EB78091110190912D
:1045D0001201281B390BE0916803F0916903E2177F
:1045E000F307B0F42E1B3F0B2417350788F0CA01E0
:1045F00002962817390760F0CF01840F951F0296A5
:10460000909369038093680341935193CF0102C053
:1046100080E090E0DF91CF910895CF93DF930097F2
:1046200009F44EC0EC0122971B821A82A0916A0302
:10463000B0916B03109711F140E050E001C0DC0134
:10464000AC17BD0700F1BB83AA83FE012191319114
:10465000E20FF31FEA17FB0771F42E5F3F4F8D91B6
:104660009C911197820F931F99838883FD0182810A
:1046700093819B838A834115510559F4D0936B0331
:10468000C0936A031DC0FD0182819381AD01009733
:10469000B1F6FA01D383C28321913191E20FF31F66
:1046A000EC17FD0769F42E5F3F4F88819981820FD7
:1046B000931FFA01918380838A819B8193838283F4
:1046C000DF91CF910895DC0101C06D9341505040BE
:0646D000E0F70895FFCFA2
:1046D60001030507020004000600FFB2012A02B228
:0846E6000120006C030000003C
:00000001FF
