S01800006275696C642F6D6963617A2F6D61696E2E73726563E5
S11300000C9449010C9468010C9468010C946801E7
S11300100C9468010C9468010C9468010C946801B8
S11300200C9468010C9468010C9468010C946801A8
S11300300C9468010C9468010C9468010C944017AA
S11300400C94FE160C9468010C94F9140C94680139
S11300500C9475150C9468010C9468010C94680157
S11300600C9468010C94CB160C94AA160C94B51637
S11300700C94C0160C94DE160C948D160C94680126
S11300800C949F160C9468010C94680100002110D4
S1130090422063308440A550C660E77008812991EE
S11300A04AA16BB18CC1ADD1CEE1EFF13112100296
S11300B073325222B5529442F772D662399318833E
S11300C07BB35AA3BDD39CC3FFF3DEE36224433462
S11300D020040114E664C774A44485546AA54BB58E
S11300E028850995EEE5CFF5ACC58DD55336722636
S11300F011163006D776F6669556B4465BB77AA7DE
S113010019973887DFF7FEE79DD7BCC7C448E55881
S11301108668A7784008611802282338CCC9EDD92D
S11301208EE9AFF9488969990AA92BB9F55AD44AD5
S1130130B77A966A711A500A333A122AFDDBDCCB7D
S1130140BFFB9EEB799B588B3BBB1AABA66C877CA1
S1130150E44CC55C222C033C600C411CAEED8FFDCD
S1130160ECCDCDDD2AAD0BBD688D499D977EB66E75
S1130170D55EF44E133E322E511E700E9FFFBEEF1D
S1130180DDDFFCCF1BBF3AAF599F788F8891A981DF
S1130190CAB1EBA10CD12DC14EF16FE18010A100C9
S11301A0C230E3200450254046706760B9839893B9
S11301B0FBA3DAB33DC31CD37FE35EF3B102901219
S11301C0F322D2323542145277625672EAB5CBA585
S11301D0A89589856EF54FE52CD50DC5E234C32469
S11301E0A01481046674476424540544DBA7FAB759
S11301F09987B8975FE77EF71DC73CD7D326F236B9
S11302009106B01657667676154634564CD96DC9A4
S11302100EF92FE9C899E9898AB9ABA94458654808
S113022006782768C018E1088238A3287DCB5CDBF8
S11302303FEB1EFBF98BD89BBBAB9ABB754A545A58
S1130240376A167AF10AD01AB32A923A2EFD0FEDC4
S11302506CDD4DCDAABD8BADE89DC98D267C076CA8
S1130260645C454CA23C832CE01CC10C1FEF3EFF98
S11302705DCF7CDF9BAFBABFD98FF89F176E367EF8
S1130280554E745E932EB23ED10EF01E00081C181B
S1130290141011241FBECFEFD0E1DEBFCDBF11E09B
S11302A0A0E0B1E0E0E3FFE300E00BBF02C0079091
S11302B00D92AE30B107D9F713E0AEE0B1E001C062
S11302C01D92AD32B107E1F70E94271B0C94971FD2
S11302D00C940000AF92BF92CF92DF92EF92FF9204
S11302E00F931F935B016C01E894D7F879018A019D
S11302F0E89417F9A8019701C601B5010E94B41D3D
S11303001816BCF4A6019501C801B7010E94D71CB8
S11303109B01AC010E94B81D20E030E040E85FE39F
S11303200E946F1C0E941F1E9B01AC01C601B501F7
S113033025C020E030E040E050E0C801B7010E9451
S1130340B41D18162CF060E070E080E090E018C056
S1130350A8019701C601B5010E94D71C9B01AC01FD
S11303600E94B81D20E030E040E85FE30E946F1C6B
S11303700E941F1E9B01AC01C801B7010E94B81D59
S11303801F910F91FF90EF90DF90CF90BF90AF90AF
S113039008952F923F924F925F926F927F928F9225
S11303A09F92AF92BF92CF92DF92EF92FF920F9300
S11303B01F93CF93DF93CDB7DEB7C25CD0400FB6A7
S11303C0F894DEBF0FBECDBFCB54DF4F9983888333
S11303D0C55BD040C954DF4F79836883C75BD04085
S11303E0C754DF4F59834883C95BD040C554DF4F9E
S11303F039832883CB5BD040C354DF4F19830883F0
S1130400CD5BD040C154DF4FF982E882CF5BD0404E
S11304106417750714F40C941D112F963FAF2EAF7B
S11304202F972B96FFAEEEAE2B9729965FAF4EAF6C
S113043029971C0127967FAF6EAF279720E030E005
S113044040E050E0C557DF4F288339834A835B83FC
S1130450CB58D040298F3A8F4B8F5C8FC957DF4FD1
S1130460288339834A835B83C758D04061961FAE83
S11304701EAE61972D961FAE1EAE2D9744E050E040
S113048012C48BAD9CAD0196CD55DF4F9983888303
S1130490C35AD04061969FAF8EAF6197298D3A8D34
S11304A04B8D5C8DC957DF4F688179818A819B812F
S11304B0C758D0400E94B81D2B96AEADBFAD2B9748
S11304C06D937D938D939C931397EBADFCADC954C1
S11304D0DF4F28813981C75BD040E217F3070CF066
S11304E091C1810180E090E0A0E0B0E08D8F9E8F0B
S11304F0AF8FB8A3EE24FF24D801ED91FD918D01B7
S11305002D962EAD3FAD2D97E20FF31F2081318143
S1130510428153815F776D8D7E8D8F8D98A10E946E
S11305206F1C6D8F7E8F8F8F98A30894E11CF11C34
S113053027964EAD5FAD2797E416F506E9F620E061
S113054030E040E050E00E94D31C882311F40C9466
S1130550201171010F2EF0E06F2EF0E07F2EF0E0FD
S11305608F2EF0E09F2EF02DCC24DD24D7010D91A9
S11305701D917D012D96EEADFFAD2D970E0F1F1F22
S11305802D8D3E8D4F8D58A1D8016D917D918D910A
S11305909C910E94D71CF8016083718382839383AA
S11305A09B01AC010E94B81D9B01AC01C401B301C5
S11305B00E946F1C3B014C010894C11CD11C27965E
S11305C02EAD3FAD2797C216D30681F6D1014D90CB
S11305D05C902D96EEADFFAD2D974E0E5F1ED201B1
S11305E0ED90FD900D911C9120E030E040E050E052
S11305F0C801B7010E94B41D882364F0C401B3018B
S11306000E941F1E9F775B016C01D7FAD094D7F824
S1130610D09408C0C401B3010E941F1E5B016C0189
S1130620E894D7F8A6019501C801B7010E94B81D46
S1130630A40193010E946E1C6FA778AB89AB9AAB9F
S1130640A6019501C801B7010E946E1CF2016083E6
S1130650718382839383C754DF4F88819981C95BF7
S1130660D04001972BAD3CAD2817390709F4A0C041
S113067025964EAC5FAC259763961FAE1EAE63976E
S11306807DC0D401ED91FD914D012D968EAD9FADB0
S11306902D978E0F9F1FE40DF51D2081318142811E
S11306A05381FC0160817181828193810E94B81D14
S11306B09B01AC01C801B7010E946F1C7B018C0136
S11306C00894611C711C27962EAD3FAD27976216C6
S11306D07306B9F62FA538A949A95AA90E94D71CAF
S11306E03B014C017101CF53DF4F19821882C15C69
S11306F0D040D701ED91FD917D018F01040D151DB1
S11307002D962EAD3FAD2D97E20FF31F2081318141
S113071042815381C401B3010E94B81D9B01AC0105
S1130720D8016D917D918D919C910E946F1CF8016F
S11307306083718382839383CF53DF4F2881398110
S1130740C15CD0402F5F3F4FCF53DF4F39832883A5
S1130750C15CD04027964EAD5FAD2797241735076F
S113076041F663968EAD9FAD6397019663969FAFF6
S11307708EAF6397A4E0B0E04A0E5B1E29968EAD5F
S11307809FAD299701976396EEADFFAD6397E81788
S1130790F90771F041010F2EF0E0EF2EF0E0FF2E8B
S11307A0F0E00F2FF0E01F2FF02D6624772469CF9F
S11307B0710188249924D7010D911D917D012D96F5
S11307C0EEADFFAD2D970E0F1F1F2D8D3E8D4F8D5E
S11307D058A1D8016D917D918D919C910E94B81D75
S11307E0F80160837183828393830894811C911C34
S11307F027962EAD3FAD27978216930611F40C94DD
S11308002A11D9CF80E090E0A0E0B0E02F96EEADC1
S1130810FFAD2F9780839183A283B383898F9A8FAF
S1130820AB8FBC8FC957DF4F88839983AA83BB835F
S1130830C758D040D2C1D101ED91FC91E00FF11F16
S113084020813181428153815F77C957DF4F6881AD
S113085079818A819B81C758D0400E946F1CC957F7
S1130860DF4F688379838A839B83C758D040089479
S1130870E11CF11C0C5F1F4F2996EEADFFAD2997CB
S1130880EE16FF06C1F620E030E040E050E0C95724
S1130890DF4F688179818A819B81C758D0400E944B
S11308A0D31C882349F420E030E040E050E0298F55
S11308B03A8F4B8F5C8F91C12D968EAC9FAC2D9748
S11308C00F2EF0E0AF2EF0E0BF2EF0E0CF2EF0E0E0
S11308D0DF2EF02DEE24FF2423C08401040D151D0A
S11308E0C957DF4F288139814A815B81C758D0407D
S11308F0D8016D917D918D919C910E94D71CF80136
S113090060837183828393839B01AC010E94B81D31
S11309109B01AC01C601B5010E946F1C5B016C0117
S11309200894E11CF11C24E030E0820E931ED101F6
S11309304D905C902996EEADFFAD2997EE16FF061B
S113094061F625968EAC9FAC2597840C951CD4013A
S1130950ED90FD900D911C9120E030E040E050E0DE
S1130960C801B7010E94B41D88233CF0C601B5013B
S11309700E941F1E9F77905805C0C601B5010E94B2
S11309801F1E9F77698F7A8F8B8F9C8F298D3A8D4D
S11309904B8D5C8DC801B7010E94B81DA60195015D
S11309A00E946E1C5B016C01298D3A8D4B8D5C8D10
S11309B0C801B7010E946E1CF401608371838283B5
S11309C093832D960EAD1FAD2D97040D151D2B96FB
S11309D08EAC9FAC2B97EE24FF240EC0A60195018C
S11309E0D8016D917D918D919C910E94D71CF40149
S11309F060837183828393830894E11CF11C0C5FF0
S1130A001F4F24E030E0820E931E29964EAD5FAD59
S1130A102997E416F50611F7C954DF4F88819981A7
S1130A20C75BD0400197ABADBCADA817B90709F4BB
S1130A30AAC0510165961FAE1EAE659784C0F5012C
S1130A40A281B381AE0DBF1DF801208131814281A5
S1130A5053816D917D918D919C910E94B81D9B0154
S1130A60AC01C401B3010E946F1C3B014C0108940A
S1130A70C11CD11C24E030E0E20EF31E0C5F1F4FBA
S1130A8029964EAD5FAD2997C416D506C1F62D96AD
S1130A90EEACFFAC2D972B968EAD9FAD2B97CF531D
S1130AA0DF4F99838883C15CD040CC24DD2422C0ED
S1130AB0F501028113810E0D1F1DCF53DF4FA88155
S1130AC0B981C15CD0402D913D914D915C91C4019F
S1130AD0B3010E94B81D9B01AC01F80160817181D2
S1130AE0828193810E946F1CD8016D937D938D93B5
S1130AF09C9313970894C11CD11CE4E0F0E0EE0E23
S1130B00FF1ECF53DF4F28813981C15CD0402C5F59
S1130B103F4FCF53DF4F39832883C15CD0402996A0
S1130B204EAD5FAD2997C416D50611F665968EAD08
S1130B309FAD6597019665969FAF8EAF6597A2E0CE
S1130B40B0E0AA0EBB1E27968EAD9FAD27970197E6
S1130B506596EEADFFAD6597E817F907A1F02D9600
S1130B60EEACFFAC2D978701040D151D0F2EF0E0A0
S1130B706F2EF0E07F2EF0E08F2EF0E09F2EF02D10
S1130B80CC24DD2474CF2D96EEACFFAC2D97E40C71
S1130B90F51C00E010E014C0C957DF4F28813981EB
S1130BA04A815B81C758D040D7016D917D918D9169
S1130BB09C910E94B81DF7016083718382839383A3
S1130BC00F5F1F4F24E030E0E20EF31E29964EAD76
S1130BD05FAD299704171507F9F62F96AEADBFAD93
S1130BE02F976D917D918D919C919F772B96EEAD72
S1130BF0FFAD2B9720813181428153815F770E9421
S1130C006F1C7B018C019B01AC01C557DF4F6881D0
S1130C1079818A819B81CB58D0400E94B41D1816DB
S1130C2044F0C557DF4FE882F9820A831B83CB580F
S1130C30D0402F962EAD3FAD2F972C5F3F4F2F9670
S1130C403FAF2EAF2F972D964EAD5FAD2D974C5FD6
S1130C505F4F2D965FAF4EAF2D972B968EAD9FAD08
S1130C602B9704962B969FAF8EAF2B972996AEADFC
S1130C70BFAD299711972996BFAFAEAF2997E2E090
S1130C80F0E02E0E3F1E27962EAD3FAD2797215044
S1130C90304027963FAF2EAF279725964EAD5FADD8
S1130CA025974C5F5F4F25965FAF4EAF25976196B2
S1130CB08EAD9FAD61979CAF8BAFC754DF4FA881BA
S1130CC0B981C95BD0408A179B070CF4DACB119722
S1130CD02196BFAFAEAF2197C754DF4F888199816A
S1130CE0C95BD040880F991FC354DF4FE881F98155
S1130CF0CD5BD040E80FF91F3297A396FFAFEEAF5C
S1130D00A397C754DF4F28813981C95BD040220F94
S1130D10331F220F331F6F963FAF2EAF6F972450B0
S1130D203040A1963FAF2EAFA1971901C154DF4FB8
S1130D3048815981CF5BD0406F96AEADBFAD6F9700
S1130D404A0F5B1F6B965FAF4EAF6B97445050409A
S1130D506D965FAF4EAF6D97CB54DF4FE881F9814D
S1130D60C55BD040E80FF91F6796FFAFEEAF6797FA
S1130D7032976996FFAFEEAF699721962EAD3FADDE
S1130D802197C955DF4F39832883C75AD040DDC125
S1130D90C955DF4F48815981C75AD04021968EAD3D
S1130DA09FAD2197481759070CF082C120E030E02D
S1130DB040E050E0698D7A8D8B8D9C8D0E94D31C10
S1130DC0882309F42CC1CD55DF4F48805980C35A7C
S1130DD0D040440C551C440C551CCD55DF4FA88104
S1130DE0B981C35AD040AA0FBB1FA596BFAFAEAFFF
S1130DF0A597C354DF4FC880D980CD5BD040CA0EBD
S1130E00DB1E7201CD55DF4FA880B980C35AD04094
S1130E102DC06996AEADBFAD6997ED91FC91D60139
S1130E200D911D916D01020D131DDF01AE0DBF1D4E
S1130E30E40DF51D20813181428153816D917D91B5
S1130E408D919C910E94D71C298D3A8D4B8D5C8D80
S1130E500E94D71CF8016083718382839383089472
S1130E60A11CB11C24E030E0E20EF31EC754DF4F96
S1130E7048815981C95BD040A416B50654F2720169
S1130E80CD55DF4FC880D980C35AD0409BC06996E6
S1130E90AEADBFAD69978D919C91800F911FF50107
S1130EA0A191B1915F01AE0DBF1D2D913D914D9169
S1130EB05C91DC016D917D918D919C910E94B81D96
S1130EC09B01AC01C401B3010E946F1C3B014C01A6
S1130ED0CF53DF4FE881F981C15CD0403196CF53C5
S1130EE0DF4FF983E883C15CD0400C5F1F4FCF53C1
S1130EF0DF4F28813981C15CD040C754DF4F48811E
S1130F005981C95BD040241735070CF2C354DF4F15
S1130F10A880B980CD5BD040A5968EAD9FADA59736
S1130F20A80EB91ECD55DF4FA881B981C35AD04050
S1130F30CF53DF4FB983A883C15CD0402DC0D50106
S1130F40ED91FD915D018F010E0D1F1DE20DF31D4D
S1130F502081318142815381C401B3010E94B81DB3
S1130F609B01AC01F80160817181828193810E94AF
S1130F706F1CD8016D937D938D939C931397CF53DE
S1130F80DF4FE881F981C15CD0403196CF53DF4F08
S1130F90F983E883C15CD040CF53DF4F2881398186
S1130FA0C15CD040C754DF4F48815981C95BD040F0
S1130FB02417350724F20894C11CD11C84E090E066
S1130FC0E80EF91EC754DF4FA881B981C95BD04030
S1130FD0CA16DB0624F58201C354DF4FA880B9800A
S1130FE0CD5BD040A596EEADFFADA597AE0EBF1E6E
S1130FF0CD55DF4F28813981C35AD040CF53DF4FBD
S113100039832883C15CD0400F2EF0E06F2EF0E0CE
S11310107F2EF0E08F2EF0E09F2EF02D68CFCD557F
S1131020DF4F28813981C35AD040220F331F220F4A
S1131030331FCD55DF4F08811981C35AD040000FAB
S1131040111FC354DF4F48815981CD5BD040040F39
S1131050151FCD55DF4F88819981C35AD04040E098
S113106050E060E070E01BC0A396EEADFFADA39727
S1131070A081B181A20FB31FF801E190F1908F011B
S1131080E20CF31CF70140835183628373834D9315
S11310905D936D937C93139701962C5F3F4FC754D8
S11310A0DF4FA881B981C95BD0408A179B07E4F25E
S11310B0A396AEADBFADA397ED91FC91E20DF31DE8
S11310C080E090E0A0E8BFE380839183A283B383B0
S11310D06D96AEADBFAD6D972D913D914D915C91E7
S11310E01397298F3A8F4B8F5C8FA396EEADFFAD8C
S11310F0A3973297A396FFAFEEAFA3972CEF3FEFE2
S1131100220E331E14976D96BFAFAEAF6D976996DE
S11311104EAD5FAD69974250504069965FAF4EAF98
S11311206997C955DF4F88819981C75AD040CD55F9
S1131130DF4F99838883C35AD040DC011197C95586
S1131140DF4FB983A883C75AD040C955DF4FE88120
S1131150F981C75AD040F7FF1BCE67966EAC7FACBF
S113116067972EEF3FEF620E731EA196AEACBFAC35
S1131170A197C554DF4F48815981CB5BD0406F960E
S11311808EAD9FAD6F97480F591FA7965FAF4EAFB7
S1131190A79744505040A9965FAF4EAFA9972196A8
S11311A0CEACDFAC219762C146010894811C911C2E
S11311B0A996AEADBFADA997ED90FD900D911C9190
S11311C02196EEADFFAD2197CE16DF06E4F495012E
S11311D0C60140E050E060E070E009C0D301ED9149
S11311E0FC91E20FF31F4083518362837383019662
S11311F02C5F3F4FC754DF4FE881F981C95BD04072
S11312008E179F075CF320E030E040E050E0C80117
S1131210B7010E94D31C882319F4A3019601F2C0DC
S1131220A801970160E070E080E89FE30E94D71C6A
S1131230698B7A8B8B8B9C8B21962EAD3FAD21973E
S1131240C216D30609F4A8C0A5014C5F5F4FAB9644
S11312505FAF4EAFAB979CA28BA286C0D401ED9139
S1131260FC91BF016A0D7B1DAB962EAD3FADAB97D4
S1131270E20FF31F2081318142815381DB016D91A3
S11312807D918D919C910E94B81D9B01AC01C80178
S1131290B7010E946F1C7B018C010894411C511CF6
S11312A0E2E0F0E08E0E9F1EC954DF4F28813981A1
S11312B0C75BD040421653068CF2D301ED91FC91EA
S11312C0EA0DFB1D2081318142815381C801B701A0
S11312D00E94D71C29893A894B895C890E94B81DD0
S11312E01B012C017301460126C0D701ED91FD912C
S11312F07D01AB960EAD1FADAB970E0F1F1FEA0D10
S1131300FB1D2081318142815381C201B1010E94C0
S1131310B81D9B01AC01F8016081718182819381C8
S11313200E946F1CD8016D937D938D939C931397AA
S11313300894811C911CC954DF4FE881F981C75B73
S1131340D0408E169F068CF22BA13CA12F5F3F4FFD
S11313503CA32BA3AB964EAD5FADAB974C5F5F4FF9
S1131360AB965FAF4EAFAB978BA19CA1C754DF4F39
S1131370A881B981C95BD0408A179B076CF44301EB
S113138026010F2EF0E0EF2EF0E0FF2EF0E00F2FFD
S1131390F0E01F2FF02D81CF7301460119C0F70132
S11313A0019111917F010A0D1B1D29893A894B89ED
S11313B05C89D8016D917D918D919C910E94B81D9D
S11313C0F80160837183828393830894811C911C48
S11313D0C954DF4F28813981C75BD04082169306F8
S11313E0F4F219C0DA01ED91FD91AD01EA0DFB1D96
S11313F080E090E0A0E0B0E080839183A283B38397
S11314002F5F3F4FC954DF4FE881F981C75BD0405C
S11314102E173F073CF3D3010D911C910A0D1B1DA0
S113142020E030E040E85FE3F8016081718182816F
S113143093810E946F1CD8016D937D938D939C932F
S113144013970894C108D108EEEFFFEF6E0E7F1ECC
S11314502CEF3FEFA20EB31EA9964EAD5FADA99738
S113146044505040A9965FAF4EAFA997D7FE9CCE8B
S11314706B968EAD9FAD6B970497E1969FAF8EAF41
S1131480E197A196AEADBFADA197AF96BFAFAEAF9A
S1131490AF97A796EEADFFADA7973897AD96FFAF80
S11314A0EEAFAD9721962EAD3FAD2197388B2F87A8
S11314B09EC6D8016D917D918D919C919F77C55762
S11314C0DF4F288139814A815B81CB58D0400E940B
S11314D06F1CC557DF4F288139814A815B81CB5806
S11314E0D0400E94D31C882309F440C1EDA4FEA47B
S11314F00894E108F108F601608171818281938189
S11315009F77C557DF4F288139814A815B81CB584A
S1131510D0400E946F1CC557DF4F288139814A8112
S11315205B81CB58D0400E94D31C882309F4E2C6C7
S1131530045010402CEF3FEFC20ED31EFEA6EDA6C2
S1131540A7014F5F5F4F09F4D5C6B3CFE596AEADA3
S1131550BFADE5972D913D914D915C9169A57AA51B
S11315608BA59CA50E94B81D3B014C019F77C557D4
S1131570DF4F288139814A815B81CB58D0400E945A
S11315806F1CC557DF4F288139814A815B81CB5855
S1131590D0400E94D31C882309F4B5C0CF53DF4F39
S11315A0E881F981C15CD040A080B180C280D38041
S11315B0A6019501C401B3010E946A019B01AC011B
S11315C0CF53DF4FA881B981C15CD0406D937D9327
S11315D08D939C93139760E070E080E89FE30E94F2
S11315E0D71C7B018C019B01AC01C601B5010E9493
S11315F0B81D6D837E838F839887C401B30190588F
S1131600A80197010E94B81D69A77AA78BA79CA778
S1131610CB54DF4FE881F981C55BD040E796FFAF3B
S1131620EEAFE7971AA219A262C0E796AEADBFADBE
S1131630E797CD90DD90E796BFAFAEAFE797CF5475
S1131640DF4F28803980C15BD0402C0C3D1CF10158
S11316504080518062807380E3962EAD3FADE39766
S1131660C20ED31ED6018D909D90AD90BC902D815D
S11316703E814F815885C301B2010E94B81D7B0190
S11316808C0129A53AA54BA55CA5C501B4010E940E
S1131690B81D9B01AC01C801B7010E946F1CF10188
S11316A060837183828393832D813E814F8158852A
S11316B0C501B4010E94B81D7B018C0129A53AA57E
S11316C04BA55CA5C301B2010E94B81D9B01AC01EE
S11316D0C801B7010E946E1CD6016D937D938D9352
S11316E09C931397E9A1FAA13196FAA3E9A329A13E
S11316F03AA1C954DF4F48815981C75BD0402417B0
S113170035070CF492CF23968EAD9FAD23970196A7
S113171023969FAF8EAF2397E596AEADBFADE59709
S11317201496E596BFAFAEAFE597CF53DF4FE88190
S1131730F981C15CD0403496CF53DF4FF983E883FD
S1131740C15CD040E3962EAD3FADE3972C5F3F4F95
S1131750E3963FAF2EAFE39723964EAD5FAD23974D
S11317608F859889841795070CF0F0CEC555DF4F07
S1131770A881B981CB5AD0402D903D904D905C907A
S1131780EDA5FEA52F853889E217F30709F040C0BF
S113179020E030E040E050E0C201B1010E94D31CDF
S11317A088230CF002C5D201C101B058C555DF4FE2
S11317B0E881F981CB5AD04080839183A283B3839B
S11317C0C354DF4F48815981CD5BD04020E030E0E5
S11317D015C0DA01ED91FD91AD01AF968EAD9FADCF
S11317E0AF97E80FF91F80819181A281B381B0582E
S11317F080839183A283B3832F5F3F4FC754DF4F0E
S1131800A881B981C95BD0402A173B0714F3CDC422
S1131810EDA5FEA5EE0FFF1FEE0FFF1FCD54DF4F0A
S1131820F983E883C35BD040C554DF4F28813981F5
S1131830CB5BD0402E0F3F1FD9018D919D910D9010
S1131840BC91A02DCD56DF4F88839983AA83BB8397
S1131850C359D040AD96AEADBFADAD972D913D917E
S11318604D915C91C157DF4F288339834A835B8351
S1131870CF58D040C755DF4FE881F981C95AD040CD
S1131880A080B180C280D380E196AEADBFADE197B8
S11318902D913D914D915C91C956DF4F2883398339
S11318A04A835B83C759D040A2019101C157DF4FDE
S11318B0688179818A819B81CF58D0400E946E1CB7
S11318C07B018C01A2019101C157DF4F68817981AD
S11318D08A819B81CF58D0400E946F1C9B01AC0130
S11318E0C801B7010E94B81D3B014C01C956DF4F26
S11318F0288139814A815B81C759D040C601B5012D
S11319000E946E1C7B018C01C956DF4F28813981EE
S11319104A815B81C759D040C601B5010E946F1C42
S11319209B01AC01C801B7010E94B81D9B01AC0129
S1131930C401B3010E946F1C7B018C01C956DF4FA7
S1131940288139814A815B81C759D040CA01B901D4
S11319500E946F1CC157DF4F288139814A815B8106
S1131960CF58D0400E94B81D9B01AC01C801B701FB
S11319700E94D71C3B014C0120E030E040E85FE3CB
S11319800E946A017B018C0120E030E040E050E0DD
S1131990C401B3010E94B41DA80197015F77882395
S11319A01CF059016A0106C059016A01D7FAD094A2
S11319B0D7F8D094A2019101CD56DF4F6881798187
S11319C08A819B81C359D0400E946E1C7B018C018B
S11319D0A2019101CD56DF4F688179818A819B8173
S11319E0C359D0400E946F1C9B01AC01C801B701D0
S11319F00E94B81D7B018C01A6019501C401B301AD
S1131A000E946F1C9B01AC01C157DF4F6881798133
S1131A108A819B81CF58D0400E94D71CC956DF4F82
S1131A20288139814A815B81C759D0400E946E1C4C
S1131A309B01AC01C956DF4F688179818A819B8102
S1131A40C759D0400E94B81D9B01AC01C801B70121
S1131A500E946F1CCD56DF4F288139814A815B81FA
S1131A60C359D0400E94D71CC556DF4F6883798381
S1131A708A839B83CB59D040CD54DF4FE881F981D1
S1131A80C35BD040CF57DF4FF983E883C158D040C0
S1131A908DA59EA5880F991F880F991F9C012C5F07
S1131AA03F4FC158DF4F39832883CF57D040C554A7
S1131AB0DF4F48815981CB5BD0404E0F5F1FEF96BB
S1131AC05FAF4EAFEF97C154DF4FA881B981CF5BB1
S1131AD0D040A80FB91FED96BFAFAEAFED97C55478
S1131AE0DF4FE881F981CB5BD040E80FF91FEB961B
S1131AF0FFAFEEAFEB97C154DF4F28813981CF5B45
S1131B00D040CD54DF4F48815981C35BD040240F6E
S1131B10351FE9963FAF2EAFE9978DA59EA520E02E
S1131B2030E040E85FE3C156DF4F288339834A83BE
S1131B305B83CF59D0402DA33EA34FA358A7E5C242
S1131B4001969EAF8DAFED96EEADFFADED97E480BF
S1131B50F58006811781EB96EEADFFADEB972480FF
S1131B60358046805780A80197016DA17EA18FA181
S1131B7098A50E94B81D5B016C01A8019701C1568C
S1131B80DF4F688179818A819B81CF59D0400E943F
S1131B90B81D3B014C01A6019501C556DF4F688174
S1131BA079818A819B81CB59D0400E946A017B0153
S1131BB08C01E996AEADBFADE9976D937D938D939E
S1131BC09C9313979B01AC01C556DF4F68817981C3
S1131BD08A819B81CB59D0400E94D71CC156DF4FCC
S1131BE0688379838A839B83CF59D040A801970166
S1131BF0C601B5010E94D71C6DA37EA38FA398A72D
S1131C00C156DF4F288139814A815B81CF59D04049
S1131C10CD56DF4F688179818A819B81C359D04039
S1131C200E94B81D7B018C012DA13EA14FA158A596
S1131C30C401B3010E94B81D9B01AC01C801B701E6
S1131C400E946F1C6FAB78AF89AF9AAFC156DF4F5C
S1131C50288139814A815B81CF59D040C401B301C5
S1131C600E94B81D7B018C012DA13EA14FA158A556
S1131C70CD56DF4F688179818A819B81C359D040D9
S1131C800E94B81D9B01AC01C801B7010E946E1CE3
S1131C906D8B7E8B8F8B988F2DA13EA14FA158A564
S1131CA0C201B1010E94B81D6BAB7CAB8DAB9EAB86
S1131CB0C156DF4F288139814A815B81CF59D04099
S1131CC0C201B1010E94B81D69877A878B879C87FE
S1131CD0C354DF4FE881F981CD5BD040CD57DF4F4E
S1131CE0F983E883C358D040CF53DF4F1982188259
S1131CF0C15CD04078C0CD57DF4FA881B981C358AB
S1131D00D040CD90DD90CD57DF4FB983A883C35821
S1131D10D040CF57DF4F28803980C158D0402C0C99
S1131D203D1CF1014080518062807380C158DF4FB7
S1131D3028813981CF57D040C20ED31ED6018D9051
S1131D409D90AD90BC90C156DF4F288139814A8166
S1131D505B81CF59D040C301B2010E94B81D7B0101
S1131D608C012DA13EA14FA158A5C501B4010E942B
S1131D70B81D9B01AC01C801B7010E946F1CF101A1
S1131D806083718382839383C156DF4F28813981B5
S1131D904A815B81CF59D040C501B4010E94B81D6E
S1131DA07B018C012DA13EA14FA158A5C301B20115
S1131DB00E94B81D9B01AC01C801B7010E946E1CB2
S1131DC0D6016D937D938D939C931397CF53DF4FDF
S1131DD0E881F981C15CD0403196CF53DF4FF9835C
S1131DE0E883C15CD040CF53DF4F28813981C15C87
S1131DF0D040C754DF4F48815981C95BD040241774
S1131E0035070CF478CF2BA93CA94DA95EA96FA97D
S1131E1078AD89AD9AAD0E946A017B018C01EF9681
S1131E20AEADBFADEF976D937D938D939C93139758
S1131E3020E030E040E050E00E94D31C882331F1E0
S1131E40A801970160E070E080E89FE30E94D71C3E
S1131E507B018C019B01AC016FA978AD89AD9AAD72
S1131E600E94B81DC156DF4F688379838A839B83A0
S1131E70CF59D040A80197016BA97CA98DA99EA92F
S1131E800E94B81D6DA37EA38FA398A72D893E89B8
S1131E904F89588DC156DF4F688179818A819B8132
S1131EA0CF59D0400E94B81D7B018C0129853A8509
S1131EB04B855C856DA17EA18FA198A50E94B81D5C
S1131EC09B01AC01C801B7010E946F1CC556DF4FCE
S1131ED0688379838A839B83CB59D04029853A854B
S1131EE04B855C85C156DF4F688179818A819B81EE
S1131EF0CF59D0400E94B81DC355DF4F6883798302
S1131F008A839B83CD5AD0402D893E894F89588D31
S1131F106DA17EA18FA198A50E94B81D69837A83C3
S1131F208B839C83CB54DF4FE881F981C55BD04020
S1131F30CB57DF4FF983E883C558D040CF53DF4FE9
S1131F4019821882C15CD04078C0CB57DF4FA8817A
S1131F50B981C558D040CD90DD90CB57DF4FB983C0
S1131F60A883C558D040CF57DF4F28803980C15847
S1131F70D0402C0C3D1CF101408051806280738064
S1131F80C158DF4F28813981CF57D040C20ED31EAC
S1131F90D6018D909D90AD90BC90C156DF4F2881A5
S1131FA039814A815B81CF59D040C301B2010E947B
S1131FB0B81D7B018C012DA13EA14FA158A5C501DF
S1131FC0B4010E94B81D9B01AC01C801B7010E9475
S1131FD06F1CF1016083718382839383C156DF4F49
S1131FE0288139814A815B81CF59D040C501B40130
S1131FF00E94B81D7B018C012DA13EA14FA158A5C3
S1132000C301B2010E94B81D9B01AC01C801B70114
S11320100E946E1CD6016D937D938D939C931397B0
S1132020CF53DF4FE881F981C15CD0403196CF5363
S1132030DF4FF983E883C15CD040CF53DF4F288161
S11320403981C15CD040C954DF4F48815981C75B95
S1132050D040241735070CF478CF29813A814B817D
S11320605C81C355DF4F688179818A819B81CD5A18
S1132070D0400E946E1CCD56DF4F688379838A83DB
S11320809B83C359D040CF57DF4F88819981C15872
S1132090D0400496CF57DF4F99838883C158D040EE
S11320A0C158DF4FA881B981CF57D0401496C15889
S11320B0DF4FB983A883CF57D040EF96EEADFFAD85
S11320C0EF973496EF96FFAFEEAFEF97ED962EAD08
S11320D03FADED972C5F3F4FED963FAF2EAFED97A1
S11320E0EB964EAD5FADEB974C5F5F4FEB965FAFFA
S11320F04EAFEB97E9968EAD9FADE9970496E996BE
S11321009FAF8EAFE9978DAD9EADAD85BE85A81707
S1132110B9070CF015CDC154DF4FE881F981CF5BCD
S1132120D040CD54DF4F28813981C35BD040E20FCA
S1132130F31F80E090E0A0E0B0E080839183A2836D
S1132140B383C556DF4F288139814A815B81CB59DE
S1132150D040E196AEADBFADE1972D933D934D9345
S11321605C931397CD56DF4F288139814A815B8177
S1132170C359D040C555DF4FA881B981CB5AD0404F
S11321802D933D934D935C931397CB55DF4FE8818B
S1132190F981C55AD0403196CB55DF4FF983E88396
S11321A0C55AD0407E9709F098C02F8538892150B0
S11321B03040388B2F87E1964EAD5FADE1974450A8
S11321C05040E1965FAF4EAFE197AF968EAD9FADB5
S11321D0AF970497AF969FAF8EAFAF97AD96AEAD66
S11321E0BFADAD971497AD96BFAFAEAFAD97EF85CA
S11321F0F889F7FDBCC0AD962EAD3FADAD972C5F11
S11322003F4FC555DF4F39832883CB5AD040319790
S1132210FE87ED87E1964EAD5FADE19744505040A7
S1132220C755DF4F59834883C95AD040CB55DF4F38
S113223019821882C55AD04050C080E090E099C0FD
S11322400F2EF0E0AF2EF0E0BF2EF0E0CF2EF0E046
S1132250DF2EF02DA60195016D8D7E8D8F8D98A1B9
S11322600E94B81D2F96AEADBFAD2F976D937D9391
S11322708D939C931397C754DF4F88819981C95BD1
S1132280D0400197EBADFCADE817F90791F420E0DD
S113229030E040E050E0298F3A8F4B8F5C8FC95774
S11322A0DF4F288339834A835B83C758D0400C941B
S11322B0ED052D960EAD1FAD2D9780E090E0A0E0CA
S11322C0B0E0C957DF4F88839983AA83BB83C7587B
S11322D0D040EE24FF240C943704E1960EAD1FADDC
S11322E0E197AD96CEACDFACAD97AF85B889BEA70C
S11322F0ADA7DFC8EE0CFF1CEE0CFF1CCF54DF4F64
S1132300F982E882C15BD0408DA59EA5880F991FF4
S1132310880F991FC154DF4FE881F981CF5BD0400A
S1132320E80FF91FE596FFAFEEAFE597C554DF4F11
S113233028813981CB5BD040280F391FCF53DF4F21
S113234039832883C15CD040E3969FAF8EAFE39777
S11323504DA55EA523965FAF4EAF239780E090E036
S1132360A0E8BFE389A79AA7ABA7BCA7F5C981E0FA
S113237090E0CE53DF4F0FB6F894DEBF0FBECDBF53
S1132380DF91CF911F910F91FF90EF90DF90CF904D
S1132390BF90AF909F908F907F906F905F904F9081
S11323A03F902F9008958FB7F894992708958FBF81
S11323B008957FB7F89462B72091260130912701E0
S11323C0409128015091290106B601FE0FC081B742
S11323D092B7280F311D411D511D2F5F3F4F4F4FA5
S11323E05F4F290F311D411D511D04C0260F311DA2
S11323F0411D511D872F99278FBFCA01B901089527
S11324009FB7F894282F332720FF02C0DA9801C021
S1132410DA9A21FF02C0D99801C0D99A22FF02C0DA
S1132420D89801C0D89A892F99278FBF0895282F4B
S11324309FB7F894E82FFF27E15DFE4F80818F3F1F
S113244081F4E0912403E21771F40BC02093A302FA
S113245004C0FF27E15DFE4F20832093240320E086
S113246007C025E005C08091A3028F3F91F7EECF0E
S1132470892F99278FBF822F992708951F931FB7FC
S1132480F89480912303882339F40E941712882337
S113249019F481E080932303812F99278FBF1F9123
S11324A00895DF92EF92FF920F931F938FB7F894E2
S11324B0282F3327D22E91B782B746B7981711F039
S11324C041FF02C02FBF6AC0809146018823E1F119
S11324D00E94D911E0909102F0909202009193022F
S11324E01091940220912A0130912B0140912C01EA
S11324F050912D016E197F09800B910B62177307A0
S11325008407950720F01092460171E01EC02E0D3D
S11325103F1D401F511F8091260190912701A091DA
S11325202801B0912901281B390B4A0B5B0B273E6C
S113253031054105510540F4822F223010F070E03E
S113254005C070E082E002C070E086EE682F615042
S113255000B601FCFDCF82B7681709F46F5F2091C4
S11325602601309127014091280150912901DA0177
S1132570C9010196A11DB11D860F911DA11DB11D9B
S113258082179307A407B50710F4622F609561BF03
S1132590DFBE772319F086E00E9417121F910F9176
S11325A0FF90EF90DF900895AFB7F894BB27E1E078
S11325B0E093460160939102709392028093930298
S11325C09093940220932A0130932B0140932C0181
S11325D050932D01AFBF0E94511208959FB7F894F4
S11325E0809152028A3011F020E006C020E08091F0
S11325F03901843009F421E0892F99278FBF2223E0
S113260049F082E00E9417128FB7F894992710922C
S1132610120106C08FB7F894992721E02093120184
S11326208FBF08952FB7F89433278CB95E9A2FBFC4
S11326300895FC016115710519F481E090E0089595
S11326408091400190914101892B19F085E090E03F
S1132650089570939D0260939C02F0934101E0936E
S1132660400110923B0110923A0181E080933C01B9
S11326705E9A569A808121E030E030933B012093AA
S11326803A010E94121380E090E0089580912301A2
S11326908E7F809323018EE78093370161E070E0A1
S11326A087E391E00E94191399270895ECE8F0E07C
S11326B06927660FF11DE60FF11DC895982F802D2F
S11326C03196C89590250895982F80911E018823EE
S11326D089F5992379F531E030931E018091000149
S11326E080931F0120911301822F817080932E010A
S11326F0809105019091060190932101809320011E
S1132700809114018093220132273170267EE32FB9
S1132710FF27EE0FFF1FEF5FFE4F808191819093A3
S1132720060180930501232B2093130185E00E9469
S1132730171208958091130180FF02C08B7F01C09E
S11327408D7F8093130108950F931F93082F162FE5
S1132750809139018130D9F0813038F0823009F428
S11327604AC0833009F00EC159C0002309F43EC1A8
S113277010929602109295021092900210929E026C
S113278010923D0110925201109251011FC1002379
S113279009F02CC180915101909152010E9456136D
S11327A0909352018093510182E0809339011093F8
S11327B09E02143409F0E6C00BC18695869503C0C9
S11327C0809113018695817009F0DCC0809113011A
S11327D0992311F0846001C0826080931301809179
S11327E01301877E886080931301109214018FEF88
S11327F080930001FBC0002309F0C4C060933D0135
S113280080915101909152010E945613909352016C
S11328108093510183E080933901E8C08091900254
S11328208F3F09F4AFC0002309F447C0823008F495
S1132830A9C0E0919502EE2309F4D1C04E2F415076
S1132840E42FFF27EB56FD4F82819927382F22274B
S1132850442311F4E2E002C0E42FE150FF27EB56D9
S1132860FD4F82819927282B392B8091510190911A
S113287052012817390709F085C080E00E946413CB
S113288030913D018091470120914801982F9F5F2D
S1132890963008F090E0921709F474C0E82FFF27EF
S11328A0E95BFE4F32838F5F80934701863010F0DF
S11328B0109247010E943E1265C0823008F44EC057
S11328C0E0919602FF27EB56FD4F8281482F552752
S11328D0342F20911301822F8695869586958370D7
S11328E099278130910519F00297F9F40EC0277EDB
S11328F0206120931301442311F485E001C080E09A
S1132900809314013093000110C080911401883722
S113291060F4E0910501F0910601E80FF11D408398
S1132920809114018F5F8093140180919602E82FA7
S1132930FF27EB56FD4F62818F5F809396028330B1
S113294010F01092960277278091510190915201D4
S11329500E945613909352018093510180919502E5
S1132960E82FFF27EB56FD4F12838F5F809395026C
S1132970833010F010929502809190028F5F8093C3
S1132980900234C01092960210929502109239016E
S11329901092900210929E0210923D0110925201E8
S11329A010925101809123018D7F8093230181E056
S11329B00E94641380911201882331F084E0809393
S11329C039010E94EE1212C0002381F081E023CF6E
S11329D080911301982F917080FDEFCEF1CE8091FC
S11329E099029927382F222742E036CF1F910F9161
S11329F008951F920F920FB60F9211242F933F93B5
S1132A004F935F936F937F938F939F93AF93BF93F2
S1132A10EF93FF935F9B3DC06CB1E0915501F09142
S1132A2056013097F9F08091210390912203E80F29
S1132A30F91F6083019690932203809321032091D0
S1132A402703309128038217930718F11092560137
S1132A5010925501809151028330D9F05798109209
S1132A60510217C06E3719F460E081E010C0809104
S1132A7023016D3721F48260809323010AC081FF12
S1132A8005C08D7F8093230180E2682780E00E9447
S1132A90A413FF91EF91BF91AF919F918F917F917B
S1132AA06F915F914F913F912F910F900FBE0F90B7
S1132AB01F901895982F8D57823068F480912301C8
S1132AC081608093230180E2892780938F028DE7C0
S1132AD08093370102C09093370161E070E087E38F
S1132AE091E00E9419139927089578941F920F92E8
S1132AF00FB60F921124FF920F931F932F933F93BE
S1132B004F935F936F937F938F939F93AF93BF93F1
S1132B10CF93DF93EF93FF9320913A0130913B01E0
S1132B2080919C0290919D022817390780F4E091CE
S1132B304001F0914101E20FF31F80812F5F3F4F6D
S1132B4030933B0120933A010E941213D0C010929B
S1132B5041011092400110923C015698809123014A
S1132B6080FF0EC08E7F8093230180918F0280931B
S1132B70370161E070E087E391E00E941913B7C068
S1132B8080915202843009F494C0853040F482303C
S1132B9021F18330B8F5813009F0A4C00DC086302E
S1132BA009F495C0863008F48BC0873009F496C0C8
S1132BB0883009F097C099C080913F010E945A154E
S1132BC0182F83E08093520260913F018091250386
S1132BD0909126030E94561310C080911E030E94F8
S1132BE05A15182F83E08093520260911E0380913E
S1132BF02503909126030E945613909326038093F5
S1132C0025036EC0FFB6F894E0915701FF27EE0F3D
S1132C10FF1FED5BFE4F80810E945A15082F109113
S1132C205701C12FDD27FE01EE0FFF1FED5BFE4FA5
S1132C30608180912503909126030E9456139093FE
S1132C4026038093250320913E012F5F20933E01AC
S1132C50113039F580911A01E0911501F0911601B6
S1132C60E80FF11DE0818F5F80931A0190911901A3
S1132C70981730F482E08093440140E050E002C0B1
S1132C804E2F5527DE01AA0FBB1FFD01EE5BFE4F41
S1132C908081823031F02F3F21F0AD5BBE4F4C93E9
S1132CA003C084E080935202102F8F2D99278FBF89
S1132CB017C0809125030E945A15182F85E00BC078
S1132CC0809126030E945A15182F86E004C00E94A2
S1132CD04613182F87E08093520202C088E003C095
S1132CE0112329F089E0809352020E943E12FF9141
S1132CF0EF91DF91CF91BF91AF919F918F917F9190
S1132D006F915F914F913F912F911F910F91FF9080
S1132D100F900FBE0F901F9018951F920F920FB631
S1132D200F9211248F9380919B0087FF02C08091A2
S1132D309C008F910F900FBE0F901F901895789460
S1132D401F920F920FB60F9211240F900FBE0F9087
S1132D501F90189578941F920F920FB60F9211241A
S1132D600F900FBE0F901F90189578941F920F929A
S1132D700FB60F9211240F900FBE0F901F9018954D
S1132D8078941F920F920FB60F9211240F900FBEDA
S1132D900F901F90189578941F920F920FB60F9270
S1132DA011248F939F9380918800909189009F9123
S1132DB08F910F900FBE0F901F90189578941F92CB
S1132DC00F920FB60F9211242F933F938F939F93DB
S1132DD02FB7F894332780914F01909150010196B9
S1132DE09093500180934F012FBF9F918F913F91FA
S1132DF02F910F900FBE0F901F9018951F920F9256
S1132E000FB60F9211248F9383B783BF00B600FCD3
S1132E10FDCF8F910F900FBE0F901F901895AF921A
S1132E20BF92CF92DF92EF92FF920F931F93CF93B3
S1132E30DF935C01EB01880F991F0E94941E6C01C3
S1132E407C01CC0FDD1FCC0FDD1F00E010E009C0BA
S1132E50CE010E94941EF701819391937F010F5F2D
S1132E601F4F0A151B05A4F3C601DF91CF911F91D3
S1132E700F91FF90EF90DF90CF90BF90AF900895A7
S1132E801F920F920FB60F9211242F933F934F93DB
S1132E905F936F937F938F939F93AF93BF93EF93BE
S1132EA0FF9383B783BF00B600FCFDCF81B799279A
S1132EB00196AA27BB272091260130912701409132
S1132EC0280150912901280F391F4A1F5B1F2093A5
S1132ED026013093270140932801509329017894C7
S1132EE00E945112FF91EF91BF91AF919F918F91E9
S1132EF07F916F915F914F913F912F910F900FBEF2
S1132F000F901F901895EF92FF920F931F93CF93FA
S1132F10DF93CDB7DEB724970FB6F894DEBF0FBEAC
S1132F20CDBFE0916001E1FFE0C0209158013091F4
S1132F30590140915A0150915B01E0905C01F0907D
S1132F405D0100915E0110915F01621B730B840BA4
S1132F50950B6E157F058007910708F4C6C0E0FF46
S1132F6004C0ED7FE09360010CC02E0D3F1D401F97
S1132F70511F209358013093590140935A015093A3
S1132F805B0180910F0190911001019690931001C3
S1132F9080930F0180910E01882321F081E00E942B
S1132FA00012A3C087E00E94001280910F01809359
S1132FB0B202809111018093B3028F30A9F5009180
S1132FC05301109154012091240130912501A3E56E
S1132FD0EA2EA2E0FA2E4FE050E06FE070E080911C
S1132FE01F03909120030E94C901109211012091A6
S1132FF0240130912501E4EBF2E0D9014D915D917A
S11330006D917D919D0149835A836B837C83898172
S11330109A81AB81BC8181939193A193B193B2E0E6
S1133020E03FFB0751F716C020E030E040E050E0FD
S1133030E4EBF2E029833A834B835C8389819A81B0
S1133040AB81BC8181939193A193B19382E0E03FE2
S1133050F80781F78FEF8093AC028093AB0289E885
S11330608093B1028EE38093AF0280911701909117
S11330701801892B09F039C02FB7F894332785E05C
S113308080931A0110921B0186EA92E09093160134
S11330908093150182E090E09093180180931701CA
S11330A010921D0110921C018AE4809319012FBF14
S11330B09FB7F89480914401882311F020E006C062
S11330C081E0809344011092450121E0892F9927E2
S11330D08FBF222331F00E943E1281E080930E01C3
S11330E004C0109218011092170187E00E94171271
S11330F024960FB6F894DEBF0FBECDBFDF91CF91FB
S11331001F910F91FF90EF9008958F929F92AF922D
S1133110BF92DF92EF92FF920F931F93CF93DF93AF
S1133120CDB7DEB724970FB6F894DEBF0FBECDBF80
S1133130833009F456C1843038F4813009F4E9C08D
S1133140823008F04AC10DC0853009F469C1853068
S113315008F44AC1863009F4CBC1873009F048C26B
S1133160FCC18FB7F894109223032091520240E0DF
S1133170283009F441E030E0293009F431E04423F7
S113318011F4332351F010925202E0915701FF27BA
S1133190EE0FFF1FEE5BFE4F108299278FBF442373
S11331A011F4332319F180911E038F5F80931E0362
S11331B080913F018334A1F49FB7F8942091480192
S11331C080914701821741F0822F8F5F80934801DD
S11331D0863010F010924801892F99278FBF0AC0BA
S11331E0A0E0442309F4A1E071E006C0222311F019
S11331F010E069C0A0E070E08FB7F894992720919F
S113320012018FBF222341F08FB7F89499272AE047
S1133210209352028FBF43C08FB7F89499276091CF
S11332204201409144018FBF8FB7F894282F332770
S113323050E09091470180914801981709F451E0BA
S11332402FBF552349F5662339F55FB7F89482E01B
S1133250809342018FB7F894282F332740E0909150
S1133260470180914801981709F441E02FBF442396
S113327011F080E006C0E0914801FF27E95BFE4FB2
S1133280828180934301852F99278FBF83E48093A4
S11332903F01109257010BC04150423010F010E032
S11332A007C085E480933F0181E08093570111E0DA
S11332B0772349F08FB7F8949927A0931B018FBF08
S11332C084E00E941712809152028A3019F40E94FD
S11332D0EE128EC1112309F48BC12FB7F894332752
S11332E0109226031092250310923E0181E08093F0
S11332F052022FBF0E944613882309F479C18FB765
S1133300F894992729E0209352028FBF0E943E121D
S11333106FC1569857981092510210923C01539ADB
S1133320549A579A6FE070E08FE090E00E940F1774
S11333309093200380931F036FE070E08FE090E090
S11333400E940F17909354018093530140911F03DF
S11333505091200360E049C1C801B701FBC0DA0104
S1133360ED91FC91E20FF31F80E090E0A0E0B0E06B
S113337080839183A283B3832C5F3F4F2C33310529
S113338071F76F5F4E5F5F4F6F3009F02EC18CE3B2
S113339090E00E94941E90932501809324010E9442
S11333A0D911609358017093590180935A019093F5
S11333B05B0184E690E0A0E0B0E080935C01909330
S11333C05D01A0935E01B0935F01809160018E7FE7
S11333D082608093600187E001C083E00E9417123D
S11333E007C15398549804C1109218011092170100
S11333F08FB7F89499278FBFE0911501F0911601CA
S113340080911D01882309F0F3C08385893809F070
S1133410EFC0E65AF24009F0EBC010920E01E8C08A
S11334208FB7F894992720911F0140912001509162
S1133430210130912201D0902E018FBF222309F067
S11334403FC0932F9C50FA0183858938C9F59E3378
S1133450B9F58585992780931101882389F160E066
S113346070E020E030E0E0901F03F09020038A0138
S1133470025F1F4FE0911101FF27EE0FFF1FEE0DBA
S1133480FF1D32970190F081E02DE20FF31FD80168
S11334908D909D90AD90BD908D0189829A82AB8272
S11334A0BC8289819A81AB81BC8180839183A28310
S11334B0B3836F5F7F4F2C5F3F4F6F307105D1F641
S11334C08FB7F894ED2DFF27EE0FFF1FEF5FFE4F30
S11334D05183408320911301DD2011F02B7F01C023
S11334E02D7F2093130110921E0199278FBF80C056
S11334F080913801882361F520919F023091A002C8
S11335004091A1025091A202EFB7F894FF27609175
S11335109102709192028091930290919402E090B2
S11335202A01F0902B0100912C0110912D016E0DB8
S11335307F1D801F911FEFBF20939F023093A00235
S11335404093A1025093A202109238010E94D41217
S11335500E94D9110E9483174BC00E94D9117B018C
S11335608C018FB7F8949927109246018FBF8091F0
S1133570600181FF3DC08091580190915901A09153
S11335805A01B0915B01A8019701281B390B4A0B22
S11335905B0BDA01C90120915C0130915D0140911E
S11335A05E0150915F01281B390B4A0B5B0B2F3FC7
S11335B08FEF38078FEF48078FE75807C9F01216C7
S11335C01306140615060CF0C7CE20939F02309301
S11335D0A0024093A1025093A20281E0809338019B
S11335E0C801B7010E94D41203C020E030E0B7CE76
S11335F024960FB6F894DEBF0FBECDBFDF91CF91F6
S11336001F910F91FF90EF90DF90BF90AF909F902C
S11336108F9008958091A3028F3FB1F0282F332714
S1133620F901E15DFE4F80818093A3028F3F11F485
S1133630809324038FEF80832F3F31F0822F0E94E9
S1133640851881E090E0089580E090E00895FF926D
S11336500F931F93FFB6F89448E050E06FEF70E0CB
S11336608FE291E00E94901F8FEF8093A3028093DA
S1133670240381E08EBD88E080BF83E083BF8CB5E6
S11336809DB54AE72CB53DB52817390708F44150D4
S1133690442311F0C901F6CF92B782B78917E9F331
S11336A02CB53DB592B782B78917E9F38CB59DB5B2
S11336B0821B930B409665E0969587956A95E1F792
S11336C09093A5028093A40213BE83B78EBD8EB5DA
S11336D080BF12BE1DBC1CBC8FEF86BF86B7809313
S11336E07C0080B7992787709070892BD1F715BA21
S11336F08FEF84BBD498DC981092890010928800D4
S113370080917D00846080937D0080918A00887F11
S1133710826080938A00D29AD19AD09ADA9AD99AFE
S1133720D89A80E285BF0E940A1B8823E1F780B7FC
S1133730886080BF8BE083BF86EE81BF87B78260DD
S113374087BF0E94511212E006E06091A4027091BA
S1133750A502882799275CE0660F771F881F991FA9
S11337605A95D1F720E031EE40E050E00E94721EFD
S11337702150304029B9832F9927809390001BB999
S1133780009395001AB820939900809398001093A1
S11337909B0000939D0010929A0084E490E0909323
S11337A09B0280939A02109242011092440110925B
S11337B0520210923E0110923F0110921E03109289
S11337C0260310922503109223031092570110929E
S11337D09602109295021092390110929002109262
S11337E09E0210923D0110925201109251011092CA
S11337F04801109247010E940A1B8823E1F78F2D8C
S113380099278FBF789481E00E9417128FB7F8949C
S1133810482F552748C087B7992783709070892B04
S113382019F4E5E0F0E013C080B799278770907031
S1133830892BD1F781B792B7891B8C3030F082B7CE
S1133840853F18F4E3E0F0E002C0E2E0F0E087B77F
S1133850887BC1F480917D008B7FA1F46E9912C0A6
S11338608AB190919A00892B807C61F480917400D4
S113387082FD08C0379B03C081E090E005C085E06D
S113388090E002C080E090E025B78E1708F4E82F9E
S1133890FF27E457FD4FE491237E2062E22BE5BF2E
S11338A078948895F8948091A3028F3F09F4B3CF5C
S11338B0282F3327F901E15DFE4F80818093A30215
S11338C08F3F11F4809324038FEF80832F3F09F4FB
S11338D0A2CF4FBF822F0E94851898CF5058BB2784
S11338E0AA270ED007C1F8D030F0FDD020F031F473
S11338F09F3F11F41EF4EDC00EF4E095E7FBE3C026
S1133900E92F09D180F3BA17620773078407950773
S113391018F071F49EF521C10EF4E0950B2EBA2F28
S1133920A02D0B01B90190010C01CA01A0011124C1
S1133930FF27591B99F0593F50F4503E68F11A166D
S1133940F040A22F232F342F4427585FF3CF4695FE
S113395037952795A795F0405395C9F77EF41F1620
S1133960BA0B620B730B840BBAF09150A1F0FF0FEA
S1133970BB1F661F771F881FC2F70EC0BA0F621FD6
S1133980731F841F48F4879577956795B795F795C6
S11339909E3F08F0B3CF9395880F08F09927EE0F58
S11339A09795879508956BD008F481E008950CD01D
S11339B0A1C099D040F090D030F021F45F3F19F0CD
S11339C082C05111CBC085C0A6D098F39923C9F306
S11339D05523B1F3951B550BBB27AA276217730711
S11339E0840738F09F5F5F4F220F331F441FAA1FC5
S11339F0A9F333D00E2E3AF0E0E830D09150504085
S1133A00E695001CCAF729D0FE2F27D0660F771F32
S1133A10881FBB1F261737074807AB07B0E809F014
S1133A20BB0B802DBF01FF2793585F4F2AF09E3FA9
S1133A30510568F048C092C05F3FECF3983EDCF358
S1133A40869577956795B795F7959F5FC9F7880F22
S1133A50911D9695879597F90895E1E0660F771F74
S1133A60881FBB1F621773078407BA0720F0621B05
S1133A70730B840BBA0BEE1F88F7E0950895990F2A
S1133A800008550FAA0BE0E8FEEF16161706E80724
S1133A90F907C0F012161306E407F50798F0621B45
S1133AA0730B840B950B39F40A2661F0232B242B1A
S1133AB0252B21F408950A2609F4A140A6958FEF39
S1133AC0811D811D089597F99F6780E870E060E08B
S1133AD008959FEF80EC089500240A9416161706A3
S1133AE018060906089500240A94121613061406EB
S1133AF005060895092E0394000C11F4882352F04E
S1133B00BB0F40F4BF2B11F460FF04C06F5F7F4F05
S1133B108F4F9F4F089557FD9058440F551F59F0EC
S1133B205F3F71F04795880F97FB991F61F09F3FA6
S1133B3079F087950895121613061406551FF2CFCF
S1133B404695F1DF08C0161617061806991FF1CF1F
S1133B5086957105610508940895E894BB27662746
S1133B607727CB0197F908958ADF08F48FEF08953A
S1133B700BD0C0CFB1DF28F0B6DF18F0952309F0E1
S1133B80A2CFA7CF1124EACFC6DFA0F3959FD1F32C
S1133B90950F50E0551F629FF001729FBB27F00DF7
S1133BA0B11D639FAA27F00DB11DAA1F649F66274C
S1133BB0B00DA11D661F829F2227B00DA11D621F9B
S1133BC0739FB00DA11D621F839FA00D611D221F55
S1133BD0749F3327A00D611D231F849F600D211D39
S1133BE0822F762F6A2F11249F5750408AF0E1F0DC
S1133BF088234AF0EE0FFF1FBB1F661F771F881F25
S1133C0091505040A9F79E3F510570F05CCFA6CF6C
S1133C105F3FECF3983EDCF3869577956795B7950F
S1133C20F795E7959F5FC1F7FE2B880F911D969539
S1133C30879597F9089511F40EF44BCF3EC073DFC6
S1133C40D0F39923D9F3CEF39F57550B87FF43D075
S1133C500024A0E640EA900180585695979528F4F0
S1133C60805C660F771F881F20F0261737074807E8
S1133C7030F4621B730B840B202931294A2BA6953F
S1133C8017940794202531254A2758F7660F771F84
S1133C90881F20F026173707480730F4620B730B90
S1133CA0840B200D311D411DA09581F7B901842F8E
S1133CB09158880F9695879508959F3F31F09150BC
S1133CC020F4879577956795B795880F911D9695FC
S1133CD0879597F9089591505040660F771F881F74
S1133CE0D2F70895A1E21A2EAA1BBB1BFD010DC039
S1133CF0AA1FBB1FEE1FFF1FA217B307E407F50798
S1133D0020F0A21BB30BE40BF50B661F771F881F73
S1133D10991F1A9469F760957095809590959B0109
S1133D20AC01BD01CF010895CF93DF93AC0102979D
S1133D3010F442E050E0A0912B03B0912C03FD015C
S1133D40C0E0D0E020E030E020C080819181841781
S1133D50950769F482819381209719F09B838A8364
S1133D6004C090932C0380932B03CF0132C04817D7
S1133D70590738F42115310519F08217930708F40F
S1133D809C01EF010280F381E02D3097F1F62115BB
S1133D90310589F1C901841B950B049708F4A90125
S1133DA0E0E0F0E026C08D919C9111978217930773
S1133DB0E9F44817590779F4ED018A819B8130971A
S1133DC019F09383828304C090932C0380932B0374
S1133DD0CD0102964CC0841B950BFD01E80FF91F21
S1133DE04193519302978D939C933DC0FD01A28111
S1133DF0B3811097C1F68091290390912A03892BEE
S1133E0041F48091090190910A0190932A038093CF
S1133E10290320910B0130910C012115310541F446
S1133E202DB73EB78091070190910801281B390BEB
S1133E30E0912903F0912A03E217F307B0F42E1B53
S1133E403F0B2417350788F0CA0102962817390753
S1133E5060F0CF01840F951F029690932A038093FC
S1133E60290341935193CF0102C080E090E0DF9198
S1133E70CF910895CF93DF93009709F44EC0EC01DE
S1133E8022971B821A82A0912B03B0912C031097C6
S1133E9011F140E050E001C0DC01AC17BD0700F1B6
S1133EA0BB83AA83FE0121913191E20FF31FEA172C
S1133EB0FB0771F42E5F3F4F8D919C911197820FF8
S1133EC0931F99838883FD01828193819B838A83D5
S1133ED04115510559F4D0932C03C0932B031DC0F5
S1133EE0FD0182819381AD010097B1F6FA01D3837C
S1133EF0C28321913191E20FF31FEC17FD0769F49E
S1133F002E5F3F4F88819981820F931FFA0191831D
S1133F1080838A819B8193838283DF91CF910895EB
S1133F20DC0101C06D9341505040E0F70895FFCF8C
S1113F30FF6101D901610120002D0300000092
S9030000FC
