S01800006275696C642F6D6963617A2F6D61696E2E73726563E5
S11300000C9449000C94C2040C94CC040C94D604B3
S11300100C94E0040C94EA040C94F4040C946D081D
S11300200C94FE040C9468000C9468000C94B209BF
S11300300C94100C0C948C040C94A2040C940805DD
S11300400C947B040C94440E0C9468000C9468008B
S11300500C9468000C9468000C9468000C9468007C
S11300600C9497040C9468000C9468000C94680039
S11300700C9468000C9468000C9468000C9468005C
S11300800C9468000C9468000C94680000081C1818
S1130090141011241FBECFEFD0E1DEBFCDBF11E09D
S11300A0A0E0B1E0EAE6FDE200E00BBF02C0079089
S11300B00D92AE30B107D9F712E0AEE0B1E001C065
S11300C01D92A633B107E1F70E9462130C94B41693
S11300D00C9400008FB7F894992708958FBF089562
S11300E0282F9FB7F894662349F0E82FFF27EA5397
S11300F0FE4F8081882311F021E006C0E22FFF2704
S1130100EA53FE4F608320E0892F99278FBF822F07
S113011099270895E82F8FB7F894282F332790E074
S1130120FF27EA53FE4F8081861709F491E02FBF21
S1130130892F99270895882311F06E9A08956E984F
S11301400895882311F06F9A08956F98089580E0B8
S11301500E949B00BA9ABB98B99A6C9A80E00E945C
S1130160A100709A6B986A98689881E00E949B003D
S113017008950F931F93CF93DF93182F8FB7F8949D
S1130180C82FDD270C2F61E080E00E9470008823D7
S113019021F0CFBF85E090E024C080910501882341
S11301A0A1F480911501823081F409C082E080932A
S11301B01501109205010E94A700B89AC0981093E7
S11301C0020180E00FBF99270CC08091150188239C
S11301D069F38FB7F89499271092C6018FBF81E015
S11301E0F1CFDF91CF911F910F910895282F9FB7E1
S11301F0F894E82FFF27E75CFE4F80818F3F81F45E
S1130200E0913402E21771F40BC02093280204C079
S1130210FF27E75CFE4F20832093340220E007C0D1
S113022025E005C0809128028F3F91F7EECF892FFA
S113023099278FBF822F992708951F93182F81E044
S11302400E949B001FB9779BFECF8FB199271F9106
S11302500895FF920F931F93CF93DF93F82E8B0192
S11302608FB7F894C82FDD2760E080E00E948A00F1
S1130270882321F0CFBF80E090E00CC0CFBF8F2D4A
S11302800E941D01812F99270E941D01802F0E9429
S11302901D019927DF91CF911F910F91FF90089530
S11302A08F929F92AF92BF92CF92DF92EF92FF9282
S11302B00F931F93CF93DF938FB7F8949927C09030
S11302C02F02D09030028090BF019090C001C09165
S11302D0A701D091A80120911E0130911F019AE03D
S11302E0A92EB12CAC0EBD1E2A153B0508F45901EC
S11302F08FBF7401EC0EFD1E86010C0F1D1F14C070
S1130300C114D10419F0F801808101C080E00E9479
S11303101D018114910411F0F70180832196089442
S1130320E11CF11C0F5F1F4FC5010197C817D907C6
S113033038F381E00E94A1009FB7F894C114D1045E
S113034031F0CC0EDD1EF60180818FB901C01FB8DB
S1130350D093A801C093A701892F99278FBF80E06C
S113036090E0DF91CF911F910F91FF90EF90DF907C
S1130370CF90BF90AF909F908F9008952FB7F8942F
S1130380332750931F0140931E01909330028093B2
S11303902F027093C0016093BF011092A8011092C4
S11303A0A7012FBF452B29F08FB10E945001992737
S11303B0089589E00E94F60080E090E008958FB7E8
S11303C0F89499271092C8018FBF089580E880930C
S11303D037011092860110922B021092270210927C
S11303E04E010895CF93DF93FC0115A6DC019E9680
S11303F0ED011B821A82198280E886A7DF91CF91D2
S113040008952F923F924F925F926F927F928F92B4
S11304109F92AF92BF92CF92DF92EF92FF920F938F
S11304201F93CF93DF93CDB7DEB728970FB6F89419
S1130430DEBF0FBECDBF20908C0130908D01409067
S11304408E0150908F016624772488244EE4A42ED4
S113045033E8B32ECC24DD24EE24FF2400E010E0A6
S1130460222D332D442D552D662D772D882D90E08A
S11304700E94A31429833A834B835C836D837E8318
S11304808F839887822E932EA42EB52E24013501B6
S113049000E20E94A115A22EB32EC42ED52EC301B4
S11304A0B20196958795779567956A0D7B1D8C1D8E
S11304B09D1D97FF05C09F776F5F7F4F8F4F9F4FA5
S11304C060938C0170938D0180938E0190938F01C2
S11304D028960FB6F894DEBF0FBECDBFDF91CF9143
S11304E01F910F91FF90EF90DF90CF90BF90AF904E
S11304F09F908F907F906F905F904F903F902F9040
S113050008958FB7F8946091AB017091AC012CB54C
S11305103DB506B602FE04C06F5F7F4F2CB53DB5F6
S113052099278FBF88279927CB01772766274427E8
S11305305527622B732B842B952B0895EF92FF92F2
S11305400F931F930E9481027B018C0120919601DD
S113055030919701409198015091990180919101B6
S113056090919201A0919301B0919401820F931FF5
S1130570A41FB51FE216F3060407150730F082170F
S11305809307A407B50758F005C082179307A4077B
S1130590B507E0F5E816F9060A071B07B8F59C014C
S11305A0AD012E193F09400B510B213060E836078D
S11305B060E0460760E0560768F180E090E8A0E05C
S11305C0B0E0E80EF91E0A1F1B1FE0929601F0929C
S11305D09701009398011093990180E090E8AFEFA0
S11305E0BFEFE80EF91E0A1F1B1F20503048404081
S11305F05040209391013093920140939301509382
S1130600940120E030E840E050E014C020E030E005
S113061040E050E08093960190939701A093980155
S1130620B09399011092910110929201109293014A
S113063010929401A901B7012CB53DB5C9018E19D9
S11306409F0903968417950720F0B9016D5F7F4FCA
S113065002C0640F751F6115710511F461E070E04B
S1130660615070407BBD6ABD80E186BF87B7806101
S113067087BF1F910F91FF90EF9008950F931F93E1
S11306800FB7F894112760939601709397018093A4
S11306909801909399012093910130939201409392
S11306A09301509394010E949E020FBF1F910F91DA
S11306B008958FB7F89499276091CC018FBF85E096
S11306C0689FB0011124625D7E4F706488E10E94CE
S11306D0290108951F931FB7F89480914D01882331
S11306E019F460E070E009C060E080912E02882374
S11306F009F461E081E068277727809189018823E4
S113070019F480E090E00AC090E08091CB01882346
S113071009F491E081E09827892F9927762F66279D
S1130720770F770F770FE4E0880F991FEA95E1F7C9
S1130730826E9262682B792B81E10E942901812FBC
S113074099278FBF1F91089597B79F7D97BF90E218
S113075096BF882319F08EB5806402C08EB58F7B56
S11307608EBD87B7806287BF80E090E008957FB731
S1130770F89462B720912101309122014091230124
S11307805091240106B601FE0FC081B792B7280F1D
S1130790311D411D511D2F5F3F4F4F4F5F4F290F9B
S11307A0311D411D511D04C0260F311D411D511D18
S11307B0872F99278FBFCA01B9010895DF92EF925D
S11307C0FF920F931F938FB7F894282F3327D22EBD
S11307D091B782B746B7981711F041FF02C02FBFF7
S11307E06AC08091A6018823E1F10E94B703E090DA
S11307F0C201F090C3010091C4011091C501209180
S113080033013091340140913501509136016E1914
S11308107F09800B910B621773078407950720F0FB
S11308201092A60171E01EC02E0D3F1D401F511FE6
S11308308091210190912201A0912301B091240182
S1130840281B390B4A0B5B0B273E3105410551052B
S113085040F4822F223010F070E005C070E082E096
S113086002C070E086EE682F615000B601FCFDCF37
S113087082B7681709F46F5F20912101309122013A
S11308804091230150912401DA01C9010196A11D6F
S1130890B11D860F911DA11DB11D82179307A407D9
S11308A0B50710F4622F609561BFDFBE772319F09E
S11308B080E00E94F6001F910F91FF90EF90DF906F
S11308C00895AFB7F894BB27E1E0E093A6016093E5
S11308D0C2017093C3018093C4019093C501209316
S11308E03301309334014093350150933601AFBF47
S11308F00E94DE0308951F920F920FB60F921124E7
S11309008F9383B783BF00B600FCFDCF8F910F9008
S11309100FBE0F901F90189578941F920F920FB6E8
S11309200F9211240F900FBE0F901F90189578947A
S11309301F920F920FB60F9211240F900FBE0F90BB
S11309401F90189578941F920F920FB60F9211244E
S11309502F933F938F939F932FB7F89433278091CE
S1130960AB019091AC0101969093AC018093AB01E3
S11309702FBF9F918F913F912F910F900FBE0F909A
S11309801F9018951F920F920FB60F9211240F907B
S11309900FBE0F901F9018951F920F920FB60F92D3
S11309A011240F900FBE0F901F9018951F920F9255
S11309B00FB60F9211240F900FBE0F901F90189531
S11309C01F920F920FB60F9211240F900FBE0F902B
S11309D01F9018951F920F920FB60F9211240F902B
S11309E00FBE0F901F9018951F920F920FB60F9283
S11309F011240F900FBE0F901F9018951F920F9205
S1130A000FB60F9211240F900FBE0F901F901895E0
S1130A101F920F920FB60F9211242F933F934F936F
S1130A205F936F937F938F939F93AF93BF93EF9352
S1130A30FF9383B783BF00B600FCFDCF81B799272E
S1130A400196AA27BB2720912101309122014091D0
S1130A50230150912401280F391F4A1F5B1F209343
S1130A60210130932201409323015093240178946F
S1130A700E94DE03FF91EF91BF91AF919F918F91FF
S1130A807F916F915F914F913F912F910F900FBE86
S1130A900F901F901895AF92BF92CF92DF92EF9272
S1130AA0FF920F931F935B016C016091B50161FF8D
S1130AB01FC02091AD013091AE014091AF01509122
S1130AC0B001E090B101F090B2010091B301109136
S1130AD0B401D601C501821B930BA40BB50B8E1573
S1130AE09F05A007B10720F0EDEAF1E090E020C0F7
S1130AF0E6EBF1E06091BE0161FF2FC02091B601E9
S1130B003091B7014091B8015091B901E090BA0118
S1130B10F090BB010091BC011091BD01A21AB30A6F
S1130B20C40AD50AAE14BF04C006D106B0F091E0E1
S1130B3060FF04C080858D7F808708C02E0D3F1D17
S1130B40401F511F2083318342835383992329F407
S1130B5080910F018F5F80930F0181E00E94F60066
S1130B601F910F91FF90EF90DF90CF90BF90AF90C7
S1130B7008950F931F93182F0FB7F89461E080E046
S1130B800E947000882371F5109302018091050181
S1130B908823A9F580911501823089F588E00CC07D
S1130BA00E94A70080911501882349F481E0809375
S1130BB0150110924F018AE00E94F6002AC080912C
S1130BC095018F3F31F5E0910401EE2311F11CC032
S1130BD01092030104C0FF27EB56FE4F10821092BF
S1130BE0040117C081E090E002C0880F991F1A9594
S1130BF0E2F720911401282B209314010AC080915C
S1130C0015018823E1F6CCCF809103018F3F19F7BA
S1130C10DFCF802F99278FBF80E090E01F910F9145
S1130C2008951F9383E00E94B9009927182F882301
S1130C3019F083E00E94B905812F99271F91089527
S1130C40CF92DF92EF92FF920F931F93CF93DF9394
S1130C508C01F62E6A01E22E8FB7F894C82FDD2797
S1130C6060E080E00E948A00882321F0CFBF80E00A
S1130C7090E01EC0CFBF0F0D111D802F80680E9411
S1130C801D01F82E16950795802F807C0E941D016A
S1130C900E2D0AC0EE2DFF27E01BF109EC0DFD1D02
S1130CA080810E941D0101500023A1F78F2D9927F7
S1130CB0DF91CF911F910F91FF90EF90DF90CF9034
S1130CC00895CF93DF93CDB7DEB724970FB6F8948A
S1130CD0DEBF0FBECDBF8FB7F8949927209187014F
S1130CE0309188012983232F33272A8320919A0165
S1130CF030919B012B83232F33272C838FBF24E038
S1130D00AE014F5F5F4F60E088E691E00E942006ED
S1130D1024960FB6F894DEBF0FBECDBFDF91CF91FE
S1130D200895EF92FF921F93CF93DF93E0908A018F
S1130D30F0908B01F70182A59927182F882309F4D5
S1130D401FE1C09880914C01811749F0612F7727EA
S1130D506F717070606E706885E10E942901109354
S1130D604C01F70110818FB7F894C82FDD2760E09C
S1130D7080E00E948A00882311F0CFBF12C0CFBF49
S1130D808EE390E090939F0180939E018EE30E94F6
S1130D901D011150412F552760E070E0C7010E94EA
S1130DA0BE01DF91CF911F91FF90EF900895FF92C4
S1130DB00F931F93CF93DF93EC01F62E61E082E053
S1130DC00E947000882319F085E090E069C080914A
S1130DD0CE018F5F8093CE0181508B838FB7F894BF
S1130DE0082F112762E081E00E948A00882329F4F9
S1130DF00FBF0E94DF0181E052C08FB7F89499279A
S1130E0024E02093C7018FBFD093A501C093A40110
S1130E100FBF8DE0F80EFE01F1928981992780724F
S1130E209070898311828981992781649868898364
S1130E30892F992781831CA618A619A619AA18AA6E
S1130E401FA680E88EA761E06093CA014091A401C7
S1130E505091A5018FB7F894282F3327809116015C
S1130E60909117018830910511F0019711F02FBF6F
S1130E7015C082E090E0909317018093160160936F
S1130E80350250938B0140938A01109220012FBFA9
S1130E900E941106882311F40E94910680E099278C
S1130EA0DF91CF911F910F91FF900895FA01422F86
S1130EB02D3118F082E090E0089583876683872FB0
S1130EC0992787832FB7F8943327809187019091CE
S1130ED088012FBF8483892F992785832FB7F8949E
S1130EE0332780910601909107012FBF8087892FB6
S1130EF09927818780910901882369F0109209015B
S1130F008FE38287642FCF010E94D7069927282F69
S1130F108823A9F417C0842F99279093A301809361
S1130F20A201F0931B01E0931A018CE00E94F600E9
S1130F3080910901882349F489E090E008958FEFB6
S1130F4080930901822F992708951092900180E0DF
S1130F5090E008951F93CF93DF93182FEB01E82FB0
S1130F60FF27EE0FFF1FE755FE4F118210821092EC
S1130F700C01E091A901F091AA01309721F0809130
S1130F802C0280FF0FC081E080930C0103C08EE02F
S1130F900E94F6001123C1F4C155D140A9F4109266
S1130FA00E0112C020812D50332767817727762FB9
S1130FB0662786819927682B792BAF0183850E9448
S1130FC05607882339F3E3CFDF91CF911F9108951A
S1130FD09B0180910C01882349F46091A9017091CF
S1130FE0AA016217730711F40E94AA0708951F93B8
S1130FF0CF93DF93182F8FB7F894C82FDD2760E0C5
S113100080E00E948A00882321F0CFBF80E090E036
S113101005C0CFBF812F0E941D019927DF91CF9179
S11310201F910895EF92FF920F931F93CF93DF9335
S1131030182F7B01042F8FB7F894C82FDD2760E0A9
S113104080E00E948A00882321F0CFBF80E090E0F6
S113105014C0CFBF1064812F992790939F01809370
S11310609E010E941D01182F402F5527B70180E0D3
S113107090E00E94BE01812F9927DF91CF911F91AB
S11310800F91FF90EF900895C09860911C017091AA
S11310901D0141E08FE30E941208089582E090E070
S11310A0909349018093480181E08093860120E078
S11310B030E080910201843011F421E030E0232BF0
S11310C029F484E00E94B900882319F40E9444089A
S11310D0089584E00E94B90508951F920F920FB6F7
S11310E00F9211242F933F934F935F936F937F93AA
S11310F08F939F93AF93BF93EF93FF938091480196
S113110090914901019749F482E090E0909349015C
S1131110809348010E944E0805C080914E018F5F64
S113112080934E01FF91EF91BF91AF919F918F9169
S11311307F916F915F914F913F912F910F900FBECF
S11311400F901F9018951F9380911401882309F024
S11311504BC0109102011F3F09F046C060E00E949D
S11311608A00882309F440C081E08093CD018091F6
S113117038018823E1F11092CD0185E090E045C06B
S1131180923069F5C09A8091030120E030E08F3FEE
S113119011F421E030E0232BE9F4109305018F3F93
S11311A019F42FEF30E00DC0282F3327F901EB5647
S11311B0FE4F8081809303018F3F11F4109304014B
S11311C0108320934F0181E0809315018AE00E94EF
S11311D0F60005C0109305011092150111C080910D
S11311E01501882369F00FC081E090E00EC0809162
S11311F0050190911501882319F2923021F0EFCF67
S113120080E00E949B0080E090E01F9108951F936E
S1131210CF93DF939FB7F894C92FDD271C2F9091AC
S11312200201981721F0CFBF81E090E03AC08FEF20
S113123080930201309114013323F1F48FB7F894B1
S113124099271092C6018FBF0E94A308CFBF11C077
S11312502093020181E090E002C0880F991F4A9513
S1131260E2F7809538233093140188E00E94F60059
S11312701FBF80E090E015C080E065E0E32FFF270A
S11312800E942416292F492F5527CF01042E02C06E
S1131290959587950A94E2F780FDDACF822F8F5FC8
S11312A0EFCFDF91CF911F9108951F93CF93DF93D9
S11312B08FB7F894C82FDD271C2F80914801909197
S11312C04901892B29F484E00E940709CFBF1EC07D
S11312D01092860180914E01882311F0B79904C0C1
S11312E00E9908C0882319F0815080934E010E9402
S11312F04E080BC081E090E090934901809348012F
S113130010924E0184E00E9407091FBFDF91CF9124
S11313101F9108950E94E601C09AC09888E00E9437
S1131320F70788E00E94F707C09A84E00E94070943
S11313300E94550908951F93182F81E090E090931F
S1131340170180931601109238010E94A3088FB7E9
S1131350F8949927109310018FBF84E00E94F6003F
S11313601F91089578941F920F920FB60F92112433
S11313702F923F924F925F926F927F928F929F92A1
S1131380AF92BF92CF92DF92EF92FF920F931F938F
S11313902F933F934F935F936F937F938F939F9379
S11313A0AF93BF93CF93DF93EF93FF93CCB5DDB5AA
S11313B080E286BF8FB7F894282E0E9481029E0196
S11313C0261B370B2901662457FC6094762C460EA5
S11313D0571E681E791E8091160190911701853061
S11313E0910521F0069709F0E0C0BFC086E090E0C7
S11313F0909317018093160131E0332E30928501CA
S11314001092180180E00E94A403E0918A01F091F7
S11314108B0141AABB27A72D962D852D80ABC30137
S1131420AA27BB2787A7872D9927AA27BB2786A783
S1131430E0918A01F0918B0185A5882309F484C089
S11314406081655077274F01860E971EF401208135
S1131450E1808281A3809927AA27BB27BA2FA92FCD
S1131460982F8827332744275527522F442733277B
S11314702227FF24002711278701FF24EE242E2989
S11314803F29402B512BBB24CC24DD242A293B2982
S11314904C295D29822B932BA42BB52B84199509F8
S11314A0A609B7098383292F3A2F4B2F5527228367
S11314B09D014427552721838B2F9927AA27BB27D2
S11314C08083C09824E0A40180E090E00E9420067C
S11314D0C09AF4012081E1808281A3809927AA2700
S11314E0BB27BA2FA92F982F88273327442755279E
S11314F0522F442733272227FF240027112787014F
S1131500FF24EE242E293F29402B512BBB24CC242D
S1131510DD242A293B294C295D29822B932BA42BDA
S1131520B52B840D951DA61DB71D8383292F3A2F36
S11315304B2F552722839D014427552721838B2F29
S11315409927AA27BB278083E0918A01F0918B0118
S1131550818185FF02C03092380183E00E9407092F
S113156087B78F7E87BF84997AC01092850181E006
S11315700E94A403E0918A01F0918B01818185FF8F
S11315800FC087E090E090931701809316010E94AA
S1131590810220E031E040E050E00E943E0303C0BD
S11315A080E00E949B09849B5AC080911801882383
S11315B091F580918501882371F511E010938501DF
S11315C00E94A40380B320912702283098F4E0916C
S11315D02B02E20FFF27E770F070EE0FFF1FEE0FF4
S11315E0FF1FED52FE4F40825182628273822F5F51
S11315F02093270210931801D093A101C093A00156
S113160084992DC0992724E0969587952A95E1F72A
S1131610182F117001C010E0809185018130F9F418
S1131620109285010E94A403109218011123B9F4A9
S11316308091A0019091A101C81BD90B2A9778F43D
S113164080912702882319F081508093270280918A
S11316508A0190918B01009711F00E94F2012FBE34
S1131660FF91EF91DF91CF91BF91AF919F918F91B6
S11316707F916F915F914F913F912F911F910F91A6
S1131680FF90EF90DF90CF90BF90AF909F908F909E
S11316907F906F905F904F903F902F900F900FBE70
S11316A00F901F90189561E081E00E9470008823DC
S11316B0E9F48FB7F894282F332780911101909182
S11316C01201892B11F02FBF20C081E090E090938C
S11316D01201809311012FBFDD9A0E94810224E13F
S11316E030E040E050E00E943E030FC062E081E041
S11316F00E948A00882319F089E090E0089561E04F
S113170081E00E948A00882319F080E090E0089527
S113171085E090E00895CF92DF92EF92FF920F93CD
S11317201F93CFB6F894DD240E940102DC01CB01A3
S113173066E470E00E9430164BE0E42EF12CE80ED3
S1131740F91EF0923202E09231020E9481020027D7
S11317501127A80197010E943E03CFBE1F910F914C
S1131760FF90EF90DF90CF9008951F93CF93DF9376
S11317708FB7F894C82FDD271C2F80911601909104
S113178017010897C9F489E00E94F70783E00E94D3
S11317900709C09A81E090E09093170180931601A5
S11317A08FB7F894992723E0209310018FBF84E02A
S11317B00E94F600CFBF30C0C098809135028823C4
S11317C011F085E001C084E00E94F70783FD09C0A1
S11317D080E00E94F70783FF04C085E090E020E0EA
S11317E003C083E090E021E09093170180931601F9
S11317F0C09A1FBF222341F01092200183E00E946F
S113180007090E948B0B08C00E94810220E431E08A
S113181040E050E00E943E03DF91CF911F91089574
S113182078941F920F920FB60F9211241F932F9347
S11318303F934F935F936F937F938F939F93AF9354
S1131840BF93EF93FF9387B78F7E87BF78941FB7BB
S1131850F8948091910190919201A0919301B0919B
S113186094010097A105B10509F051C080911601BA
S1131870909117018530910561F18630910530F41E
S11318808330910549F0049781F51AC0873091059A
S1131890F1F0089751F514C0869B0FC084E090E0E6
S11318A090931701809316010E94810227E030E093
S11318B040E050E00E943E0318C00E948B0B15C00C
S11318C00E941106882389F40E94B50B0EC080E0A3
S11318D00AC089E00E94F70781E00E94A40383E024
S11318E00E94070987E00E949B0980911101909151
S11318F01201019771F482E090E0909312018093B9
S11319001101DE98DE9A80E00E94B90502C00E94AF
S11319109E02812F99278FBFFF91EF91BF91AF91C5
S11319209F918F917F916F915F914F913F912F91F3
S11319301F910F900FBE0F901F901895EF92FF927A
S11319400F931F93CF93DF938B0180919E0190910E
S11319509F0186FF40C18F7B8F3309F08EC1C091F8
S11319601C01D0911D01588150934A018091480176
S1131970909149018530910509F443C08630910561
S113198009F48AC0029709F01FC185E090E09093A2
S113199049018093480140913701852F9927019689
S11319A0242F3327281739074CF1B79906C00E990D
S11319B004C0451B41504093370140914A014A32CB
S11319C0E8F44423A1F0BE016F5F7F4F483018F064
S11319D047E050E007C086E090E09093490180938F
S11319E04801552780E090E00E94BE0146C1109254
S11319F08601C09A84E00E940709E3C00E948A0914
S1131A003CC186E090E09093490180934801809125
S1131A108901882309F439C08091CB018823A9F571
S1131A20898185FF32C08F814E812FB7F894332787
S1131A3060919A0170919B012FBF9927982F882755
S1131A405527842B952B8617970759F08F812E8164
S1131A509927982F88273327822B932B8F5F9F4FAB
S1131A60A1F489818770813081F4C09AC0988AE09A
S1131A700E94F707C09AC09840914A01475028969F
S1131A80BE018FE30E941208F8C040914A014750FA
S1131A9055272896BE01A6CFC09A80914E0188236F
S1131AA039F484E00E94070980914E01882311F0E3
S1131AB0B7990AC00E9B08C090912702992321F080
S1131AC080914A018B3038F480911C0190911D0162
S1131AD00E94F2013DC0913001F5E0912B02FF27F5
S1131AE0EE0FFF1FEE0FFF1FED52FE4F20813181DD
S1131AF042815381E0911C01F0911D0121ABBB2770
S1131B00A52F942F832F80ABCA01AA27BB2787A7B1
S1131B10252F33274427552726A780912B02992761
S1131B20019668E070E00E94441680932B02809135
S1131B302702815080932702882351F080911C0151
S1131B4090911D010E94F20110922B021092270223
S1131B5080914A01FE01E80FF11D808187FF31C0A9
S1131B60012B79F169816770E0911C01F0911D01ED
S1131B70623019F5A0918A01B0918B01109709F197
S1131B8080911601909117010797D9F4ED019B817B
S1131B9083819817B1F487B78F7E87BF908181E0E6
S1131BA08CA7E90FF11D8291319688A780818F77E8
S1131BB089A780E00E949B0904C0613011F48BE086
S1131BC02AC00E94550959C010928601C09A84E027
S1131BD00E94070952C08E3309F04FC0C09A809109
S1131BE01601909117010897C9F4C09889E00E94E2
S1131BF0F707C09A83E00E94070981E090E0909380
S1131C001701809316018FB7F894992723E0209346
S1131C1010018FBF84E00E94F6002FC0809135022E
S1131C20882349F484E090E090931701809316018F
S1131C300E94B50B22C083E00E94070983E090E074
S1131C4090931701809316010E940102DC01CB01DD
S1131C5066E371E00E9430165BE0E52EF12CE80E9D
S1131C60F91EF0923201E09231010E9481020027B4
S1131C701127A80197010E943E03DF91CF911F9184
S1131C800F91FF90EF9008951F920F920FB60F924D
S1131C9011242F933F934F935F936F937F938F936D
S1131CA09F93AF93BF93EF93FF932FB1E091BF0145
S1131CB0F091C001309739F08091A7019091A8016B
S1131CC0E80FF91F20838091A7019091A801019644
S1131CD09093A8018093A70180E00E94A100409105
S1131CE01E0150911F018091A7019091A8018417B2
S1131CF0950718F40E9450011CC06091BF017091B7
S1131D00C00180912F02909130021092C001109274
S1131D10BF011092300210922F0210921F011092F4
S1131D201E011092A8011092A7012FB120E00E9479
S1131D309E0CFF91EF91BF91AF919F918F917F91F5
S1131D406F915F914F913F912F910F900FBE0F9024
S1131D501F901895AF92BF92CF92DF92EF92FF92AD
S1131D600F931F93CF93DF93873009F4C4C1883056
S1131D7098F4833009F449C1843038F4813009F48B
S1131D805BC0823008F0D8C024C0853009F491C10A
S1131D90863008F0A9C13FC18B3009F4D5C28C301C
S1131DA038F4893009F498C28A3008F0B9C2DEC127
S1131DB08D3039F08D3008F401C48E3009F05AC4E6
S1131DC048C480912C02882309F454C440E051E0B3
S1131DD01FC480914B01882361F52091CF0130917C
S1131DE0D0014091D1015091D201EFB7F894FF276F
S1131DF06091C2017091C3018091C4019091C501A9
S1131E00E0903301F09034010091350110913601D6
S1131E106E0D7F1D801F911FEFBF2093CF01309364
S1131E20D0014093D1015093D20110924B010E94F2
S1131E3061040E94B7036DC00E94B7035B016C018B
S1131E408FB7F89499271092A6018FBF8091B5019E
S1131E5081FF25C08091AD019091AE01A091AF01A9
S1131E60B091B001A6019501281B390B4A0B5B0BFD
S1131E70E090B101F090B2010091B3011091B4016E
S1131E80E21AF30A040B150B3FEFE3163FEFF306D8
S1131E903FEF03073FE7130711F061E009C06FEF5D
S1131EA0E62E6FEFF62E6FEF062F6FE7162F60E02A
S1131EB08091BE0181FF21C08091B6019091B7014C
S1131EC0A091B801B091B901A6019501281B390B65
S1131ED04A0B5B0BDA01C9012091BA013091BB01B5
S1131EE04091BC015091BD01281B390B4A0B5B0B7F
S1131EF02E153F05400751072CF0662309F4BAC399
S1131F00A801970112161306140615062CF0C60133
S1131F10B5010E944B05AEC32093CF013093D0018D
S1131F204093D1015093D20181E080934B01C601CB
S1131F30B5010E9461049EC30FB7F894112781E094
S1131F400E94A40351E0E52EF12CF0921701E092D7
S1131F501601109218011092380110924C010FBF13
S1131F600FB7F89411270E94E601F0924901E0921C
S1131F7048011092860189B78F7B89BF80E488BFAE
S1131F808AB780628ABF8AB78F7E8ABF89B7806426
S1131F9089BF0FBF8FB7F894C82FDD278091110137
S1131FA090911201049719F483E00E94F707CFBFC0
S1131FB00FB7F8941127C09A80E00E9407090FBF59
S1131FC08FB7F894992722E02093C7018FBF0E940E
S1131FD0B7036093AD017093AE018093AF0190930A
S1131FE0B00188EE93E0A0E0B0E08093B10190935B
S1131FF0B201A093B301B093B4018091B5018E7F77
S113200082608093B50181E0AEC08FB7F8949927C0
S11320101092C7016EC08FB7F8949927F090100101
S11320208FBF63E081E00E948A00882359F10FB7D3
S1132030F8941127109217011092160187B78F7E1A
S113204087BF87B78F7D87BF83E00E940709C09A47
S11320500FBF0FB7F894112710924901109248014D
S11320600E94E601C09A89B78F7B89BF0FBF109287
S1132070120110921101DE98DD98DE9A83E00E942D
S1132080F60007C08FB7F894992722E02093C70180
S11320908FBFC091A401D091A5010E94DF018A8560
S11320A08F3309F0E7C28FEF809309014F2DBE01F2
S11320B0A7C28FB7F894282F3327122F80913302A9
S11320C0882309F581E08093330280911101909176
S11320D01201049721F481E00E94B90503C086E04F
S11320E00E94F6001FBFC6C28FB7F89499271092BA
S11320F033028FBFBFC28FB7F894282F3327809144
S11321001301882311F02FBFB5C22FBF80B39927C5
S113211046E0969587954A95E1F7182F11709091AE
S11321209C0180919D018917D9F01917C9F484E0A5
S113213090E090931201809311018FB7F89499273E
S113214021E0209313018FBF60E070E08DE10E94D5
S113215029010E946106C09AC09882E00E94F6009C
S113216010939D0187E00E94F60084C28FB7F89413
S11321709927109102018FBF123009F460C0133007
S113218030F4112359F0113009F074C243C01330F4
S113219009F46FC0143009F06DC29BC0C0988FB7AA
S11321A0F894C82FDD2780911101909112010297B4
S11321B079F583E090E0909312018093110168E136
S11321C070E08DE10E94290181E080939C011092CE
S11321D0130180B3992736E0969587953A95E1F7F0
S11321E08170907080939D0187E00E94F60081E0E9
S11321F00E94F7076FE772E08CE10E9429010E94B8
S113220059030E946A0366E57AE287E10E94290184
S1132210CFBF30C2C09886E00E94F7070E945903DE
S11322200E946A030E946106C09AC09883E00E94DB
S1132230F707C09A81E00E94070986E094CFC0980E
S11322408FB7F894C82FDD2760E080E00E948A00F1
S1132250882311F0CFBF0AC0CFBF83E50E941D01C0
S113226080E00E941D0180E00E941D01C09A82E06E
S11322702DC08FB7F8949927209116018FBF243071
S113228039F0283041F0223001F50E949106F2C164
S11322900E94B50BEFC1C09889E00E94F707C09A6D
S11322A083E00E9407098FB7F894992721E030E072
S11322B030931701209316018FBF8FB7F894992795
S11322C0109310018FBF84E04ECF83E00E94070972
S11322D0D1C10E944408CEC10FB7F8941127409190
S11322E01E0150911F016091BF017091C001809146
S11322F02F02909130021092C0011092BF011092EF
S1132300300210922F0210921F0110921E0110929F
S1132310A8011092A70120E00E949E0C0FBFAAC141
S11323202FB7F894332780914F018093050182E001
S1132330809315012FBF80910501882309F09AC16C
S1132340B89AC09888E00FCFA0911C01B0911D01EC
S11323501C91FD01E10FF11D8081881F8827881FD2
S1132360ED018BA780818F7789A73197808188A71A
S1132370E0911C01F0911D018FB7F89499272091E9
S11323804D018FBF2223F9F0878146812FB7F8943E
S1132390332760919A0170919B012FBF9927982F41
S11323A088275527842B952B8617970761F08781FB
S11323B026819927982F88273327822B932B8F5F89
S11323C09F4F09F0F2C01D3008F4EFC0C0911C010A
S11323D0D0911D01898528859927582F44273327B3
S11323E0422B532B6B818FEF80932D028FB7F89480
S11323F0782F20E030E0E5E2F1E0808191818417DC
S1132400950729F48281861731F120932D022F5FDD
S11324103F4F33962430310581F77FBF90912D02D1
S11324203FB7F8949F3F21F0809119018917A9F4CF
S113243020911901822F9927FC01EE0FFF1FE80F4D
S1132440F91FEB5DFE4F5183408362832F5F23703E
S1132450209319010EC07FBFA4C0892F9927FC01C6
S1132460EE0FFF1FE80FF91FEB5DFE4F5183408312
S11324706283832F99278FBF8BA5882309F491C08A
S11324808A858F3309F08DC08F814E812FB7F894E0
S1132490332760910601709107012FBF9927982F68
S11324A088275527842B952B8617970761F08F81F2
S11324B02E819927982F88273327822B932B8F5F80
S11324C09F4F09F06EC08B85863009F06AC08C85F9
S11324D02D859927982F88273327822B932B823099
S11324E009F05FC080910E01882309F05AC02FB70C
S11324F0F89433278BB394E089278BBB2FBF2FB776
S1132500F89433278BB392E089278BBB2FBF2FB767
S1132510F89433278BB311E081278BBB2FBF8091B5
S113252000019091010180935E01892F9927809386
S11325305D0180910F0199278093600110925F01E2
S113254041E551E08FEF809357018093580186E075
S113255080935C018091A9019091AA01892B09F5CE
S11325605093AA014093A90181E180935101809184
S11325700C01882399F010920C0124E06FEF7FEF97
S113258086E00E9456079927882341F010930C0196
S11325901092AA011092A901882319F481E0809372
S11325A00E01D0931D01C0931C018FB7F894992795
S11325B0109286018FBF0E9455095CC090919001D2
S11325C080910901981709F455C090930901992342
S11325D0D9F4C0911A01D0911B016091A2018FE33B
S11325E08A87CE010E94D706482F5527442309F431
S11325F041C08FEF8093090160911A0170911B0112
S11326008B850E94E80736C08FEF8093090132C0A2
S113261090912C02852F8923B9F0E42FFF27EE0F28
S1132620FF1FE755FE4F2081318111821082852FD3
S11326308095982390932C02442331F42155314002
S1132640B1F410920E0113C04F5F483098F4550F47
S1132650DFCF80910C01E82FFF27EE0FFF1FE75516
S1132660FE4F6081718141E00E94AA0703C0550FAB
S113267041E0CECFDF91CF911F910F91FF90EF906A
S1132680DF90CF90BF90AF900895809128028F3F44
S1132690B1F0282F3327F901E75CFE4F8081809346
S11326A028028F3F11F4809334028FEF80832F3FF1
S11326B031F0822F0E94AA0E81E090E0089580E01C
S11326C090E008951F931FB7F8944FE050E06FEF28
S11326D070E089E391E00E94AD168FEF80932802A9
S11326E08093340281E08EBD88E080BF83E083BFA5
S11326F08CB59DB54AE72CB53DB52817390708F4C4
S11327004150442311F0C901F6CF92B782B789171B
S1132710E9F32CB53DB592B782B78917E9F38CB5C7
S11327209DB5821B930B409675E0969587957A9597
S1132730E1F790932A028093290213BE83B78EBDDA
S11327408EB580BF12BE1DBC1CBC8FEF86BF86B782
S113275080937C0080B7992787709070892BD1F77C
S1132760D29AD19AD09ADA9AD99AD89A15BA8FEF7E
S113277084BBD498DC981DBC1CBC87B7846087BF1D
S11327808EB5887F84608EBD80E285BF0E9445132C
S11327908823E1F78FEF80935001E5E2F1E08FEFBA
S11327A09FEF918380831282339621E0E133F20715
S11327B0C1F70E9401026093CE01809100019091C3
S11327C001010196AA27BB2780938C0190938D0168
S11327D0A0938E01B0938F0183EF91E090931D013C
S11327E080931C018E98B89A8C988FEF80939501F2
S11327F01092C6011092C7011092C8011092C9012B
S1132800B89AD69AD59A8FB7F89499272091060149
S1132810309107018FBF30939B0120939A018091DF
S11328200801992790938801809387018FE1809311
S1132830C1018AE18093CC0181E080934D01109223
S11328402E02809389011092CB0180B7886080BFEB
S11328508BE083BF86EE81BF87B7826087BF0E940B
S1132860DE030E9445138823E1F7812F99278FBF48
S113287078940E94530B8FB7F894482F552748C07B
S113288087B7992783709070892B19F4E5E0F0E0FD
S113289013C080B7992787709070892BD1F781B7BF
S11328A092B7891B8C3030F082B7853F18F4E3E08F
S11328B0F0E002C0E2E0F0E087B7887BC1F48091E9
S11328C07D008B7FA1F46E9912C08AB190919A0019
S11328D0892B807C61F48091740082FD08C0379B51
S11328E003C081E090E005C085E090E002C080E094
S11328F090E025B78E1708F4E82FFF27E457FF4F21
S1132900E491237E2062E22BE5BF78948895F894C5
S1132910809128028F3F09F4B3CF282F3327F90180
S1132920E75CFE4F8081809328028F3F11F48093EF
S113293034028FEF80832F3F09F4A2CF4FBF822F41
S11329400E94AA0E98CFACE2B0E0E9EAF4E10C945C
S11329507616222E332E442E552E662E772E882E52
S1132960992EFE013196A8E01192AA95E9F72982E1
S11329703A824B825C826D827E828F829886FE01CF
S11329803996B8E01192BA95E9F7A986BA86CB864A
S1132990DC86ED86FE860F87188B89819A81AB8150
S11329A0BC8189A79AA7ABA7BCA77C018D018FEF37
S11329B09FEFA0E0B0E0E822F9220A231B2389A5B7
S11329C09AA5ABA5BCA51D014424552489859A85E7
S11329D0AB85BC858DA39EA3AFA3B8A75C016D0195
S11329E08FEF9FEFA0E0B0E0A822B922CA22DB2239
S11329F08DA19EA1AFA1B8A53D0188249924C80149
S1132A00B701A60195010E94571669A37AA38BA367
S1132A109CA3C801B701A40193010E9457167B012E
S1132A208C01C201B101A60195010E9457165B01F8
S1132A306C01C201B101A40193010E9457163B012C
S1132A404C01EA0CFB1C0C1D1D1D89A19AA1ABA114
S1132A50BCA19D01442755272E0D3F1D401F511F2A
S1132A602A153B054C055D0540F480E090E0A1E0AB
S1132A70B0E0680E791E8A1E9B1ECA01AA27BB27D6
S1132A80860D971DA81DB91D8D8F9E8FAF8FB8A37E
S1132A90A9013327222789A19AA1ABA1BCA1A070C7
S1132AA0B070280F391F4A1F5B1F298F3A8F4B8F35
S1132AB05C8FA98CBA8CCB8CDC8CED8CFE8C0F8D4E
S1132AC018A1FE01719698E011929A95E9F7ED8AA2
S1132AD0FE8A0F8B188F2D813E814F8158856DA101
S1132AE07EA18FA198A50E9457163B014C012D850C
S1132AF03E854F85588969A57AA58BA59CA50E941A
S1132B0057162D893E894F89588D260F371F481F28
S1132B10591F260D371D481D591D2D8B3E8B4F8B7C
S1132B20588F6D887E888F88988C2A2D3B2D4C2D4C
S1132B305D2D662D772D882D992DE2E1AC960C94B0
S1132B409216A0E1B0E0E7EAF5E10C947616222EA5
S1132B50332E442E552E662E772E882E992E002342
S1132B6009F466C088E0FE01319611928A95E9F76E
S1132B7029833A834B835C836D837E838F8298871A
S1132B80E0E2E01B1E16CCF52D813E814F81588575
S1132B90602F772767FD7095DA01C901062E04C0FE
S1132BA0B695A795979587950A94D2F78D879E87B2
S1132BB0AF87B88B04C0220F331F441F551FEA95FB
S1132BC0D2F789819A81AB81BC8104C0B695A7955F
S1132BD0979587956A95D2F7282B392B4A2B5B2B2F
S1132BE029873A874B875C8729843A844B845C84A1
S1132BF06D847E848F8498881BC01D861E861F86E4
S1132C00188A2E2F332727FD3095309521953F4F75
S1132C108D819E81AF81B88504C0B695A79597959F
S1132C2087952A95D2F789879A87AB87BC87DCCFAB
S1132C30222D332D442D552D662D772D882D992D3C
S1132C40E2E160960C949216991B79E004C0991FF6
S1132C50961708F0961B881F7A95C9F780950895F2
S1132C60AA1BBB1B51E107C0AA1FBB1FA617B707AE
S1132C7010F0A61BB70B881F991F5A95A9F78095CA
S1132C809095BC01CD01089597FB092E07260AD023
S1132C9077FD04D0E5DF06D000201AF47095619525
S1132CA07F4F0895F6F7909581959F4F0895629F01
S1132CB0D001739FF001829FE00DF11D649FE00D30
S1132CC0F11D929FF00D839FF00D749FF00D659F91
S1132CD0F00D9927729FB00DE11DF91F639FB00D90
S1132CE0E11DF91FBD01CF01112408952F923F92D8
S1132CF04F925F926F927F928F929F92AF92BF9208
S1132D00CF92DF92EF92FF920F931F93CF93DF93B3
S1132D10CDB7DEB7CA1BDB0B0FB6F894DEBF0FBE10
S1132D20CDBF09942A88398848885F846E847D845D
S1132D308C849B84AA84B984C884DF80EE80FD805F
S1132D400C811B81AA81B981CE0FD11D0FB6F894D5
S1132D50DEBF0FBECDBFED010895DC0101C06D9350
S10D2D6041505040E0F70895FFCF02
S1112D6A0100FFFFFFFF010022FFFFFF010039
S9030000FC
