S01800006275696C642F6D6963617A2F6D61696E2E73726563E5
S11300000C9449000C9413040C941D040C942704C0
S11300100C9431040C943B040C9445040C94C406D5
S11300200C944F040C9468000C9468000C94D6094A
S11300300C94B6130C94DD030C94F3030C94590440
S11300400C94CC030C94A20D0C9468000C946800DE
S11300500C9468000C9468000C9468000C9468007C
S11300600C94E8030C9468000C9468000C946800E9
S11300700C9468000C9468000C9468000C9468005C
S11300800C9468000C9468000C94680000081C1818
S1130090141011241FBECFEFD0E1DEBFCDBF11E09D
S11300A0A0E0B1E0ECEAFCE200E00BBF02C0079084
S11300B00D92AE30B107D9F712E0AEE0B1E001C065
S11300C01D92A533B107E1F70E9475120C945516E1
S11300D00C9400008FB7F894992708958FBF089562
S11300E0282F9FB7F894662349F0E82FFF27EB5396
S11300F0FE4F8081882311F021E006C0E22FFF2704
S1130100EB53FE4F608320E0892F99278FBF822F06
S113011099270895E82F8FB7F894282F332790E074
S1130120FF27EB53FE4F8081861709F491E02FBF20
S1130130892F99270895882311F06E9A08956E984F
S11301400895882311F06F9A08956F98089580E0B8
S11301500E949B00BA9ABB98B99A6C9A80E00E945C
S1130160A100709A6B986A98689881E00E949B003D
S11301700895282F9FB7F894E82FFF27E85CFE4FD7
S113018080818F3F81F4E0913302E21771F40BC058
S11301902093270204C0FF27E85CFE4F20832093AE
S11301A0330220E007C025E005C0809127028F3F7D
S11301B091F7EECF892F99278FBF822F9927089522
S11301C01F93182F81E00E949B001FB9779BFECFDD
S11301D08FB199271F9108958F929F92AF92BF92EA
S11301E0CF92DF92EF92FF920F931F93CF93DF93FF
S11301F08FB7F8949927C0902E02D0902F02809048
S1130200BE019090BF01C091A601D091A701209199
S11302101D0130911E019AE0A92EB12CAC0EBD1E19
S11302202A153B0508F459018FBF7401EC0EFD1E1D
S113023086010C0F1D1F14C0C114D10419F0F8015C
S1130240808101C080E00E94E0008114910411F0DB
S1130250F701808321960894E11CF11C0F5F1F4F66
S1130260C5010197C817D90738F381E00E94A1009E
S11302709FB7F894C114D10431F0CC0EDD1EF60101
S113028080818FB901C01FB8D093A701C093A60184
S1130290892F99278FBF80E090E0DF91CF911F9144
S11302A00F91FF90EF90DF90CF90BF90AF909F9011
S11302B08F9008952FB7F894332750931E014093DD
S11302C01D0190932F0280932E027093BF016093BF
S11302D0BE011092A7011092A6012FBF452B29F051
S11302E08FB10E94EC009927089589E00E94B9001B
S11302F080E090E008958FB7F89499271092C70191
S11303008FBF089580E88093360110928501109282
S11303102A021092260210924D010895CF93DF9382
S1130320FC0115A6DC019E96ED011B821A8219823E
S113033080E886A7DF91CF9108952F923F924F9244
S11303405F926F927F928F929F92AF92BF92CF9261
S1130350DF92EF92FF920F931F93CF93DF93CDB76A
S1130360DEB728970FB6F894DEBF0FBECDBF20903E
S11303708B0130908C0140908D0150908E01662449
S1130380772488244EE4A42E33E8B32ECC24DD2431
S1130390EE24FF2400E010E0222D332D442D552DB2
S11303A0662D772D882D90E00E94441429833A838A
S11303B04B835C836D837E838F839887822E932EF9
S11303C0A42EB52E2401350100E20E944215A22E6E
S11303D0B32EC42ED52EC301B20196958795779579
S11303E067956A0D7B1D8C1D9D1D97FF05C09F772A
S11303F06F5F7F4F8F4F9F4F60938B0170938C0182
S113040080938D0190938E0128960FB6F894DEBFE9
S11304100FBECDBFDF91CF911F910F91FF90EF9051
S1130420DF90CF90BF90AF909F908F907F906F9010
S11304305F904F903F902F9008958FB7F8946091FC
S1130440AA017091AB012CB53DB506B602FE04C0FD
S11304506F5F7F4F2CB53DB599278FBF88279927AC
S1130460CB017727662744275527622B732B842BD0
S1130470952B0895EF92FF920F931F930E941D02F4
S11304807B018C0120919501309196014091970157
S1130490509198018091900190919101A0919201C5
S11304A0B0919301820F931FA41FB51FE216F306A8
S11304B00407150730F082179307A407B50758F00F
S11304C005C082179307A407B507E0F5E816F906F7
S11304D00A071B07B8F59C01AD012E193F09400B13
S11304E0510B213060E8360760E0460760E05607AC
S11304F068F180E090E8A0E0B0E0E80EF91E0A1F81
S11305001B1FE0929501F0929601009397011093BE
S1130510980180E090E8AFEFBFEFE80EF91E0A1FE4
S11305201B1F20503048404050402093900130938E
S11305309101409392015093930120E030E840E010
S113054050E014C020E030E040E050E0809395019A
S113055090939601A0939701B09398011092900103
S1130560109291011092920110929301A901B70186
S11305702CB53DB5C9018E199F09039684179507BB
S113058020F0B9016D5F7F4F02C0640F751F6115C4
S1130590710511F461E070E0615070407BBD6ABD8B
S11305A080E186BF87B7806187BF1F910F91FF905D
S11305B0EF9008950F931F930FB7F894112760934A
S11305C095017093960180939701909398012093DD
S11305D090013093910140939201509393010E94B2
S11305E03A020FBF1F910F91089597B79F7D97BF50
S11305F090E296BF882319F08EB5806402C08EB550
S11306008F7B8EBD87B7806287BF80E090E00895BE
S11306107FB7F89462B72091200130912101409175
S113062022015091230106B601FE0FC081B792B793
S1130630280F311D411D511D2F5F3F4F4F4F5F4FFD
S1130640290F311D411D511D04C0260F311D411DAF
S1130650511D872F99278FBFCA01B9010895DF92D1
S1130660EF92FF920F931F938FB7F894282F33279D
S1130670D22E91B782B746B7981711F041FF02C046
S11306802FBF6AC08091A5018823E1F10E9408036D
S1130690E090C101F090C2010091C3011091C40126
S11306A02091320130913301409134015091350150
S11306B06E197F09800B910B6217730784079507E6
S11306C020F01092A50171E01EC02E0D3F1D401FA9
S11306D0511F8091200190912101A0912201B0919C
S11306E02301281B390B4A0B5B0B273E31054105BF
S11306F0510540F4822F223010F070E005C070E004
S113070082E002C070E086EE682F615000B601FC02
S1130710FDCF82B7681709F46F5F209120013091F3
S113072021014091220150912301DA01C90101966E
S1130730A11DB11D860F911DA11DB11D8217930727
S1130740A407B50710F4622F609561BFDFBE77235D
S113075019F080E00E94B9001F910F91FF90EF9073
S1130760DF900895AFB7F894BB27E1E0E093A501CB
S11307706093C1017093C2018093C3019093C4013B
S11307802093320130933301409334015093350167
S1130790AFBF0E942F0308951F920F920FB60F92BE
S11307A011248F9383B783BF00B600FCFDCF8F91D4
S11307B00F900FBE0F901F90189578941F920F9270
S11307C00FB60F9211240F900FBE0F901F90189523
S11307D078941F920F920FB60F9211240F900FBEB0
S11307E00F901F90189578941F920F920FB60F9246
S11307F011242F933F938F939F932FB7F89433270C
S11308008091AA019091AB0101969093AB018093E2
S1130810AA012FBF9F918F913F912F910F900FBEEF
S11308200F901F9018951F920F920FB60F921124DC
S11308300F900FBE0F901F9018951F920F920FB636
S11308400F9211240F900FBE0F901F9018951F92B6
S11308500F920FB60F9211240F900FBE0F901F909E
S113086018951F920F920FB60F9211240F900FBE7E
S11308700F901F9018951F920F920FB60F9211248C
S11308800F900FBE0F901F9018951F920F920FB6E6
S11308900F9211240F900FBE0F901F9018951F9266
S11308A00F920FB60F9211240F900FBE0F901F904E
S11308B018951F920F920FB60F9211242F933F9306
S11308C04F935F936F937F938F939F93AF93BF9354
S11308D0EF93FF9383B783BF00B600FCFDCF81B7CE
S11308E099270196AA27BB27209120013091210145
S11308F04091220150912301280F391F4A1F5B1F89
S1130900209320013093210140932201509323012D
S113091078940E942F03FF91EF91BF91AF919F9123
S11309208F917F916F915F914F913F912F910F9094
S11309300FBE0F901F9018950F931F93CF93DF93C3
S1130940182F8FB7F894C82FDD270C2F61E080E0B3
S11309500E947000882321F0CFBF85E090E024C07E
S1130960809105018823A1F480911401823081F4DF
S113097009C082E080931401109205010E94A7002F
S1130980B89AC0981093020180E00FBF99270CC059
S113099080911401882369F38FB7F89499271092F2
S11309A0C5018FBF81E0F1CFDF91CF911F910F91EE
S11309B00895AF92BF92CF92DF92EF92FF920F937E
S11309C01F935B016C016091B40161FF1EC0209113
S11309D0AC013091AD014091AE015091AF01E09076
S11309E0B001F090B1010091B2011091B301D601B0
S11309F0C501821B930BA40BB50B8E159F05A00795
S1130A00B10718F0ECEAF1E01FC0E5EBF1E060910A
S1130A10BD0161FF27C02091B5013091B60140911D
S1130A20B7015091B801E090B901F090BA0100917A
S1130A30BB011091BC01A21AB30AC40AD50AAE14B0
S1130A40BF04C006D10670F060FF04C080858D7FAE
S1130A50808708C02E0D3F1D401F511F2083318306
S1130A604283538381E00E94B9001F910F91FF904C
S1130A70EF90DF90CF90BF90AF9008950F931F93A6
S1130A80182F0FB7F89461E080E00E94700088236B
S1130A9071F510930201809105018823A9F58091D5
S1130AA01401823089F588E00CC00E94A70080916F
S1130AB01401882349F481E08093140110924E01BB
S1130AC08AE00E94B9002AC0809194018F3F31F5D9
S1130AD0E0910401EE2311F11CC01092030104C043
S1130AE0FF27EC56FE4F10821092040117C081E0DC
S1130AF090E002C0880F991F1A95E2F72091130124
S1130B00282B209313010AC0809114018823E1F655
S1130B10CCCF809103018F3F19F7DFCF802F992726
S1130B208FBF80E090E01F910F9108951F9383E0A1
S1130B300E949C049927182F882319F083E00E94AF
S1130B403E05812F99271F91089561E081E00E945D
S1130B5070008823E9F48FB7F894282F3327809105
S1130B60100190911101892B11F02FBF20C081E059
S1130B7090E090931101809310012FBFDD9A0E94A1
S1130B801D0224E130E040E050E00E94DA020FC090
S1130B9062E081E00E948A00882319F089E090E0F5
S1130BA0089561E081E00E948A00882319F080E0C2
S1130BB090E0089585E090E00895CF92DF92EF925F
S1130BC0FF920F931F93CF93DF938C01F62E6A014C
S1130BD0E22E8FB7F894C82FDD2760E080E00E94F2
S1130BE08A00882321F0CFBF80E090E01EC0CFBFF1
S1130BF00F0D111D802F80680E94E000F82E1695BD
S1130C000795802F807C0E94E0000E2D0AC0EE2DF7
S1130C10FF27E01BF109EC0DFD1D80810E94E0001F
S1130C2001500023A1F78F2D9927DF91CF911F91B8
S1130C300F91FF90EF90DF90CF900895CF93DF93C3
S1130C40CDB7DEB724970FB6F894DEBF0FBECDBF85
S1130C508FB7F894992720918601309187012983D1
S1130C60232F33272A832091990130919A012B83D2
S1130C70232F33272C838FBF24E0AE014F5F5F4FB8
S1130C8060E088E691E00E94DD0524960FB6F894B2
S1130C90DEBF0FBECDBFDF91CF9108951F93CF93D9
S1130CA0DF93182F8FB7F894C82FDD2760E080E01A
S1130CB00E948A00882321F0CFBF80E090E005C025
S1130CC0CFBF812F0E94E0009927DF91CF911F9120
S1130CD00895EF92FF920F931F93CF93DF93182FF2
S1130CE07B01042F8FB7F894C82FDD2760E080E0E4
S1130CF00E948A00882321F0CFBF80E090E014C0D6
S1130D00CFBF1064812F992790939E0180939D01FA
S1130D100E94E000182F402F5527B70180E090E093
S1130D200E945A01812F9927DF91CF911F910F9132
S1130D30FF90EF900895C09860911B0170911C0181
S1130D4041E08FE30E946906089582E090E0909369
S1130D5048018093470181E08093850120E030E0E1
S1130D6080910201843011F421E030E0232B29F436
S1130D7084E00E949C04882319F40E949B06089531
S1130D8084E00E943E0508951F920F920FB60F92C1
S1130D9011242F933F934F935F936F937F938F937C
S1130DA09F93AF93BF93EF93FF93809147019091EB
S1130DB04801019749F482E090E0909348018093C0
S1130DC047010E94A50605C080914D018F5F809365
S1130DD04D01FF91EF91BF91AF919F918F917F91C1
S1130DE06F915F914F913F912F910F900FBE0F9094
S1130DF01F9018951F9380911301882309F04BC00D
S1130E00109102011F3F09F046C060E00E948A0071
S1130E10882309F440C081E08093CC01809137019C
S1130E208823E1F11092CC0185E090E045C0923036
S1130E3069F5C09A8091030120E030E08F3F11F4FE
S1130E4021E030E0232BE9F4109305018F3F19F4DE
S1130E502FEF30E00DC0282F3327F901EC56FE4F59
S1130E608081809303018F3F11F410930401108358
S1130E7020934E0181E0809314018AE00E94B9001E
S1130E8005C0109305011092140111C08091140142
S1130E90882369F00FC081E090E00EC080910501C5
S1130EA090911401882319F2923021F0EFCF80E061
S1130EB00E949B0080E090E01F9108951F93CF93C0
S1130EC0DF939FB7F894C92FDD271C2F909102015F
S1130ED0981721F0CFBF81E090E03AC08FEF809364
S1130EE00201309113013323F1F48FB7F894992759
S1130EF01092C5018FBF0E94FA06CFBF11C0209384
S1130F00020181E090E002C0880F991F4A95E2F740
S1130F10809538233093130188E00E94B9001FBFE5
S1130F2080E090E015C080E065E0E32FFF270E9499
S1130F30C515292F492F5527CF01042E02C0959599
S1130F4087950A94E2F780FDDACF822F8F5FEFCF87
S1130F50DF91CF911F9108951F93CF93DF938FB7A4
S1130F60F894C82FDD271C2F8091470190914801E8
S1130F70892B29F484E00E945E07CFBF1EC0109223
S1130F80850180914D01882311F0B79904C00E9911
S1130F9008C0882319F0815080934D010E94A50652
S1130FA00BC081E090E09093480180934701109238
S1130FB04D0184E00E945E071FBFDF91CF911F9116
S1130FC008950E948201C09AC09888E00E944E064B
S1130FD088E00E944E06C09A84E00E945E070E9448
S1130FE0AC070895FF920F931F93CF93DF93F82ECE
S1130FF08B018FB7F894C82FDD2760E080E00E9452
S11310008A00882321F0CFBF80E090E00CC0CFBFDE
S11310108F2D0E94E000812F99270E94E000802FED
S11310200E94E0009927DF91CF911F910F91FF90CB
S113103008951F931FB7F89480914C01882319F4E5
S113104060E070E009C060E080912D02882309F41B
S113105061E081E06827772780918801882319F46B
S113106080E090E00AC090E08091CA01882309F4EE
S113107091E081E09827892F9927762F6627770FAB
S1131080770F770FA4E0880F991FAA95E1F7826E76
S11310909262682B792B81E10E94F207812F9927B4
S11310A08FBF1F9108958FB7F89499276091CB0152
S11310B08FBF85E0689FB0011124625D7E4F70642C
S11310C088E10E94F2070895EF92FF921F93CF9355
S11310D0DF93E0908901F0908A01F70182A59927B6
S11310E0182F882309F41FE1C09880914B018117C0
S11310F049F0612F77276F717070606E706885E1B9
S11311000E94F20710934B01F70110818FB7F894F6
S1131110C82FDD2760E080E00E948A00882311F058
S1131120CFBF12C0CFBF8EE390E090939E01809317
S11311309D018EE30E94E0001150412F552760E08D
S113114070E0C7010E945A01DF91CF911F91FF9077
S1131150EF900895FF920F931F93CF93DF93EC01C9
S1131160F62E61E082E00E947000882319F085E089
S113117090E069C08091CD018F5F8093CD01815053
S11311808B838FB7F894082F112762E081E00E94C7
S11311908A00882329F40FBF0E947B0181E052C09A
S11311A08FB7F894992724E02093C6018FBFD0937A
S11311B0A401C093A3010FBF8DE0F80EFE01F192CC
S11311C089819927807290708983118289819927F6
S11311D0816498688983892F992781831CA618A61E
S11311E019A619AA18AA1FA680E88EA761E0609321
S11311F0C9014091A3015091A4018FB7F894282FFD
S1131200332780911501909116018830910511F0D2
S1131210019711F02FBF15C082E090E09093160162
S1131220809315016093340250938A01409389019D
S113123010921F012FBF0E949605882311F40E946B
S1131240640880E09927DF91CF911F910F91FF905F
S113125008951F93CF93DF93182FEB01E82FFF27F7
S1131260EE0FFF1FE855FE4F1182108210920C0101
S1131270E091A801F091A901309721F080912B020F
S113128080FF62C081E080930C0156C09927982F9B
S113129088273327822B932B43878683892F99278B
S11312A087832FB7F8943327809186019091870123
S11312B02FBF8483892F992785832FB7F8943327E9
S11312C080910601909107012FBF8087892F99276C
S11312D0818780910901882361F0109209018FE3CD
S11312E08287CF010E94AA089927282F8823A9F46E
S11312F017C0862F99279093A2018093A101F093A0
S11313001A01E09319018CE00E94B900809109014F
S1131310882349F489E090E00AC08FEF80930901A3
S1131320822F992704C010928F0180E090E0892BCE
S113133019F08EE00E94B900112371F4C055D14018
S113134059F410920E0108C043858781268160817B
S11313506D506D3170F79ACFDF91CF911F91089541
S11313609B0180910C01882349F46091A80170913C
S1131370A9016217730711F40E94290908951F93A4
S1131380182F81E090E0909316018093150110923C
S113139037010E94FA068FB7F894992710930F012A
S11313A08FBF84E00E94B9001F91089578941F9222
S11313B00F920FB60F9211242F923F924F925F9289
S11313C06F927F928F929F92AF92BF92CF92DF9251
S11313D0EF92FF920F931F932F933F934F935F933B
S11313E06F937F938F939F93AF93BF93CF93DF9329
S11313F0EF93FF93CCB5DDB580E286BF8FB7F89449
S1131400282E0E941D029E01261B370B29016624EB
S113141057FC6094762C460E571E681E791E8091E8
S11314201501909116018530910521F0069709F078
S1131430E0C0BFC086E090E0909316018093150150
S113144031E0332E309284011092170180E00E9423
S1131450F502E0918901F0918A0141AABB27A72DE9
S1131460962D852D80ABC301AA27BB2787A7872D7F
S11314709927AA27BB2786A7E0918901F0918A01C1
S113148085A5882309F484C06081655077274F01BE
S1131490860E971EF4012081E1808281A380992722
S11314A0AA27BB27BA2FA92F982F88273327442789
S11314B05527522F442733272227FF24002711279B
S11314C08701FF24EE242E293F29402B512BBB24D6
S11314D0CC24DD242A293B294C295D29822B932BFA
S11314E0A42BB52B84199509A609B7098383292F41
S11314F03A2F4B2F552722839D01442755272183BB
S11315008B2F9927AA27BB278083C09824E0A401A6
S113151080E090E00E94DD05C09AF4012081E18022
S11315208281A3809927AA27BB27BA2FA92F982F96
S11315308827332744275527522F44273327222728
S1131540FF24002711278701FF24EE242E293F2999
S1131550402B512BBB24CC24DD242A293B294C29A4
S11315605D29822B932BA42BB52B840D951DA61DD1
S1131570B71D8383292F3A2F4B2F552722839D0193
S11315804427552721838B2F9927AA27BB2780839C
S1131590E0918901F0918A01818185FF02C0309236
S11315A0370183E00E945E0787B78F7E87BF8499E7
S11315B07AC01092840181E00E94F502E0918901D1
S11315C0F0918A01818185FF0FC087E090E09093BC
S11315D01601809315010E941D0220E031E040E0D5
S11315E050E00E94DA0203C080E00E94BF09849B9D
S11315F05AC080911701882391F580918401882332
S113160071F511E0109384010E94F50280B32091DA
S11316102602283098F4E0912A02E20FFF27E770AF
S1131620F070EE0FFF1FEE0FFF1FEE52FE4F4082D1
S11316305182628273822F5F2093260210931701D6
S1131640D093A001C0939F0184992DC0992774E081
S1131650969587957A95E1F7182F117001C010E0DF
S1131660809184018130F9F4109284010E94F50282
S1131670109217011123B9F480919F019091A00158
S1131680C81BD90B2A9778F480912602882319F075
S11316908150809326028091890190918A0100975C
S11316A011F00E948E012FBEFF91EF91DF91CF9137
S11316B0BF91AF919F918F917F916F915F914F9166
S11316C03F912F911F910F91FF90EF90DF90CF905A
S11316D0BF90AF909F908F907F906F905F904F904E
S11316E03F902F900F900FBE0F901F901895CF92A0
S11316F0DF92EF92FF920F931F93CFB6F894DD24FD
S11317000E949D01DC01CB0166E470E00E94D115CA
S11317104BE0E42EF12CE80EF91EF0923102E09237
S113172030020E941D0200271127A80197010E9480
S1131730DA02CFBE1F910F91FF90EF90DF90CF9010
S113174008951F93CF93DF938FB7F894C82FDD27A5
S11317501C2F80911501909116010897C9F489E016
S11317600E944E0683E00E945E07C09A81E090E0EA
S113177090931601809315018FB7F894992723E06D
S113178020930F018FBF84E00E94B900CFBF30C007
S1131790C09880913402882311F085E001C084E070
S11317A00E944E0683FD09C080E00E944E0683FF1E
S11317B004C085E090E020E003C083E090E021E0F5
S11317C09093160180931501C09A1FBF222341F004
S11317D010921F0183E00E945E070E94770B08C0ED
S11317E00E941D0220E431E040E050E00E94DA0251
S11317F0DF91CF911F910895EF92FF920F931F9362
S1131800CF93DF938B0180919D0190919E0186FF80
S113181040C18F7B8F3309F08EC1C0911B01D091E1
S11318201C015881509349018091470190914801CE
S11318308530910509F443C08630910509F48AC0C6
S1131840029709F01FC185E090E0909348018093CE
S1131850470140913601852F99270196242F33277C
S1131860281739074CF1B79906C00E9904C0451BD7
S1131870415040933601409149014A32E8F44423EF
S1131880A1F0BE016F5F7F4F483018F047E050E091
S113189007C086E090E09093480180934701552764
S11318A080E090E00E945A0146C110928501C09ADE
S11318B084E00E945E07E3C00E94E1073CC186E029
S11318C090E0909348018093470180918801882398
S11318D009F439C08091CA018823A9F5898185FF5B
S11318E032C08F814E812FB7F894332760919901CC
S11318F070919A012FBF9927982F88275527842BF9
S1131900952B8617970759F08F812E819927982F49
S113191088273327822B932B8F5F9F4FA1F48981D4
S11319208770813081F4C09AC0988AE00E944E0684
S1131930C09AC0984091490147502896BE018FE350
S11319400E946906F8C040914901475055272896DE
S1131950BE01A6CFC09A80914D01882339F484E05A
S11319600E945E0780914D01882311F0B7990AC047
S11319700E9B08C090912602992321F08091490181
S11319808B3038F480911B0190911C010E948E01D0
S11319903DC0913001F5E0912A02FF27EE0FFF1FB1
S11319A0EE0FFF1FEE52FE4F2081318142815381A1
S11319B0E0911B01F0911C0121ABBB27A52F942FB3
S11319C0832F80ABCA01AA27BB2787A7252F3327DC
S11319D04427552726A780912A029927019668E073
S11319E070E00E94E51580932A02809126028150BE
S11319F080932602882351F080911B0190911C0151
S1131A000E948E0110922A021092260280914901AE
S1131A10FE01E80FF11D808187FF31C0012B79F1B0
S1131A2069816770E0911B01F0911C01623019F526
S1131A30A0918901B0918A01109709F18091150153
S1131A40909116010797D9F4ED019B818381981732
S1131A50B1F487B78F7E87BF908181E08CA7E90FAF
S1131A60F11D8291319688A780818F7789A780E0C4
S1131A700E94BF0904C0613011F48BE02AC00E94A7
S1131A80AC0759C010928501C09A84E00E945E0799
S1131A9052C08E3309F04FC0C09A809115019091C5
S1131AA016010897C9F4C09889E00E944E06C09AAE
S1131AB083E00E945E0781E090E09093160180939A
S1131AC015018FB7F894992723E020930F018FBF56
S1131AD084E00E94B9002FC080913402882349F425
S1131AE084E090E090931601809315010E94A10B6D
S1131AF022C083E00E945E0783E090E09093160189
S1131B00809315010E949D01DC01CB0166E371E025
S1131B100E94D1155BE0E52EF12CE80EF91EF0923F
S1131B203101E09230010E941D0200271127A80113
S1131B3097010E94DA02DF91CF911F910F91FF90DC
S1131B40EF9008951F920F920FB60F9211242F93C6
S1131B503F934F935F936F937F938F939F93AF9331
S1131B60BF93EF93FF932FB1E091BE01F091BF01BA
S1131B70309739F08091A6019091A701E80FF91FE1
S1131B8020838091A6019091A70101969093A701CB
S1131B908093A60180E00E94A10040911D01509114
S1131BA01E018091A6019091A7018417950718F44E
S1131BB00E94EC001CC06091BE017091BF01809135
S1131BC02E0290912F021092BF011092BE0110922A
S1131BD02F0210922E0210921E0110921D011092DB
S1131BE0A7011092A6012FB120E00E94FC0BFF91E7
S1131BF0EF91BF91AF919F918F917F916F915F9181
S1131C004F913F912F910F900FBE0F901F901895F9
S1131C10AF92BF92CF92DF92EF92FF920F931F93F6
S1131C20CF93DF93873009F4C7C1883098F48330A9
S1131C3009F44CC1843038F4813009F45BC082303B
S1131C4008F0DBC024C0853009F494C1863008F064
S1131C50ACC142C18B3009F4D8C28C3038F489301D
S1131C6009F49BC28A3008F0BCC2E1C18D3039F05E
S1131C708D3008F4B6C38E3009F00FC4FDC38091D3
S1131C802B02882309F409C440E051E0D4C38091B5
S1131C904A01882361F52091CE013091CF01409112
S1131CA0D0015091D101EFB7F894FF276091C101A1
S1131CB07091C2018091C3019091C401E0903201FE
S1131CC0F090330100913401109135016E0D7F1DA8
S1131CD0801F911FEFBF2093CE013093CF0140931B
S1131CE0D0015093D10110924A010E94B2030E9484
S1131CF008036EC00E9408035B016C018FB7F8945F
S1131D0099271092A5018FBF8091B40181FF25C04E
S1131D108091AC019091AD01A091AE01B091AF0161
S1131D20A6019501281B390B4A0B5B0BE090B0010F
S1131D30F090B1010091B2011091B301E21AF30ADB
S1131D40040B150B3FEFE3163FEFF3063FEF0307DA
S1131D503FE7130711F061E009C0FFEFEF2EFFEF3B
S1131D60FF2EFFEF0F2FFFE71F2F60E08091BD01D3
S1131D7081FF24C08091B5019091B601A091B70173
S1131D80B091B801A6019501281B390B4A0B5B0BD6
S1131D90DA01C9012091B9013091BA014091BB0126
S1131DA05091BC01281B390B4A0B5B0B2E153F05C8
S1131DB0400751071CF479018A0103C0662309F422
S1131DC06CC31E141F04100611062CF0C601B501C5
S1131DD00E94D90462C3E092CE01F092CF01009335
S1131DE0D0011093D10181E080934A01A8019701A9
S1131DF0C601B5010E94B20350C30FB7F89411276E
S1131E0081E00E94F502E1E0EE2EF12CF092160141
S1131E10E0921501109217011092370110924B01B4
S1131E200FBF0FB7F89411270E948201F092480166
S1131E30E09247011092850189B78F7B89BF80E4C6
S1131E4088BF8AB780628ABF8AB78F7E8ABF89B704
S1131E50806489BF0FBF8FB7F894C82FDD278091A6
S1131E60100190911101049719F483E00E944E0629
S1131E70CFBF0FB7F8941127C09A80E00E945E0785
S1131E800FBF8FB7F894992722E02093C6018FBF24
S1131E900E9408036093AC017093AD018093AE017E
S1131EA09093AF018AEF90E0A0E0B0E08093B0019E
S1131EB09093B101A093B201B093B3018091B401A6
S1131EC08E7F82608093B40181E0AEC08FB7F894B6
S1131ED099271092C6016EC08FB7F8949927F09095
S1131EE00F018FBF63E081E00E948A00882359F1CB
S1131EF00FB7F8941127109216011092150187B7A5
S1131F008F7E87BF87B78F7D87BF83E00E945E0780
S1131F10C09A0FBF0FB7F89411271092480110927E
S1131F2047010E948201C09A89B78F7B89BF0FBF86
S1131F301092110110921001DE98DD98DE9A83E070
S1131F400E94B90007C08FB7F894992722E0209324
S1131F50C6018FBFC091A301D091A4010E947B014F
S1131F608A858F3309F099C28FEF809309014F2D31
S1131F70BE0159C28FB7F894282F3327122F8091AE
S1131F803202882309F581E08093320280911001A6
S1131F9090911101049721F481E00E943E0503C051
S1131FA086E00E94B9001FBF78C28FB7F8949927C2
S1131FB0109232028FBF71C28FB7F894282F332743
S1131FC080911201882311F02FBF67C22FBF80B305
S1131FD0992776E0969587957A95E1F7182F1170F1
S1131FE090919B0180919C018917D9F01917C9F42C
S1131FF084E090E090931101809310018FB7F894DE
S1132000992721E0209312018FBF60E070E08DE1F9
S11320100E94F2070E941E06C09AC09882E00E94A5
S1132020B90010939C0187E00E94B90036C28FB7B3
S1132030F8949927109102018FBF123009F460C0FF
S1132040133030F4112359F0113009F026C243C083
S1132050133009F46FC0143009F01FC29BC0C0983C
S11320608FB7F894C82FDD2780911001909111014A
S1132070029779F583E090E0909311018093100129
S113208068E170E08DE10E94F20781E080939B019A
S11320901092120180B3992766E0969587956A9508
S11320A0E1F78170907080939C0187E00E94B900F1
S11320B081E00E944E066FE772E08CE10E94F20715
S11320C00E9453080E94190866E57AE287E10E949B
S11320D0F207CFBFE2C1C09886E00E944E060E947C
S11320E053080E9419080E941E06C09AC09883E0F3
S11320F00E944E06C09A81E00E945E0786E094CF5B
S1132100C0988FB7F894C82FDD2760E080E00E9464
S11321108A00882311F0CFBF0AC0CFBF83E50E9495
S1132120E00080E00E94E00080E00E94E000C09AAD
S113213082E02DC08FB7F8949927209115018FBFA5
S1132140243039F0283041F0223001F50E9464082F
S1132150A4C10E94A10BA1C1C09889E00E944E06AF
S1132160C09A83E00E945E078FB7F894992721E014
S113217030E030931601209315018FBF8FB7F89488
S1132180992710930F018FBF84E04ECF83E00E9404
S11321905E0783C10E949B0680C10FB7F894112784
S11321A040911D0150911E016091BE017091BF01CB
S11321B080912E0290912F021092BF011092BE01C5
S11321C010922F0210922E0210921E0110921D01E5
S11321D01092A7011092A60120E00E94FC0B0FBFF1
S11321E05CC12FB7F894332780914E018093050189
S11321F082E0809314012FBF80910501882309F0A8
S11322004CC1B89AC09888E00FCFA0911B01B0913F
S11322101C011C91FD01E10FF11D8081881F88279D
S1132220881FED018BA780818F7789A731978081E3
S113223088A7E0911B01F0911C018FB7F8949927AE
S113224020914C018FBF2223F9F0878146812FB75B
S1132250F89433276091990170919A012FBF9927BF
S1132260982F88275527842B952B8617970761F07D
S1132270878126819927982F88273327822B932BB0
S11322808F5F9F4F09F0A4C01D3008F4A1C0A09136
S11322901B01B0911C01ED01898528859927582FD0
S11322A044273327422B532B6B818FEF80932C02CF
S11322B08FB7F894782F20E030E0E4E2F1E08081F9
S11322C091818417950731F48281861709F476C0C9
S11322D020932C022F5F3F4F33962430310579F73A
S11322E07FBF90912C023FB7F8949F3F21F08091DB
S11322F01801891799F420911801822F9927FC015C
S1132300EE0FFF1FE80FF91FEC5DFE4F5183408372
S113231062832F5F2370209318010CC0892F9927A3
S1132320FC01EE0FFF1FE80FF91FEC5DFE4F518318
S113233040836283832F99278FBFFD0183A5882360
S113234009F442C082858F3309F03EC087814681FB
S11323502FB7F894332760910601709107012FBFBE
S11323609927982F88275527842B952B861797070D
S113237061F0ED018F812E819927982F88273327CB
S1132380822B932B8F5F9F4FF9F4ED018B85863061
S1132390D9F41131C9F48F859FB7F894282F3327C6
S11323A020FF02C0DA9801C0DA9A21FF02C0D9984E
S11323B001C0D99A22FF04C0D89803C07FBF04C0CB
S11323C0D89A892F99278FBFB0931C01A0931B0122
S11323D08FB7F8949927109285018FBF0E94AC079C
S11323E05CC090918F0180910901981709F455C040
S11323F0909309019923D9F4C0911901D0911A013C
S11324006091A1018FE38A87CE010E94AA08482F18
S11324105527442309F441C08FEF8093090160914B
S1132420190170911A018B850E94B00936C08FEF93
S11324308093090132C090912B02852F8923B9F032
S1132440E42FFF27EE0FFF1FE855FE4F2081318157
S113245011821082852F8095982390932B02442318
S113246031F420553140B1F410920E0113C04F5F86
S1132470483098F4550FDFCF80910C01E82FFF27E7
S1132480EE0FFF1FE855FE4F6081718141E00E940D
S1132490290903C0550F41E0CECFDF91CF911F91A1
S11324A00F91FF90EF90DF90CF90BF90AF90089581
S11324B0809127028F3FB1F0282F3327F901E85C80
S11324C0FE4F8081809327028F3F11F48093330263
S11324D08FEF80832F3F31F0822F0E94080E81E01E
S11324E090E0089580E090E008951F931FB7F8945A
S11324F04FE050E06FEF70E088E391E00E944E16E9
S11325008FEF809327028093330281E08EBD88E0B1
S113251080BF83E083BF8CB59DB54AE72CB53DB53C
S11325202817390708F44150442311F0C901F6CFA4
S113253092B782B78917E9F32CB53DB592B782B744
S11325408917E9F38CB59DB5821B930B4096A5E0E2
S113255096958795AA95E1F790932902809328028E
S113256013BE83B78EBD8EB580BF12BE1DBC1CBC0E
S11325708FEF86BF86B780937C0080B799278770DA
S11325809070892BD1F7D29AD19AD09ADA9AD99AA3
S1132590D89A15BA8FEF84BBD498DC981DBC1CBCA8
S11325A087B7846087BF8EB5887F84608EBD80E2E4
S11325B085BF0E9458128823E1F78FEF80934F0163
S11325C0E4E2F1E08FEF9FEF9183808312823396F0
S11325D021E0E033F207C1F70E949D016093CD0131
S11325E080910001909101010196AA27BB27809355
S11325F08B0190938C01A0938D01B0938E0182EF97
S113260091E090931C0180931B018E98B89A8C984A
S11326108FEF809394011092C5011092C60110921D
S1132620C7011092C801B89AD69AD59A8FB7F89470
S1132630992720910601309107018FBF30939A01A9
S113264020939901809108019927909387018093A1
S113265086018FE18093C0018AE18093CB0181E000
S113266080934C0110922D02809388011092CA012C
S113267080B7886080BF8BE083BF86EE81BF87B759
S1132680826087BF0E942F030E9458128823E1F7BB
S1132690812F99278FBF78940E94A5058FB7F8944E
S11326A0482F552748C087B7992783709070892B86
S11326B019F4E5E0F0E013C080B7992787709070B3
S11326C0892BD1F781B792B7891B8C3030F082B750
S11326D0853F18F4E3E0F0E002C0E2E0F0E087B701
S11326E0887BC1F480917D008B7FA1F46E9912C028
S11326F08AB190919A00892B807C61F48091740056
S113270082FD08C0379B03C081E090E005C085E0EE
S113271090E002C080E090E025B78E1708F4E82F1F
S1132720FF27E457FF4FE491237E2062E22BE5BFAD
S113273078948895F894809127028F3F09F4B3CF59
S1132740282F3327F901E85CFE4F8081809327020C
S11327508F3F11F4809333028FEF80832F3F09F46E
S1132760A2CF4FBF822F0E94080E98CF78941F9259
S11327700F920FB60F9211241F932F933F934F93F1
S11327805F936F937F938F939F93AF93BF93EF93D5
S1132790FF9387B78F7E87BF78941FB7F894809193
S11327A0900190919101A0919201B09193010097B1
S11327B0A105B10509F051C0809115019091160150
S11327C08530910561F18630910530F483309105AF
S11327D049F0049781F51AC087309105F1F0089704
S11327E051F514C0869B0FC084E090E090931601CD
S11327F0809315010E941D0227E030E040E050E084
S11328000E94DA0218C00E94770B15C00E94960538
S1132810882389F40E94A10B0EC080E00AC089E0DD
S11328200E944E0681E00E94F50283E00E945E074A
S113283087E00E94BF0980911001909111010197D6
S113284071F482E090E09093110180931001DE987E
S1132850DE9A80E00E943E0502C00E943A02812F67
S113286099278FBFFF91EF91BF91AF919F918F9166
S11328707F916F915F914F913F912F911F910F9095
S11328800FBE0F901F901895ACE2B0E0EAE4F4E1BB
S11328900C941716222E332E442E552E662E772E88
S11328A0882E992EFE013196A8E01192AA95E9F797
S11328B029823A824B825C826D827E828F829886E4
S11328C0FE013996B8E01192BA95E9F7A986BA865D
S11328D0CB86DC86ED86FE860F87188B89819A81EC
S11328E0AB81BC8189A79AA7ABA7BCA77C018D014A
S11328F08FEF9FEFA0E0B0E0E822F9220A231B2328
S113290089A59AA5ABA5BCA51D0144245524898598
S11329109A85AB85BC858DA39EA3AFA3B8A75C01A4
S11329206D018FEF9FEFA0E0B0E0A822B922CA2288
S1132930DB228DA19EA1AFA1B8A53D0188249924D5
S1132940C801B701A60195010E94F81569A37AA3ED
S11329508BA39CA3C801B701A40193010E94F8159D
S11329607B018C01C201B101A60195010E94F815F9
S11329705B016C01C201B101A40193010E94F8152D
S11329803B014C01EA0CFB1C0C1D1D1D89A19AA1E5
S1132990ABA1BCA19D01442755272E0D3F1D401F0F
S11329A0511F2A153B054C055D0540F480E090E07D
S11329B0A1E0B0E0680E791E8A1E9B1ECA01AA27F8
S11329C0BB27860D971DA81DB91D8D8F9E8FAF8FB8
S11329D0B8A3A9013327222789A19AA1ABA1BCA13D
S11329E0A070B070280F391F4A1F5B1F298F3A8FC0
S11329F04B8F5C8FA98CBA8CCB8CDC8CED8CFE8CD1
S1132A000F8D18A1FE01719698E011929A95E9F73D
S1132A10ED8AFE8A0F8B188F2D813E814F81588558
S1132A206DA17EA18FA198A50E94F8153B014C01D0
S1132A302D853E854F85588969A57AA58BA59CA5CA
S1132A400E94F8152D893E894F89588D260F371F0E
S1132A50481F591F260D371D481D591D2D8B3E8BB0
S1132A604F8B588F6D887E888F88988C2A2D3B2DAC
S1132A704C2D5D2D662D772D882D992DE2E1AC9698
S1132A800C943316A0E1B0E0E8E4F5E10C941716D9
S1132A90222E332E442E552E662E772E882E992ED6
S1132AA0002309F466C088E0FE01319611928A95EC
S1132AB0E9F729833A834B835C836D837E838F821A
S1132AC09887E0E2E01B1E16CCF52D813E814F81F4
S1132AD05885602F772767FD7095DA01C901062EA6
S1132AE004C0B695A795979587950A94D2F78D87D4
S1132AF09E87AF87B88B04C0220F331F441F551F16
S1132B00EA95D2F789819A81AB81BC8104C0B695DC
S1132B10A795979587956A95D2F7282B392B4A2B39
S1132B205B2B29873A874B875C8729843A844B84BB
S1132B305C846D847E848F8498881BC01D861E8669
S1132B401F86188A2E2F332727FD3095309521951F
S1132B503F4F8D819E81AF81B88504C0B695A795FE
S1132B60979587952A95D2F789879A87AB87BC87EB
S1132B70DCCF222D332D442D552D662D772D882D18
S1132B80992DE2E160960C943316991B79E004C008
S1132B90991F961708F0961B881F7A95C9F7809598
S1132BA00895AA1BBB1B51E107C0AA1FBB1FA61790
S1132BB0B70710F0A61BB70B881F991F5A95A9F7E2
S1132BC080959095BC01CD01089597FB092E0726A9
S1132BD00AD077FD04D0E5DF06D000201AF4709502
S1132BE061957F4F0895F6F7909581959F4F0895CD
S1132BF0629FD001739FF001829FE00DF11D649FDD
S1132C00E00DF11D929FF00D839FF00D749FF00D68
S1132C10659FF00D9927729FB00DE11DF91F639F09
S1132C20B00DE11DF91FBD01CF01112408952F92AC
S1132C303F924F925F926F927F928F929F92AF9248
S1132C40BF92CF92DF92EF92FF920F931F93CF9395
S1132C50DF93CDB7DEB7CA1BDB0B0FB6F894DEBF2C
S1132C600FBECDBF09942A88398848885F846E8452
S1132C707D848C849B84AA84B984C884DF80EE809C
S1132C80FD800C811B81AA81B981CE0FD11D0FB6A5
S1132C90F894DEBF0FBECDBFED010895DC0101C085
S10F2CA06D9341505040E0F70895FFCFC1
S1112CAC0100FFFFFFFF010022FFFFFF0100F8
S9030000FC
