:100000000C9449000C94C1040C94CB040C94D504BA
:100010000C94DF040C94E9040C94F3040C94B409DC
:100020000C94FD040C9468000C9468000C94010A74
:100030000C945F0C0C948B040C94A1040C94070595
:100040000C947A040C94930E0C9468000C94680041
:100050000C9468000C9468000C9468000C94680080
:100060000C9496040C9468000C9468000C9468003E
:100070000C9468000C9468000C9468000C94680060
:100080000C9468000C9468000C94680000081C181C
:10009000141011241FBECFEFD0E1DEBFCDBF11E0A1
:1000A000A0E0B1E0E2E7FDE200E00BBF02C0079094
:1000B0000D92AE30B107D9F712E0AEE0B1E001C069
:1000C0001D92A733B107E1F70E9466130C94B8168E
:1000D0000C9400008FB7F894992708958FBF089566
:1000E000282F9FB7F894662349F0E82FFF27ED5695
:1000F000FE4F8081882311F021E006C0E22FFF2708
:10010000ED56FE4F608320E0892F99278FBF822F05
:1001100099270895E82F8FB7F894282F332790E078
:10012000FF27ED56FE4F8081861709F491E02FBF1F
:10013000892F99270895882311F06E9A08956E9853
:100140000895882311F06F9A08956F98089580E0BC
:100150000E949B00BA9ABB98B99A6C9A80E00E9460
:10016000A100709A6B986A98689881E00E949B0041
:1001700008950F931F93CF93DF93182F8FB7F894A1
:10018000C82FDD270C2F61E080E00E9470008823DB
:1001900021F0CFBF85E090E024C080910501882345
:1001A000A1F480911401823081F409C082E080932F
:1001B0001401109205010E94A700B89AC0981093EC
:1001C000020180E00FBF99270CC0809114018823A1
:1001D00069F38FB7F8949927109293018FBF81E04C
:1001E000F1CFDF91CF911F910F910895282F9FB7E5
:1001F000F894E82FFF27E85CFE4F80818F3F81F461
:10020000E0913502E21771F40BC02093290204C07B
:10021000FF27E85CFE4F20832093350220E007C0D3
:1002200025E005C0809129028F3F91F7EECF892FFD
:1002300099278FBF822F992708951F93182F81E048
:100240000E949B001FB9779BFECF8FB199271F910A
:1002500008958F929F92AF92BF92CF92DF92EF92CA
:10026000FF920F931F93CF93DF938FB7F894992743
:10027000C0903002D090310280908C0190908D011E
:10028000C0917401D091750120911D0130911E0122
:100290009AE0A92EB12CAC0EBD1E2A153B0508F420
:1002A00059018FBF7401EC0EFD1E86010C0F1D1F3E
:1002B00014C0C114D10419F0F801808101C080E09C
:1002C0000E941D018114910411F0F7018083219691
:1002D0000894E11CF11C0F5F1F4FC5010197C8175F
:1002E000D90738F381E00E94A1009FB7F894C114A8
:1002F000D10431F0CC0EDD1EF60180818FB901C032
:100300001FB8D0937501C0937401892F99278FBFAF
:1003100080E090E0DF91CF911F910F91FF90EF90DF
:10032000DF90CF90BF90AF909F908F9008952FB7A0
:10033000F894332750931E0140931D01909331028E
:100340008093300270938D0160938C01109275013F
:10035000109274012FBF452B29F08FB10E94290103
:100360009927089589E00E94F60080E090E00895C2
:100370008FB7F8949927109295018FBF089580E860
:10038000809336011092510110922C021092280293
:1003900010924D010895CF93DF93FC0115A6DC0167
:1003A0009E96ED011B821A82198280E886A7DF9152
:1003B000CF9108952F923F924F925F926F927F92CA
:1003C0008F929F92AF92BF92CF92DF92EF92FF9265
:1003D0000F931F93CF93DF93CDB7DEB728970FB658
:1003E000F894DEBF0FBECDBF20905701309058016A
:1003F0004090590150905A016624772488244EE495
:10040000A42E33E8B32ECC24DD24EE24FF2400E018
:1004100010E0222D332D442D552D662D772D882D5E
:1004200090E00E94A71429833A834B835C836D83F9
:100430007E838F839887822E932EA42EB52E24013F
:10044000350100E20E94A515A22EB32EC42ED52E92
:10045000C301B20196958795779567956A0D7B1DC7
:100460008C1D9D1D97FF05C09F776F5F7F4F8F4F3E
:100470009F4F609357017093580180935901909357
:100480005A0128960FB6F894DEBF0FBECDBFDF919C
:10049000CF911F910F91FF90EF90DF90CF90BF9081
:1004A000AF909F908F907F906F905F904F903F9014
:1004B0002F9008958FB7F894609178017091790129
:1004C0002CB53DB506B602FE04C06F5F7F4F2CB55C
:1004D0003DB599278FBF88279927CB0177276627B6
:1004E00044275527622B732B842B952B0895EF926D
:1004F000FF920F931F930E945A027B018C0120915F
:1005000061013091620140916301509164018091D9
:100510005C0190915D01A0915E01B0915F01820F3D
:10052000931FA41FB51FE216F3060407150730F04A
:1005300082179307A407B50758F005C082179307E1
:10054000A407B507E0F5E816F9060A071B07B8F592
:100550009C01AD012E193F09400B510B213060E881
:10056000360760E0460760E0560768F180E090E8F3
:10057000A0E0B0E0E80EF91E0A1F1B1FE092610127
:10058000F0926201009363011093640180E090E8AF
:10059000AFEFBFEFE80EF91E0A1F1B1F20503048B7
:1005A0004040504020935C0130935D0140935E01D8
:1005B00050935F0120E030E840E050E014C020E0BC
:1005C00030E040E050E08093610190936201A0939D
:1005D0006301B093640110925C0110925D0110926E
:1005E0005E0110925F01A901B7012CB53DB5C901AB
:1005F0008E199F0903968417950720F0B9016D5F46
:100600007F4F02C0640F751F6115710511F461E021
:1006100070E0615070407BBD6ABD80E186BF87B7E6
:10062000806187BF1F910F91FF90EF9008950F9306
:100630001F930FB7F89411276093610170936201C3
:10064000809363019093640120935C0130935D017A
:1006500040935E0150935F010E9477020FBF1F918C
:100660000F910895CF92DF92EF92FF920F931F9315
:10067000CF93DF938C01F62E6A01E22E8FB7F894A8
:10068000C82FDD2760E080E00E948A00882321F0E7
:10069000CFBF80E090E01EC0CFBF0F0D111D802F97
:1006A00080680E941D01F82E16950795802F807C8A
:1006B0000E941D010E2D0AC0EE2DFF27E01BF1093F
:1006C000EC0DFD1D80810E941D0101500023A1F74A
:1006D0008F2D9927DF91CF911F910F91FF90EF9070
:1006E000DF90CF900895CF93DF93CDB7DEB72497F7
:1006F0000FB6F894DEBF0FBECDBF8FB7F894992721
:1007000020915201309153012983232F33272A83CB
:1007100020916501309166012B83232F33272C8391
:100720008FBF24E0AE014F5F5F4F60E088E691E04D
:100730000E94320324960FB6F894DEBF0FBECDBFE1
:10074000DF91CF91089597B79F7D97BF90E296BFB5
:10075000882319F08EB5806402C08EB58F7B8EBD64
:1007600087B7806287BF80E090E008957FB7F894F4
:1007700062B72091200130912101409122015091D6
:10078000230106B601FE0FC081B792B7280F311DB5
:10079000411D511D2F5F3F4F4F4F5F4F290F311D9F
:1007A000411D511D04C0260F311D411D511D872FB4
:1007B00099278FBFCA01B9010895DF92EF92FF9286
:1007C0000F931F938FB7F894282F3327D22E91B70A
:1007D00082B746B7981711F041FF02C02FBF6AC019
:1007E000809173018823E1F10E94B603E0908F01AC
:1007F000F0909001009191011091920120913201AD
:100800003091330140913401509135016E197F09C7
:10081000800B910B621773078407950720F01092E5
:10082000730171E01EC02E0D3F1D401F511F8091AE
:10083000200190912101A0912201B0912301281B58
:10084000390B4A0B5B0B273E31054105510540F43E
:10085000822F223010F070E005C070E082E002C00C
:1008600070E086EE682F615000B601FCFDCF82B7C4
:10087000681709F46F5F20912001309121014091A8
:10088000220150912301DA01C9010196A11DB11D78
:10089000860F911DA11DB11D82179307A407B507EF
:1008A00010F4622F609561BFDFBE772319F080E0FE
:1008B0000E94F6001F910F91FF90EF90DF90089536
:1008C000AFB7F894BB27E1E0E093730160938F0129
:1008D0007093900180939101909392012093320143
:1008E000309333014093340150933501AFBF0E94E0
:1008F000DD0308951F920F920FB60F9211248F936C
:1009000083B783BF00B600FCFDCF8F910F900FBE61
:100910000F901F90189578941F920F920FB60F9218
:1009200011240F900FBE0F901F90189578941F926E
:100930000F920FB60F9211240F900FBE0F901F90C1
:10094000189578941F920F920FB60F9211242F933F
:100950003F938F939F932FB7F8943327809178011B
:1009600090917901019690937901809378012FBF3E
:100970009F918F913F912F910F900FBE0F901F90DD
:1009800018951F920F920FB60F9211240F900FBE61
:100990000F901F9018951F920F920FB60F9211246F
:1009A0000F900FBE0F901F9018951F920F920FB6C9
:1009B0000F9211240F900FBE0F901F9018951F9249
:1009C0000F920FB60F9211240F900FBE0F901F9031
:1009D00018951F920F920FB60F9211240F900FBE11
:1009E0000F901F9018951F920F920FB60F9211241F
:1009F0000F900FBE0F901F9018951F920F920FB679
:100A00000F9211240F900FBE0F901F9018951F92F8
:100A10000F920FB60F9211242F933F934F935F9332
:100A20006F937F938F939F93AF93BF93EF93FF93B6
:100A300083B783BF00B600FCFDCF81B7992701962D
:100A4000AA27BB272091200130912101409122014A
:100A500050912301280F391F4A1F5B1F209320014B
:100A600030932101409322015093230178940E94F6
:100A7000DD03FF91EF91BF91AF919F918F917F9196
:100A80006F915F914F913F912F910F900FBE0F90FB
:100A90001F9018950F931F93182F0FB7F89461E0CC
:100AA00080E00E947000882371F51093020180910C
:100AB00005018823A9F580911401823089F588E029
:100AC0000CC00E94A70080911401882349F481E0A2
:100AD0008093140110924E018AE00E94F6002AC011
:100AE000809160018F3F31F5E0910401EE2311F117
:100AF0001CC01092030104C0FF27E05AFE4F108271
:100B00001092040117C081E090E002C0880F991F85
:100B10001A95E2F720911301282B209313010AC0A4
:100B2000809114018823E1F6CCCF809103018F3F9F
:100B300019F7DFCF802F99278FBF80E090E01F91BA
:100B40000F9108951F9383E00E94B9009927182FF1
:100B5000882319F083E00E944A05812F99271F916D
:100B600008951F9380911301882309F04BC01091C1
:100B700002011F3F09F046C060E00E948A008823FE
:100B800009F440C081E08093CE0180913701882331
:100B9000E1F11092CE0185E090E045C0923069F518
:100BA000C09A8091030120E030E08F3F11F421E0F2
:100BB00030E0232BE9F4109305018F3F19F42FEF58
:100BC00030E00DC0282F3327F901E05AFE4F808115
:100BD000809303018F3F11F410930401108320933D
:100BE0004E0181E0809314018AE00E94F60005C066
:100BF000109305011092140111C0809114018823F3
:100C000069F00FC081E090E00EC0809105019091E5
:100C10001401882319F2923021F0EFCF80E00E9476
:100C20009B0080E090E01F9108951F93CF93DF9386
:100C30009FB7F894C92FDD271C2F909102019817B8
:100C400021F0CFBF81E090E03AC08FEF80930201A6
:100C5000309113013323F1F48FB7F8949927109250
:100C600093018FBF0E94B105CFBF11C02093020135
:100C700081E090E002C0880F991F4A95E2F78095C5
:100C800038233093130188E00E94F6001FBF80E0F4
:100C900090E015C080E065E0E32FFF270E94281652
:100CA000292F492F5527CF01042E02C095958795EE
:100CB0000A94E2F780FDDACF822F8F5FEFCFDF91CA
:100CC000CF911F910895FF920F931F93CF93DF93BE
:100CD000F82E8B018FB7F894C82FDD2760E080E0F5
:100CE0000E948A00882321F0CFBF80E090E00CC0F2
:100CF000CFBF8F2D0E941D01812F99270E941D01BA
:100D0000802F0E941D019927DF91CF911F910F9194
:100D1000FF9008951F931FB7F89480914C0188238A
:100D200019F460E070E009C060E080912F02882330
:100D300009F461E081E068277727809154018823D6
:100D400019F480E090E00AC090E080919801882337
:100D500009F491E081E09827892F9927762F66275B
:100D6000770F770F770FA4E0880F991FAA95E1F707
:100D7000826E9262682B792B81E10E946306812F3B
:100D800099278FBF1F9108958FB7F8949927609185
:100D9000CD018FBF85E0689FB0011124625D7E4F59
:100DA000706488E10E9463060895EF92FF921F939A
:100DB000CF93DF93E0905501F0905601F70182A5A3
:100DC0009927182F882309F41FE1C09880914B01BF
:100DD000811749F0612F77276F717070606E7068AE
:100DE00085E10E94630610934B01F70110818FB7D4
:100DF000F894C82FDD2760E080E00E948A008823F5
:100E000011F0CFBF12C0CFBF8EE390E090936A0184
:100E1000809369018EE30E941D011150412F5527D7
:100E200060E070E0C7010E949701DF91CF911F91B0
:100E3000FF90EF900895FF920F931F93CF93DF934E
:100E4000EC01F62E61E082E00E947000882319F028
:100E500085E090E069C08091CF018F5F8093CF01E2
:100E600081508B838FB7F894082F112762E081E0BF
:100E70000E948A00882329F40FBF0E94B80181E0F4
:100E800052C08FB7F894992724E0209394018FBF24
:100E9000D0937001C0936F010FBF8DE0F80EFE017B
:100EA000F19289819927807290708983118289815A
:100EB0009927816498688983892F992781831CA643
:100EC00018A619A619AA18AA1FA680E88EA761E07D
:100ED0006093970140916F01509170018FB7F89422
:100EE000282F3327809115019091160188309105A4
:100EF00011F0019711F02FBF15C082E090E09093A0
:100F00001601809315016093360250935601409369
:100F1000550110921F012FBF0E94A205882311F4D2
:100F20000E94D50680E09927DF91CF911F910F9104
:100F3000FF900895FA01422F2D3118F082E090E0E1
:100F4000089583876683872F992787832FB7F8941F
:100F5000332780915201909153012FBF8483892FB1
:100F6000992785832FB7F8943327809106019091B4
:100F700007012FBF8087892F9927818780910901D9
:100F8000882369F0109209018FE38287642FCF01D3
:100F90000E941B079927282F8823A9F417C0842FA4
:100FA000992790936E0180936D01F0931A01E0935D
:100FB00019018CE00E94F60080910901882349F410
:100FC00089E090E008958FEF80930901822F99279F
:100FD000089510925B0180E090E00895AF92BF9277
:100FE000CF92DF92EF92FF920F931F935B016C0100
:100FF0006091820161FF1FC020917A0130917B01D5
:1010000040917C0150917D01E0907E01F0907F0144
:101010000091800110918101D601C501821B930BC3
:10102000A40BB50B8E159F05A007B10720F0EAE7CA
:10103000F1E090E021C0E3E8F1E060918B0161FF15
:101040007EC02091830130918401409185015091AF
:101050008601E0908701F09088010091890110914C
:101060008A01A21AB30AC40AD50AAE14BF04C00684
:10107000D10608F464C091E060FF04C080858D7FD4
:10108000808708C02E0D3F1D401F511F20833183D4
:1010900042835383992309F052C02091710130910A
:1010A00072012F5F3F4F3093720120937101809145
:1010B0000E01882309F043C0809100019091010145
:1010C0008093A601892F99278093A5012093A801D9
:1010D000832F99278093A70149E951E08FEF8093EF
:1010E0009F018093A00186E08093A4018091760106
:1010F00090917701892B19F55093770140937601F0
:1011000081E18093990180910C018823A9F01092CC
:101110000C0124E06FEF7FEF86E00E949A07992789
:10112000282F882349F081E080930C0110927701E9
:1011300010927601222319F481E080930E0181E060
:101140000E94F6001F910F91FF90EF90DF90CF90DB
:10115000BF90AF9008951F93CF93DF93182FEB01AB
:10116000E82FFF27EE0FFF1FEA58FE4F1182108273
:1011700010920C01E0917601F0917701309721F007
:1011800080912D0280FF0FC081E080930C0103C08D
:101190008EE00E94F6001123C1F4C959D140A9F490
:1011A00010920E0112C020812D50332767817727BE
:1011B000762F662786819927682B792BAF01838547
:1011C0000E949A07882339F3E3CFDF91CF911F91D3
:1011D00008959B0180910C01882349F46091760168
:1011E000709177016217730711F40E94AB0808959C
:1011F0001F93CF93DF93182F8FB7F894C82FDD2755
:1012000060E080E00E948A00882321F0CFBF80E068
:1012100090E005C0CFBF812F0E941D019927DF916B
:10122000CF911F910895EF92FF920F931F93CF9349
:10123000DF93182F7B01042F8FB7F894C82FDD2779
:1012400060E080E00E948A00882321F0CFBF80E028
:1012500090E014C0CFBF1064812F992790936A014A
:10126000809369010E941D01182F402F5527B70157
:1012700080E090E00E949701812F9927DF91CF9124
:101280001F910F91FF90EF900895C09860911B01FE
:1012900070911C0141E08FE30E941309089582E0E0
:1012A00090E0909348018093470181E08093510141
:1012B00020E030E080910201843011F421E030E040
:1012C000232B29F484E00E94B900882319F40E949A
:1012D0004509089584E00E944A0508951F93CF931D
:1012E000DF938FB7F894C82FDD271C2F809147011B
:1012F00090914801892B29F484E00E941506CFBF04
:101300001EC01092510180914D01882311F0B799B0
:1013100004C00E9908C0882319F0815080934D01B4
:101320000E944F090BC081E090E0909348018093A8
:10133000470110924D0184E00E9415061FBFDF9106
:10134000CF911F9108950E94BF01C09AC09888E074
:101350000E94F80888E00E94F808C09A84E00E9481
:1013600015060E946E0908951F920F920FB60F92F4
:1013700011242F933F934F935F936F937F938F939A
:101380009F93AF93BF93EF93FF9380914701909109
:101390004801019749F482E090E0909348018093DE
:1013A00047010E944F0905C080914D018F5F8093D6
:1013B0004D01FF91EF91BF91AF919F918F917F91DF
:1013C0006F915F914F913F912F910F900FBE0F90B2
:1013D0001F9018951F93182F81E090E090931601AD
:1013E00080931501109237010E94B1058FB7F894D0
:1013F000992710930F018FBF84E00E94F6001F9180
:10140000089578941F920F920FB60F9211242F9285
:101410003F924F925F926F927F928F929F92AF9284
:10142000BF92CF92DF92EF92FF920F931F932F9371
:101430003F934F935F936F937F938F939F93AF935C
:10144000BF93CF93DF93EF93FF93CCB5DDB580E2ED
:1014500086BF8FB7F894282E0E945A029E01261B41
:10146000370B2901662457FC6094762C460E571ED4
:10147000681E791E809115019091160185309105A5
:1014800021F0069709F0E0C0BFC086E090E090939D
:1014900016018093150131E0332E309250011092E5
:1014A000170180E00E94A303E0915501F0915601DD
:1014B00041AABB27A72D962D852D80ABC301AA2756
:1014C000BB2787A7872D9927AA27BB2786A7E09147
:1014D0005501F091560185A5882309F484C06081E7
:1014E000655077274F01860E971EF4012081E18019
:1014F0008281A3809927AA27BB27BA2FA92F982FCB
:101500008827332744275527522F4427332722275C
:10151000FF24002711278701FF24EE242E293F29CD
:10152000402B512BBB24CC24DD242A293B294C29D8
:101530005D29822B932BA42BB52B84199509A60921
:10154000B7098383292F3A2F4B2F552722839D01DB
:101550004427552721838B2F9927AA27BB278083D0
:10156000C09824E0A40180E090E00E943203C09A79
:10157000F4012081E1808281A3809927AA27BB27DB
:10158000BA2FA92F982F8827332744275527522F62
:10159000442733272227FF24002711278701FF2410
:1015A000EE242E293F29402B512BBB24CC24DD24B3
:1015B0002A293B294C295D29822B932BA42BB52B5F
:1015C000840D951DA61DB71D8383292F3A2F4B2F00
:1015D000552722839D014427552721838B2F992747
:1015E000AA27BB278083E0915501F09156018181A4
:1015F00085FF02C03092370183E00E94150687B74D
:101600008F7E87BF84997AC01092500181E00E943A
:10161000A303E0915501F0915601818185FF0FC030
:1016200087E090E090931601809315010E945A0282
:1016300020E031E040E050E00E94170303C080E06A
:101640000E94EA09849B5AC080911701882391F572
:1016500080915001882371F511E0109350010E9490
:10166000A30380B320912802283098F4E0912C0243
:10167000E20FFF27E770F070EE0FFF1FEE0FFF1F66
:10168000EC52FE4F40825182628273822F5F209320
:10169000280210931701D0936C01C0936B018499B9
:1016A0002DC0992714E0969587951A95E1F7182F84
:1016B000117001C010E0809150018130F9F4109256
:1016C00050010E94A303109217011123B9F48091D5
:1016D0006B0190916C01C81BD90B2A9778F480910B
:1016E0002802882319F081508093280280915501A7
:1016F00090915601009711F00E94CB012FBEFF91EF
:10170000EF91DF91CF91BF91AF919F918F917F9199
:101710006F915F914F913F912F911F910F91FF908A
:10172000EF90DF90CF90BF90AF909F908F907F9081
:101730006F905F904F903F902F900F900FBE0F9043
:101740001F90189561E081E00E9470008823E9F401
:101750008FB7F894282F33278091100190911101B1
:10176000892B11F02FBF20C081E090E090931101F0
:10177000809310012FBFDD9A0E945A0224E130E0CD
:1017800040E050E00E9417030FC062E081E00E9439
:101790008A00882319F089E090E0089561E081E0F3
:1017A0000E948A00882319F080E090E0089585E087
:1017B00090E00895CF92DF92EF92FF920F931F93E4
:1017C000CFB6F894DD240E94DA01DC01CB0166E497
:1017D00070E00E9434164BE0E42EF12CE80EF91E66
:1017E000F0923302E09232020E945A02002711273F
:1017F000A80197010E941703CFBE1F910F91FF9080
:10180000EF90DF90CF9008951F93CF93DF938FB722
:10181000F894C82FDD271C2F809115019091160197
:101820000897C9F489E00E94F80883E00E94150631
:10183000C09A81E090E090931601809315018FB7D4
:10184000F894992723E020930F018FBF84E00E9432
:10185000F600CFBF30C0C09880913602882311F0C7
:1018600085E001C084E00E94F80883FD09C080E0A3
:101870000E94F80883FF04C085E090E020E003C0E8
:1018800083E090E021E09093160180931501C09AC7
:101890001FBF222341F010921F0183E00E94150612
:1018A0000E94DA0B08C00E945A0220E431E040E0B6
:1018B00050E00E941703DF91CF911F910895789413
:1018C0001F920F920FB60F9211241F932F933F93E5
:1018D0004F935F936F937F938F939F93AF93BF9338
:1018E000EF93FF9387B78F7E87BF78941FB7F894E5
:1018F00080915C0190915D01A0915E01B0915F01CA
:101900000097A105B10509F051C080911501909192
:1019100016018530910561F18630910530F48330F0
:10192000910549F0049781F51AC087309105F1F0CF
:10193000089751F514C0869B0FC084E090E0909307
:101940001601809315010E945A0227E030E040E022
:1019500050E00E94170318C00E94DA0B15C00E94C5
:10196000A205882389F40E94040C0EC080E00AC0FE
:1019700089E00E94F80881E00E94A30383E00E94AE
:10198000150687E00E94EA098091100190911101EB
:10199000019771F482E090E090931101809310011F
:1019A000DE98DE9A80E00E944A0502C00E9477021B
:1019B000812F99278FBFFF91EF91BF91AF919F9199
:1019C0008F917F916F915F914F913F912F911F91D7
:1019D0000F900FBE0F901F901895EF92FF920F93EC
:1019E0001F93CF93DF938B018091690190916A01DE
:1019F00086FF40C18F7B8F3309F08EC1C0911B01E0
:101A0000D0911C01588150934901809147019091D8
:101A100048018530910509F443C08630910509F4E9
:101A20008AC0029709F01FC185E090E090934801B9
:101A30008093470140913601852F99270196242FE5
:101A40003327281739074CF1B79906C00E9904C0FF
:101A5000451B415040933601409149014A32E8F418
:101A60004423A1F0BE016F5F7F4F483018F047E07C
:101A700050E007C086E090E09093480180934701D2
:101A8000552780E090E00E94970146C110925101D5
:101A9000C09A84E00E941506E3C00E94A3093CC1DD
:101AA00086E090E090934801809347018091540133
:101AB000882309F439C0809198018823A9F5898188
:101AC00085FF32C08F814E812FB7F8943327609104
:101AD0006501709166012FBF9927982F8827552798
:101AE000842B952B8617970759F08F812E81992784
:101AF000982F88273327822B932B8F5F9F4FA1F43A
:101B000089818770813081F4C09AC0988AE00E94F0
:101B1000F808C09AC0984091490147502896BE01E4
:101B20008FE30E941309F8C040914901475055279F
:101B30002896BE01A6CFC09A80914D01882339F422
:101B400084E00E94150680914D01882311F0B79919
:101B50000AC00E9B08C090912802992321F0809121
:101B600049018B3038F480911B0190911C010E9437
:101B7000CB013DC0913001F5E0912C02FF27EE0F23
:101B8000FF1FEE0FFF1FEC52FE4F2081318142817B
:101B90005381E0911B01F0911C0121ABBB27A52FC4
:101BA000942F832F80ABCA01AA27BB2787A7252F95
:101BB00033274427552726A780912C029927019681
:101BC00068E070E00E94481680932C028091280201
:101BD000815080932802882351F080911B019091BD
:101BE0001C010E94CB0110922C02109228028091BD
:101BF0004901FE01E80FF11D808187FF31C0012BF3
:101C000079F169816770E0911B01F0911C016230EC
:101C100019F5A0915501B0915601109709F18091E5
:101C20001501909116010797D9F4ED019B818381ED
:101C30009817B1F487B78F7E87BF908181E08CA71A
:101C4000E90FF11D8291319688A780818F7789A74E
:101C500080E00E94EA0904C0613011F48BE02AC0E0
:101C60000E946E0959C010925101C09A84E00E94EE
:101C7000150652C08E3309F04FC0C09A80911501ED
:101C8000909116010897C9F4C09889E00E94F8085D
:101C9000C09A83E00E94150681E090E090931601BF
:101CA000809315018FB7F894992723E020930F01B3
:101CB0008FBF84E00E94F6002FC0809136028823F7
:101CC00049F484E090E090931601809315010E94FE
:101CD000040C22C083E00E94150683E090E09093FC
:101CE0001601809315010E94DA01DC01CB0166E345
:101CF00071E00E9434165BE0E52EF12CE80EF91E2F
:101D0000F0923101E09230010E945A02002711271F
:101D1000A80197010E941703DF91CF911F910F91A6
:101D2000FF90EF9008951F920F920FB60F9211241B
:101D30002F933F934F935F936F937F938F939F93D3
:101D4000AF93BF93EF93FF932FB1E0918C01F0918C
:101D50008D01309739F08091740190917501E80FF1
:101D6000F91F2083809174019091750101969093E1
:101D700075018093740180E00E94A10040911D01D3
:101D800050911E01809174019091750184179507FF
:101D900018F40E9429011CC060918C0170918D0182
:101DA000809130029091310210928D0110928C013D
:101DB000109231021092300210921E0110921D01F9
:101DC00010927501109274012FB120E00E94ED0C69
:101DD000FF91EF91BF91AF919F918F917F916F9103
:101DE0005F914F913F912F910F900FBE0F901F90D9
:101DF0001895AF92BF92CF92DF92EF92FF920F931E
:101E00001F93CF93DF93873009F4C7C1883098F4CC
:101E1000833009F44CC1843038F4813009F45BC05C
:101E2000823008F0DBC024C0853009F494C18630CC
:101E300008F0ACC142C18B3009F4D8C28C3038F400
:101E4000893009F49BC28A3008F0BCC2E1C18D30F0
:101E500039F08D3008F4B6C38E3009F00FC4FDC3DD
:101E600080912D02882309F409C440E051E0D4C3D5
:101E700080914A01882361F52091D0013091D101F0
:101E80004091D2015091D301EFB7F894FF276091B0
:101E90008F01709190018091910190919201E09059
:101EA0003201F090330100913401109135016E0D33
:101EB0007F1D801F911FEFBF2093D0013093D10170
:101EC0004093D2015093D30110924A010E946004C2
:101ED0000E94B6036EC00E94B6035B016C018FB70F
:101EE000F8949927109273018FBF8091820181FF2E
:101EF00025C080917A0190917B01A0917C01B091E5
:101F00007D01A6019501281B390B4A0B5B0BE09064
:101F10007E01F0907F010091800110918101E21A11
:101F2000F30A040B150B3FEFE3163FEFF3063FEF09
:101F300003073FE7130711F061E009C0FFEFEF2E41
:101F4000FFEFFF2EFFEF0F2FFFE71F2F60E08091C5
:101F50008B0181FF24C08091830190918401A09125
:101F60008501B0918601A6019501281B390B4A0B0A
:101F70005B0BDA01C9012091870130918801409102
:101F8000890150918A01281B390B4A0B5B0B2E15D6
:101F90003F05400751071CF479018A0103C06623FD
:101FA00009F46CC31E141F04100611062CF0C601A0
:101FB000B5010E94EE0762C3E092D001F092D10118
:101FC0000093D2011093D30181E080934A01A801CC
:101FD0009701C601B5010E94600450C30FB7F89481
:101FE000112781E00E94A303E1E0EE2EF12CF09294
:101FF0001601E0921501109217011092370110920C
:102000004B010FBF0FB7F89411270E94BF01F09248
:102010004801E09247011092510189B78F7B89BF37
:1020200080E488BF8AB780628ABF8AB78F7E8ABF02
:1020300089B7806489BF0FBF8FB7F894C82FDD2799
:102040008091100190911101049719F483E00E948E
:10205000F808CFBF0FB7F8941127C09A80E00E940C
:1020600015060FBF8FB7F894992722E020939401AB
:102070008FBF0E94B60360937A0170937B018093B7
:102080007C0190937D018AEF90E0A0E0B0E0809326
:102090007E0190937F01A0938001B0938101809194
:1020A00082018E7F82608093820181E0AEC08FB713
:1020B000F8949927109294016EC08FB7F8949927DD
:1020C000F0900F018FBF63E081E00E948A008823B7
:1020D00059F10FB7F89411271092160110921501BB
:1020E00087B78F7E87BF87B78F7D87BF83E00E94CA
:1020F0001506C09A0FBF0FB7F89411271092480128
:10210000109247010E94BF01C09A89B78F7B89BF97
:102110000FBF1092110110921001DE98DD98DE9A27
:1021200083E00E94F60007C08FB7F894992722E059
:10213000209394018FBFC0916F01D09170010E94D4
:10214000B8018A858F3309F099C28FEF8093090116
:102150004F2DBE0159C28FB7F894282F3327122F65
:1021600080913402882309F581E0809334028091C4
:10217000100190911101049721F481E00E944A0519
:1021800003C086E00E94F6001FBF78C28FB7F894A4
:102190009927109234028FBF71C28FB7F894282FFD
:1021A000332780911201882311F02FBF67C22FBF00
:1021B00080B3992776E0969587957A95E1F7182F61
:1021C000117090916701809168018917D9F01917F2
:1021D000C9F484E090E090931101809310018FB7CF
:1021E000F894992721E0209312018FBF60E070E0FE
:1021F0008DE10E9463060E947303C09AC09882E03A
:102200000E94F6001093680187E00E94F60036C233
:102210008FB7F8949927109102018FBF123009F4FB
:1022200060C0133030F4112359F0113009F026C288
:1022300043C0133009F46FC0143009F01FC29BC0B3
:10224000C0988FB7F894C82FDD2780911001909126
:102250001101029779F583E090E09093110180934A
:10226000100168E170E08DE10E94630681E08093D7
:1022700067011092120180B3992766E096958795C1
:102280006A95E1F7817090708093680187E00E9401
:10229000F60081E00E94F8086FE772E08CE10E948E
:1022A00063060E94C4060E948A0666E57AE287E118
:1022B0000E946306CFBFE2C1C09886E00E94F80882
:1022C0000E94C4060E948A060E947303C09AC098A6
:1022D00083E00E94F808C09A81E00E94150686E01B
:1022E00094CFC0988FB7F894C82FDD2760E080E0C6
:1022F0000E948A00882311F0CFBF0AC0CFBF83E5B8
:102300000E941D0180E00E941D0180E00E941D01CD
:10231000C09A82E02DC08FB7F894992720911501BB
:102320008FBF243039F0283041F0223001F50E946F
:10233000D506A4C10E94040CA1C1C09889E00E94E6
:10234000F808C09A83E00E9415068FB7F894992781
:1023500021E030E030931601209315018FBF8FB735
:10236000F894992710930F018FBF84E04ECF83E03C
:102370000E94150683C10E94450980C10FB7F894D9
:10238000112740911D0150911E0160918C017091A7
:102390008D01809130029091310210928D01109246
:1023A0008C01109231021092300210921E01109294
:1023B0001D01109275011092740120E00E94ED0C35
:1023C0000FBF5CC12FB7F894332780914E018093E3
:1023D000050182E0809314012FBF809105018823BD
:1023E00009F04CC1B89AC09888E00FCFA0911B01AA
:1023F000B0911C011C91FD01E10FF11D8081881F2E
:102400008827881FED018BA780818F7789A7319757
:10241000808188A7E0911B01F0911C018FB7F8948F
:10242000992720914C018FBF2223F9F087814681A3
:102430002FB7F894332760916501709166012FBF23
:102440009927982F88275527842B952B8617970730
:1024500061F0878126819927982F88273327822B3F
:10246000932B8F5F9F4F09F0A4C01D3008F4A1C0CB
:10247000A0911B01B0911C01ED0189852885992748
:10248000582F44273327422B532B6B818FEF809398
:102490002E028FB7F894782F20E030E0E4E2F1E0EC
:1024A000808191818417950731F48281861709F420
:1024B00079C020932E022F5F3F4F33962430310591
:1024C00079F77FBF90912E023FB7F8949F3F21F09C
:1024D00080911801891799F420911801822F99276A
:1024E000FC01EE0FFF1FE80FF91FEC5DFE4F51835B
:1024F000408362832F5F2370209318010CC0892FC3
:102500009927FC01EE0FFF1FE80FF91FEC5DFE4F4E
:10251000518340836283832F99278FBFFD0183A559
:10252000882309F442C082858F3309F03EC0878139
:1025300046812FB7F8943327609106017091070107
:102540002FBF9927982F88275527842B952B8617DF
:10255000970761F0ED018F812E819927982F8827A9
:102560003327822B932B8F5F9F4FF9F4ED018B85DF
:102570008630D9F41131C9F48E852F859927982F8B
:1025800088273327822B932B80FF02C0DA9801C063
:10259000DA9A81FF02C0D99801C0D99A82FF04C09B
:1025A000D89803C07FBF01C0D89AB0931C01A093F4
:1025B0001B018FB7F8949927109251018FBF0E9489
:1025C0006E095CC090915B0180910901981709F434
:1025D00055C0909309019923D9F4C0911901D09164
:1025E0001A0160916D018FE38A87CE010E941B075B
:1025F000482F5527442309F441C08FEF80930901E8
:102600006091190170911A018B850E94E90836C00A
:102610008FEF8093090132C090912D02852F89237D
:10262000B9F0E42FFF27EE0FFF1FEA58FE4F20817D
:10263000318111821082852F8095982390932D02ED
:10264000442331F429593140B1F410920E0113C0E2
:102650004F5F483098F4550FDFCF80910C01E82F81
:10266000FF27EE0FFF1FEA58FE4F6081718141E0A6
:102670000E94AB0803C0550F41E0CECFDF91CF9150
:102680001F910F91FF90EF90DF90CF90BF90AF9090
:102690000895809129028F3FB1F0282F3327F90147
:1026A000E85CFE4F8081809329028F3F11F4809374
:1026B00035028FEF80832F3F31F0822F0E94F90E79
:1026C00081E090E0089580E090E008951F931FB7A7
:1026D000F8944FE050E06FEF70E088E391E00E94E3
:1026E000B1168FEF809329028093350281E08EBD71
:1026F00088E080BF83E083BF8CB59DB54AE72CB5E9
:102700003DB52817390708F44150442311F0C90199
:10271000F6CF92B782B78917E9F32CB53DB592B7DA
:1027200082B78917E9F38CB59DB5821B930B409650
:10273000A5E096958795AA95E1F790932B02809353
:102740002A0213BE83B78EBD8EB580BF12BE1DBCDC
:102750001CBC8FEF86BF86B780937C0080B799271B
:1027600087709070892BD1F7D29AD19AD09ADA9A41
:10277000D99AD89A15BA8FEF84BBD498DC981DBC2F
:102780001CBC87B7846087BF8EB5887F84608EBD90
:1027900080E285BF0E9449138823E1F78FEF809381
:1027A0004F01E4E2F1E08FEF9FEF9183808312828B
:1027B000339621E0E033F207C1F70E94DA0160931B
:1027C000CF0180910001909101010196AA27BB27BA
:1027D0008093570190935801A0935901B0935A01E7
:1027E00084EF91E090931C0180931B018E98B89A1E
:1027F0008C988FEF80936001109293011092940156
:102800001092950110929601B89AD69AD59A8FB7E0
:10281000F894992720910601309107018FBF3093DA
:1028200066012093650180910801992790935301D7
:10283000809352018FE180938E018AE18093CD01D4
:1028400081E080934C0110922F02809354011092EA
:10285000980180B7886080BF8BE083BF86EE81BF20
:1028600087B7826087BF0E94DD030E9449138823D7
:10287000E1F7812F99278FBF78940E94A20B8FB721
:10288000F894482F552748C087B7992783709070D0
:10289000892B19F4E5E0F0E013C080B79927877021
:1028A0009070892BD1F781B792B7891B8C3030F0AB
:1028B00082B7853F18F4E3E0F0E002C0E2E0F0E028
:1028C00087B7887BC1F480917D008B7FA1F46E99DE
:1028D00012C08AB190919A00892B807C61F480911A
:1028E000740082FD08C0379B03C081E090E005C002
:1028F00085E090E002C080E090E025B78E1708F4F4
:10290000E82FFF27E457FF4FE491237E2062E22B5C
:10291000E5BF78948895F894809129028F3F09F457
:10292000B3CF282F3327F901E85CFE4F80818093D5
:1029300029028F3F11F4809335028FEF80832F3F60
:1029400009F4A2CF4FBF822F0E94F90E98CFACE2BC
:10295000B0E0EDEAF4E10C947A16222E332E442EE8
:10296000552E662E772E882E992EFE013196A8E0E0
:102970001192AA95E9F729823A824B825C826D8294
:102980007E828F829886FE013996B8E01192BA95C0
:10299000E9F7A986BA86CB86DC86ED86FE860F87A8
:1029A000188B89819A81AB81BC8189A79AA7ABA733
:1029B000BCA77C018D018FEF9FEFA0E0B0E0E82283
:1029C000F9220A231B2389A59AA5ABA5BCA51D0145
:1029D0004424552489859A85AB85BC858DA39EA307
:1029E000AFA3B8A75C016D018FEF9FEFA0E0B0E04F
:1029F000A822B922CA22DB228DA19EA1AFA1B8A52F
:102A00003D0188249924C801B701A60195010E94BF
:102A10005B1669A37AA38BA39CA3C801B701A40189
:102A200093010E945B167B018C01C201B101A601DA
:102A300095010E945B165B016C01C201B101A4010A
:102A400093010E945B163B014C01EA0CFB1C0C1D20
:102A50001D1D89A19AA1ABA1BCA19D0144275527A9
:102A60002E0D3F1D401F511F2A153B054C055D05CE
:102A700040F480E090E0A1E0B0E0680E791E8A1E8C
:102A80009B1ECA01AA27BB27860D971DA81DB91D2D
:102A90008D8F9E8FAF8FB8A3A9013327222789A1DD
:102AA0009AA1ABA1BCA1A070B070280F391F4A1F1A
:102AB0005B1F298F3A8F4B8F5C8FA98CBA8CCB8C84
:102AC000DC8CED8CFE8C0F8D18A1FE01719698E0C8
:102AD00011929A95E9F7ED8AFE8A0F8B188F2D8156
:102AE0003E814F8158856DA17EA18FA198A50E943E
:102AF0005B163B014C012D853E854F85588969A5A4
:102B00007AA58BA59CA50E945B162D893E894F89CD
:102B1000588D260F371F481F591F260D371D481D7A
:102B2000591D2D8B3E8B4F8B588F6D887E888F88DB
:102B3000988C2A2D3B2D4C2D5D2D662D772D882DC3
:102B4000992DE2E1AC960C949616A0E1B0E0EBEA88
:102B5000F5E10C947A16222E332E442E552E662E35
:102B6000772E882E992E002309F466C088E0FE0196
:102B7000319611928A95E9F729833A834B835C83D6
:102B80006D837E838F829887E0E2E01B1E16CCF572
:102B90002D813E814F815885602F772767FD709585
:102BA000DA01C901062E04C0B695A79597958795B9
:102BB0000A94D2F78D879E87AF87B88B04C0220F07
:102BC000331F441F551FEA95D2F789819A81AB8143
:102BD000BC8104C0B695A795979587956A95D2F75D
:102BE000282B392B4A2B5B2B29873A874B875C870D
:102BF00029843A844B845C846D847E848F84988895
:102C00001BC01D861E861F86188A2E2F332727FD80
:102C10003095309521953F4F8D819E81AF81B8854C
:102C200004C0B695A795979587952A95D2F7898779
:102C30009A87AB87BC87DCCF222D332D442D552DB1
:102C4000662D772D882D992DE2E160960C949616CD
:102C5000991B79E004C0991F961708F0961B881FEE
:102C60007A95C9F780950895AA1BBB1B51E107C04F
:102C7000AA1FBB1FA617B70710F0A61BB70B881F0C
:102C8000991F5A95A9F780959095BC01CD0108959B
:102C900097FB092E07260AD077FD04D0E5DF06D082
:102CA00000201AF4709561957F4F0895F6F790957E
:102CB00081959F4F0895629FD001739FF001829F7D
:102CC000E00DF11D649FE00DF11D929FF00D839FBB
:102CD000F00D749FF00D659FF00D9927729FB00D58
:102CE000E11DF91F639FB00DE11DF91FBD01CF016B
:102CF000112408952F923F924F925F926F927F928C
:102D00008F929F92AF92BF92CF92DF92EF92FF92FB
:102D10000F931F93CF93DF93CDB7DEB7CA1BDB0BA7
:102D20000FB6F894DEBF0FBECDBF09942A8839884C
:102D300048885F846E847D848C849B84AA84B98453
:102D4000C884DF80EE80FD800C811B81AA81B9815F
:102D5000CE0FD11D0FB6F894DEBF0FBECDBFED0173
:102D60000895DC0101C06D9341505040E0F7089593
:022D7000FFCF93
:0E2D72000100FFFFFFFF010022FFFFFF010035
:00000001FF
