:100000000C9449010C9468010C9468010C946801EB
:100010000C9468010C9468010C9468010C946801BC
:100020000C9468010C9468010C9468010C946801AC
:100030000C9468010C9468010C9468010C94DF170F
:100040000C949D170C9468010C9498150C946801FD
:100050000C9414160C9468010C9468010C946801BB
:100060000C9468010C946A170C9449170C9454175B
:100070000C945F170C947D170C942C170C9468014A
:100080000C943E170C9468010C9468010000211038
:10009000422063308440A550C660E77008812991F2
:1000A0004AA16BB18CC1ADD1CEE1EFF1311210029A
:1000B00073325222B5529442F772D6623993188342
:1000C0007BB35AA3BDD39CC3FFF3DEE36224433466
:1000D00020040114E664C774A44485546AA54BB592
:1000E00028850995EEE5CFF5ACC58DD5533672263A
:1000F00011163006D776F6669556B4465BB77AA7E2
:1001000019973887DFF7FEE79DD7BCC7C448E55885
:100110008668A7784008611802282338CCC9EDD931
:100120008EE9AFF9488969990AA92BB9F55AD44AD9
:10013000B77A966A711A500A333A122AFDDBDCCB81
:10014000BFFB9EEB799B588B3BBB1AABA66C877CA5
:10015000E44CC55C222C033C600C411CAEED8FFDD1
:10016000ECCDCDDD2AAD0BBD688D499D977EB66E79
:10017000D55EF44E133E322E511E700E9FFFBEEF21
:10018000DDDFFCCF1BBF3AAF599F788F8891A981E3
:10019000CAB1EBA10CD12DC14EF16FE18010A100CD
:1001A000C230E3200450254046706760B9839893BD
:1001B000FBA3DAB33DC31CD37FE35EF3B10290121D
:1001C000F322D2323542145277625672EAB5CBA589
:1001D000A89589856EF54FE52CD50DC5E234C3246D
:1001E000A01481046674476424540544DBA7FAB75D
:1001F0009987B8975FE77EF71DC73CD7D326F236BD
:100200009106B01657667676154634564CD96DC9A8
:100210000EF92FE9C899E9898AB9ABA9445865480C
:1002200006782768C018E1088238A3287DCB5CDBFC
:100230003FEB1EFBF98BD89BBBAB9ABB754A545A5C
:10024000376A167AF10AD01AB32A923A2EFD0FEDC8
:100250006CDD4DCDAABD8BADE89DC98D267C076CAC
:10026000645C454CA23C832CE01CC10C1FEF3EFF9C
:100270005DCF7CDF9BAFBABFD98FF89F176E367EFC
:10028000554E745E932EB23ED10EF01E00081C181F
:10029000141011241FBECFEFD0E1DEBFCDBF11E09F
:1002A000A0E0B1E0EAEDF1E400E00BBF02C007908E
:1002B0000D92A231B107D9F713E0A2E1B1E001C07C
:1002C0001D92A833B107E1F70E947C1C0C94EC202E
:1002D0000C9400008F929F92AF92BF92CF92DF92C8
:1002E000EF92FF920F931F93CF93DF934A01C0E0E9
:1002F000D0E00F2EF0E0EF2EF0E0FF2EF0E00F2F19
:10030000F0E01F2FF02D5B016C0117C0F50121916A
:100310003191419151915F01F6016191719181910A
:1003200091916F010E940D1F9B01AC01C801B701A3
:100330000E94C41D7B018C012196C815D90534F398
:10034000C801B701DF91CF911F910F91FF90EF90FE
:10035000DF90CF90BF90AF909F908F900895AF9215
:10036000BF92CF92DF92EF92FF920F931F935B01A8
:100370006C01E894D7F879018A01E89417F9A8018B
:100380009701C601B5010E94091F1816BCF4A60109
:100390009501C801B7010E942C1E9B01AC010E946F
:1003A0000D1F20E030E040E85FE30E94C41D0E9482
:1003B000741F9B01AC01C601B50125C020E030E0EF
:1003C00040E050E0C801B7010E94091F18162CF048
:1003D00060E070E080E090E018C0A8019701C601DD
:1003E000B5010E942C1E9B01AC010E940D1F20E054
:1003F00030E040E85FE30E94C41D0E94741F9B012F
:10040000AC01C801B7010E940D1F1F910F91FF9011
:10041000EF90DF90CF90BF90AF9008952F923F92D2
:100420004F925F926F927F928F929F92AF92BF9204
:10043000CF92DF92EF92FF920F931F93CF93DF93B0
:10044000CDB7DEB7C25CD0400FB6F894DEBF0FBEAA
:10045000CDBFCB54DF4F99838883C55BD040C9544F
:10046000DF4F79836883C75BD040C754DF4F598320
:100470004883C95BD040C554DF4F39832883CB5BA9
:10048000D040C354DF4F19830883CD5BD040C154A3
:10049000DF4FF982E882CF5BD0406417750714F410
:1004A0000C945A112B963FAF2EAF2B972796FFAE89
:1004B000EEAE279725965FAF4EAF25971C0123968A
:1004C0007FAF6EAF239720E030E040E050E0C557AB
:1004D000DF4F288339834A835B83CB58D040C95789
:1004E000DF4F288339834A835B83C758D040CD5779
:1004F000DF4F288339834A835B83C358D0402D96CE
:100500001FAE1EAE2D9729961FAE1EAE299744E052
:1005100050E022C48FA998AD0196CD55DF4F998345
:100520008883C35AD0402D969FAF8EAF2D97C95761
:10053000DF4F288139814A815B81C758D040CD5730
:10054000DF4F688179818A819B81C358D0400E94A6
:100550000D1F2796AEADBFAD27976D937D938D93FD
:100560009C931397EFA9F8ADC954DF4F28813981C7
:10057000C75BD040E217F3070CF08DC1810180E02A
:1005800090E0A0E0B0E0898F9A8FAB8FBC8FEE2413
:10059000FF24D801ED91FD918D0129962EAD3FAD3F
:1005A0002997E20FF31F20813181428153815F77C8
:1005B000698D7A8D8B8D9C8D0E94C41D698F7A8F79
:1005C0008B8F9C8F0894E11CF11C23964EAD5FAD80
:1005D0002397E416F506E9F620E030E040E050E02D
:1005E0000E94281E882311F40C945D1171010F2EB6
:1005F000F0E0AF2EF0E0BF2EF0E0CF2EF0E0DF2EE7
:10060000F02D88249924D7010D911D917D01299603
:10061000EEADFFAD29970E0F1F1FD8016D917D9193
:100620008D919C91298D3A8D4B8D5C8D0E942C1E55
:10063000F80160837183828393839B01AC010E94E4
:100640000D1F9B01AC01C601B5010E94C41D5B01D9
:100650006C010894811C911C23962EAD3FAD23970D
:100660008216930681F6D1014D905C902996EEADED
:10067000FFAD29974E0E5F1ED201ED90FD900D91BA
:100680001C9120E030E040E050E0C801B7010E943A
:10069000091F88234CF0C601B5010E94741F9F7783
:1006A0009B01AC01505807C0C601B5010E94741FE0
:1006B0009B01AC015F7739014A01C801B7010E9473
:1006C0000D1FA60195010E94C31D6BA77CA78DA7D6
:1006D0009EA7A4019301C801B7010E94C31DF201A6
:1006E0006083718382839383C754DF4F88819981AC
:1006F000C95BD04001972FA938AD2817390709F4F5
:10070000A0C02196AEACBFAC21972F961FAE1EAEF7
:100710002F977DC0D601ED91FD916D0129968EAD8B
:100720009FAD29978E0F9F1FEA0DFB1D2081318100
:1007300042815381FC0160817181828193810E9499
:100740000D1F9B01AC01C801B7010E94C41D7B01B4
:100750008C010894411C511C23962EAD3FAD23976C
:1007600042165306B9F62BA53CA54DA55EA50E94E1
:100770002C1E6B017C012101CF53DF4F198218829F
:10078000C15CD040D201ED91FD912D018F010A0D88
:100790001B1D29962EAD3FAD2997E20FF31F208137
:1007A000318142815381C701B6010E940D1F9B0117
:1007B000AC01D8016D917D918D919C910E94C41DD9
:1007C000F8016083718382839383CF53DF4F288145
:1007D0003981C15CD0402F5F3F4FCF53DF4F39830A
:1007E0002883C15CD04023964EAD5FAD239724177C
:1007F000350741F62F968EAD9FAD2F9701962F9618
:100800009FAF8EAF2F97A4E0B0E0AA0EBB1E259637
:100810008EAD9FAD259701972F96EEADFFAD2F972B
:10082000E817F90771F061010F2EF0E0EF2EF0E00C
:10083000FF2EF0E00F2FF0E01F2FF02D4424552461
:1008400069CF7101CC24DD24D7010D911D917D016B
:100850002996EEADFFAD29970E0F1F1F298D3A8DFA
:100860004B8D5C8DD8016D917D918D919C910E94F5
:100870000D1FF80160837183828393830894C11CE8
:10088000D11C23962EAD3FAD2397C216D30611F48B
:100890000C946711D9CF80E090E0A0E0B0E02B96F7
:1008A000EEADFFAD2B9780839183A283B383C957AD
:1008B000DF4F88839983AA83BB83C758D040CD5725
:1008C000DF4F88839983AA83BB83C358D040DEC19E
:1008D000D101ED91FC91E00FF11F20813181428126
:1008E00053815F77CD57DF4F688179818A819B8102
:1008F000C358D0400E94C41DCD57DF4F6883798311
:100900008A839B83C358D0400894E11CF11C0C5F80
:100910001F4F2596EEADFFAD2597EE16FF06C1F6EB
:1009200020E030E040E050E0CD57DF4F6881798132
:100930008A819B81C358D0400E94281E882369F475
:1009400020E030E040E050E0C957DF4F2883398392
:100950004A835B83C758D04099C129968EAC9FAC1F
:1009600029970F2EF0E0AF2EF0E0BF2EF0E0CF2E53
:10097000F0E0DF2EF02DEE24FF2423C08401040DCF
:10098000151DD8016D917D918D919C91CD57DF4FB3
:10099000288139814A815B81C358D0400E942C1E36
:1009A000F80160837183828393839B01AC010E9471
:1009B0000D1F9B01AC01C601B5010E94C41D5B0166
:1009C0006C010894E11CF11C24E030E0820E931EBF
:1009D000D1014D905C902596EEADFFAD2597EE16BA
:1009E000FF0661F621968EAC9FAC2197840C951C76
:1009F000D401ED90FD900D911C9120E030E040E09D
:100A000050E0C801B7010E94091F88234CF0C601BD
:100A1000B5010E94741F9F779B01AC01505807C01D
:100A2000C601B5010E94741F9B01AC015F77C957D5
:100A3000DF4F288339834A835B83C758D040C8017E
:100A4000B7010E940D1FA60195010E94C31D5B0105
:100A50006C01C957DF4F288139814A815B81C758B2
:100A6000D040C801B7010E94C31DF40160837183A7
:100A70008283938329960EAD1FAD2997040D151D12
:100A800027968EAC9FAC2797EE24FF240EC0A601BC
:100A90009501D8016D917D918D919C910E942C1EA4
:100AA000F40160837183828393830894E11CF11CB9
:100AB0000C5F1F4F24E030E0820E931E25964EAD52
:100AC0005FAD2597E416F50611F7C954DF4F88810D
:100AD0009981C75BD0400197AFA9B8ADA817B907F6
:100AE00009F4AAC0510161961FAE1EAE619784C081
:100AF000F501A281B381AE0DBF1DF80120813181C6
:100B0000428153816D917D918D919C910E940D1F29
:100B10009B01AC01C401B3010E94C41D3B014C0107
:100B20000894C11CD11C24E030E0E20EF31E0C5FDF
:100B30001F4F25964EAD5FAD2597C416D506C1F65D
:100B40002996EEACFFAC299727968EAD9FAD2797DF
:100B5000CF53DF4F99838883C15CD040CC24DD2400
:100B600022C0F501028113810E0D1F1DCF53DF4FEF
:100B7000A881B981C15CD0402D913D914D915C918E
:100B8000C401B3010E940D1F9B01AC01F8016081FB
:100B90007181828193810E94C41DD8016D937D93E0
:100BA0008D939C9313970894C11CD11CE4E0F0E052
:100BB000EE0EFF1ECF53DF4F28813981C15CD0403C
:100BC0002C5F3F4FCF53DF4F39832883C15CD04028
:100BD00025964EAD5FAD2597C416D50611F66196E4
:100BE0008EAD9FAD6197019661969FAF8EAF619775
:100BF000A2E0B0E0AA0EBB1E23968EAD9FAD239758
:100C000001976196EEADFFAD6197E817F907A1F086
:100C10002996EEACFFAC29978701040D151D0F2E08
:100C2000F0E06F2EF0E07F2EF0E08F2EF0E09F2EB0
:100C3000F02DCC24DD2474CF2996EEACFFAC29979F
:100C4000E40CF51C00E010E014C0CD57DF4F288104
:100C500039814A815B81C358D040D7016D917D9124
:100C60008D919C910E940D1FF70160837183828397
:100C700093830F5F1F4F24E030E0E20EF31E2596B2
:100C80004EAD5FAD259704171507F9F62B96AEAD5F
:100C9000BFAD2B976D917D918D919C919F772796FC
:100CA000EEADFFAD279720813181428153815F777F
:100CB0000E94C41D7B018C019B01AC01C557DF4F15
:100CC000688179818A819B81CB58D0400E94091F1D
:100CD000181644F0C557DF4FE882F9820A831B8358
:100CE000CB58D0402B962EAD3FAD2B972C5F3F4F6E
:100CF0002B963FAF2EAF2B9729964EAD5FAD299720
:100D00004C5F5F4F29965FAF4EAF299727968EAD08
:100D10009FAD2797049627969FAF8EAF279725966E
:100D2000AEADBFAD259711972596BFAFAEAF259756
:100D3000E2E0F0E02E0E3F1E23962EAD3FAD23974E
:100D40002150304023963FAF2EAF239721964EADD2
:100D50005FAD21974C5F5F4F21965FAF4EAF2197FC
:100D60002D968EAD9FAD2D9798AF8FABC754DF4FAB
:100D7000A881B981C95BD0408A179B070CF4CACB04
:100D80001197BCAFABAFC754DF4F88819981C95B66
:100D9000D040880F991FC354DF4FE881F981CD5BA4
:100DA000D040E80FF91F32976F96FFAFEEAF6F9705
:100DB000C754DF4F28813981C95BD040220F331FD0
:100DC000220F331F6B963FAF2EAF6B9724503040EE
:100DD0006D963FAF2EAF6D971901C154DF4F48811B
:100DE0005981CF5BD0406B96AEADBFAD6B974A0FCC
:100DF0005B1F67965FAF4EAF679744505040699650
:100E00005FAF4EAF6997CB54DF4FE881F981C55B87
:100E1000D040E80FF91F6396FFAFEEAF63973297AC
:100E20006596FFAFEEAF65972BAD3CADC955DF4F73
:100E300039832883C75AD040E7C1C955DF4F48815D
:100E40005981C75AD0408BAD9CAD481759070CF05B
:100E50008AC120E030E040E050E0C957DF4F6881B0
:100E600079818A819B81C758D0400E94281E88239F
:100E700009F430C1CD55DF4F48805980C35AD04066
:100E8000440C551C440C551CCD55DF4FA881B9812D
:100E9000C35AD040AA0FBB1FA196BFAFAEAFA19758
:100EA000C354DF4FC880D980CD5BD040CA0EDB1E53
:100EB0007201CD55DF4FA880B980C35AD04031C0F0
:100EC0006596AEADBFAD6597ED91FC91D6010D91E4
:100ED0001D916D01020D131DDF01AE0DBF1DE40D4F
:100EE000F51D20813181428153816D917D918D91DC
:100EF0009C910E942C1EC957DF4F288139814A815D
:100F00005B81C758D0400E942C1EF801608371831A
:100F1000828393830894A11CB11C24E030E0E20E8C
:100F2000F31EC754DF4F48815981C95BD040A416D6
:100F3000B50634F27201CD55DF4FC880D980C35A4F
:100F4000D0409BC06596AEADBFAD65978D919C912D
:100F5000800F911FF501A191B1915F01AE0DBF1DF1
:100F60002D913D914D915C91DC016D917D918D9123
:100F70009C910E940D1F9B01AC01C401B3010E9412
:100F8000C41D3B014C01CF53DF4FE881F981C15CA7
:100F9000D0403196CF53DF4FF983E883C15CD04016
:100FA0000C5F1F4FCF53DF4F28813981C15CD04088
:100FB000C754DF4F48815981C95BD040241735079A
:100FC0000CF2C354DF4FA880B980CD5BD040A1960E
:100FD0008EAD9FADA197A80EB91ECD55DF4FA8814C
:100FE000B981C35AD040CF53DF4FB983A883C15CC6
:100FF000D0402DC0D501ED91FD915D018F010E0D09
:101000001F1DE20DF31D2081318142815381C401F6
:10101000B3010E940D1F9B01AC01F8016081718139
:10102000828193810E94C41DD8016D937D938D931D
:101030009C931397CF53DF4FE881F981C15CD04077
:101040003196CF53DF4FF983E883C15CD040CF5353
:10105000DF4F28813981C15CD040C754DF4F4881C0
:101060005981C95BD0402417350724F20894C11C6C
:10107000D11C84E090E0E80EF91EC754DF4FA88130
:10108000B981C95BD040CA16DB0624F58201C3547E
:10109000DF4FA880B980CD5BD040A196EEADFFAD0B
:1010A000A197AE0EBF1ECD55DF4F28813981C35A9F
:1010B000D040CF53DF4F39832883C15CD0400F2EFF
:1010C000F0E06F2EF0E07F2EF0E08F2EF0E09F2E0C
:1010D000F02D68CFCD55DF4F28813981C35AD040DC
:1010E000220F331F220F331FCD55DF4F0881198187
:1010F000C35AD040000F111FC354DF4F488159819C
:10110000CD5BD040040F151FCD55DF4F88819981ED
:10111000C35AD04040E050E060E070E01BC06F96E2
:10112000EEADFFAD6F97A081B181A20FB31FF801A3
:10113000E190F1908F01E20CF31CF70140835183A1
:10114000628373834D935D936D937C9313970196A4
:101150002C5F3F4FC754DF4FA881B981C95BD04096
:101160008A179B07E4F26F96AEADBFAD6F97ED9116
:10117000FC91E20DF31D80E090E0A0E8BFE38083E6
:101180009183A283B3836996AEADBFAD69972D916C
:101190003D914D915C911397C957DF4F2883398357
:1011A0004A835B83C758D0406F96EEADFFAD6F9713
:1011B00032976F96FFAFEEAF6F972CEF3FEF220E97
:1011C000331E14976996BFAFAEAF699765964EAD63
:1011D0005FAD65974250504065965FAF4EAF6597E3
:1011E000C955DF4F88819981C75AD040CD55DF4F0F
:1011F00099838883C35AD040DC011197C955DF4FCA
:10120000B983A883C75AD040C955DF4FE881F98117
:10121000C75AD040F7FF11CE63966EAC7FAC639790
:101220002EEF3FEF620E731E6D96AEACBFAC6D97A6
:10123000C554DF4F48815981CB5BD0406B968EAD52
:101240009FAD6B97480F591FA3965FAF4EAFA39703
:1012500044505040A5965FAF4EAFA597CBACDCACE9
:101260005EC146010894811C911CA596AEADBFAD30
:10127000A597ED90FD900D911C91EBADFCADCE16B8
:10128000DF06E4F49501C60140E050E060E070E064
:1012900009C0D301ED91FC91E20FF31F408351830C
:1012A0006283738301962C5F3F4FC754DF4FE88101
:1012B000F981C95BD0408E179F075CF320E030E0D6
:1012C00040E050E0C801B7010E94281E882319F4AD
:1012D000A3019601F0C0A801970160E070E080E8EA
:1012E0009FE30E942C1E698B7A8B8B8B9C8B2BAD82
:1012F0003CADC216D30609F4A8C0A5014C5F5F4FF0
:10130000A7965FAF4EAFA79798A68FA286C0D401CD
:10131000ED91FC91BF016A0D7B1DA7962EAD3FADEF
:10132000A797E20FF31F2081318142815381DB01B6
:101330006D917D918D919C910E940D1F9B01AC013F
:10134000C801B7010E94C41D7B018C010894411C97
:10135000511CE2E0F0E08E0E9F1EC954DF4F288141
:101360003981C75BD040421653068CF2D301ED9110
:10137000FC91EA0DFB1D2081318142815381C8011E
:10138000B7010E942C1E29893A894B895C890E94E9
:101390000D1F1B012C017301460126C0D701ED91E1
:1013A000FD917D01A7960EAD1FADA7970E0F1F1FD4
:1013B000EA0DFB1D2081318142815381C201B101BF
:1013C0000E940D1F9B01AC01F80160817181828137
:1013D00093810E94C41DD8016D937D938D939C933E
:1013E00013970894811C911CC954DF4FE881F9813F
:1013F000C75BD0408E169F068CF22FA138A52F5FB9
:101400003F4F38A72FA3A7964EAD5FADA7974C5F70
:101410005F4FA7965FAF4EAFA7978FA198A5C75410
:10142000DF4FA881B981C95BD0408A179B076CF454
:10143000430126010F2EF0E0EF2EF0E0FF2EF0E04A
:101440000F2FF0E01F2FF02D81CF7301460119C03F
:10145000F701019111917F010A0D1B1D29893A891C
:101460004B895C89D8016D917D918D919C910E94F1
:101470000D1FF80160837183828393830894811C1C
:10148000911CC954DF4F28813981C75BD040821637
:101490009306F4F219C0DA01ED91FD91AD01EA0D68
:1014A000FB1D80E090E0A0E0B0E080839183A28308
:1014B000B3832F5F3F4FC954DF4FE881F981C75B8A
:1014C000D0402E173F073CF3D3010D911C910A0D1C
:1014D0001B1D20E030E040E85FE3F801608171818E
:1014E000828193810E94C41DD8016D937D938D9359
:1014F0009C9313970894C108D108EEEFFFEF6E0E8E
:101500007F1E2CEF3FEFA20EB31EA5964EAD5FAD32
:10151000A59744505040A5965FAF4EAFA597D7FE14
:10152000A0CE67968EAD9FAD67970497AD969FAF9F
:101530008EAFAD976D96AEADBFAD6D97AB96BFAFAD
:10154000AEAFAB97A396EEADFFADA3973897A99634
:10155000FFAFEEAFA9972BAD3CAD3E832D8384C684
:10156000D8016D917D918D919C919F77C557DF4FEB
:10157000288139814A815B81CB58D0400E94C41DAB
:10158000C557DF4F288139814A815B81CB58D040D4
:101590000E94281E882309F43AC1E9A4FAA40894F9
:1015A000E108F108F60160817181828193819F7762
:1015B000C557DF4F288139814A815B81CB58D040A4
:1015C0000E94C41DC557DF4F288139814A815B8144
:1015D000CB58D0400E94281E882309F4CCC6045062
:1015E00010402CEF3FEFC20ED31EFAA6E9A6A701CA
:1015F0004F5F5F4F09F4BFC6B3CFE196AEADBFAD4D
:10160000E1972D913D914D915C9169A17AA18BA1BA
:101610009CA10E940D1F3B014C019F77C557DF4FD6
:10162000288139814A815B81CB58D0400E94C41DFA
:10163000C557DF4F288139814A815B81CB58D04023
:101640000E94281E882309F4B5C0CF53DF4FE881DC
:10165000F981C15CD040A080B180C280D380A60156
:101660009501C401B3010E94AF019B01AC01CF53AE
:10167000DF4FA881B981C15CD0406D937D938D937C
:101680009C93139760E070E080E89FE30E942C1E1B
:101690007B018C019B01AC01C601B5010E940D1FAD
:1016A0006F83788789879A87C401B3019058A8010E
:1016B00097010E940D1F69A37AA38BA39CA3CB540F
:1016C000DF4FE881F981C55BD040E396FFAFEEAF15
:1016D000E3971EA21DA262C0E396AEADBFADE39735
:1016E000CD90DD90E396BFAFAEAFE397CF54DF4F21
:1016F00028803980C15BD0402C0C3D1CF10140801A
:10170000518062807380AF962EAD3FADAF97C20E11
:10171000D31ED6018D909D90AD90BC902F813885C1
:1017200049855A85C301B2010E940D1F7B018C01BE
:1017300029A13AA14BA15CA1C501B4010E940D1FD2
:101740009B01AC01C801B7010E94C41DF101608377
:101750007183828393832F81388549855A85C5019A
:10176000B4010E940D1F7B018C0129A13AA14BA15C
:101770005CA1C301B2010E940D1F9B01AC01C80115
:10178000B7010E94C31DD6016D937D938D939C93E9
:101790001397EDA1FEA13196FEA3EDA32DA13EA1CD
:1017A000C954DF4F48815981C75BD04024173507A2
:1017B0000CF492CF8DAD9EAD01969EAF8DAFE196AC
:1017C000AEADBFADE1971496E196BFAFAEAFE19776
:1017D000CF53DF4FE881F981C15CD0403496CF53BD
:1017E000DF4FF983E883C15CD040AF962EAD3FADAB
:1017F000AF972C5F3F4FAF963FAF2EAFAF974DAD3A
:101800005EAD8D819E81841795070CF0F6CEC5558F
:10181000DF4FA881B981CB5AD0402D903D904D909B
:101820005C90E9A5FAA52D813E81E217F30709F046
:1018300040C020E030E040E050E0C201B1010E9431
:10184000281E88230CF0EEC4D201C101B058C55542
:10185000DF4FE881F981CB5AD04080839183A28306
:10186000B383C354DF4F48815981CD5BD04020E022
:1018700030E015C0DA01ED91FD91AD01AB968EAD72
:101880009FADAB97E80FF91F80819181A281B38151
:10189000B05880839183A283B3832F5F3F4FC75497
:1018A000DF4FA881B981C95BD0402A173B0714F3E9
:1018B000B9C4E9A5FAA5EE0FFF1FEE0FFF1FCD5427
:1018C000DF4FF983E883C35BD040C554DF4F2881E5
:1018D0003981CB5BD0402E0F3F1FD9018D919D9157
:1018E0000D90BC91A02DCD56DF4F88839983AA839C
:1018F000BB83C359D040A996AEADBFADA9972D917A
:101900003D914D915C91C157DF4F288339834A83C4
:101910005B83CF58D040C755DF4FE881F981C95A62
:10192000D040A080B180C280D380AD96AEADBFADB7
:10193000AD972D913D914D915C91C956DF4F288314
:1019400039834A835B83C759D040A2019101C157B3
:10195000DF4F688179818A819B81CF58D0400E9476
:10196000C31D7B018C01A2019101C157DF4F68812A
:1019700079818A819B81CF58D0400E94C41D9B01F0
:10198000AC01C801B7010E940D1F3B014C01C956B3
:10199000DF4F288139814A815B81C759D040C60118
:1019A000B5010E94C31D7B018C01C956DF4F288100
:1019B00039814A815B81C759D040C601B5010E9477
:1019C000C41D9B01AC01C801B7010E940D1F9B0102
:1019D000AC01C401B3010E94C41D7B018C01C95636
:1019E000DF4F288139814A815B81C759D040CA01C4
:1019F000B9010E94C41DC157DF4F288139814A8136
:101A00005B81CF58D0400E940D1F9B01AC01C801E3
:101A1000B7010E942C1E3B014C0120E030E040E861
:101A20005FE30E94AF017B018C0120E030E040E0E9
:101A300050E0C401B3010E94091FA80197015F771C
:101A400088231CF059016A0106C059016A01D7FABE
:101A5000D094D7F8D094A2019101CD56DF4F688180
:101A600079818A819B81C359D0400E94C31D7B012B
:101A70008C01A2019101CD56DF4F688179818A8165
:101A80009B81C359D0400E94C41D9B01AC01C80179
:101A9000B7010E940D1F7B018C01A6019501C401B5
:101AA000B3010E94C41D9B01AC01C157DF4F688187
:101AB00079818A819B81CF58D0400E942C1EC956C3
:101AC000DF4F288139814A815B81C759D0400E940C
:101AD000C31D9B01AC01C956DF4F688179818A81A2
:101AE0009B81C759D0400E940D1F9B01AC01C801CA
:101AF000B7010E94C41DCD56DF4F288139814A812C
:101B00005B81C359D0400E942C1EC556DF4F6883AD
:101B100079838A839B83CB59D040CD54DF4FE881B2
:101B2000F981C35BD040EF96FFAFEEAFEF9789A589
:101B30009AA5880F991F880F991F9C012C5F3F4F12
:101B4000ED963FAF2EAFED97C554DF4F48815981D9
:101B5000CB5BD0404E0F5F1FEB965FAF4EAFEB9766
:101B6000C154DF4FA881B981CF5BD040A80FB91F06
:101B7000E996BFAFAEAFE997C554DF4FE881F98171
:101B8000CB5BD040E80FF91FE796FFAFEEAFE797CA
:101B9000C154DF4F28813981CF5BD040CD54DF4F16
:101BA00048815981C35BD040240F351FE5963FAF74
:101BB0002EAFE59789A59AA520E030E040E85FE3E5
:101BC000C156DF4F288339834A835B83CF59D04086
:101BD0002D8F3E8F4F8F58A3D5C201969AAF89AFF4
:101BE000E996EEADFFADE997E480F58006811781B7
:101BF000E796EEADFFADE7972480358046805780AD
:101C0000A80197016D8D7E8D8F8D98A10E940D1F6B
:101C10005B016C01A8019701C156DF4F6881798192
:101C20008A819B81CF59D0400E940D1F3B014C01FE
:101C3000A6019501C556DF4F688179818A819B8114
:101C4000CB59D0400E94AF017B018C01E596AEAD2F
:101C5000BFADE5976D937D938D939C9313979B01F7
:101C6000AC01C556DF4F688179818A819B81CB5950
:101C7000D0400E942C1EC156DF4F688379838A832F
:101C80009B83CF59D040A8019701C601B5010E949E
:101C90002C1E6D8F7E8F8F8F98A3C156DF4F2881AA
:101CA00039814A815B81CF59D040CD56DF4F688161
:101CB00079818A819B81C359D0400E940D1F7B018D
:101CC0008C012D8D3E8D4F8D58A1C401B3010E9412
:101CD0000D1F9B01AC01C801B7010E94C41D6BAB75
:101CE0007CAB8DAB9EABC156DF4F288139814A81D9
:101CF0005B81CF59D040C401B3010E940D1F7B010D
:101D00008C012D8D3E8D4F8D58A1CD56DF4F6881B2
:101D100079818A819B81C359D0400E940D1F9B010C
:101D2000AC01C801B7010E94C31D6D8B7E8B8F8BE8
:101D3000988F2D8D3E8D4F8D58A1C201B1010E940B
:101D40000D1F6FA778AB89AB9AABC156DF4F2881C7
:101D500039814A815B81CF59D040C201B1010E94D3
:101D60000D1F6B877C878D879E87C354DF4FE8816B
:101D7000F981CD5BD040C158DF4FF983E883CF575D
:101D8000D040CF53DF4F19821882C15CD04074C05D
:101D9000C158DF4FA881B981CF57D040CD90DD9099
:101DA000C158DF4FB983A883CF57D040EF962EACF0
:101DB0003FACEF972C0C3D1CF101408051806280BC
:101DC0007380ED962EAD3FADED97C20ED31ED601BA
:101DD0008D909D90AD90BC90C156DF4F2881398188
:101DE0004A815B81CF59D040C301B2010E940D1FCF
:101DF0007B018C012D8D3E8D4F8D58A1C501B40105
:101E00000E940D1F9B01AC01C801B7010E94C41DB7
:101E1000F1016083718382839383C156DF4F2881F0
:101E200039814A815B81CF59D040C501B4010E94FC
:101E30000D1F7B018C012D8D3E8D4F8D58A1C3014F
:101E4000B2010E940D1F9B01AC01C801B7010E94A5
:101E5000C31DD6016D937D938D939C931397CF53A0
:101E6000DF4FE881F981C15CD0403196CF53DF4F1D
:101E7000F983E883C15CD040CF53DF4F288139819B
:101E8000C15CD040C754DF4F48815981C95BD04005
:101E9000241735070CF47CCF2FA538A949A95AA9D6
:101EA0006BA97CA98DA99EA90E94AF017B018C0121
:101EB000EB96AEADBFADEB976D937D938D939C93F9
:101EC000139720E030E040E050E00E94281E882375
:101ED00031F1A801970160E070E080E89FE30E9483
:101EE0002C1E7B018C019B01AC016BA97CA98DA9E7
:101EF0009EA90E940D1FC156DF4F688379838A8394
:101F00009B83CF59D040A80197016FA578A989A9D3
:101F10009AA90E940D1F6D8F7E8F8F8F98A32D8998
:101F20003E894F89588DC156DF4F688179818A81FA
:101F30009B81CF59D0400E940D1F7B018C012B85C6
:101F40003C854D855E856D8D7E8D8F8D98A10E941F
:101F50000D1F9B01AC01C801B7010E94C41DC556ED
:101F6000DF4F688379838A839B83CB59D0402B854D
:101F70003C854D855E85C156DF4F688179818A81B8
:101F80009B81CF59D0400E940D1FC355DF4F6883FE
:101F900079838A839B83CD5AD0402D893E894F898E
:101FA000588D6D8D7E8D8F8D98A10E940D1F698338
:101FB0007A838B839C83CB54DF4FE881F981C55BA7
:101FC000D040CF57DF4FF983E883C158D040CF537B
:101FD000DF4F19821882C15CD04074C0CF57DF4FE9
:101FE000A881B981C158D040CD90DD90CF57DF4F47
:101FF000B983A883C158D040EF962EAC3FACEF9781
:102000002C0C3D1CF1014080518062807380ED9664
:102010002EAD3FADED97C20ED31ED6018D909D9093
:10202000AD90BC90C156DF4F288139814A815B81D8
:10203000CF59D040C301B2010E940D1F7B018C011A
:102040002D8D3E8D4F8D58A1C501B4010E940D1FED
:102050009B01AC01C801B7010E94C41DF10160835E
:10206000718382839383C156DF4F288139814A81EE
:102070005B81CF59D040C501B4010E940D1F7B0187
:102080008C012D8D3E8D4F8D58A1C301B2010E9450
:102090000D1F9B01AC01C801B7010E94C31DD601F1
:1020A0006D937D938D939C931397CF53DF4FE8816E
:1020B000F981C15CD0403196CF53DF4FF983E8837B
:1020C000C15CD040CF53DF4F28813981C15CD04003
:1020D000C954DF4F48815981C75BD0402417350769
:1020E0000CF47CCF29813A814B815C81C355DF4F51
:1020F000688179818A819B81CD5AD0400E94C31D1D
:10210000CD56DF4F688379838A839B83C359D04040
:10211000EF968EAD9FADEF970496EF969FAF8EAF83
:10212000EF97ED96AEADBFADED971496ED96BFAFC0
:10213000AEAFED97EB96EEADFFADEB973496EB9629
:10214000FFAFEEAFEB97E9962EAD3FADE9972C5F71
:102150003F4FE9963FAF2EAFE997E7964EAD5FADA3
:10216000E7974C5F5F4FE7965FAF4EAFE797E59617
:102170008EAD9FADE5970496E5969FAF8EAFE59740
:1021800089AD9AADAF85B889A817B9070CF025CDF0
:10219000C154DF4FE881F981CF5BD040CD54DF4F90
:1021A00028813981C35BD040E20FF31F80E090E0CB
:1021B000A0E0B0E080839183A283B383C556DF4F54
:1021C000288139814A815B81CB59D040AD96AEAD33
:1021D000BFADAD972D933D934D935C931397CD5623
:1021E000DF4F288139814A815B81C359D040C55571
:1021F000DF4FA881B981CB5AD0402D933D934D93A9
:102200005C931397CB55DF4FE881F981C55AD040D5
:102210003196CB55DF4FF983E883C55AD0407E977E
:1022200009F09CC02D813E81215030403E832D839A
:10223000AD964EAD5FADAD9744505040AD965FAF9B
:102240004EAFAD97AB968EAD9FADAB970497AB9667
:102250009FAF8EAFAB97A996AEADBFADA9971497C0
:10226000A996BFAFAEAFA997ED81FE81F7FDBEC0C5
:10227000A9962EAD3FADA9972C5F3F4FC555DF4FB7
:1022800039832883CB5AD0403197F88BEF87AD96AE
:102290004EAD5FADAD9744505040C755DF4F5983A9
:1022A0004883C95AD040CB55DF4F19821882C55A8E
:1022B000D04054C080E090E09BC00F2EF0E06F2E25
:1022C000F0E07F2EF0E08F2EF0E09F2EF02DA401A5
:1022D0009301698D7A8D8B8D9C8D0E940D1F2B969D
:1022E000AEADBFAD2B976D937D938D939C9313975C
:1022F000C754DF4F88819981C95BD0400197EFA90E
:10230000F8ADE817F907B1F420E030E040E050E024
:10231000C957DF4F288339834A835B83C758D0402E
:10232000CD57DF4F288339834A835B83C358D0401E
:102330000C94460629960EAD1FAD299780E090E0DB
:10234000A0E0B0E0CD57DF4F88839983AA83BB8399
:10235000C358D040EE24FF240C948404AD960EADF7
:102360001FADAD97A996CEACDFACA997AD81BE816C
:10237000BAA7A9A7F5C8EE0CFF1CEE0CFF1CCF54A2
:10238000DF4FF982E882C15BD04089A59AA5880F0A
:10239000991F880F991FC154DF4FE881F981CF5BE6
:1023A000D040E80FF91FE196FFAFEEAFE197C554BB
:1023B000DF4F28813981CB5BD040280F391FCF53A5
:1023C000DF4F39832883C15CD040AF969FAF8EAF7B
:1023D000AF9749A55AA55EAF4DAF80E090E0A0E869
:1023E000BFE389A39AA3ABA3BCA309CA81E090E091
:1023F000CE53DF4F0FB6F894DEBF0FBECDBFDF91D7
:10240000CF911F910F91FF90EF90DF90CF90BF90F1
:10241000AF909F908F907F906F905F904F903F9084
:102420002F9008954F925F926F927F928F929F921A
:10243000AF92BF92CF92DF92EF92FF920F931F93D2
:10244000CF93DF934A01E901270138017501860125
:102450000E940E02892BA9F1EE24FF2400E010E077
:102460002DC058010C5F1F4FFE01EA0DFB1DA3019B
:10247000920160817181828193810E94281E88234C
:10248000D4F4A60120E030E010C0DA01ED91FD9116
:10249000AD01EA0DFB1D80819181A281B3818993F9
:1024A0009993A993B9932F5F3F4F281539056CF382
:1024B00081E090E008C00894E11CF11CE814F904E4
:1024C00084F280E090E0DF91CF911F910F91FF9017
:1024D000EF90DF90CF90BF90AF909F908F907F90C4
:1024E0006F905F904F9008958FB7F8949927089553
:1024F0008FBF08957FB7F89462B72091280130917B
:10250000290140912A0150912B0106B601FE0FC00E
:1025100081B792B7280F311D411D511D2F5F3F4FCD
:102520004F4F5F4F290F311D411D511D04C0260F14
:10253000311D411D511D872F99278FBFCA01B90138
:102540000895282F9FB7F894E82FFF27EF5CFE4FE0
:1025500080818F3F81F4E0912F03E21771F40BC06B
:102560002093AC0204C0FF27EF5CFE4F2083209332
:102570002F0320E007C025E005C08091AC028F3F0B
:1025800091F7EECF892F99278FBF822F9927089532
:10259000DF92EF92FF920F931F938FB7F894282F3B
:1025A0003327D22E91B782B746B7981711F041FF63
:1025B00002C02FBF68C080916A018823D1F10E94B8
:1025C0007A12E0909902F0909A0200919B02109189
:1025D0009C0220912C0130912D0140912E015091AF
:1025E0002F016E197F09800B910B62177307840707
:1025F000950728F010926A0186EE71E01CC02E0D3E
:102600003F1D401F511F8091280190912901A091E9
:102610002A01B0912B01281B390B4A0B5B0B273E7B
:1026200031054105510528F4822F223018F482E04B
:1026300001C086EE70E0682F615000B601FCFDCF4E
:1026400082B7681709F46F5F209128013091290142
:1026500040912A0150912B01DA01C9010196A11D77
:10266000B11D860F911DA11DB11D82179307A407EF
:10267000B50710F4622F609561BFDFBE772319F0B4
:1026800086E00E94A1121F910F91FF90EF90DF90C2
:102690000895AFB7F894BB27E1E0E0936A01609337
:1026A000990270939A0280939B0290939C022093CC
:1026B0002C0130932D0140932E0150932F01AFBF79
:1026C0000E94C81208959FB7F894282F332720FF3F
:1026D00002C0DA9801C0DA9A21FF02C0D99801C07D
:1026E000D99A22FF02C0D89801C0D89A892F992779
:1026F0008FBF08951F931FB7F89480912E038823EE
:1027000039F40E94A112882319F481E080932E03EA
:10271000812F99278FBF1F9108959FB7F8948091BB
:1027200076028A3011F020E006C020E080913B0163
:10273000843009F421E0892F99278FBF222349F0A3
:1027400082E00E94A1128FB7F89499271092160187
:1027500006C08FB7F894992721E0209316018FBF08
:1027600008952FB7F89433278CB95E9A2FBF089538
:10277000FC016115710519F481E090E008958091E4
:10278000440190914501892B19F085E090E008956E
:102790007093A6026093A502F0934501E093440173
:1027A00010923D0110923C0181E080933E015E9ABF
:1027B000569A808121E030E030933D0120933C0126
:1027C0000E94B11380E090E00895809127018E7FF0
:1027D000809327018EE78093390161E070E089E3FF
:1027E00091E00E94B81399270895ECE8F0E069277A
:1027F000660FF11DE60FF11DC895982F802D3196BB
:10280000C89590250895982F80912201882389F5F5
:10281000992379F531E0309322018091040180936E
:10282000230120911701822F8170809330018091C4
:10283000090190910A0190932501809324018091D0
:1028400018018093260132273170267EE32FFF275F
:10285000EE0FFF1FEB5FFE4F8081918190930A0185
:1028600080930901232B2093170185E00E94A11278
:1028700008958091170180FF02C08B7F01C08D7F7A
:102880008093170108950F931F93082F162F80919F
:102890003B018130D9F0813038F0823009F44AC0F0
:1028A000833009F00EC159C0002309F43EC11092D3
:1028B0009F0210929E02109298021092A70210920C
:1028C0003F0110927601109275011FC1002309F09B
:1028D0002CC180917501909176010E94F51390931F
:1028E00076018093750182E080933B011093A702EB
:1028F000143409F0E6C00BC18695869503C080911B
:1029000017018695817009F0DCC080911701992329
:1029100011F0846001C082608093170180911701DB
:10292000877E886080931701109218018FEF809343
:102930000401FBC0002309F0C4C060933F018091F3
:102940007501909176010E94F51390937601809322
:10295000750183E080933B01E8C0809198028F3F2E
:1029600009F4AFC0002309F447C0823008F4A9C0BD
:10297000E0919E02EE2309F4D1C04E2F4150E42F86
:10298000FF27E256FD4F82819927382F22274423C3
:1029900011F4E2E002C0E42FE150FF27E256FD4FC0
:1029A00082819927282B392B80917501909176018E
:1029B0002817390709F085C080E00E940314309180
:1029C0003F0180916B0120916C01982F9F5F9630A1
:1029D00008F090E0921709F474C0E82FFF27E5593A
:1029E000FE4F32838F5F80936B01863010F0109220
:1029F0006B010E947A1365C0823008F44EC0E091EA
:102A00009F02FF27E256FD4F8281482F5527342F22
:102A100020911701822F8695869586958370992738
:102A20008130910519F00297F9F40EC0277E2061DC
:102A300020931701442311F485E001C080E08093C6
:102A400018013093040110C080911801883760F498
:102A5000E0910901F0910A01E80FF11D4083809196
:102A600018018F5F8093180180919F02E82FFF2744
:102A7000E256FD4F62818F5F80939F02833010F09A
:102A800010929F02772780917501909176010E94A4
:102A9000F513909376018093750180919E02E82F43
:102AA000FF27E256FD4F12838F5F80939E02833093
:102AB00010F010929E02809198028F5F809398028E
:102AC00034C010929F0210929E0210923B0110920D
:102AD00098021092A70210923F0110927601109274
:102AE0007501809127018D7F8093270181E00E94ED
:102AF000031480911601882331F084E080933B0118
:102B00000E948D1312C0002381F081E023CF8091B9
:102B10001701982F917080FDEFCEF1CE8091A20227
:102B20009927382F222742E036CF1F910F91089521
:102B30001F920F920FB60F9211242F933F934F9332
:102B40005F936F937F938F939F93AF93BF93EF9315
:102B5000FF935F9B3DC06CB1E0917901F0917A01E8
:102B60003097F9F080912C0390912D03E80FF91F15
:102B70006083019690932D0380932C032091320360
:102B8000309133038217930718F110927A01109253
:102B90007901809175028330D9F0579810927502AF
:102BA00017C06E3719F460E081E010C080912701F2
:102BB0006D3721F48260809327010AC081FF05C030
:102BC0008D7F8093270180E2682780E00E94431474
:102BD000FF91EF91BF91AF919F918F917F916F91F5
:102BE0005F914F913F912F910F900FBE0F901F90CB
:102BF0001895982F8D57823068F480912701816055
:102C00008093270180E28927809397028DE7809344
:102C1000390102C09093390161E070E089E391E0ED
:102C20000E94B8139927089578941F920F920FB6B7
:102C30000F921124FF920F931F932F933F934F9363
:102C40005F936F937F938F939F93AF93BF93CF9334
:102C5000DF93EF93FF9320913C0130913D018091F0
:102C6000A5029091A6022817390780F4E09144014B
:102C7000F0914501E20FF31F80812F5F3F4F3093AA
:102C80003D0120933C010E94B113D0C01092450138
:102C90001092440110923E0156988091270180FFC6
:102CA0000EC08E7F80932701809197028093390117
:102CB00061E070E089E391E00E94B813B7C08091B1
:102CC0007602843009F494C0853040F4823021F1DA
:102CD0008330B8F5813009F0A4C00DC0863009F406
:102CE00095C0863008F48BC0873009F496C08830D0
:102CF00009F097C099C0809143010E94F915182FDF
:102D000083E080937602609143018091300390913B
:102D100031030E94F51310C0809127030E94F9151A
:102D2000182F83E08093760260912703809130030F
:102D3000909131030E94F5139093310380933003F7
:102D40006EC0FFB6F894E0917B01FF27EE0FFF1FE6
:102D5000E95BFE4F80810E94F915082F10917B01DD
:102D6000C12FDD27FE01EE0FFF1FE95BFE4F6081E3
:102D700080913003909131030E94F51390933103B9
:102D800080933003209142012F5F20934201113044
:102D900039F580911E01E0911901F0911A01E80FB7
:102DA000F11DE0818F5F80931E0190911D019817A6
:102DB00030F482E08093480140E050E002C04E2FA2
:102DC0005527DE01AA0FBB1FFD01EA5BFE4F808184
:102DD000823031F02F3F21F0A95BBE4F4C9303C0EE
:102DE00084E080937602102F8F2D99278FBF17C014
:102DF000809130030E94F915182F85E00BC0809157
:102E000031030E94F915182F86E004C00E94E513D3
:102E1000182F87E08093760202C088E003C0112358
:102E200029F089E0809376020E947A13FF91EF9156
:102E3000DF91CF91BF91AF919F918F917F916F91D2
:102E40005F914F913F912F911F910F91FF900F90A4
:102E50000FBE0F901F9018951F920F920FB60F92F2
:102E600011248F9380919B0087FF02C080919C006A
:102E70008F910F900FBE0F901F90189578941F920E
:102E80000F920FB60F9211240F900FBE0F901F904C
:102E9000189578941F920F920FB60F9211240F90ED
:102EA0000FBE0F901F90189578941F920F920FB637
:102EB0000F9211240F900FBE0F901F9018957894C9
:102EC0001F920F920FB60F9211240F900FBE0F900A
:102ED0001F90189578941F920F920FB60F9211249D
:102EE0008F939F9380918800909189009F918F91FB
:102EF0000F900FBE0F901F90189578941F920F920D
:102F00000FB60F9211242F933F938F939F932FB758
:102F1000F8943327809173019091740101969093F6
:102F20007401809373012FBF9F918F913F912F91D7
:102F30000F900FBE0F901F9018951F920F920FB613
:102F40000F9211248F9383B783BF00B600FCFDCF8F
:102F50008F910F900FBE0F901F901895AF92BF9258
:102F6000CF92DF92EF92FF920F931F93CF93DF9355
:102F70005C01EB01880F991F0E94E91F6C017C0125
:102F8000CC0FDD1FCC0FDD1F00E010E009C0CE012B
:102F90000E94E91FF701819391937F010F5F1F4FFB
:102FA0000A151B05A4F3C601DF91CF911F910F9164
:102FB000FF90EF90DF90CF90BF90AF9008951F9259
:102FC0000F920FB60F9211242F933F934F935F935D
:102FD0006F937F938F939F93AF93BF93EF93FF93E1
:102FE00083B783BF00B600FCFDCF81B79927019658
:102FF000AA27BB27209128013091290140912A015D
:1030000050912B01280F391F4A1F5B1F2093280165
:103010003093290140932A0150932B0178940E9408
:10302000C812FF91EF91BF91AF919F918F917F91C6
:103030006F915F914F913F912F910F900FBE0F9025
:103040001F901895EF92FF920F931F93E0918401C8
:10305000E1FF34C020917C0130917D0140917E01DF
:1030600050917F01E0908001F090810100918201F8
:1030700010918301621B730B840B950B6E157F05FA
:1030800080079107D8F0E0FF04C0ED7FE093840152
:103090000CC02E0D3F1D401F511F20937C0130930B
:1030A0007D0140937E0150937F01809114019091A6
:1030B00015010196909315018093140187E00E94F9
:1030C000A1121F910F91FF90EF9008957F928F9220
:1030D0009F92AF92BF92CF92DF92EF92FF920F93A7
:1030E0001F93CF93DF93CDB7DEB724970FB6F89435
:1030F000DEBF0FBECDBF833009F47EC1843038F40B
:10310000813009F4E9C0823008F072C10DC0853009
:1031100009F491C1853008F472C1863009F435C3D1
:10312000873009F0B8C364C38FB7F89410922E03A8
:103130002091760240E0283009F441E030E0293067
:1031400009F431E0442311F4332351F01092760254
:10315000E0917B01FF27EE0FFF1FEA5BFE4F10821D
:1031600099278FBF442311F4332319F1809127034A
:103170008F5F80932703809143018334A1F49FB72D
:10318000F89420916C0180916B01821741F0822F9D
:103190008F5F80936C01863010F010926C01892F44
:1031A00099278FBF0AC0A0E0442309F4A1E071E091
:1031B00006C0222311F010E069C0A0E070E08FB7D4
:1031C000F8949927209116018FBF222341F08FB7E1
:1031D000F89499272AE0209376028FBF43C08FB7D7
:1031E000F894992760914601409148018FBF8FB7AD
:1031F000F894282F332750E090916B0180916C0157
:10320000981709F451E02FBF552349F5662339F586
:103210005FB7F89482E0809346018FB7F894282F27
:10322000332740E090916B0180916C01981709F46D
:1032300041E02FBF442311F080E006C0E0916C0113
:10324000FF27E559FE4F828180934701852F9927FB
:103250008FBF83E48093430110927B010BC04150E8
:10326000423010F010E007C085E48093430181E014
:1032700080937B0111E0772349F08FB7F894992769
:10328000A0931F018FBF84E00E94A112809176025B
:103290008A3019F40E948D13FEC2112309F4FBC277
:1032A0002FB7F89433271092310310923003109205
:1032B000420181E0809376022FBF0E94E5138823AC
:1032C00009F4E9C28FB7F894992729E02093760290
:1032D0008FBF0E947A13DFC25698579810927502DA
:1032E00010923E01539A549A579A68E070E088E031
:1032F00090E00E94AE17909329038093280368E022
:1033000070E088E090E00E94AE179093780180937F
:10331000770168E070E088E090E00E94AE1790933B
:1033200041018093400140E050E0A9C2E0912803B0
:10333000F0912903E40FF51F0190F081E02DE20FD9
:10334000F31F80E090E0A0E0B0E080839183A2834F
:10335000B383E0917701F0917801E40FF51F0190BC
:10336000F081E02DE20FF31F80839183A283B3836A
:10337000E0914001F0914101E40FF51F0190F081CF
:10338000E02DE20FF31F80839183A283B3832C5F30
:103390003F4F2032310551F64E5F5F4F40315105AE
:1033A00009F06DC280E290E00E94E91F90932B0328
:1033B00080932A030E947A1260937C0170937D01AE
:1033C00080937E0190937F0184EF91E0A0E0B0E0D4
:1033D0008093800190938101A0938201B093830137
:1033E000809184018E7F82608093840187E001C098
:1033F00083E00E94A1124FC2539854984CC210927D
:103400001C0110921B018FB7F89499278FBFE09190
:103410001901F0911A0180912101882309F03BC222
:103420008385893809F037C2EF5AF24009F033C278
:103430001092120130C28FB7F8949927209123017E
:1034400080902401909025013091260170903001E8
:103450008FBF222309F081C1932F9C50F4018385F3
:10346000893809F07AC1923209F077C18585809355
:103470009D0240E050E020E030E0009177011091A3
:103480007801B401625F7F4FE0919D02FF27EE0F4C
:10349000FF1FE00FF11F0190F081E02DE20FF31FFD
:1034A000DB01CD90DD90ED90FD90BD01C982DA8207
:1034B000EB82FC8289819A81AB81BC81808391837C
:1034C000A283B3834F5F5F4F2C5F3F4F483051055E
:1034D000D9F6E0919D02FF279F01220F331F220F93
:1034E000331F265B3E4FEE0FFF1FE00FF11F0190D1
:1034F000F081E02D80819181A281B381F9018083E7
:103500009183A283B38381E08093130160E070E034
:10351000EE24FF2431C0E0914001F0914101E40F1D
:10352000F51F208131812E0D3F1DA0917701B091B3
:103530007801AC0DBD1DF80181918F01E82FFF27A7
:10354000EE0FFF1FEE0FFF1F8D919C91E80FF91FEB
:1035500080819181A281B381F90180839183A283CB
:10356000B3834E5F5F4F48305105A9F66F5F7F4FC1
:1035700024E030E0E20EF31E80919D029927861729
:10358000970744F06B01CC0CDD1C40E050E000E0FC
:1035900011E0C1CF80E090E020912A0330912B030D
:1035A00040E050E060E070E0F90141935193619395
:1035B0007193049680329105C1F7C0902803D09092
:1035C000290340919D0255274F5F5F4FB7E7AB2E10
:1035D000B2E0BB2E0F2EF7E1EF2EF7EBFF2EF1ED51
:1035E0000F2FF8E31F2FF02D64E070E08091400171
:1035F000909141010E941212892BD1F040919D02BD
:1036000055274F5F5F4F6AE471E080912A039091E4
:103610002B030E946A019F772FE632E143E85AE3C9
:103620000E94091F181634F481E08093130102C030
:103630001092130180911201882309F08BC08091B0
:1036400013010E946313809114018093BB02809147
:103650009D028093BC02809113018823E9F02091A0
:103660002A0330912B03EDEBF2E0D9014D915D91EE
:103670006D917D919D0149835A836B837C83898100
:103680009A81AB81BC8181939193A193B193B2E074
:10369000ED3DFB07B9F0E9CF20E030E040E85FEB1B
:1036A000EDEBF2E029833A834B835C8389819A8135
:1036B000AB81BC8181939193A193B19382E0ED3D65
:1036C000F80781F78FEF8093B5028093B40289E801
:1036D0008093BA0282E28093B80280911B0190919C
:1036E0001C01892B09F039C02FB7F894332785E0E6
:1036F00080931E0110921F018FEA92E090931A01AD
:103700008093190182E090E090931C0180931B014B
:1037100010922101109220018EE280931D012FBF93
:103720009FB7F89480914801882311F020E006C0EB
:1037300081E0809348011092490121E0892F992767
:103740008FBF222309F49EC00E947A1381E08093E8
:10375000120103C087E00E9463138FB7F894E72D2E
:10376000FF27EE0FFF1FEB5FFE4F918280822091BB
:103770001701772011F02B7F01C02D7F20931701B7
:103780001092220199278FBF86C080913A01882329
:1037900061F52091A8023091A9024091AA025091AE
:1037A000AB02EFB7F894FF276091990270919A02EB
:1037B00080919B0290919C02E0902C01F0902D0151
:1037C00000912E0110912F016E0D7F1D801F911F02
:1037D000EFBF2093A8023093A9024093AA0250930E
:1037E000AB0210923A010E9449130E947A1251C012
:1037F0000E947A127B018C018FB7F894992710925E
:103800006A018FBF8091840181FF45C080917C0156
:1038100090917D01A0917E01B0917F01A801970157
:10382000281B390B4A0B5B0BDA01C901209180017F
:10383000309181014091820150918301281B390B05
:103840004A0B5B0B2F3F8FEF38078FEF48078FE74F
:10385000580709F11216130614061506C4F420932E
:10386000A8023093A9024093AA025093AB0281E0D0
:1038700080933A01C801B7010E9449130CC020E0AF
:1038800030E054CD10921C0110921B0166CFC8018C
:10389000B7010E94221824960FB6F894DEBF0FBE1F
:1038A000CDBFDF91CF911F910F91FF90EF90DF90EF
:1038B000CF90BF90AF909F908F907F900895809110
:1038C000AC028F3FB1F0282F3327F901EF5CFE4F98
:1038D00080818093AC028F3F11F480932F038FEF90
:1038E00080832F3F31F0822F0E94661881E090E0A4
:1038F000089580E090E00895FF920F931F93FFB624
:10390000F89448E050E06FEF70E081E391E00E94AE
:10391000E5208FEF8093AC0280932F0381E08EBD72
:1039200088E080BF83E083BF8CB59DB54AE72CB5A6
:103930003DB52817390708F44150442311F0C90157
:10394000F6CF92B782B78917E9F32CB53DB592B798
:1039500082B78917E9F38CB59DB5821B930B40960E
:1039600035E0969587953A95E1F79093AE0280936E
:10397000AD0213BE83B78EBD8EB580BF12BE1DBC17
:103980001CBC8FEF86BF86B780937C0080B79927D9
:1039900087709070892BD1F715BA8FEF84BBD498BC
:1039A000DC98109289001092880080917D008460DC
:1039B00080937D0080918A00887F826080938A0056
:1039C000D29AD19AD09ADA9AD99AD89A80E285BFB7
:1039D0000E945F1C8823E1F780B7886080BF8BE07E
:1039E00083BF86EE81BF87B7826087BF0E94C812FF
:1039F00012E006E06091AD027091AE02882799272F
:103A00002CE0660F771F881F991F2A95D1F720E0B9
:103A100031EE40E050E00E94C71F2150304029B9EC
:103A2000832F9927809390001BB9009395001AB8B3
:103A3000209399008093980010939B0000939D0021
:103A400010929A0084E490E09093A4028093A302E1
:103A50001092460110924801109276021092420193
:103A600010924301109227031092310310923003F9
:103A700010922E0310927B0110929F0210929E02D0
:103A800010923B01109298021092A70210923F01EF
:103A9000109276011092750110926C0110926B01D8
:103AA0000E945F1C8823E1F78F2D99278FBF7894A0
:103AB00081E00E94A1128FB7F894482F552748C083
:103AC00087B7992783709070892B19F4E5E0F0E0AF
:103AD00013C080B7992787709070892BD1F781B771
:103AE00092B7891B8C3030F082B7853F18F4E3E041
:103AF000F0E002C0E2E0F0E087B7887BC1F480919B
:103B00007D008B7FA1F46E9912C08AB190919A00CA
:103B1000892B807C61F48091740082FD08C0379B02
:103B200003C081E090E005C085E090E002C080E045
:103B300090E025B78E1708F4E82FFF27E457FD4FD4
:103B4000E491237E2062E22BE5BF78948895F89477
:103B50008091AC028F3F09F4B3CF282F3327F901AE
:103B6000EF5CFE4F80818093AC028F3F11F4809315
:103B70002F038FEF80832F3F09F4A2CF4FBF822FF7
:103B80000E94661898CF5058BB27AA270ED007C1AD
:103B9000F8D030F0FDD020F031F49F3F11F41EF446
:103BA000EDC00EF4E095E7FBE3C0E92F09D180F307
:103BB000BA17620773078407950718F071F49EF52A
:103BC00021C10EF4E0950B2EBA2FA02D0B01B901E7
:103BD00090010C01CA01A0011124FF27591B99F083
:103BE000593F50F4503E68F11A16F040A22F232F8F
:103BF000342F4427585FF3CF469537952795A795DF
:103C0000F0405395C9F77EF41F16BA0B620B730B85
:103C1000840BBAF09150A1F0FF0FBB1F661F771FF6
:103C2000881FC2F70EC0BA0F621F731F841F48F4AB
:103C3000879577956795B795F7959E3F08F0B3CF31
:103C40009395880F08F09927EE0F9795879508951B
:103C50006BD008F481E008950CD0A1C099D040F059
:103C600090D030F021F45F3F19F082C05111CBC0E9
:103C700085C0A6D098F39923C9F35523B1F3951BBA
:103C8000550BBB27AA2762177307840738F09F5F7D
:103C90005F4F220F331F441FAA1FA9F333D00E2EEC
:103CA0003AF0E0E830D091505040E695001CCAF759
:103CB00029D0FE2F27D0660F771F881FBB1F26171E
:103CC00037074807AB07B0E809F0BB0B802DBF01F1
:103CD000FF2793585F4F2AF09E3F510568F048C078
:103CE00092C05F3FECF3983EDCF38695779567953D
:103CF000B795F7959F5FC9F7880F911D96958795A2
:103D000097F90895E1E0660F771F881FBB1F6217C0
:103D100073078407BA0720F0621B730B840BBA0B7E
:103D2000EE1F88F7E0950895990F0008550FAA0B2C
:103D3000E0E8FEEF16161706E807F907C0F01216BE
:103D40001306E407F50798F0621B730B840B950BC1
:103D500039F40A2661F0232B242B252B21F4089516
:103D60000A2609F4A140A6958FEF811D811D0895B3
:103D700097F99F6780E870E060E008959FEF80EC1E
:103D8000089500240A9416161706180609060895C1
:103D900000240A9412161306140605060895092E27
:103DA0000394000C11F4882352F0BB0F40F4BF2B96
:103DB00011F460FF04C06F5F7F4F8F4F9F4F0895D6
:103DC00057FD9058440F551F59F05F3F71F04795CC
:103DD000880F97FB991F61F09F3F79F087950895B1
:103DE000121613061406551FF2CF4695F1DF08C0D0
:103DF000161617061806991FF1CF869571056105ED
:103E000008940895E894BB2766277727CB0197F994
:103E100008958ADF08F48FEF08950BD0C0CFB1DF8B
:103E200028F0B6DF18F0952309F0A2CFA7CF112410
:103E3000EACFC6DFA0F3959FD1F3950F50E0551F51
:103E4000629FF001729FBB27F00DB11D639FAA27EF
:103E5000F00DB11DAA1F649F6627B00DA11D661F3E
:103E6000829F2227B00DA11D621F739FB00DA11D5F
:103E7000621F839FA00D611D221F749F3327A00D19
:103E8000611D231F849F600D211D822F762F6A2FB5
:103E900011249F5750408AF0E1F088234AF0EE0F3A
:103EA000FF1FBB1F661F771F881F91505040A9F747
:103EB0009E3F510570F05CCFA6CF5F3FECF3983E7C
:103EC000DCF3869577956795B795F795E7959F5FAE
:103ED000C1F7FE2B880F911D9695879597F9089548
:103EE00011F40EF44BCF3EC073DFD0F39923D9F316
:103EF000CEF39F57550B87FF43D00024A0E640EA3E
:103F0000900180585695979528F4805C660F771F2E
:103F1000881F20F026173707480730F4621B730B01
:103F2000840B202931294A2BA69517940794202524
:103F300031254A2758F7660F771F881F20F026176C
:103F40003707480730F4620B730B840B200D311DCB
:103F5000411DA09581F7B901842F9158880F96953E
:103F6000879508959F3F31F0915020F4879577957C
:103F70006795B795880F911D9695879597F9089540
:103F800091505040660F771F881FD2F70895A1E225
:103F90001A2EAA1BBB1BFD010DC0AA1FBB1FEE1FC3
:103FA000FF1FA217B307E407F50720F0A21BB30B0E
:103FB000E40BF50B661F771F881F991F1A9469F78A
:103FC00060957095809590959B01AC01BD01CF01E6
:103FD0000895CF93DF93AC01029710F442E050E0D4
:103FE000A0913603B0913703FD01C0E0D0E020E09E
:103FF00030E020C0808191818417950769F4828127
:104000009381209719F09B838A8304C09093370390
:1040100080933603CF0132C04817590738F4211571
:10402000310519F08217930708F49C01EF01028013
:10403000F381E02D3097F1F62115310589F1C901A1
:10404000841B950B049708F4A901E0E0F0E026C07A
:104050008D919C91119782179307E9F4481759079E
:1040600079F4ED018A819B81309719F093838283E3
:1040700004C09093370380933603CD0102964CC061
:10408000841B950BFD01E80FF91F41935193029793
:104090008D939C933DC0FD01A281B3811097C1F621
:1040A0008091340390913503892B41F480910D0167
:1040B00090910E01909335038093340320910F016A
:1040C000309110012115310541F42DB73EB7809193
:1040D0000B0190910C01281B390BE0913403F091F6
:1040E0003503E217F307B0F42E1B3F0B24173507F7
:1040F00088F0CA0102962817390760F0CF01840FB3
:10410000951F029690933503809334034193519306
:10411000CF0102C080E090E0DF91CF910895CF936E
:10412000DF93009709F44EC0EC0122971B821A829C
:10413000A0913603B0913703109711F140E050E0A1
:1041400001C0DC01AC17BD0700F1BB83AA83FE01EF
:1041500021913191E20FF31FEA17FB0771F42E5FF3
:104160003F4F8D919C911197820F931F9983888364
:10417000FD01828193819B838A834115510559F406
:10418000D0933703C09336031DC0FD018281938114
:10419000AD010097B1F6FA01D383C2832191319129
:1041A000E20FF31FEC17FD0769F42E5F3F4F888184
:1041B0009981820F931FFA01918380838A819B8169
:1041C00093838283DF91CF910895DC0101C06D93C9
:0A41D00041505040E0F70895FFCF82
:1041DA0001030507FF8501FD018501200038030061
:0241EA000000D3
:00000001FF
