:100000000C9460010C9479060C9483060C948D0674
:100010000C9497060C94A1060C94AB060C94F80B68
:100020000C94B5060C947F010C947F010C94F91A82
:100030000C949A1C0C9443060C9459060C94670A71
:100040000C9432060C9458120C9462080C947F01A4
:100050000C94DE080C947F010C947F010C947F01BA
:100060000C944E060C94340A0C94130A0C941E0A39
:100070000C94290A0C94470A0C94F6090C947F01FD
:100080000C94080A0C947F010C947F01E61219135A
:10009000991313141914671482148914C2147A154D
:1000A0009E15B2155B1785175D1869186B186E18C9
:1000B0009F18D612E318DE121219000021104220F8
:1000C00063308440A550C660E770088129914AA139
:1000D0006BB18CC1ADD1CEE1EFF1311210027332B0
:1000E0005222B5529442F772D662399318837BB389
:1000F0005AA3BDD39CC3FFF3DEE362244334200440
:100100000114E664C774A44485546AA54BB52885D8
:100110000995EEE5CFF5ACC58DD55336722611168F
:100120003006D776F6669556B4465BB77AA7199728
:100130003887DFF7FEE79DD7BCC7C448E558866817
:10014000A7784008611802282338CCC9EDD98EE978
:10015000AFF9488969990AA92BB9F55AD44AB77AEF
:10016000966A711A500A333A122AFDDBDCCBBFFBC8
:100170009EEB799B588B3BBB1AABA66C877CE44CFF
:10018000C55C222C033C600C411CAEED8FFDECCD18
:10019000CDDD2AAD0BBD688D499D977EB66ED55ECF
:1001A000F44E133E322E511E700E9FFFBEEFDDDF68
:1001B000FCCF1BBF3AAF599F788F8891A981CAB1F4
:1001C000EBA10CD12DC14EF16FE18010A100C23026
:1001D000E3200450254046706760B9839893FBA3E1
:1001E000DAB33DC31CD37FE35EF3B1029012F32276
:1001F000D2323542145277625672EAB5CBA5A89531
:1002000089856EF54FE52CD50DC5E234C324A014C5
:1002100081046674476424540544DBA7FAB79987C0
:10022000B8975FE77EF71DC73CD7D326F236910615
:10023000B01657667676154634564CD96DC90EF908
:100240002FE9C899E9898AB9ABA944586548067865
:100250002768C018E1088238A3287DCB5CDB3FEB20
:100260001EFBF98BD89BBBAB9ABB754A545A376AB5
:10027000167AF10AD01AB32A923A2EFD0FED6CDDF0
:100280004DCDAABD8BADE89DC98D267C076C645C05
:10029000454CA23C832CE01CC10C1FEF3EFF5DCF00
:1002A0007CDF9BAFBABFD98FF89F176E367E554E55
:1002B000745E932EB23ED10EF01E00081C1814106E
:1002C00011241FBECFEFD0E1DEBFCDBF11E0A0E013
:1002D000B1E0E8EBFEE300E00BBF02C007900D9237
:1002E000A631B107D9F713E0A6E1B1E001C01D9234
:1002F000AA33B107E1F70E944E190C945B1F0C94CE
:1003000000008FB7F894992708958FBF0895282F7C
:100310009FB7F894E82FFF27ED59FE4F80818F3F5C
:1003200081F4E0913403E21771F40BC02093F002E2
:1003300004C0FF27ED59FE4F20832093340320E0B3
:1003400007C025E005C08091F0028F3F91F7EECF06
:10035000892F99278FBF822F992708951F931FB741
:10036000F89480913003882341F48DE00E94870146
:10037000882319F481E080933003812F99278FBF60
:100380001F910895382FFA01422F2D3118F082E085
:1003900090E008956683872F992785833387218787
:1003A0008091380190913901892B19F085E090E016
:1003B00008952FB7F894332785E080933B0110927E
:1003C0003C01F0933701E093360182E090E0909396
:1003D00039018093380110923E0110923D01445F33
:1003E00040933A012FBF9FB7F8948091AF018823C3
:1003F00011F020E006C081E08093AF011092B001BF
:1004000021E0892F99278FBF222329F00E94AE0176
:1004100080E090E00895109239011092380181E057
:1004200090E00895EF92FF921F93CF93DF93182FE0
:100430007B01E82FFF27EE0FFF1FE754FD4F1182CE
:10044000108210921401A091B902B091BA021097D3
:1004500021F08091970180FF11C081E08093140109
:1004600003C086E10E9487011123E1F486EFE816BC
:1004700082E0F806B9F41092170114C0FD01359618
:1004800024813327ED016D817727762F66278181BF
:100490009927682B792BAD0186810E94C2018823A0
:1004A00019F3DFCFDF91CF911F91FF90EF90089567
:1004B000282F9FB7F894662349F0E82FFF27E25BC7
:1004C000FD4F8081882311F021E006C0E22FFF2735
:1004D000E25BFD4F608320E0892F99278FBF822F39
:1004E00099270895E82F8FB7F894282F332790E0A5
:1004F000FF27E25BFD4F8081861709F491E02FBF53
:10050000892F99270895882311F06E9A08956E987F
:100510000895882311F06F9A08956F98089580E0E8
:100520000E948302BA9ABB98B99A6C9A80E00E94A2
:100530008902709A6B986A98689881E00E94830299
:1005400008950F931F93CF93DF93182F8FB7F894CD
:10055000C82FDD270C2F61E080E00E94580288231D
:1005600021F0CFBF85E090E024C080910501882371
:10057000A1F480912C01823081F409C082E0809343
:100580002C01109205010E948F02B89AC098109316
:10059000020180E00FBF99270CC080912C018823B5
:1005A00069F38FB7F894992710924E028FBF81E0BC
:1005B000F1CFDF91CF911F910F9108951F93182FC5
:1005C00081E00E9483021FB9779BFECF8FB19927EC
:1005D0001F9108958F929F92AF92BF92CF92DF9218
:1005E000EF92FF920F931F93CF93DF938FB7F894FF
:1005F0009927C0902C03D0902D03809043029090B7
:100600004402C091BE01D091BF01209147013091B9
:1006100048014AE0A42EB12CAC0EBD1E2A153B05A4
:1006200008F459018FBF7401EC0EFD1E86010C0FFA
:100630001D1F14C0C114D10419F0F801808101C03C
:1006400080E00E94DE028114910411F0F7018083A2
:1006500021960894E11CF11C0F5F1F4FC501019703
:10066000C817D90738F381E00E9489029FB7F89430
:10067000C114D10431F0CC0EDD1EF60180818FB99A
:1006800001C01FB8D093BF01C093BE01892F992725
:100690008FBF80E090E0DF91CF911F910F91FF908D
:1006A000EF90DF90CF90BF90AF909F908F90089584
:1006B0002FB7F89433275093480140934701909304
:1006C0002D0380932C037093440260934302109295
:1006D000BF011092BE012FBF452B29F08FB10E94A0
:1006E000EA029927089589E00E94870180E090E05E
:1006F00008958FB7F8949927109250028FBF0895EC
:100700008FB7F8946091C2017091C3012CB53DB5CB
:1007100006B602FE04C06F5F7F4F2CB53DB599272A
:100720008FBF88279927CB0177276627442755272E
:10073000622B732B842B952B0895EF92FF920F93CE
:100740001F930E9480037B018C0120919F013091B7
:10075000A0014091A1015091A20180919901909135
:100760009A01A0919B01B0919C01820F931FA41F3D
:10077000B51FE216F3060407150730F0821793073A
:10078000A407B50758F005C082179307A407B5075B
:10079000E0F5E816F9060A071B07B8F59C01AD015C
:1007A0002E193F09400B510B213060E8360760E0FD
:1007B000460760E0560768F180E090E8A0E0B0E00E
:1007C000E80EF91E0A1F1B1FE0929F01F092A00184
:1007D0000093A1011093A20180E090E8AFEFBFEF7A
:1007E000E80EF91E0A1F1B1F2050304840405040A1
:1007F0002093990130939A0140939B0150939C015F
:1008000020E030E840E050E014C020E030E040E07C
:1008100050E080939F019093A001A093A101B09319
:10082000A2011092990110929A0110929B011092CC
:100830009C01A901B7012CB53DB5C9018E199F09CD
:1008400003968417950720F0B9016D5F7F4F02C0B2
:10085000640F751F6115710511F461E070E061505E
:1008600070407BBD6ABD80E186BF87B7806187BF6E
:100870001F910F91FF90EF9008950F931F930FB763
:10088000F894112760939F017093A0018093A101B8
:100890009093A2012093990130939A0140939B0178
:1008A00050939C010E949D030FBF1F910F910895CB
:1008B0009FB7F894809146028A3011F020E006C07C
:1008C00020E080918601843009F421E0892F992766
:1008D0008FBF222349F08FE00E9487018FB7F894E1
:1008E00099271092330106C08FB7F894992721E019
:1008F000209333018FBF08952FB7F89433278CB915
:100900005E9A2FBF0895FC016115710519F481E00D
:1009100090E008958091A7019091A801892B19F08A
:1009200085E090E008957093930260939202F093B3
:10093000A801E093A701109288011092870181E03D
:10094000809389015E9A569A808121E030E030934D
:100950008801209387010E947C0480E090E0089544
:10096000809144018E7F809344018EE780937D01C6
:1009700061E070E08DE791E00E948304992708957B
:1009800080E880936001109285011092F402109229
:10099000EF02109281010895CF93DF93FC0115A619
:1009A000DC019E96ED011B821A82198280E886A7DF
:1009B000DF91CF9108952F923F924F925F926F9265
:1009C0007F928F929F92AF92BF92CF92DF92EF92DF
:1009D000FF920F931F93CF93DF93CDB7DEB7289786
:1009E0000FB6F894DEBF0FBECDBF209090013090BF
:1009F00091014090920150909301662477248824BD
:100A0000AEE4AA2EF3E8BF2ECC24DD24EE24FF248E
:100A100000E010E0222D332D442D552D662D772D2D
:100A2000882D90E00E94281D29833A834B835C83A4
:100A30006D837E838F839887822E932EA42EB52E6E
:100A40002401350100E20E94261EA22EB32EC42EE0
:100A5000D52EC301B20196958795779567956A0D56
:100A60007B1D8C1D9D1D97FF05C09F776F5F7F4F7E
:100A70008F4F9F4F609390017093910180939201EB
:100A80009093930128960FB6F894DEBF0FBECDBFAA
:100A9000DF91CF911F910F91FF90EF90DF90CF905A
:100AA000BF90AF909F908F907F906F905F904F908E
:100AB0003F902F90089597B79F7D97BF90E296BF84
:100AC000882319F08EB5806402C08EB58F7B8EBDF1
:100AD00087B7806287BF80E090E008957FB7F89481
:100AE00062B720914A0130914B0140914C015091E5
:100AF0004D0106B601FE0FC081B792B7280F311D18
:100B0000411D511D2F5F3F4F4F4F5F4F290F311D2B
:100B1000411D511D04C0260F311D411D511D872F40
:100B200099278FBFCA01B9010895DF92EF92FF9212
:100B30000F931F938FB7F894282F3327D22E91B796
:100B400082B746B7981711F041FF02C02FBF6AC0A5
:100B50008091B5018823E1F10E946E05E0904A0280
:100B6000F0904B0200914C0210914D0220915C01DB
:100B700030915D0140915E0150915F016E197F09D6
:100B8000800B910B621773078407950720F0109272
:100B9000B50171E01EC02E0D3F1D401F511F8091F9
:100BA0004A0190914B01A0914C01B0914D01281B3D
:100BB000390B4A0B5B0B273E31054105510540F4CB
:100BC000822F223010F070E005C070E082E002C099
:100BD00070E086EE682F615000B601FCFDCF82B751
:100BE000681709F46F5F20914A0130914B014091E1
:100BF0004C0150914D01DA01C9010196A11DB11DB1
:100C0000860F911DA11DB11D82179307A407B5077B
:100C100010F4622F609561BFDFBE772319F080E08A
:100C20000E9487011F910F91FF90EF90DF90089530
:100C3000AFB7F894BB27E1E0E093B50160934A02B7
:100C400070934B0280934C0290934D0220935C0171
:100C500030935D0140935E0150935F01AFBF0E94EE
:100C6000950508951F920F920FB60F9211248F933E
:100C700083B783BF00B600FCFDCF8F910F900FBEEE
:100C80000F901F90189578941F920F920FB60F92A5
:100C900011240F900FBE0F901F90189578941F92FB
:100CA0000F920FB60F9211240F900FBE0F901F904E
:100CB000189578941F920F920FB60F9211242F93CC
:100CC0003F938F939F932FB7F89433278091C2015E
:100CD0009091C30101969093C3018093C2012FBFED
:100CE0009F918F913F912F910F900FBE0F901F906A
:100CF00018951F920F920FB60F9211240F900FBEEE
:100D00000F901F9018951F920F920FB60F921124FB
:100D10000F900FBE0F901F9018951F920F920FB655
:100D20000F9211240F900FBE0F901F9018951F92D5
:100D30000F920FB60F9211240F900FBE0F901F90BD
:100D400018951F920F920FB60F9211240F900FBE9D
:100D50000F901F9018951F920F920FB60F921124AB
:100D60000F900FBE0F901F9018951F920F920FB605
:100D70000F9211240F900FBE0F901F901895EAEB61
:100D8000F0E06927660FF11DE60FF11DC895982F59
:100D9000802D3196C89590250895982F80913F0118
:100DA000882389F5992379F531E030933F018091CB
:100DB0000C018093400120913401822F8170809337
:100DC00061018091110190911201909342018093F1
:100DD0004101809135018093430132273170267E95
:100DE000E32FFF27EE0FFF1FE35FFE4F808191810E
:100DF0009093120180931101232B2093340182E1FF
:100E00000E94870108958091340180FF02C08B7F8A
:100E100001C08D7F8093340108950F931F93082F95
:100E2000162F809186018130D9F0813038F08230E0
:100E300009F44AC0833009F00EC159C0002309F4F7
:100E40003EC110928C0210928B02109248021092B6
:100E5000940210928A011092C5011092C4011FC120
:100E6000002309F02CC18091C4019091C5010E941A
:100E7000BF069093C5018093C40182E080938601F0
:100E800010939402143409F0E6C00BC18695869540
:100E900003C0809134018695817009F0DCC0809197
:100EA0003401992311F0846001C082608093340181
:100EB00080913401877E88608093340110923501DF
:100EC0008FEF80930C01FBC0002309F0C4C0609336
:100ED0008A018091C4019091C5010E94BF06909340
:100EE000C5018093C40183E080938601E8C08091AE
:100EF00048028F3F09F4AFC0002309F447C0823095
:100F000008F4A9C0E0918B02EE2309F4D1C04E2F62
:100F10004150E42FFF27E557FD4F82819927382F55
:100F20002227442311F4E2E002C0E42FE150FF271E
:100F3000E557FD4F82819927282B392B8091C401D9
:100F40009091C5012817390709F085C080E00E94FB
:100F5000CD0630918A018091B6012091B701982F7A
:100F60009F5F963008F090E0921709F474C0E82F64
:100F7000FF27EA54FE4F32838F5F8093B60186309D
:100F800010F01092B6010E94AE0165C0823008F4E4
:100F90004EC0E0918C02FF27E557FD4F8281482F1C
:100FA0005527342F20913401822F8695869586957A
:100FB000837099278130910519F00297F9F40EC0DA
:100FC000277E206120933401442311F485E001C081
:100FD00080E08093350130930C0110C08091350181
:100FE000843360F4E0911101F0911201E80FF11DDA
:100FF0004083809135018F5F8093350180918C0211
:10100000E82FFF27E557FD4F62818F5F80938C02A9
:10101000833010F010928C0277278091C401909158
:10102000C5010E94BF069093C5018093C4018091C1
:101030008B02E82FFF27E557FD4F12838F5F8093C8
:101040008B02833010F010928B02809148028F5FE8
:101050008093480234C010928C0210928B0210923E
:101060008601109248021092940210928A01109206
:10107000C5011092C401809144018D7F8093440189
:1010800081E00E94CD0680913301882331F084E015
:10109000809386010E94580412C0002381F081E0F1
:1010A00023CF80913401982F917080FDEFCEF1CE47
:1010B00080918F029927382F222742E036CF1F9147
:1010C0000F9108951F920F920FB60F9211242F9334
:1010D0003F934F935F936F937F938F939F93AF93C0
:1010E000BF93EF93FF935F9B3DC06CB1E091C6014E
:1010F000F091C7013097F9F080912E0390912F0362
:10110000E80FF91F6083019690932F0380932E03BD
:1011100020913803309139038217930718F1109208
:10112000C7011092C601809145028330D9F05798CB
:101130001092450217C06E3719F460E081E010C0CC
:10114000809144016D3721F48260809344010AC08C
:1011500081FF05C08D7F8093440180E2682780E095
:101160000E940D07FF91EF91BF91AF919F918F91D9
:101170007F916F915F914F913F912F910F900FBE93
:101180000F901F901895982F8D57823068F480919A
:10119000440181608093440180E289278093470263
:1011A0008DE780937D0102C090937D0161E070E046
:1011B0008DE791E00E9483049927089578941F9207
:1011C0000F920FB60F921124FF920F931F932F933C
:1011D0003F934F935F936F937F938F939F93AF93BF
:1011E000BF93CF93DF93EF93FF93209187013091CB
:1011F000880180919202909193022817390780F418
:10120000E091A701F091A801E20FF31F80812F5F09
:101210003F4F30938801209387010E947C04D0C007
:101220001092A8011092A7011092890156988091FE
:10123000440180FF0EC08E7F80934401809147025D
:1012400080937D0161E070E08DE791E00E9483046E
:10125000B7C080914602843009F494C0853040F4D0
:10126000823021F18330B8F5813009F0A4C00DC07F
:10127000863009F495C0863008F48BC0873009F4B5
:1012800096C0883009F097C099C080919E010E9455
:10129000C308182F83E08093460260919E018091DD
:1012A0003603909137030E94BF0610C08091F3026D
:1012B0000E94C308182F83E0809346026091F302D6
:1012C00080913603909137030E94BF0690933703B5
:1012D000809336036EC0FFB6F894E091C801FF27F3
:1012E000EE0FFF1FE255FE4F80810E94C308082FBA
:1012F0001091C801C12FDD27FE01EE0FFF1FE2553F
:10130000FE4F608180913603909137030E94BF06A3
:101310009093370380933603209198012F5F209399
:101320009801113039F580913B01E0913601F0913F
:101330003701E80FF11DE0818F5F80933B019091B1
:101340003A01981730F482E08093AF0140E050E01A
:1013500002C04E2F5527DE01AA0FBB1FFD01E3552A
:10136000FE4F8081823031F02F3F21F0A255BE4FD9
:101370004C9303C084E080934602102F8F2D992751
:101380008FBF17C0809136030E94C308182F85E0D5
:101390000BC0809137030E94C308182F86E004C059
:1013A0000E94B004182F87E08093460202C088E0B4
:1013B00003C0112329F089E0809346020E94AE0108
:1013C000FF91EF91DF91CF91BF91AF919F918F915D
:1013D0007F916F915F914F913F912F911F910F914D
:1013E000FF900F900FBE0F901F9018951F920F92B5
:1013F0000FB60F9211248F9380919B0087FF02C03C
:1014000080919C008F910F900FBE0F901F901895A8
:1014100078941F920F920FB60F9211240F900FBE67
:101420000F901F90189578941F920F920FB60F92FD
:1014300011240F900FBE0F901F90189578941F9253
:101440000F920FB60F9211240F900FBE0F901F90A6
:10145000189578941F920F920FB60F9211240F9047
:101460000FBE0F901F90189578941F920F920FB691
:101470000F9211248F939F938091880090918900FF
:101480009F918F910F900FBE0F901F901895789499
:101490001F920F920FB60F9211242F933F938F93A9
:1014A0009F932FB7F89433278091950190919601DF
:1014B000019690939601809395012FBF9F918F91F4
:1014C0003F912F910F900FBE0F901F9018951F9274
:1014D0000F920FB60F9211242F933F934F935F9368
:1014E0006F937F938F939F93AF93BF93EF93FF93EC
:1014F00083B783BF00B600FCFDCF81B79927019663
:10150000AA27BB2720914A0130914B0140914C0101
:1015100050914D01280F391F4A1F5B1F20934A012C
:1015200030934B0140934C0150934D0178940E94AD
:101530009505FF91EF91BF91AF919F918F917F9111
:101540006F915F914F913F912F910F900FBE0F9030
:101550001F9018950F931F93182F0FB7F89461E001
:1015600080E00E945802882371F510930201809157
:1015700005018823A9F580912C01823089F588E046
:101580000CC00E948F0280912C01882349F481E0D5
:1015900080932C01109282018AE00E9487012AC068
:1015A00080919D018F3F31F5E0910401EE2311F10F
:1015B0001CC01092030104C0FF27E356FE4F1082A7
:1015C0001092040117C081E090E002C0880F991FBB
:1015D0001A95E2F720912B01282B20932B010AC0AA
:1015E00080912C018823E1F6CCCF809103018F3FBD
:1015F00019F7DFCF802F99278FBF80E090E01F91F0
:101600000F9108951F9383E00E94A1029927182F3C
:10161000882319F083E00E94AA0A812F99271F913D
:101620000895CF92DF92EF92FF920F931F93CF9383
:10163000DF938C01F62E6A01E22E8FB7F894C82F43
:10164000DD2760E080E00E947202882321F0CFBF96
:1016500080E090E01EC0CFBF0F0D111D802F80686D
:101660000E94DE02F82E16950795802F807C0E943E
:10167000DE020E2D0AC0EE2DFF27E01BF109EC0D56
:10168000FD1D80810E94DE0201500023A1F78F2DF5
:101690009927DF91CF911F910F91FF90EF90DF90ED
:1016A000CF900895CF93DF93CDB7DEB724970FB6D1
:1016B000F894DEBF0FBECDBF8FB7F8949927209165
:1016C0008B0130918C012983232F33272A8320918A
:1016D000A3013091A4012B83232F33272C838FBFA9
:1016E00024E0AE014F5F5F4F60E088E691E00E942A
:1016F000110B24960FB6F894DEBF0FBECDBFDF915D
:10170000CF9108951F93CF93DF93182F8FB7F8943D
:10171000C82FDD2760E080E00E947202882321F05C
:10172000CFBF80E090E005C0CFBF812F0E94DE02D6
:101730009927DF91CF911F910895EF92FF920F9318
:101740001F93CF93DF93182F7B01042F8FB7F8944B
:10175000C82FDD2760E080E00E947202882321F01C
:10176000CFBF80E090E014C0CFBF1064812F9927D5
:101770009093AA018093A9010E94DE02182F402FA6
:101780005527B70180E090E00E945803812F9927E8
:10179000DF91CF911F910F91FF90EF900895C09826
:1017A000609145017091460141E08FE30E949D0BDD
:1017B000089582E090E090937B0180937A0181E02C
:1017C0008093850120E030E080910201843011F4A3
:1017D00021E030E0232B29F484E00E94A102882339
:1017E00019F40E94CF0B089584E00E94AA0A08957C
:1017F0001F920F920FB60F9211242F933F934F9386
:101800005F936F937F938F939F93AF93BF93EF9368
:10181000FF9380917A0190917B01019749F482E0D6
:1018200090E090937B0180937A010E94D90B05C0D0
:10183000809181018F5F80938101FF91EF91BF9132
:10184000AF919F918F917F916F915F914F913F9158
:101850002F910F900FBE0F901F9018951F9380919E
:101860002B01882309F04BC0109102011F3F09F0A2
:1018700046C060E00E947202882309F440C081E003
:1018800080938902809162018823E1F1109289029C
:1018900085E090E045C0923069F5C09A80910301DF
:1018A00020E030E08F3F11F421E030E0232BE9F419
:1018B000109305018F3F19F42FEF30E00DC0282F52
:1018C0003327F901E356FE4F8081809303018F3F58
:1018D00011F41093040110832093820181E080931E
:1018E0002C018AE00E94870105C010930501109227
:1018F0002C0111C080912C01882369F00FC081E078
:1019000090E00EC08091050190912C01882319F27E
:10191000923021F0EFCF80E00E94830280E090E0DF
:101920001F9108951F93CF93DF939FB7F894C92F0A
:10193000DD271C2F90910201981721F0CFBF81E085
:1019400090E03AC08FEF8093020130912B01332356
:10195000F1F48FB7F894992710924E028FBF0E942E
:101960002E0CCFBF11C02093020181E090E002C095
:10197000880F991F4A95E2F78095382330932B0101
:1019800088E00E9487011FBF80E090E015C080E0E2
:1019900065E0E32FFF270E94A91E292F492F552715
:1019A000CF01042E02C0959587950A94E2F780FD39
:1019B000DACF822F8F5FEFCFDF91CF911F91089504
:1019C0001F93CF93DF938FB7F894C82FDD271C2F79
:1019D00080917A0190917B01892B29F484E00E9407
:1019E000920CCFBF1EC01092850180918101882387
:1019F00011F0B79904C00E9908C0882319F08150DE
:101A0000809381010E94D90B0BC081E090E09093FC
:101A10007B0180937A011092810184E00E94920CF4
:101A20001FBFDF91CF911F9108950E94C004C09AFB
:101A3000C09888E00E94820B88E00E94820BC09AC6
:101A400084E00E94920C0E94E00C0895FF920F9394
:101A50001F93CF93DF93F82E8B018FB7F894C82F85
:101A6000DD2760E080E00E947202882321F0CFBF72
:101A700080E090E00CC0CFBF8F2D0E94DE02812F4E
:101A800099270E94DE02802F0E94DE029927DF91B3
:101A9000CF911F910F91FF9008951F931FB7F89456
:101AA00080918001882319F460E070E009C060E053
:101AB00080912B03882309F461E081E06827772770
:101AC00080918D01882319F480E090E00AC090E0B5
:101AD00080915302882309F491E081E09827892FAF
:101AE0009927762F6627770F770F770FA4E0880F57
:101AF000991FAA95E1F7826E9262682B792B81E19A
:101B00000E94260D812F99278FBF1F9108958FB7AF
:101B1000F8949927609188028FBF85E0689FB00193
:101B20001124625D7E4F706488E10E94260D089545
:101B3000EF92FF921F93CF93DF93E0908E01F0908E
:101B40008F01F70182A59927182F882309F41FE137
:101B5000C09880917F01811749F0612F77276F71BD
:101B60007070606E706885E10E94260D10937F0191
:101B7000F70110818FB7F894C82FDD2760E080E06F
:101B80000E947202882311F0CFBF12C0CFBF8EE334
:101B900090E09093AA018093A9018EE30E94DE0257
:101BA0001150412F552760E070E0C7010E94580393
:101BB000DF91CF911F91FF90EF900895FF920F93C7
:101BC0001F93CF93DF93EC01F62E61E082E00E9439
:101BD0005802882319F085E090E069C080918A025C
:101BE0008F5F80938A0281508B838FB7F894082F80
:101BF000112762E081E00E947202882329F40FBF5E
:101C00000E94790381E052C08FB7F894992724E0AD
:101C100020934F028FBFD093B401C093B3010FBF85
:101C20008DE0F80EFE01F192898199278072907003
:101C30008983118289819927816498688983892F92
:101C4000992781831CA618A619A619AA18AA1FA647
:101C500080E88EA761E0609352024091B3015091F9
:101C6000B4018FB7F894282F332780912D019091DC
:101C70002E018830910511F0019711F02FBF15C08A
:101C800082E090E090932E0180932D0160933503C4
:101C900050938F0140938E01109249012FBF0E94F3
:101CA000020B882311F40E94980D80E09927DF91A0
:101CB000CF911F910F91FF900895FA01422F2D317E
:101CC00018F082E090E0089583876683872F992734
:101CD00087832FB7F894332780918B0190918C01E3
:101CE0002FBF8483892F992785832FB7F8943327B3
:101CF00080910601909107012FBF8087892F992736
:101D0000818780910901882369F0109209018FE38E
:101D10008287642FCF010E94DE0D9927282F882308
:101D2000A9F417C0842F99279093B2018093B10131
:101D3000F0933201E09331018CE00E9487018091A1
:101D40000901882349F489E090E008958FEF80939A
:101D50000901822F992708951092940180E090E064
:101D60000895AF92BF92CF92DF92EF92FF920F93BE
:101D70001F935B016C016091D10161FF1FC0209135
:101D8000C9013091CA014091CB015091CC01E09042
:101D9000CD01F090CE010091CF011091D001D6017C
:101DA000C501821B930BA40BB50B8E159F05A007D5
:101DB000B10720F0E9ECF1E090E021C0E2EDF1E0C4
:101DC0006091DA0161FFA1C02091D2013091D3016D
:101DD0004091D4015091D501E090D601F090D70107
:101DE0000091D8011091D901A21AB30AC40AD50AE8
:101DF000AE14BF04C006D10608F487C091E060FFAE
:101E000004C080858D7F808708C02E0D3F1D401F38
:101E1000511F2083318342835383992309F075C076
:101E200080911601882309F070C080910001909183
:101E3000010180936102892F99278093600290911C
:101E4000260104C09F5F953009F490E0292F3327C5
:101E5000F901E85EFE4F80818130A1F39093260165
:101E600020936302E0E6F2E0128244E552E08FEF55
:101E700080935A0280935B0286E080935F02809198
:101E8000C0019091C101892B09F03FC05093C1015D
:101E90004093C00181E18093540280911301882313
:101EA000A9F01092130124E06FEF7FEF86E00E940B
:101EB0005D0E9927282F882349F081E08093130134
:101EC0001092C1011092C0012223F9F481E08093A5
:101ED000160180911E0190911F01A0912001B091E7
:101EE00021010196A11DB11D80931E0190931F0138
:101EF000A0932001B0932101809126018F5F8093F0
:101F00002601853011F41092260181E00E9487019C
:101F10001F910F91FF90EF90DF90CF90BF90AF9007
:101F200008951F93CF93DF93182FEB01E82FFF271E
:101F3000EE0FFF1FE054FE4F11821082109213012A
:101F4000E091C001F091C101309721F08091F5023C
:101F500080FF0FC081E08093130103C084E10E94E1
:101F600087011123C1F4C455D240A9F4109216017F
:101F700012C020812D50332767817727762F66275F
:101F800086819927682B792BAF0183850E945D0E8E
:101F9000882339F3E3CFDF91CF911F9108959B01FF
:101FA00080911301882349F46091C0017091C101AF
:101FB0006217730711F40E94910F08951F93182F51
:101FC00081E090E090932E0180932D0110926201A8
:101FD0000E942E0C8FB7F8949927109327018FBF7A
:101FE00084E00E9487011F91089561E081E00E94D2
:101FF00058028823E9F48FB7F894282F332780916B
:10200000280190912901892B11F02FBF20C081E078
:1020100090E090932901809328012FBFDD9A0E94C0
:10202000800324E130E040E050E00E943D040FC016
:1020300062E081E00E947202882319F089E090E05A
:10204000089561E081E00E947202882319F080E027
:1020500090E0089585E090E00895CF92DF92EF92AE
:10206000FF920F931F93CFB6F894DD240E94DB04F8
:10207000DC01CB0166E470E00E94B51E1BE0E12E9E
:10208000F12CE80EF91EF0923203E09231030E9427
:10209000800300271127A80197010E943D04CFBEAD
:1020A0001F910F91FF90EF90DF90CF9008951F93B5
:1020B000CF93DF938FB7F894C82FDD271C2F809123
:1020C0002D0190912E010897C9F489E00E94820B9E
:1020D00083E00E94920CC09A81E090E090932E01E0
:1020E00080932D018FB7F894992723E0209327013F
:1020F0008FBF84E00E948701CFBF30C0C09880911D
:102100003503882311F085E001C084E00E94820B32
:1021100083FD09C080E00E94820B83FF04C085E03C
:1021200090E020E003C083E090E021E090932E0156
:1021300080932D01C09A1FBF222341F010924901C4
:1021400083E00E94920C0E942D1008C00E94800320
:1021500020E431E040E050E00E943D04DF91CF9167
:102160001F910895EF92FF920F931F93CF93DF93E8
:102170008B018091A9019091AA0186FF40C18F7BBC
:102180008F3309F08EC1C0914501D091460158812D
:1021900050937C0180917A0190917B01853091056B
:1021A00009F443C08630910509F48AC0029709F00A
:1021B0001FC185E090E090937B0180937A0140916C
:1021C0006001852F99270196242F33272817390777
:1021D0004CF1B79906C00E9904C0451B415040937D
:1021E000600140917C014A32E8F44423A1F0BE0131
:1021F0006F5F7F4F483018F047E050E007C086E03F
:1022000090E090937B0180937A01552780E090E0E5
:102210000E94580346C110928501C09A84E00E9432
:10222000920CE3C00E94150D3CC186E090E09093B3
:102230007B0180937A0180918D01882309F439C054
:10224000809153028823A9F5898185FF32C08F814F
:102250004E812FB7F89433276091A3017091A401A8
:102260002FBF9927982F88275527842B952B8617C2
:10227000970759F08F812E819927982F8827332728
:10228000822B932B8F5F9F4FA1F4898187708130C0
:1022900081F4C09AC0988AE00E94820BC09AC098CC
:1022A00040917C0147502896BE018FE30E949D0B10
:1022B000F8C040917C01475055272896BE01A6CF13
:1022C000C09A80918101882339F484E00E94920CA5
:1022D00080918101882311F0B7990AC00E9B08C034
:1022E0009091EF02992321F080917C018B3038F49A
:1022F00080914501909146010E94CC043DC09130EF
:1023000001F5E091F402FF27EE0FFF1FEE0FFF1F14
:10231000E756FD4F2081318142815381E091450193
:10232000F091460121ABBB27A52F942F832F80ABC3
:10233000CA01AA27BB2787A7252F3327442755275C
:1023400026A78091F4029927019668E070E00E9428
:10235000C91E8093F4028091EF0281508093EF02B6
:10236000882351F080914501909146010E94CC0450
:102370001092F4021092EF0280917C01FE01E80FAE
:10238000F11D808187FF31C0012B79F16981677070
:10239000E0914501F0914601623019F5A0918E015E
:1023A000B0918F01109709F180912D0190912E012C
:1023B0000797D9F4ED019B8183819817B1F487B712
:1023C0008F7E87BF908181E08CA7E90FF11D8291FC
:1023D000319688A780818F7789A780E00E94DE0FE1
:1023E00004C0613011F48BE02AC00E94E00C59C097
:1023F00010928501C09A84E00E94920C52C08E33E4
:1024000009F04FC0C09A80912D0190912E0108973C
:10241000C9F4C09889E00E94820BC09A83E00E94B0
:10242000920C81E090E090932E0180932D018FB764
:10243000F894992723E0209327018FBF84E00E941E
:1024400087012FC080913503882349F484E090E010
:1024500090932E0180932D010E94571022C083E09B
:102460000E94920C83E090E090932E0180932D01C6
:102470000E94DB04DC01CB0166E371E00E94B51E23
:102480000BE0E02EF12CE80EF91EF0925B01E092D9
:102490005A010E94800300271127A80197010E947A
:1024A0003D04DF91CF911F910F91FF90EF90089520
:1024B0001F920F920FB60F9211242F933F934F93B9
:1024C0005F936F937F938F939F93AF93BF93EF939C
:1024D000FF932FB1E0914302F0914402309739F01D
:1024E0008091BE019091BF01E80FF91F2083809178
:1024F000BE019091BF0101969093BF018093BE01F0
:1025000080E00E94890240914701509148018091EA
:10251000BE019091BF018417950718F40E94EA024A
:102520001CC0609143027091440280912C039091F1
:102530002D03109244021092430210922D03109228
:102540002C0310924801109247011092BF01109283
:10255000BE012FB120E00E94B210FF91EF91BF9118
:10256000AF919F918F917F916F915F914F913F912B
:102570002F910F900FBE0F901F901895AF92BF92A2
:10258000CF92DF92EF92FF920F931F93CF93DF933F
:10259000E82FFF27E731F10508F058C6EA5BFF4F47
:1025A000EE0FFF1F0590F491E02D09948091F50244
:1025B000882309F44BC640E051E0E2C580919701C1
:1025C000882309F443C640E051E00BC680917E01A8
:1025D000882361F5209195023091960240919702EF
:1025E00050919802EFB7F894FF2760914A027091DA
:1025F0004B0280914C0290914D02E0905C01F09072
:102600005D0100915E0110915F016E0D7F1D801FC5
:10261000911FEFBF2093950230939602409397024B
:102620005093980210927E010E9418060E946E0537
:102630006DC00E946E055B016C018FB7F8949927FD
:102640001092B5018FBF8091D10181FF25C080918B
:10265000C9019091CA01A091CB01B091CC01A60112
:102660009501281B390B4A0B5B0BE090CD01F090D4
:10267000CE010091CF011091D001E21AF30A040BB0
:10268000150B3FEFE3163FEFF3063FEF03073FE77E
:10269000130711F061E009C06FEFE62E6FEFF62E21
:1026A0006FEF062F6FE7162F60E08091DA0181FF50
:1026B00021C08091D2019091D301A091D401B09119
:1026C000D501A6019501281B390B4A0B5B0BDA01DA
:1026D000C9012091D6013091D7014091D801509184
:1026E000D901281B390B4A0B5B0B2E153F05400700
:1026F00051072CF0662309F4A9C5A8019701121609
:102700001306140615062CF0C601B5010E94B10E81
:102710009DC5209395023093960240939702509363
:10272000980281E080937E01C601B5010E941806DF
:102730008DC50FB7F894112781E00E945B0551E029
:10274000E52EF12CF0922E01E0922D0110922F0136
:102750001092620110927F010FBF0FB7F8941127FA
:102760000E94C004F0927B01E0927A0110928501F0
:1027700089B78F7B89BF80E488BF8AB780628ABFB0
:102780008AB78F7E8ABF89B7806489BF0FBF8FB732
:10279000F894C82FDD278091280190912901049792
:1027A00019F483E00E94820BCFBF0FB7F894112772
:1027B000C09A80E00E94920C0FBF8FB7F8949927BF
:1027C00022E020934F028FBF0E946E056093C901E3
:1027D0007093CA018093CB019093CC0184E690E082
:1027E000A0E0B0E08093CD019093CE01A093CF0103
:1027F000B093D0018091D1018E7F82608093D1010E
:1028000081E00E94870110921D01E0E080E0FF2737
:10281000E85EFE4F10828F5FE82F8530C0F385E0C1
:1028200080931D0113C58FB7F894992710924F021A
:102830006EC08FB7F8949927F09027018FBF63E09F
:1028400081E00E947202882359F10FB7F894112792
:1028500010922E0110922D0187B78F7E87BF87B708
:102860008F7D87BF83E00E94920CC09A0FBF0FB785
:10287000F894112710927B0110927A010E94C004F3
:10288000C09A89B78F7B89BF0FBF10922901109220
:102890002801DE98DD98DE9A83E00E94870107C058
:1028A0008FB7F894992722E020934F028FBFC091F1
:1028B000B301D091B4010E9479038A858F3309F066
:1028C000C5C48FEF809309014F2DBE0116C38FB78A
:1028D000F894282F3327122F80913303882309F58A
:1028E00081E080933303809128019091290104971E
:1028F00021F481E00E94AA0A03C086E00E948701B9
:102900001FBFA4C48FB7F8949927109233038FBFC9
:102910009DC48FB7F894282F332780912A018823EC
:1029200011F02FBF93C42FBF80B3992746E096952F
:1029300087954A95E1F7182F11709091A501809124
:10294000A6018917D9F01917C9F484E090E0909393
:102950002901809328018FB7F894992721E02093CB
:102960002A018FBF60E070E08DE10E94260D0E9479
:10297000520BC09AC09882E00E9487011093A60172
:1029800087E068C08FB7F8949927109102018FBF34
:10299000123009F462C0133030F4112359F01130B1
:1029A00009F054C443C0133009F471C0143009F065
:1029B0004DC49DC0C0988FB7F894C82FDD27809173
:1029C000280190912901029779F583E090E0909396
:1029D00029018093280168E170E08DE10E94260DB5
:1029E00081E08093A50110922A0180B3992736E0F7
:1029F000969587953A95E1F7817090708093A6013E
:102A000087E00E94870181E00E94820B6FE772E0FD
:102A10008CE10E94260D0E94870D0E944D0D66E5F7
:102A20007AE287E10E94260DCFBF10C4C09886E0ED
:102A30000E94820B0E94870D0E944D0D0E94520B36
:102A4000C09AC09883E00E94820BC09A81E00E94E5
:102A5000920C86E00E948701F9C3C0988FB7F89462
:102A6000C82FDD2760E080E00E947202882311F009
:102A7000CFBF0AC0CFBF83E50E94DE0280E00E9484
:102A8000DE0280E00E94DE02C09A82E02DC08FB795
:102A9000F894992720912D018FBF243039F02830E8
:102AA00041F0223001F50E94980DD0C30E945710CA
:102AB000CDC3C09889E00E94820BC09A83E00E9437
:102AC000920C8FB7F894992721E030E030932E01D3
:102AD00020932D018FBF8FB7F8949927109327016A
:102AE0008FBF84E0B7CF83E00E94920CAFC30E94F7
:102AF000CF0BACC30FB7F894112740914701509109
:102B00004801609143027091440280912C0390919E
:102B10002D03109244021092430210922D03109242
:102B20002C0310924801109247011092BF0110929D
:102B3000BE0120E00E94B2100FBF88C32FB7F894E7
:102B40003327809182018093050182E080932C01DC
:102B50002FBF80910501882309F078C3B89AC098E7
:102B600088E078CFA0914501B09146011C91FD010C
:102B7000E10FF11D8081881F8827881FED018BA739
:102B800080818F7789A73197808188A7E09145015F
:102B9000F09146018FB7F8949927209180018FBF5B
:102BA0002223F9F0878146812FB7F894332760916B
:102BB000A3017091A4012FBF9927982F882755272B
:102BC000842B952B8617970761F08781268199279B
:102BD000982F88273327822B932B8F5F9F4F09F0E5
:102BE00061C11D3008F45EC1C0914501D09146011C
:102BF000898528859927582F44273327422B532B23
:102C00006B818FEF80932A038FB7F894782F20E0A1
:102C100030E0EEE4F1E0808191818417950731F492
:102C20008281861709F404C120932A032F5F3F4F46
:102C300033962430310579F77FBF90912A033FB74F
:102C4000F8949F3F21F080913001891799F42091E9
:102C50003001822F9927FC01EE0FFF1FE80FF91FAB
:102C6000E25BFE4F5183408362832F5F237020938A
:102C700030010CC0892F9927FC01EE0FFF1FE80FD0
:102C8000F91FE25BFE4F518340836283832F9927B4
:102C90008FBF8BA5882309F401C18A858F3309F082
:102CA000FDC08F814E812FB7F894332760910601C4
:102CB000709107012FBF9927982F88275527842BBC
:102CC000952B8617970761F08F812E819927982F72
:102CD00088273327822B932B8F5F9F4F09F0DEC00D
:102CE0008B85863009F0DAC08D85E82FFF27E85EF6
:102CF000FE4F8081813011F081E0808340E0E8E187
:102D0000F1E08081813009F44F5F319621E0ED31AF
:102D1000F207B9F7453009F0C1C0809122019091C6
:102D20002301A0912401B09125010196A11DB11D9F
:102D30008093220190932301A0932401B093250155
:102D40002FB7F89433278BB394E089278BBB2FBF21
:102D5000109218011092190110921A0110921B0181
:102D600010921C0180911701882309F097C02FB79A
:102D7000F89433278BB392E089278BBB2FBF409306
:102D800002038091220190912301A0912401B0912E
:102D9000250180930603292F3A2F4B2F5527209387
:102DA00005039D0144275527209304038B2F992762
:102DB000AA27BB278093030380911E0190911F01D6
:102DC000A0912001B091210180930A03292F3A2F6D
:102DD0004B2F5527209309039D0144275527209306
:102DE00008038B2F9927AA27BB278093070346EF59
:102DF00052E08FEF8093FC028093FB0287E0809388
:102E000001038091B9029091BA02892B19F085E0F3
:102E100090E025C05093BA024093B90289E08093B4
:102E2000FF0280911401882329F480E090E017C00C
:102E30007FBF34C01092140129E06FEF7FEF87E06D
:102E40000E94C2019927282F882339F081E08093BE
:102E500014011092BA021092B902822F9927182FEA
:102E600029E046EF52E06FEF7FEF87E00E94C2015A
:102E70001817A1F4112391F48FB7F89499272BB365
:102E800031E023272BBB8FBF3093170110921E0117
:102E900010921F011092200110922101D09346013F
:102EA000C09345018FB7F8949927109285018FBF81
:102EB0000E94E00CCBC19091940180910901981778
:102EC00009F4C4C1909309019923D9F4C091310147
:102ED000D09132016091B1018FE38A87CE010E94C7
:102EE000DE0D482F5527442309F4B0C18FEF80939E
:102EF000090160913101709132018B850E94CF0FE1
:102F0000A5C18FEF80930901A1C18FB7F8941092EA
:102F100030032091460240E0283009F441E030E0DF
:102F2000293009F431E0442311F4332351F0109295
:102F30004602E091C801FF27EE0FFF1FE355FE4F49
:102F4000108299278FBF442311F4332319F1809104
:102F5000F3028F5F8093F30280919E018334A1F48A
:102F60009FB7F8942091B7018091B601821741F084
:102F7000822F8F5F8093B701863010F01092B701D7
:102F8000892F99278FBF0AC0A0E0442309F4A1E04C
:102F900071E006C0222311F010E069C0A0E070E0EB
:102FA0008FB7F8949927209133018FBF222341F0E6
:102FB0008FB7F89499272AE0209346028FBF43C029
:102FC0008FB7F89499276091AD014091AF018FBF01
:102FD0008FB7F894282F332750E09091B601809155
:102FE000B701981709F451E02FBF552349F566231F
:102FF00039F55FB7F89482E08093AD018FB7F8940C
:10300000282F332740E09091B6018091B70198179F
:1030100009F441E02FBF442311F080E006C0E091A5
:10302000B701FF27EA54FE4F82818093AE01852FBE
:1030300099278FBF83E480939E011092C8010BC033
:103040004150423010F010E007C085E480939E01AB
:1030500081E08093C80111E0772349F08FB7F8949D
:103060009927A0933C018FBF81E10E948701809145
:1030700046028A3019F40E945804E8C0112309F46A
:10308000E5C02FB7F8943327109237031092360318
:103090001092980181E0809346022FBF0E94B004F5
:1030A000882309F4D3C08FB7F894992729E0209397
:1030B00046028FBF0E94AE01C9C056985798109221
:1030C000450210928901539A549A579A0E94F50F1B
:1030D000BDC080E1BFCC53985498B8C0109239015C
:1030E000109238018FB7F894992740913C018FBF17
:1030F00080913D01811143E0C0913601D0913701AB
:1031000080913E01882309F0A1C01B8580911401A4
:10311000882359F48091B9029091BA028C179D07C7
:1031200021F4BE0180E00E941202173009F08EC027
:10313000C65FD24009F08AC01092170187C08FB7CE
:10314000F894992720914101309142014091610109
:103150008FBF8FB7F894E42FFF27EE0FFF1FE35FB9
:10316000FE4F3183208320913401442311F02B7FC3
:1031700001C02D7F2093340110923F019927C7CBC6
:103180009091F502852F8923C1F0E42FFF27EE0FE0
:10319000FF1FE054FE4F2081318111821082852F64
:1031A000809598239093F502442339F424553240B6
:1031B00009F046C01092160143C04F5F483008F036
:1031C00045C0550FDDCF80911301E82FFF27EE0F8B
:1031D000FF1FE054FE4F6081718141E00E94910F1A
:1031E00035C090919701852F8923B9F0E42FFF27EF
:1031F000EE0FFF1FE754FD4F2081318111821082B5
:10320000852F8095982390939701442331F4265F6E
:103210003240C9F41092170116C04F5F4830B0F425
:10322000550FDFCF80911401E82FFF27EE0FFF1F0E
:10323000E754FD4F6081718141E00E94120206C097
:10324000550F41E09DCF550F41E0CBCFDF91CF919E
:103250001F910F91FF90EF90DF90CF90BF90AF90B4
:1032600008958091F0028F3FB1F0282F3327F901A4
:10327000ED59FE4F80818093F0028F3F11F48093CF
:1032800034038FEF80832F3F31F0822F0E94BE12D4
:1032900081E090E0089580E090E00895FF920F9320
:1032A0001F93FFB6F89447E150E06FEF70E083E6BC
:1032B00091E00E94541F8FEF8093F00280933403BB
:1032C00081E08EBD88E080BF83E083BF8CB59DB573
:1032D0004AE72CB53DB52817390708F44150442377
:1032E00011F0C901F6CF92B782B78917E9F32CB56F
:1032F0003DB592B782B78917E9F38CB59DB5821BAE
:10330000930B4096F5E096958795FA95E1F79093A3
:10331000F2028093F10213BE83B78EBD8EB580BFDB
:1033200012BE1DBC1CBC8FEF86BF86B780937C008D
:1033300080B7992787709070892BD1F7D29AD19A4C
:10334000D09ADA9AD99AD89A15BA8FEF84BBD498C2
:10335000DC98109289001092880080917D00846032
:1033600080937D0080918A00887F826080938A00AC
:103370001DBC1CBC87B7846087BF8EB5887F846006
:103380008EBD80E285BF0E9431198823E1F712E0EB
:1033900006E06091F1027091F20288279927ECE033
:1033A000660F771F881F991FEA95D1F720E031EE4D
:1033B00040E050E00E94DC1E2150304029B9832FAC
:1033C0009927809390001BB9009395001AB8209319
:1033D00099008093980010939B0000939D00109299
:1033E0009A0084E490E0909391028093900210926E
:1033F000AD011092AF011092460210929801109206
:103400009E011092F302109237031092360310922D
:1034100030031092C80110928C0210928B0210920D
:103420008601109248021092940210928A01109222
:10343000C5011092C4011092B7011092B6018FEF2E
:1034400080938301EEE4F1E08FEF9FEF918380831F
:103450001282339621E0EA35F207C1F70E94DB04BD
:1034600060938A0280910001909101010196AA2740
:10347000BB278093900190939101A0939201B09308
:1034800093018BEB92E090934601809345018E98D7
:10349000B89A8C988FEF80939D0110924E021092F3
:1034A0004F021092500210925102B89AD69AD59AB1
:1034B0008FB7F894992720910601309107018FBFAB
:1034C0003093A4012093A301809108019927909340
:1034D0008C0180938B018FE1809349028AE1809374
:1034E000880281E08093800110922B0380938D01EC
:1034F0001092530280B7886080BF8BE083BF86EE56
:1035000081BF87B7826087BF0E9495050E943119ED
:103510008823E1F78F2D99278FBF78948EE00E9442
:1035200087018FB7F894482F552748C087B7992748
:1035300083709070892B19F4E5E0F0E013C080B738
:10354000992787709070892BD1F781B792B7891B23
:103550008C3030F082B7853F18F4E3E0F0E002C031
:10356000E2E0F0E087B7887BC1F480917D008B7F3B
:10357000A1F46E9912C08AB190919A00892B807C37
:1035800061F48091740082FD08C0379B03C081E024
:1035900090E005C085E090E002C080E090E025B7B3
:1035A0008E1708F4E82FFF27E654FD4FE491237EA1
:1035B0002062E22BE5BF78948895F8948091F00220
:1035C0008F3F09F4B3CF282F3327F901ED59FE4F70
:1035D00080818093F0028F3F11F4809334038FEF4A
:1035E00080832F3F09F4A2CF4FBF822F0E94BE12CB
:1035F00098CF78941F920F920FB60F9211242F92AA
:103600003F924F925F926F927F928F929F92AF9272
:10361000BF92CF92DF92EF92FF920F931F932F935F
:103620003F934F935F936F937F938F939F93AF934A
:10363000BF93CF93DF93EF93FF93CCB5DDB580E2DB
:1036400086BF8FB7F894282E0E9480039E01261B08
:10365000370B2901662457FC6094762C460E571EC2
:10366000681E791E80912D0190912E018530910563
:1036700021F0069709F0E0C0BFC086E090E090938B
:103680002E0180932D0131E0332E3092840110926F
:103690002F0180E00E945B05E0918E01F0918F0187
:1036A00041AABB27A72D962D852D80ABC301AA2744
:1036B000BB2787A7872D9927AA27BB2786A7E09135
:1036C0008E01F0918F0185A5882309F484C0608163
:1036D000655077274F01860E971EF4012081E18007
:1036E0008281A3809927AA27BB27BA2FA92F982FB9
:1036F0008827332744275527522F4427332722274B
:10370000FF24002711278701FF24EE242E293F29BB
:10371000402B512BBB24CC24DD242A293B294C29C6
:103720005D29822B932BA42BB52B84199509A6090F
:10373000B7098383292F3A2F4B2F552722839D01C9
:103740004427552721838B2F9927AA27BB278083BE
:10375000C09824E0A40180E090E00E94110BC09A80
:10376000F4012081E1808281A3809927AA27BB27C9
:10377000BA2FA92F982F8827332744275527522F50
:10378000442733272227FF24002711278701FF24FE
:10379000EE242E293F29402B512BBB24CC24DD24A1
:1037A0002A293B294C295D29822B932BA42BB52B4D
:1037B000840D951DA61DB71D8383292F3A2F4B2FEE
:1037C000552722839D014427552721838B2F992735
:1037D000AA27BB278083E0918E01F0918F01818120
:1037E00085FF02C03092620183E00E94920C87B78D
:1037F0008F7E87BF84997AC01092840181E00E94F5
:103800005B05E0918E01F0918F01818185FF0FC0F2
:1038100087E090E090932E0180932D010E94800319
:1038200020E031E040E050E00E943D0403C080E031
:103830000E94DE0F849B5AC080912F01882391F54E
:1038400080918401882371F511E0109384010E9416
:103850005B0580B32091EF02283098F4E091F402E8
:10386000E20FFF27E770F070EE0FFF1FEE0FFF1F54
:10387000E756FD4F40825182628273822F5F209310
:10388000EF0210932F01D093AC01C093AB01849948
:103890002DC09927A4E096958795AA95E1F7182F52
:1038A000117001C010E0809184018130F9F4109210
:1038B00084010E945B0510922F011123B9F48091BD
:1038C000AB019091AC01C81BD90B2A9778F4809179
:1038D000EF02882319F081508093EF0280918E01CE
:1038E00090918F01009711F00E94CC042FBEFF91A0
:1038F000EF91DF91CF91BF91AF919F918F917F9188
:103900006F915F914F913F912F911F910F91FF9078
:10391000EF90DF90CF90BF90AF909F908F907F906F
:103920006F905F904F903F902F900F900FBE0F9031
:103930001F90189578941F920F920FB60F92112432
:103940001F932F933F934F935F936F937F938F9327
:103950009F93AF93BF93EF93FF9387B78F7E87BFFC
:1039600078941FB7F8948091990190919A01A09151
:103970009B01B0919C010097A105B10509F051C0D0
:1039800080912D0190912E018530910561F1863055
:10399000910530F48330910549F0049781F51AC000
:1039A00087309105F1F0089751F514C0869B0FC040
:1039B00084E090E090932E0180932D010E9480037B
:1039C00027E030E040E050E00E943D0418C00E9433
:1039D0002D1015C00E94020B882389F40E945710F5
:1039E0000EC080E00AC089E00E94820B81E00E9444
:1039F0005B0583E00E94920C87E00E94DE0F8091BD
:103A0000280190912901019771F482E090E0909350
:103A1000290180932801DE98DE9A80E00E94AA0A9C
:103A200002C00E949D03812F99278FBFFF91EF91C4
:103A3000BF91AF919F918F917F916F915F914F91C6
:103A40003F912F911F910F900FBE0F901F901895CF
:103A5000ACE2B0E0EEE2FDE10C941D1F222E332E0D
:103A6000442E552E662E772E882E992EFE013196E5
:103A7000A8E01192AA95E9F729823A824B825C82EA
:103A80006D827E828F829886FE013996B8E011920F
:103A9000BA95E9F7A986BA86CB86DC86ED86FE86DE
:103AA0000F87188B89819A81AB81BC8189A79AA7DE
:103AB000ABA7BCA77C018D018FEF9FEFA0E0B0E02A
:103AC000E822F9220A231B2389A59AA5ABA5BCA548
:103AD0001D014424552489859A85AB85BC858DA319
:103AE0009EA3AFA3B8A75C016D018FEF9FEFA0E08D
:103AF000B0E0A822B922CA22DB228DA19EA1AFA1EB
:103B0000B8A53D0188249924C801B701A6019501F3
:103B10000E94FE1E69A37AA38BA39CA3C801B701D0
:103B2000A40193010E94FE1E7B018C01C201B10120
:103B3000A60195010E94FE1E5B016C01C201B1014C
:103B4000A40193010E94FE1E3B014C01EA0CFB1CE8
:103B50000C1D1D1D89A19AA1ABA1BCA19D014427EB
:103B600055272E0D3F1D401F511F2A153B054C05A3
:103B70005D0540F480E090E0A1E0B0E0680E791EC1
:103B80008A1E9B1ECA01AA27BB27860D971DA81D4A
:103B9000B91D8D8F9E8FAF8FB8A3A9013327222720
:103BA00089A19AA1ABA1BCA1A070B070280F391F48
:103BB0004A1F5B1F298F3A8F4B8F5C8FA98CBA8C61
:103BC000CB8CDC8CED8CFE8C0F8D18A1FE017196D8
:103BD00098E011929A95E9F7ED8AFE8A0F8B188F7B
:103BE0002D813E814F8158856DA17EA18FA198A521
:103BF0000E94FE1E3B014C012D853E854F85588954
:103C000069A57AA58BA59CA50E94FE1E2D893E89DB
:103C10004F89588D260F371F481F591F260D371DF6
:103C2000481D591D2D8B3E8B4F8B588F6D887E887C
:103C30008F88988C2A2D3B2D4C2D5D2D662D772D50
:103C4000882D992DE2E1AC960C94391FA0E1B0E0EB
:103C5000ECE2FEE10C941D1F222E332E442E552E35
:103C6000662E772E882E992E002309F466C088E0F0
:103C7000FE01319611928A95E9F729833A834B83A5
:103C80005C836D837E838F829887E0E2E01B1E1643
:103C9000CCF52D813E814F815885602F772767FDB8
:103CA0007095DA01C901062E04C0B695A7959795BF
:103CB00087950A94D2F78D879E87AF87B88B04C00B
:103CC000220F331F441F551FEA95D2F789819A812D
:103CD000AB81BC8104C0B695A795979587956A95E9
:103CE000D2F7282B392B4A2B5B2B29873A874B8716
:103CF0005C8729843A844B845C846D847E848F84C1
:103D000098881BC01D861E861F86188A2E2F332773
:103D100027FD3095309521953F4F8D819E81AF8154
:103D2000B88504C0B695A795979587952A95D2F73B
:103D300089879A87AB87BC87DCCF222D332D442D12
:103D4000552D662D772D882D992DE2E160960C94E6
:103D5000391F991B79E004C0991F961708F0961B2C
:103D6000881F7A95C9F780950895AA1BBB1B51E15E
:103D700007C0AA1FBB1FA617B70710F0A61BB70BDB
:103D8000881F991F5A95A9F780959095BC01CD0180
:103D9000089597FB092E07260AD077FD04D0E5DFAA
:103DA00006D000201AF4709561957F4F0895F6F7BC
:103DB000909581959F4F0895A1E21A2EAA1BBB1BD7
:103DC000FD010DC0AA1FBB1FEE1FFF1FA217B307E7
:103DD000E407F50720F0A21BB30BE40BF50B661FFD
:103DE000771F881F991F1A9469F7609570958095C1
:103DF00090959B01AC01BD01CF010895629FD00158
:103E0000739FF001829FE00DF11D649FE00DF11D95
:103E1000929FF00D839FF00D749FF00D659FF00D44
:103E20009927729FB00DE11DF91F639FB00DE11D31
:103E3000F91FBD01CF01112408952F923F924F9297
:103E40005F926F927F928F929F92AF92BF92CF922A
:103E5000DF92EF92FF920F931F93CF93DF93CDB733
:103E6000DEB7CA1BDB0B0FB6F894DEBF0FBECDBFAB
:103E700009942A88398848885F846E847D848C847C
:103E80009B84AA84B984C884DF80EE80FD800C8185
:103E90001B81AA81B981CE0FD11D0FB6F894DEBF68
:103EA0000FBECDBFED010895DC0101C06D934150FF
:083EB0005040E0F70895FFCF38
:103EB8000100FFFFFFFF010022FFFFFFFFDB010FF3
:063EC80002DB0101010014
:00000001FF
