S01800006275696C642F6D6963617A2F6D61696E2E73726563E5
S11300000C9449000C9468000C9468000C946800EB
S11300100C9468000C9468000C9468000C946800BC
S11300200C9468000C9468000C9468000C946800AC
S11300300C9468000C9468000C9468000C946C0197
S11300400C945B010C9468000C9468000C94680098
S11300500C9468000C9468000C9468000C9468007C
S11300600C9468000C9468000C9468000C9468006C
S11300700C9468000C9468000C9468000C9468005C
S11300800C9468000C9468000C94680000081C1818
S1130090141011241FBECFEFD0E1DEBFCDBF11E09D
S11300A0A0E0B1E0E8E8F7E000E00BBF02C0079091
S11300B00D92A030B107D9F711E0A0E0B1E001C082
S11300C01D92A232B107E1F70E94BA020C94C30355
S11300D00C9400008FB7F894992708958FBF089562
S11300E07FB7F89462B720910101309102014091E9
S11300F003015091040106B601FE0FC081B792B707
S1130100280F311D411D511D2F5F3F4F4F4F5F4F32
S1130110290F311D411D511D04C0260F311D411DE4
S1130120511D872F99278FBFCA01B9010895282F20
S11301309FB7F894E82FFF27E75FFE4F80818F3F3A
S113014081F4E0912101E21771F40BC020931E01A8
S113015004C0FF27E75FFE4F20832093210120E0A6
S113016007C025E005C080911E018F3F91F7EECFB7
S1130170892F99278FBF822F99270895DF92EF92B5
S1130180FF920F931F938FB7F894282F3327D22E03
S113019091B782B746B7981711F041FF02C02FBF3D
S11301A06AC080910C018823E1F10E947000E09004
S11301B01601F09017010091180110911901209176
S11301C005013091060140910701509108016E1913
S11301D07F09800B910B621773078407950720F042
S11301E010920C0171E01EC02E0D3F1D401F511FC7
S11301F08091010190910201A0910301B091040149
S1130200281B390B4A0B5B0B273E31054105510571
S113021040F4822F223010F070E005C070E082E0DC
S113022002C070E086EE682F615000B601FCFDCF7D
S113023082B7681709F46F5F2091010130910201C0
S11302404091030150910401DA01C9010196A11DF5
S1130250B11D860F911DA11DB11D82179307A4071F
S1130260B50710F4622F609561BFDFBE772319F0E4
S113027080E00E9497001F910F91FF90EF90DF9014
S11302800895AFB7F894BB27E1E0E0930C016093C5
S1130290160170931701809318019093190120930C
S11302A00501309306014093070150930801AFBF45
S11302B00E94BE0008951F920F920FB60F92112450
S11302C08F9383B783BF00B600FCFDCF8F910F904F
S11302D00FBE0F901F9018951F920F920FB60F929A
S11302E011242F933F934F935F936F937F938F9337
S11302F09F93AF93BF93EF93FF9383B783BF00B6EE
S113030000FCFDCF81B799270196AA27BB2720912E
S11303100101309102014091030150910401280F21
S1130320391F4A1F5B1F2093010130930201409340
S113033003015093040178940E94BE00FF91EF9151
S1130340BF91AF919F918F917F916F915F914F91E9
S11303503F912F910F900FBE0F901F901895EF9221
S1130360FF920F931F93E0911501E1FF46C0209186
S11303700D0130910E0140910F0150911001E09058
S11303801101F09012010091130110911401621BEC
S1130390730B840B950B6E157F058007910768F12D
S11303A0E0FF04C0ED7FE09315010CC02E0D3F1D4E
S11303B0401F511F20930D0130930E0140930F01F4
S11303C050931001809100018F5F809300019FB7CB
S11303D0F894282F332720FF02C0DA9801C0DA9A54
S11303E021FF02C0D99801C0D99A22FF02C0D8982F
S11303F001C0D89A892F99278FBF81E00E94970066
S11304001F910F91FF90EF900895EF92FF920F9339
S11304101F930E9470007B018C018FB7F894992779
S113042010920C018FBF8091150181FF3DC0809116
S11304300D0190910E01A0910F01B0911001A8013E
S11304409701281B390B4A0B5B0BDA01C901209178
S11304501101309112014091130150911401281B94
S1130460390B4A0B5B0B2F3F8FEF38078FEF480791
S11304708FE75807C9F012161306140615062CF058
S1130480C801B7010E94AF010FC020931A01309335
S11304901B0140931C0150931D0181E080930B01CB
S11304A0C801B7010E9441011F910F91FF90EF9085
S11304B00895EF92FF920F931F9380910B0188236D
S11304C061F520911A0130911B0140911C0150915A
S11304D01D01EFB7F894FF27609116017091170181
S11304E08091180190911901E0900501F0900601A6
S11304F000910701109108016E0D7F1D801F911F4F
S1130500EFBF20931A0130931B0140931C015093B9
S11305101D0110920B010E9441010E9470000E9473
S1130520AF011F910F91FF90EF90089580911E01EC
S11305308F3FE9F0282F3327F901E75FFE4F8081D1
S113054080931E018F3F11F4809321018FEF8083EC
S11305502F3F69F0222319F0213021F005C00E94B9
S1130560590202C00E94050281E090E0089580E0F3
S113057090E008951F931FB7F89442E050E06FEFA6
S113058070E089E091E00E94BC038FEF80931E012C
S11305908093210181E08EBD88E080BF83E083BF2A
S11305A08CB59DB54AE72CB53DB52817390708F435
S11305B04150442311F0C901F6CF92B782B789178D
S11305C0E9F32CB53DB592B782B78917E9F38CB539
S11305D09DB5821B930B409625E0969587952A95A9
S11305E0E1F79093200180931F0113BE83B78EBD62
S11305F08EB580BF12BE1DBC1CBC8FEF86BF86B7F4
S113060080937C0080B7992787709070892BD1F7ED
S1130610D29AD19AD09ADA9AD99AD89A15BA8FEFEF
S113062084BBD498DC9880E285BF0E94960288231C
S1130630E1F780B7886080BF8BE083BF86EE81BF1F
S113064087B7826087BF0E94BE000E9496028823FB
S1130650E1F7812F99278FBF78940E9470006093EF
S11306600D0170930E0180930F01909310018AEF96
S113067090E0A0E0B0E08093110190931201A09368
S11306801301B0931401809115018E7F82608093D1
S1130690150181E00E9497008FB7F894482F5527E1
S11306A048C087B7992783709070892B19F4E5E0C7
S11306B0F0E013C080B7992787709070892BD1F729
S11306C081B792B7891B8C3030F082B7853F18F41C
S11306D0E3E0F0E002C0E2E0F0E087B7887BC1F439
S11306E080917D008B7FA1F46E9912C08AB19091A4
S11306F09A00892B807C61F48091740082FD08C08B
S1130700379B03C081E090E005C085E090E002C023
S113071080E090E025B78E1708F4E82FFF27E45710
S1130720FF4FE491237E2062E22BE5BF7894889505
S1130730F89480911E018F3F09F4B3CF282F3327FB
S1130740F901E75FFE4F808180931E018F3F11F412
S1130750809321018FEF80832F3F09F4A2CF4FBFF5
S1130760222321F0213009F097CF03C00E945902BF
S113077093CF0E94050290CFDC0101C06D934150DC
S10B07805040E0F70895FFCF9B
S9030000FC
