:100000000C9449010C9468010C9468010C946801EB
:100010000C9468010C9468010C9468010C946801BC
:100020000C9468010C9468010C9468010C946801AC
:100030000C9468010C9468010C9468010C943219BA
:100040000C94F0180C9468010C94EB160C94680155
:100050000C9467170C9468010C9468010C94680167
:100060000C9468010C94BD180C949C180C94A7185F
:100070000C94B2180C94D0180C947F180C9468014E
:100080000C9491180C9468010C94680100002110E4
:10009000422063308440A550C660E77008812991F2
:1000A0004AA16BB18CC1ADD1CEE1EFF1311210029A
:1000B00073325222B5529442F772D6623993188342
:1000C0007BB35AA3BDD39CC3FFF3DEE36224433466
:1000D00020040114E664C774A44485546AA54BB592
:1000E00028850995EEE5CFF5ACC58DD5533672263A
:1000F00011163006D776F6669556B4465BB77AA7E2
:1001000019973887DFF7FEE79DD7BCC7C448E55885
:100110008668A7784008611802282338CCC9EDD931
:100120008EE9AFF9488969990AA92BB9F55AD44AD9
:10013000B77A966A711A500A333A122AFDDBDCCB81
:10014000BFFB9EEB799B588B3BBB1AABA66C877CA5
:10015000E44CC55C222C033C600C411CAEED8FFDD1
:10016000ECCDCDDD2AAD0BBD688D499D977EB66E79
:10017000D55EF44E133E322E511E700E9FFFBEEF21
:10018000DDDFFCCF1BBF3AAF599F788F8891A981E3
:10019000CAB1EBA10CD12DC14EF16FE18010A100CD
:1001A000C230E3200450254046706760B9839893BD
:1001B000FBA3DAB33DC31CD37FE35EF3B10290121D
:1001C000F322D2323542145277625672EAB5CBA589
:1001D000A89589856EF54FE52CD50DC5E234C3246D
:1001E000A01481046674476424540544DBA7FAB75D
:1001F0009987B8975FE77EF71DC73CD7D326F236BD
:100200009106B01657667676154634564CD96DC9A8
:100210000EF92FE9C899E9898AB9ABA9445865480C
:1002200006782768C018E1088238A3287DCB5CDBFC
:100230003FEB1EFBF98BD89BBBAB9ABB754A545A5C
:10024000376A167AF10AD01AB32A923A2EFD0FEDC8
:100250006CDD4DCDAABD8BADE89DC98D267C076CAC
:10026000645C454CA23C832CE01CC10C1FEF3EFF9C
:100270005DCF7CDF9BAFBABFD98FF89F176E367EFC
:10028000554E745E932EB23ED10EF01E00081C181F
:10029000141011241FBECFEFD0E1DEBFCDBF11E09F
:1002A000A0E0B1E0EEE0F8E400E00BBF02C0079090
:1002B0000D92A831B107D9F713E0A8E1B1E001C070
:1002C0001D92A43AB107E1F70E94591F0C9406242D
:1002D0000C9400008F929F92AF92BF92CF92DF92C8
:1002E000EF92FF920F931F93CF93DF934A01C0E0E9
:1002F000D0E00F2EF0E0EF2EF0E0FF2EF0E00F2F19
:10030000F0E01F2FF02D5B016C0117C0F50121916A
:100310003191419151915F01F6016191719181910A
:1003200091916F010E9427229B01AC01C801B70186
:100330000E94A1207B018C012196C815D90534F3B8
:10034000C801B701DF91CF911F910F91FF90EF90FE
:10035000DF90CF90BF90AF909F908F9008958F9235
:100360009F92AF92BF92CF92DF92EF92FF920F9344
:100370001F93CF93DF934B01590168017C018A01E0
:10038000C0E0D0E00FC0A601B401F70181919191C6
:100390007F010E946A01F8016193719381939193A7
:1003A0008F012196CA15DB0574F3DF91CF911F9160
:1003B0000F91FF90EF90DF90CF90BF90AF909F9004
:1003C0008F9008952F923F924F925F926F927F92FB
:1003D0008F929F92AF92BF92CF92DF92EF92FF9255
:1003E0000F931F93CF93DF93CDB7DEB724970FB64C
:1003F000F894DEBF0FBECDBF9A8389831B0129010C
:1004000038018A0188249924CC24DD2440C08B81C2
:100410009C81892B49F480E090E0A0E0B0E0F801F5
:1004200080839183A283B383D701ED91FD917D01F8
:10043000EC0DFD1D2081318142815381F5016191D7
:100440007191819191915F010E9427229B01AC01E2
:10045000D8016D917D918D919C910E94A120F80110
:1004600060837183828393838B819C8101969C83BB
:100470008B83AB81BC81A415B5054CF20894811C1B
:10048000911C0C5F1F4FE4E0F0E0CE0EDF1E8614DF
:10049000970434F4A980BA8071011C821B82E9CFD1
:1004A00024960FB6F894DEBF0FBECDBFDF91CF917B
:1004B0001F910F91FF90EF90DF90CF90BF90AF9082
:1004C0009F908F907F906F905F904F903F902F9074
:1004D00008952F923F924F925F926F927F928F92E8
:1004E0009F92AF92BF92CF92DF92EF92FF920F93C3
:1004F0001F93CF93DF93CDB7DEB726970FB6F8944F
:10050000DEBF0FBECDBF7A8369835C834B83190145
:100510002801370146016C01AA24BB2455C0A1144F
:10052000B10451F480E090E0A0E0B0E0ED81FE8104
:1005300080839183A283B383D40120E030E049819A
:100540005A812AC08D919D91A816B90609F5DA0144
:10055000ED91FC91E00FF11F2081318142815381A7
:10056000F60160817181828193810E9427229B0123
:10057000AC01AD81BE816D917D918D919C910E9468
:10058000A120ED81FE81608371838283938307C004
:100590002F5F3F4F4E5F5F4F241535059CF2089447
:1005A000E11CF11C0C5F1F4F8D819E8104969E8380
:1005B0008D83E614F7040CF4B2CF0894A11CB11C8F
:1005C000A4E0B0E0CA0EDB1EA214B3044CF4EB812D
:1005D000FC81FE83ED83EE24FF2400E010E0E9CFF0
:1005E00026960FB6F894DEBF0FBECDBFDF91CF9138
:1005F0001F910F91FF90EF90DF90CF90BF90AF9041
:100600009F908F907F906F905F904F903F902F9032
:100610000895AF92BF92CF92DF92EF92FF920F9325
:100620001F935B016C01E894D7F879018A01E89483
:1006300017F9A8019701C601B5010E9423221816D7
:10064000BCF4A6019501C801B7010E9409219B01D4
:10065000AC010E94272220E030E040E85FE30E94E6
:10066000A1200E948E229B01AC01C601B50125C0CC
:1006700020E030E040E050E0C801B7010E942322B2
:1006800018162CF060E070E080E090E018C0A8013F
:100690009701C601B5010E9409219B01AC010E948E
:1006A000272220E030E040E85FE30E94A1200E9482
:1006B0008E229B01AC01C801B7010E9427221F9125
:1006C0000F91FF90EF90DF90CF90BF90AF90089583
:1006D0002F923F924F925F926F927F928F929F9252
:1006E000AF92BF92CF92DF92EF92FF920F931F9340
:1006F000CF93DF93CDB7DEB7C25CD0400FB6F8948E
:10070000DEBF0FBECDBFCB54DF4F99838883C55B5F
:10071000D040C954DF4F79836883C75BD040C7544A
:10072000DF4F59834883C95BD040C554DF4F3983BD
:100730002883CB5BD040C354DF4F19830883CD5B44
:10074000D040C154DF4FF982E882CF5BD040299678
:100750003FAF2EAF29972596FFAEEEAE2597239695
:100760005FAF4EAF23971C0121967FAF6EAF2197ED
:1007700020E030E040E050E0C757DF4F2883398366
:100780004A835B83C958D040CB57DF4F28833983D6
:100790004A835B83C558D040CF57DF4F28833983C6
:1007A0004A835B83C158D0402B961FAE1EAE2B9759
:1007B00027961FAE1EAE279744E050E01CC48DA9BB
:1007C0009EA90196CD55DF4F99838883C35AD040A7
:1007D0002B969FAF8EAF2B97CB57DF4F2881398158
:1007E0004A815B81C558D040CF57DF4F68817981FE
:1007F0008A819B81C158D0400E9427222596AEADA8
:10080000BFAD25976D937D938D939C931397EDA921
:10081000FEA9C954DF4F28813981C75BD040E21758
:10082000F3070CF08BC1810180E090E0A0E0B0E024
:100830008F8B988FA98FBA8FEE24FF24D801ED916A
:10084000FD918D0127962EAD3FAD2797E20FF31F47
:1008500020813181428153815F776F89788D898DC5
:100860009A8D0E94A1206F8B788F898F9A8F089420
:10087000E11CF11C21964EAD5FAD2197E416F50603
:10088000E9F620E030E040E050E00E9405218823B6
:1008900011F40C94A91271010F2EF0E0AF2EF0E0CC
:1008A000BF2EF0E0CF2EF0E0DF2EF02D882499242B
:1008B000D7010D911D917D012796EEADFFAD2797D4
:1008C0000E0F1F1FD8016D917D918D919C912F89E5
:1008D000388D498D5A8D0E940921F80160837183FA
:1008E000828393839B01AC010E9427229B01AC0170
:1008F000C601B5010E94A1205B016C010894811C16
:10090000911C21962EAD3FAD21978216930681F65C
:10091000D1014D905C902796EEADFFAD27974E0E1E
:100920005F1ED201ED90FD900D911C9120E030E012
:1009300040E050E0C801B7010E94232288234CF018
:10094000C601B5010E948E229F779B01AC015058D1
:1009500007C0C601B5010E948E229B01AC015F77E2
:1009600039014A01C801B7010E942722A601950159
:100970000E94A02069A77AA78BA79CA7A401930136
:10098000C801B7010E94A020F201608371838283B5
:100990009383C754DF4F88819981C95BD040019709
:1009A0002DA93EA92817390709F49EC0ADACBEACED
:1009B0002D961FAE1EAE2D977DC0D601ED91FD91F7
:1009C0006D0127968EAD9FAD27978E0F9F1FEA0D65
:1009D000FB1D2081318142815381FC016081718145
:1009E000828193810E9427229B01AC01C801B7013B
:1009F0000E94A1207B018C010894411C511C21966E
:100A00002EAD3FAD219742165306B9F629A53AA55A
:100A10004BA55CA50E9409216B017C012101CF53EC
:100A2000DF4F19821882C15CD040D201ED91FD9157
:100A30002D018F010A0D1B1D27962EAD3FAD279767
:100A4000E20FF31F2081318142815381C701B6013A
:100A50000E9427229B01AC01D8016D917D918D915F
:100A60009C910E94A120F80160837183828393830B
:100A7000CF53DF4F28813981C15CD0402F5F3F4F7A
:100A8000CF53DF4F39832883C15CD04021964EADD0
:100A90005FAD21972417350741F62D968EAD9FAD9A
:100AA0002D9701962D969FAF8EAF2D97A4E0B0E0C5
:100AB000AA0EBB1E23968EAD9FAD239701972D9650
:100AC000EEADFFAD2D97E817F90771F061010F2E1C
:100AD000F0E0EF2EF0E0FF2EF0E00F2FF0E01F2F00
:100AE000F02D4424552469CF7101CC24DD24D70195
:100AF0000D911D917D012796EEADFFAD27970E0F4D
:100B00001F1F2F89388D498D5A8DD8016D917D9188
:100B10008D919C910E942722F801608371838283CA
:100B200093830894C11CD11C21962EAD3FAD219713
:100B3000C216D30611F40C94B312D9CF80E090E022
:100B4000A0E0B0E02996EEADFFAD299780839183B8
:100B5000A283B383CB57DF4F88839983AA83BB8358
:100B6000C558D040CF57DF4F88839983AA83BB8372
:100B7000C158D040DCC1D101ED91FC91E00FF11FD3
:100B800020813181428153815F77CF57DF4F688168
:100B900079818A819B81C158D0400E94A120CF5782
:100BA000DF4F688379838A839B83C158D040089440
:100BB000E11CF11C0C5F1F4F2396EEADFFAD239798
:100BC000EE16FF06C1F620E030E040E050E0CF57DF
:100BD000DF4F688179818A819B81C158D0400E9412
:100BE0000521882369F420E030E040E050E0CB5755
:100BF000DF4F288339834A835B83C558D04097C130
:100C000027968EAC9FAC27970F2EF0E0AF2EF0E02A
:100C1000BF2EF0E0CF2EF0E0DF2EF02DEE24FF24EB
:100C200023C08401040D151DD8016D917D918D9116
:100C30009C91CF57DF4F288139814A815B81C15810
:100C4000D0400E940921F8016083718382839383DD
:100C50009B01AC010E9427229B01AC01C601B5019A
:100C60000E94A1205B016C010894E11CF11C24E0AE
:100C700030E0820E931ED1014D905C902396EEAD34
:100C8000FFAD2397EE16FF0661F68DAC9EAC840C8B
:100C9000951CD401ED90FD900D911C9120E030E069
:100CA00040E050E0C801B7010E94232288234CF0A5
:100CB000C601B5010E948E229F779B01AC0150585E
:100CC00007C0C601B5010E948E229B01AC015F776F
:100CD000CB57DF4F288339834A835B83C558D04085
:100CE000C801B7010E942722A60195010E94A020F9
:100CF0005B016C01CB57DF4F288139814A815B81D1
:100D0000C558D040C801B7010E94A020F4016083FB
:100D100071838283938327960EAD1FAD2797040DB1
:100D2000151D25968EAC9FAC2597EE24FF240EC092
:100D3000A6019501D8016D917D918D919C910E94A4
:100D40000921F40160837183828393830894E11CF9
:100D5000F11C0C5F1F4F24E030E0820E931E23969F
:100D60004EAD5FAD2397E416F50611F7C954DF4F7A
:100D700088819981C75BD0400197ADA9BEA9A8170A
:100D8000B90709F4AAC051012F961FAE1EAE2F97C6
:100D900084C0F501A281B381AE0DBF1DF801208191
:100DA0003181428153816D917D918D919C910E9401
:100DB00027229B01AC01C401B3010E94A1203B0189
:100DC0004C010894C11CD11C24E030E0E20EF31E5B
:100DD0000C5F1F4F23964EAD5FAD2397C416D5060B
:100DE000C1F62796EEACFFAC279725968EAD9FAD4A
:100DF0002597CF53DF4F99838883C15CD040CC24A3
:100E0000DD2422C0F501028113810E0D1F1DCF5379
:100E1000DF4FA881B981C15CD0402D913D914D91AA
:100E20005C91C401B3010E9427229B01AC01F8012F
:100E300060817181828193810E94A120D8016D938C
:100E40007D938D939C9313970894C11CD11CE4E06F
:100E5000F0E0EE0EFF1ECF53DF4F28813981C15CD9
:100E6000D0402C5F3F4FCF53DF4F39832883C15C85
:100E7000D04023964EAD5FAD2397C416D50611F62C
:100E80002F968EAD9FAD2F9701962F969FAF8EAF69
:100E90002F97A2E0B0E0AA0EBB1E21968EAD9FADAB
:100EA000219701972F96EEADFFAD2F97E817F90721
:100EB000A1F02796EEACFFAC27978701040D151D16
:100EC0000F2EF0E06F2EF0E07F2EF0E08F2EF0E09E
:100ED0009F2EF02DCC24DD2474CF2796EEACFFACF2
:100EE0002797E40CF51C00E010E014C0CF57DF4F4B
:100EF000288139814A815B81C158D040D7016D91E9
:100F00007D918D919C910E942722F70160837183CE
:100F1000828393830F5F1F4F24E030E0E20EF31EC5
:100F200023964EAD5FAD239704171507F9F6299662
:100F3000AEADBFAD29976D917D918D919C919F77BD
:100F40002596EEADFFAD25972081318142815381F9
:100F50005F770E94A1207B018C019B01AC01C757E8
:100F6000DF4F688179818A819B81C958D0400E9476
:100F70002322181644F0C757DF4FE882F9820A830C
:100F80001B83C958D04029962EAD3FAD29972C5FC1
:100F90003F4F29963FAF2EAF299727964EAD5FADB5
:100FA00027974C5F5F4F27965FAF4EAF27972596E9
:100FB0008EAD9FAD2597049625969FAF8EAF259752
:100FC0002396AEADBFAD239711972396BFAFAEAFBB
:100FD0002397E2E0F0E02E0E3F1E21962EAD3FADAE
:100FE00021972150304021963FAF2EAF21974DAD34
:100FF0005EAD4C5F5F4F5EAF4DAF2B968EAD9FAD3C
:101000002B979EAB8DABC754DF4FA881B981C95BCD
:10101000D0408A179B070CF4D2CB1197BAAFA9AF77
:10102000C754DF4F88819981C95BD040880F991FD1
:10103000C354DF4FE881F981CD5BD040E80FF91F41
:1010400032976D96FFAFEEAF6D97C754DF4F288193
:101050003981C95BD040220F331F220F331F69969D
:101060003FAF2EAF6997245030406B963FAF2EAF05
:101070006B971901C154DF4F48815981CF5BD04034
:101080006996AEADBFAD69974A0F5B1F65965FAFBE
:101090004EAF65974450504067965FAF4EAF67972D
:1010A000CB54DF4FE881F981C55BD040E80FF91FD1
:1010B0006196FFAFEEAF619732976396FFAFEEAFE9
:1010C000639729AD3AADC955DF4F39832883C75A95
:1010D000D040E7C1C955DF4F48815981C75AD04038
:1010E00089AD9AAD481759070CF08AC120E030E06D
:1010F00040E050E0CB57DF4F688179818A819B8146
:10110000C558D0400E940521882309F430C1CD552F
:10111000DF4F48805980C35AD040440C551C440CC2
:10112000551CCD55DF4FA881B981C35AD040AA0FB5
:10113000BB1F6F96BFAFAEAF6F97C354DF4FC88072
:10114000D980CD5BD040CA0EDB1E7201CD55DF4F7A
:10115000A880B980C35AD04031C06396AEADBFAD50
:101160006397ED91FC91D6010D911D916D01020DDA
:10117000131DDF01AE0DBF1DE40DF51D2081318172
:10118000428153816D917D918D919C910E940921A5
:10119000CB57DF4F288139814A815B81C558D040C8
:1011A0000E940921F80160837183828393830894EC
:1011B000A11CB11C24E030E0E20EF31EC754DF4F47
:1011C00048815981C95BD040A416B50634F272013A
:1011D000CD55DF4FC880D980C35AD0409BC063969D
:1011E000AEADBFAD63978D919C91800F911FF501BE
:1011F000A191B1915F01AE0DBF1D2D913D914D911A
:101200005C91DC016D917D918D919C910E942722D2
:101210009B01AC01C401B3010E94A1203B014C0120
:10122000CF53DF4FE881F981C15CD0403196CF5375
:10123000DF4FF983E883C15CD0400C5F1F4FCF5371
:10124000DF4F28813981C15CD040C754DF4F4881CE
:101250005981C95BD040241735070CF2C354DF4FC6
:10126000A880B980CD5BD0406F968EAD9FAD6F9753
:10127000A80EB91ECD55DF4FA881B981C35AD04001
:10128000CF53DF4FB983A883C15CD0402DC0D501B7
:10129000ED91FD915D018F010E0D1F1DE20DF31DFE
:1012A0002081318142815381C401B3010E942722F0
:1012B0009B01AC01F80160817181828193810E9460
:1012C000A120D8016D937D938D939C931397CF5359
:1012D000DF4FE881F981C15CD0403196CF53DF4FB9
:1012E000F983E883C15CD040CF53DF4F2881398137
:1012F000C15CD040C754DF4F48815981C95BD040A1
:101300002417350724F20894C11CD11C84E090E016
:10131000E80EF91EC754DF4FA881B981C95BD040E0
:10132000CA16DB0624F58201C354DF4FA880B980BA
:10133000CD5BD0406F96EEADFFAD6F97AE0EBF1E8A
:10134000CD55DF4F28813981C35AD040CF53DF4F6D
:1013500039832883C15CD0400F2EF0E06F2EF0E07F
:101360007F2EF0E08F2EF0E09F2EF02D68CFCD5530
:10137000DF4F28813981C35AD040220F331F220FFB
:10138000331FCD55DF4F08811981C35AD040000F5C
:10139000111FC354DF4F48815981CD5BD040040FEA
:1013A000151FCD55DF4F88819981C35AD04040E049
:1013B00050E060E070E01BC06D96EEADFFAD6D9744
:1013C000A081B181A20FB31FF801E190F1908F01CC
:1013D000E20CF31CF70140835183628373834D93C6
:1013E0005D936D937C93139701962C5F3F4FC75489
:1013F000DF4FA881B981C95BD0408A179B07E4F20F
:101400006D96AEADBFAD6D97ED91FC91E20DF31D04
:1014100080E090E0A0E8BFE380839183A283B38360
:101420006796AEADBFAD67972D913D914D915C91A3
:101430001397CB57DF4F288339834A835B83C55883
:10144000D0406D96EEADFFAD6D9732976D96FFAFC4
:10145000EEAF6D972CEF3FEF220E331E1497679679
:10146000BFAFAEAF679763964EAD5FAD6397425027
:10147000504063965FAF4EAF6397C955DF4F888189
:101480009981C75AD040CD55DF4F99838883C35A7D
:10149000D040DC011197C955DF4FB983A883C75AE3
:1014A000D040C955DF4FE881F981C75AD040F7FFD6
:1014B00011CE61966EAC7FAC61972EEF3FEF620E5E
:1014C000731E6B96AEACBFAC6B97C554DF4F4881B3
:1014D0005981CB5BD04069968EAD9FAD6997480F1F
:1014E000591FA1965FAF4EAFA19744505040A396AD
:1014F0005FAF4EAFA397C9ACDAAC5EC146010894AA
:10150000811C911CA396AEADBFADA397ED90FD904D
:101510000D911C91E9ADFAADCE16DF06E4F495010C
:10152000C60140E050E060E070E009C0D301ED91F9
:10153000FC91E20FF31F4083518362837383019612
:101540002C5F3F4FC754DF4FE881F981C95BD04022
:101550008E179F075CF320E030E040E050E0C801C8
:10156000B7010E940521882319F4A3019601F0C058
:10157000A801970160E070E080E89FE30E940921E4
:101580006F87788B898B9A8B29AD3AADC216D306BB
:1015900009F4A8C0A5014C5F5F4FA5965FAF4EAFA1
:1015A000A5979EA28DA286C0D401ED91FC91BF01AA
:1015B0006A0D7B1DA5962EAD3FADA597E20FF31FDB
:1015C0002081318142815381DB016D917D918D912B
:1015D0009C910E9427229B01AC01C801B7010E9487
:1015E000A1207B018C010894411C511CE2E0F0E039
:1015F0008E0E9F1EC954DF4F28813981C75BD040B2
:10160000421653068CF2D301ED91FC91EA0DFB1DBD
:101610002081318142815381C801B7010E94092193
:101620002F85388949895A890E9427221B012C015C
:101630007301460126C0D701ED91FD917D01A5966C
:101640000EAD1FADA5970E0F1F1FEA0DFB1D2081CC
:10165000318142815381C201B1010E9427229B0145
:10166000AC01F80160817181828193810E94A12087
:10167000D8016D937D938D939C9313970894811C4F
:10168000911CC954DF4FE881F981C75BD0408E16A9
:101690009F068CF22DA13EA12F5F3F4F3EA32DA3AD
:1016A000A5964EAD5FADA5974C5F5F4FA5965FAF1A
:1016B0004EAFA5978DA19EA1C754DF4FA881B981D8
:1016C000C95BD0408A179B076CF4430126010F2E9B
:1016D000F0E0EF2EF0E0FF2EF0E00F2FF0E01F2FF4
:1016E000F02D81CF7301460119C0F70101911191CD
:1016F0007F010A0D1B1D2F85388949895A89D80118
:101700006D917D918D919C910E942722F8016083BB
:101710007183828393830894811C911CC954DF4F89
:1017200028813981C75BD04082169306F4F219C034
:10173000DA01ED91FD91AD01EA0DFB1D80E090E035
:10174000A0E0B0E080839183A283B3832F5F3F4FFB
:10175000C954DF4FE881F981C75BD0402E173F079E
:101760003CF3D3010D911C910A0D1B1D20E030E0CC
:1017700040E85FE3F80160817181828193810E947A
:10178000A120D8016D937D938D939C93139708941A
:10179000C108D108EEEFFFEF6E0E7F1E2CEF3FEF7A
:1017A000A20EB31EA3964EAD5FADA397445050401A
:1017B000A3965FAF4EAFA397D7FEA0CE65968EAD32
:1017C0009FAD65970497AB969FAF8EAFAB976B9627
:1017D000AEADBFAD6B97A996BFAFAEAFA997A196BF
:1017E000EEADFFADA1973897A796FFAFEEAFA797E5
:1017F00029AD3AAD3E832D8382C6D8016D917D918E
:101800008D919C919F77C757DF4F288139814A81FD
:101810005B81C958D0400E94A120C757DF4F288163
:1018200039814A815B81C958D0400E9405218823B3
:1018300009F43AC1EFA0F8A40894E108F108F60110
:1018400060817181828193819F77C757DF4F2881A3
:1018500039814A815B81C958D0400E94A120C75775
:10186000DF4F288139814A815B81C958D0400E946D
:101870000521882309F4CBC6045010402CEF3FEF1C
:10188000C20ED31EF8A6EFA2A7014F5F5F4F09F467
:10189000BEC6B3CFAF96AEADBFADAF972D913D9164
:1018A0004D915C916F8D78A189A19AA10E94272208
:1018B0003B014C019F77C757DF4F288139814A810F
:1018C0005B81C958D0400E94A120C757DF4F2881B3
:1018D00039814A815B81C958D0400E940521882303
:1018E00009F4B5C0CF53DF4FE881F981C15CD04026
:1018F000A080B180C280D380A6019501C401B3014C
:101900000E9409039B01AC01CF53DF4FA881B9812D
:10191000C15CD0406D937D938D939C93139760E051
:1019200070E080E89FE30E9409217B018C019B010C
:10193000AC01C601B5010E9427226F837887898791
:101940009A87C401B3019058A80197010E942722E9
:101950006F8F78A389A39AA3CB54DF4FE881F981D5
:10196000C55BD040E196FFAFEEAFE1971CA21BA292
:1019700062C0E196AEADBFADE197CD90DD90E1964E
:10198000BFAFAEAFE197CF54DF4F28803980C15B46
:10199000D0402C0C3D1CF10140805180628073804E
:1019A000AD962EAD3FADAD97C20ED31ED6018D9034
:1019B0009D90AD90BC902F81388549855A85C30193
:1019C000B2010E9427227B018C012F8D38A149A1F1
:1019D0005AA1C501B4010E9427229B01AC01C80194
:1019E000B7010E94A120F1016083718382839383F8
:1019F0002F81388549855A85C501B4010E94272267
:101A00007B018C012F8D38A149A15AA1C301B201DC
:101A10000E9427229B01AC01C801B7010E94A020AF
:101A2000D6016D937D938D939C931397EBA1FCA1AD
:101A30003196FCA3EBA32BA13CA1C954DF4F4881F5
:101A40005981C75BD040241735070CF492CF8BAD7A
:101A50009CAD01969CAF8BAFAF96AEADBFADAF97CF
:101A60001496AF96BFAFAEAFAF97CF53DF4FE881BD
:101A7000F981C15CD0403496CF53DF4FF983E883BE
:101A8000C15CD040AD962EAD3FADAD972C5F3F4FC2
:101A9000AD963FAF2EAFAD974BAD5CAD8D819E81C6
:101AA000841795070CF0F6CEC555DF4FA881B98194
:101AB000CB5AD0402D903D904D905C90EFA1F8A571
:101AC0002D813E81E217F30709F040C020E030E0AD
:101AD00040E050E0C201B1010E94052188230CF0D2
:101AE000ECC4D201C101B058C555DF4FE881F9817E
:101AF000CB5AD04080839183A283B383C354DF4FFA
:101B000048815981CD5BD04020E030E015C0DA013A
:101B1000ED91FD91AD01A9968EAD9FADA997E80F0E
:101B2000F91F80819181A281B381B0588083918314
:101B3000A283B3832F5F3F4FC754DF4FA881B98182
:101B4000C95BD0402A173B0714F3B7C4EFA1F8A52F
:101B5000EE0FFF1FEE0FFF1FCD54DF4FF983E88319
:101B6000C35BD040C554DF4F28813981CB5BD04067
:101B70002E0F3F1FD9018D919D910D90BC91A02DED
:101B8000CF56DF4F88839983AA83BB83C159D04046
:101B9000A796AEADBFADA7972D913D914D915C91AC
:101BA000C357DF4F288339834A835B83CD58D040A6
:101BB000C755DF4FE881F981C95AD040A080B18074
:101BC000C280D380AB96AEADBFADAB972D913D91AA
:101BD0004D915C91CB56DF4F288339834A835B83D9
:101BE000C559D040A2019101C357DF4F6881798167
:101BF0008A819B81CD58D0400E94A0207B018C011E
:101C0000A2019101C357DF4F688179818A819B814D
:101C1000CD58D0400E94A1209B01AC01C801B70162
:101C20000E9427223B014C01CB56DF4F288139818E
:101C30004A815B81C559D040C601B5010E94A020F0
:101C40007B018C01CB56DF4F288139814A815B8132
:101C5000C559D040C601B5010E94A1209B01AC012D
:101C6000C801B7010E9427229B01AC01C401B30146
:101C70000E94A1207B018C01CB56DF4F2881398146
:101C80004A815B81C559D040CA01B9010E94A12097
:101C9000C357DF4F288139814A815B81CD58D040BD
:101CA0000E9427229B01AC01C801B7010E940921B3
:101CB0003B014C0120E030E040E85FE30E94090373
:101CC0007B018C0120E030E040E050E0C401B30132
:101CD0000E942322A80197015F7788231CF05901F5
:101CE0006A0106C059016A01D7FAD094D7F8D09496
:101CF000A2019101CF56DF4F688179818A819B8152
:101D0000C159D0400E94A0207B018C01A201910109
:101D1000CF56DF4F688179818A819B81C159D0403C
:101D20000E94A1209B01AC01C801B7010E9427229B
:101D30007B018C01A6019501C401B3010E94A12081
:101D40009B01AC01C357DF4F688179818A819B81F8
:101D5000CD58D0400E940921CB56DF4F28813981D0
:101D60004A815B81C559D0400E94A0209B01AC01F3
:101D7000CB56DF4F688179818A819B81C559D040DC
:101D80000E9427229B01AC01C801B7010E94A1203B
:101D9000CF56DF4F288139814A815B81C159D040BC
:101DA0000E940921C756DF4F688379838A839B830A
:101DB000C959D040CD54DF4FE881F981C35BD04091
:101DC000ED96FFAFEEAFED978FA198A5880F991F05
:101DD000880F991F9C012C5F3F4FEB963FAF2EAFB2
:101DE000EB97C554DF4F48815981CB5BD0404E0FF4
:101DF0005F1FE9965FAF4EAFE997C154DF4FA881EF
:101E0000B981CF5BD040A80FB91FE796BFAFAEAF87
:101E1000E797C554DF4FE881F981CB5BD040E80FED
:101E2000F91FE596FFAFEEAFE597C154DF4F28816C
:101E30003981CF5BD040CD54DF4F48815981C35B9E
:101E4000D040240F351FE3963FAF2EAFE3978FA10D
:101E500098A520E030E040E85FE3C356DF4F2883D9
:101E600039834A835B83CD59D0402B8F3C8F4D8F74
:101E70005E8FCFC2019698AF8FABE796EEADFFAD08
:101E8000E797E480F58006811781E596EEADFFAD1A
:101E9000E5972480358046805780A80197016B8D97
:101EA0007C8D8D8D9E8D0E9427225B016C01A80187
:101EB0009701C356DF4F688179818A819B81CD5913
:101EC000D0400E9427223B014C01A6019501C75634
:101ED000DF4F688179818A819B81C959D0400E94F6
:101EE00009037B018C01E396AEADBFADE3976D9323
:101EF0007D938D939C9313979B01AC01C756DF4F45
:101F0000688179818A819B81C959D0400E940921C9
:101F1000C356DF4F688379838A839B83CD59D04032
:101F2000A8019701C601B5010E9409216B8F7C8F22
:101F30008D8F9E8FC356DF4F288139814A815B8107
:101F4000CD59D040CF56DF4F688179818A819B81FE
:101F5000C159D0400E9427227B018C012B8D3C8DE2
:101F60004D8D5E8DC401B3010E9427229B01AC01FF
:101F7000C801B7010E94A12069AB7AAB8BAB9CABC7
:101F8000C356DF4F288139814A815B81CD59D040CA
:101F9000C401B3010E9427227B018C012B8D3C8D53
:101FA0004D8D5E8DCF56DF4F688179818A819B810F
:101FB000C159D0400E9427229B01AC01C801B70142
:101FC0000E94A0206B8B7C8B8D8B9E8B2B8D3C8DF0
:101FD0004D8D5E8DC201B1010E9427226DA77EA7A3
:101FE0008FA798ABC356DF4F288139814A815B8127
:101FF000CD59D040C201B1010E9427226B877C8756
:102000008D879E87C354DF4FE881F981CD5BD04037
:10201000EF96FFAFEEAFEF97CF53DF4F19821882E5
:10202000C15CD04070C0EF96AEADBFADEF97CD9024
:10203000DD90EF96BFAFAEAFEF97ED962EAC3FAC15
:10204000ED972C0C3D1CF101408051806280738023
:10205000EB962EAD3FADEB97C20ED31ED6018D9001
:102060009D90AD90BC90C356DF4F288139814A8145
:102070005B81CD59D040C301B2010E9427227B0170
:102080008C012B8D3C8D4D8D5E8DC501B4010E9460
:1020900027229B01AC01C801B7010E94A120F101D8
:1020A0006083718382839383C356DF4F2881398194
:1020B0004A815B81CD59D040C501B4010E942722DD
:1020C0007B018C012B8D3C8D4D8D5E8DC301B2014A
:1020D0000E9427229B01AC01C801B7010E94A020E9
:1020E000D6016D937D938D939C931397CF53DF4FC0
:1020F000E881F981C15CD0403196CF53DF4FF9833D
:10210000E883C15CD040CF53DF4F28813981C15C67
:10211000D040C754DF4F48815981C95BD040241754
:1021200035070CF480CF2DA53EA54FA558A969A968
:102130007AA98BA99CA90E9409037B018C01E996CD
:10214000AEADBFADE9976D937D938D939C9313973F
:1021500020E030E040E050E00E940521882331F18A
:10216000A801970160E070E080E89FE30E940921E8
:102170007B018C019B01AC0169A97AA98BA99CA95F
:102180000E942722C356DF4F688379838A839B830B
:10219000CD59D040A80197016DA57EA58FA598A91E
:1021A0000E9427226B8F7C8F8D8F9E8F2B893C897D
:1021B0004D895E89C356DF4F688179818A819B8111
:1021C000CD59D0400E9427227B018C012B853C8574
:1021D0004D855E856B8D7C8D8D8D9E8D0E94272219
:1021E0009B01AC01C801B7010E94A120C756DF4F77
:1021F000688379838A839B83C959D0402B853C852A
:102200004D855E85C356DF4F688179818A819B81C8
:10221000CD59D0400E942722C355DF4F6883798370
:102220008A839B83CD5AD0402B893C894D895E8916
:102230006B8D7C8D8D8D9E8D0E94272269837A8384
:102240008B839C83CB54DF4FE881F981C55BD04001
:10225000C158DF4FF983E883CF57D040CF53DF4FCA
:1022600019821882C15CD04074C0C158DF4FA88168
:10227000B981CF57D040CD90DD90C158DF4FB983A1
:10228000A883CF57D040ED962EAC3FACED972C0CE9
:102290003D1CF1014080518062807380EB962EAD31
:1022A0003FADEB97C20ED31ED6018D909D90AD90A1
:1022B000BC90C356DF4F288139814A815B81CD595B
:1022C000D040C301B2010E9427227B018C012B8DDB
:1022D0003C8D4D8D5E8DC501B4010E9427229B016E
:1022E000AC01C801B7010E94A120F1016083718394
:1022F00082839383C356DF4F288139814A815B8172
:10230000CD59D040C501B4010E9427227B018C0128
:102310002B8D3C8D4D8D5E8DC301B2010E94272215
:102320009B01AC01C801B7010E94A020D6016D93AA
:102330007D938D939C931397CF53DF4FE881F98161
:10234000C15CD0403196CF53DF4FF983E883C15C45
:10235000D040CF53DF4F28813981C15CD040C95470
:10236000DF4F48815981C75BD040241735070CF4F3
:102370007CCF29813A814B815C81C355DF4F6881D5
:1023800079818A819B81CD5AD0400E94A020CF566E
:10239000DF4F688379838A839B83C159D040ED9650
:1023A0008EAD9FADED970496ED969FAF8EAFED97F6
:1023B000EB96AEADBFADEB971496EB96BFAFAEAF5D
:1023C000EB97E996EEADFFADE9973496E996FFAF4E
:1023D000EEAFE997E7962EAD3FADE7972C5F3F4F05
:1023E000E7963FAF2EAFE797E5964EAD5FADE59729
:1023F0004C5F5F4FE5965FAF4EAFE597E3968EADCE
:102400009FADE3970496E3969FAF8EAFE3978FA9B6
:1024100098ADCF55DF4FA881B981C15AD040A817D8
:10242000B9070CF027CDC154DF4FE881F981CF5BAC
:10243000D040CD54DF4F28813981C35BD040E20FBB
:10244000F31F80E090E0A0E0B0E080839183A2835E
:10245000B383C756DF4F288139814A815B81C959CF
:10246000D040AB96AEADBFADAB972D933D934D93A2
:102470005C931397CF56DF4F288139814A815B8166
:10248000C159D040C555DF4FA881B981CB5AD04042
:102490002D933D934D935C931397CB55DF4FE8817C
:1024A000F981C55AD0403196CB55DF4FF983E88387
:1024B000C55AD0407E9709F09DC02D813E812150A4
:1024C00030403E832D83AB964EAD5FADAB9744500D
:1024D0005040AB965FAF4EAFAB97A9968EAD9FAD18
:1024E000A9970497A9969FAF8EAFA997A796AEAD6F
:1024F000BFADA7971497A796BFAFAEAFA797ED81D3
:10250000FE81F7FDBFC0A7962EAD3FADA7972C5F0C
:102510003F4FC555DF4F39832883CB5AD040319781
:10252000CF55DF4FF983E883C15AD040AB964EAD0B
:102530005FADAB9744505040C755DF4F5983488338
:10254000C95AD040CB55DF4F19821882C55AD040A6
:1025500051C00F2EF0E06F2EF0E07F2EF0E08F2EB6
:10256000F0E09F2EF02DA40193016F89788D898D65
:102570009A8D0E9427222996AEADBFAD29976D9303
:102580007D938D939C931397C754DF4F88819981D6
:10259000C95BD0400197EDA9FEA9E817F907B1F48E
:1025A00020E030E040E050E0CB57DF4F2883398314
:1025B0004A835B83C558D040CF57DF4F2883398388
:1025C0004A835B83C158D0400C94970727960EAD81
:1025D0001FAD279780E090E0A0E0B0E0CF57DF4F3D
:1025E00088839983AA83BB83C158D040EE24FF24FB
:1025F0000C94D705AB960EAD1FADAB97A796CEAC9E
:10260000DFACA797AD81BE81B8A7AFA3F6C8EE0C2B
:10261000FF1CEE0CFF1CCF54DF4FF982E882C15B38
:10262000D0408FA198A5880F991F880F991FC1547A
:10263000DF4FE881F981CF5BD040E80FF91FAF96FB
:10264000FFAFEEAFAF97C554DF4F28813981CB5B29
:10265000D040280F391FCF53DF4F39832883C15C07
:10266000D040AD969FAF8EAFAD974FA158A55CAF50
:102670004BAF80E090E0A0E8BFE38F8F98A3A9A3C1
:10268000BAA30ACA81E090E0CE53DF4F0FB6F894A8
:10269000DEBF0FBECDBFDF91CF911F910F91FF9095
:1026A000EF90DF90CF90BF90AF909F908F907F90F2
:1026B0006F905F904F903F902F9008952F923F9290
:1026C0004F925F926F927F928F929F92AF92BF9242
:1026D000CF92DF92EF92FF920F931F93CF93DF93EE
:1026E0001B012A01E90137014801750186010E9499
:1026F0006803892BA9F1EE24FF2400E010E02DC02F
:1027000058010C5F1F4FFE01EA0DFB1DA401930150
:1027100060817181828193810E9405218823D4F494
:10272000A60120E030E010C0DA01ED91FD91AD018D
:10273000EA0DFB1D80819181A281B38189939993D8
:10274000A993B9932F5F3F4F221533056CF381E0B6
:1027500090E008C00894E11CF11CE414F50484F234
:1027600080E090E0DF91CF911F910F91FF90EF906B
:10277000DF90CF90BF90AF909F908F907F906F90A1
:102780005F904F903F902F9008958FB7F8949927BE
:1027900008958FBF08957FB7F89462B720912D01F7
:1027A00030912E0140912F015091300106B601FE6B
:1027B0000FC081B792B7280F311D411D511D2F5FEA
:1027C0003F4F4F4F5F4F290F311D411D511D04C019
:1027D000260F311D411D511D872F99278FBFCA011B
:1027E000B9010895282F9FB7F894E82FFF27E65CDA
:1027F000FE4F80818F3F81F4E0919B03E21771F4DB
:102800000BC02093F80204C0FF27E65CFE4F208334
:1028100020939B0320E007C025E005C08091F802CB
:102820008F3F91F7EECF892F99278FBF822F99275E
:102830000895DF92EF92FF920F931F938FB7F89452
:10284000282F3327D22E91B782B746B7981711F0A9
:1028500041FF02C02FBF6AC08091B3018823E1F11C
:102860000E94CB13E090E402F090E5020091E602B2
:102870001091E702209131013091320140913301F2
:10288000509134016E197F09800B910B6217730709
:102890008407950720F01092B30171E01EC02E0D41
:1028A0003F1D401F511F80912D0190912E01A0913D
:1028B0002F01B0913001281B390B4A0B5B0B273ECF
:1028C00031054105510540F4822F223010F070E0AF
:1028D00005C070E082E002C070E086EE682F6150B3
:1028E00000B601FCFDCF82B7681709F46F5F209135
:1028F0002D0130912E0140912F0150913001DA01CC
:10290000C9010196A11DB11D860F911DA11DB11D0B
:1029100082179307A407B50710F4622F609561BF73
:10292000DFBE772319F086E00E94F2131F910F910A
:10293000FF90EF90DF900895AFB7F894BB27E1E0E8
:10294000E093B3016093E4027093E5028093E602A2
:102950009093E70220933101309332014093330189
:1029600050933401AFBF0E94191408959FB7F89493
:10297000282F332720FF02C0DA9801C0DA9A21FFFE
:1029800002C0D99801C0D99A22FF02C0D89801C0CC
:10299000D89A892F99278FBF08951F931FB7F8944E
:1029A00080919A03882339F40E94F213882319F442
:1029B00081E080939A03812F99278FBF1F910895FB
:1029C0009FB7F8948091C1028A3011F020E006C0D0
:1029D00020E080916401843009F421E0892F992757
:1029E0008FBF222349F082E00E94F2138FB7F89440
:1029F000992710921B0106C08FB7F894992721E000
:102A000020931B018FBF08952FB7F89433278CB9FB
:102A10005E9A2FBF0895FC016115710519F481E0DC
:102A200090E0089580916D0190916E01892B19F0CD
:102A300085E090E008957093F2026093F102F093C4
:102A40006E01E0936D01109266011092650181E0C4
:102A5000809367015E9A569A808121E030E030933E
:102A60006601209365010E94041580E090E00895BE
:102A700080912C018E7F80932C018EE78093420100
:102A800061E070E082E491E00E940B1599270895BF
:102A9000ECE8F0E06927660FF11DE60FF11DC8951F
:102AA000982F802D3196C89590250895982F809164
:102AB0002701882389F5992379F531E0309327019F
:102AC00080910A018093280120911C01822F81703E
:102AD0008093390180910F019091100190932A0108
:102AE0008093290180911D0180932B013227317041
:102AF000267EE32FFF27EE0FFF1FE55FFE4F80814D
:102B000091819093100180930F01232B20931C013E
:102B100085E00E94F213089580911C0180FF02C09D
:102B20008B7F01C08D7F80931C0108950F931F93AD
:102B3000082F162F809164018130D9F0813038F050
:102B4000823009F44AC0833009F00EC159C0002315
:102B500009F43EC11092EB021092EA021092E302D5
:102B60001092F302109268011092BF011092BE0100
:102B70001FC1002309F02CC18091BE019091BF01BB
:102B80000E9448159093BF018093BE0182E080931C
:102B900064011093F302143409F0E6C00BC186956A
:102BA000869503C080911C018695817009F0DCC078
:102BB00080911C01992311F0846001C08260809390
:102BC0001C0180911C01877E886080931C011092FB
:102BD0001D018FEF80930A01FBC0002309F0C4C0E0
:102BE000609368018091BE019091BF010E944815D9
:102BF0009093BF018093BE0183E080936401E8C09D
:102C00008091E3028F3F09F4AFC0002309F447C06D
:102C1000823008F4A9C0E091EA02EE2309F4D1C0A1
:102C20004E2F4150E42FFF27E651FD4F8281992717
:102C3000382F2227442311F4E2E002C0E42FE150B0
:102C4000FF27E651FD4F82819927282B392B809150
:102C5000BE019091BF012817390709F085C080E0B7
:102C60000E945615309168018091B4012091B50100
:102C7000982F9F5F963008F090E0921709F474C087
:102C8000E82FFF27EC54FE4F32838F5F8093B4010F
:102C9000863010F01092B4010E94CD1465C08230CD
:102CA00008F44EC0E091EB02FF27E651FD4F828110
:102CB000482F5527342F20911C01822F8695869509
:102CC0008695837099278130910519F00297F9F460
:102CD0000EC0277E206120931C01442311F485E05F
:102CE00001C080E080931D0130930A0110C08091E3
:102CF0001D01883760F4E0910F01F0911001E80F99
:102D0000F11D408380911D018F5F80931D01809193
:102D1000EB02E82FFF27E651FD4F62818F5F809322
:102D2000EB02833010F01092EB0277278091BE0106
:102D30009091BF010E9448159093BF018093BE01FE
:102D40008091EA02E82FFF27E651FD4F12838F5F43
:102D50008093EA02833010F01092EA028091E3023D
:102D60008F5F8093E30234C01092EB021092EA026C
:102D7000109264011092E3021092F3021092680123
:102D80001092BF011092BE0180912C018D7F809323
:102D90002C0181E00E94561580911B01882331F09F
:102DA00084E0809364010E94E01412C0002381F04B
:102DB00081E023CF80911C01982F917080FDEFCE90
:102DC000F1CE8091EE029927382F222742E036CFAC
:102DD0001F910F9108951F920F920FB60F92112419
:102DE0002F933F934F935F936F937F938F939F9313
:102DF000AF93BF93EF93FF935F9B3DC06CB1E091A6
:102E0000C201F091C3013097F9F08091980390913D
:102E10009903E80FF91F60830196909399038093BB
:102E2000980320919E0330919F038217930718F116
:102E30001092C3011092C2018091BE028330D9F07A
:102E400057981092BE0217C06E3719F460E081E007
:102E500010C080912C016D3721F4826080932C0189
:102E60000AC081FF05C08D7F80932C0180E2682716
:102E700080E00E949615FF91EF91BF91AF919F91D5
:102E80008F917F916F915F914F913F912F910F9013
:102E90000FBE0F901F901895982F8D57823068F4B1
:102EA00080912C01816080932C0180E2892780939E
:102EB000E2028DE78093420102C09093420161E0FB
:102EC00070E082E491E00E940B15992708957894B0
:102ED0001F920F920FB60F921124FF920F931F9320
:102EE0002F933F934F935F936F937F938F939F9312
:102EF000AF93BF93CF93DF93EF93FF93209165013F
:102F0000309166018091F1029091F2022817390701
:102F100080F4E0916D01F0916E01E20FF31F80816A
:102F20002F5F3F4F30936601209365010E94041587
:102F3000D0C010926E0110926D01109267015698E8
:102F400080912C0180FF0EC08E7F80932C01809198
:102F5000E2028093420161E070E082E491E00E942D
:102F60000B15B7C08091C102843009F494C085303C
:102F700040F4823021F18330B8F5813009F0A4C0EB
:102F80000DC0863009F495C0863008F48BC08730B8
:102F900009F496C0883009F097C099C080916C01FF
:102FA0000E944C17182F83E08093C10260916C013E
:102FB00080919C0390919D030E94481510C08091C0
:102FC00073030E944C17182F83E08093C102609115
:102FD000730380919C0390919D030E9448159093E8
:102FE0009D0380939C036EC0FFB6F894E091C401EA
:102FF000FF27EE0FFF1FE059FE4F80810E944C1704
:10300000082F1091C401C12FDD27FE01EE0FFF1F15
:10301000E059FE4F608180919C0390919D030E9436
:10302000481590939D0380939C0320916B012F5F23
:1030300020936B01113039F580912301E0911E013D
:10304000F0911F01E80FF11DE0818F5F8093230154
:1030500090912201981730F482E08093710140E052
:1030600050E002C04E2F5527DE01AA0FBB1FFD0105
:10307000E159FE4F8081823031F02F3F21F0A0597D
:10308000BE4F4C9303C084E08093C102102F8F2D5C
:1030900099278FBF17C080919C030E944C17182F4F
:1030A00085E00BC080919D030E944C17182F86E08D
:1030B00004C00E943815182F87E08093C10202C017
:1030C00088E003C0112329F089E08093C1020E94A7
:1030D000CD14FF91EF91DF91CF91BF91AF919F916F
:1030E0008F917F916F915F914F913F912F911F91A0
:1030F0000F91FF900F900FBE0F901F9018951F9289
:103100000F920FB60F9211248F9380919B0087FF2F
:1031100002C080919C008F910F900FBE0F901F9066
:10312000189578941F920F920FB60F9211240F905A
:103130000FBE0F901F90189578941F920F920FB6A4
:103140000F9211240F900FBE0F901F901895789436
:103150001F920F920FB60F9211240F900FBE0F9077
:103160001F90189578941F920F920FB60F9211240A
:103170000F900FBE0F901F90189578941F920F928A
:103180000FB60F9211248F939F9380918800909196
:1031900089009F918F910F900FBE0F901F901895EF
:1031A00078941F920F920FB60F9211242F933F9392
:1031B0008F939F932FB7F89433278091BC01909100
:1031C000BD0101969093BD018093BC012FBF9F91DB
:1031D0008F913F912F910F900FBE0F901F901895D8
:1031E0001F920F920FB60F9211248F9383B783BF54
:1031F00000B600FCFDCF8F910F900FBE0F901F9077
:103200001895AF92BF92CF92DF92EF92FF920F93F9
:103210001F93CF93DF935C01EB01880F991F0E94EE
:1032200003236C017C01CC0FDD1FCC0FDD1F00E000
:1032300010E009C0CE010E940323F701819391930E
:103240007F010F5F1F4F0A151B05A4F3C601DF9115
:10325000CF911F910F91FF90EF90DF90CF90BF9093
:10326000AF9008951F920F920FB60F9211242F93D3
:103270003F934F935F936F937F938F939F93AF93FE
:10328000BF93EF93FF9383B783BF00B600FCFDCFDE
:1032900081B799270196AA27BB2720912D0130914C
:1032A0002E0140912F0150913001280F391F4A1FE4
:1032B0005B1F20932D0130932E0140932F015093DB
:1032C000300178940E941914FF91EF91BF91AF9152
:1032D0009F918F917F916F915F914F913F912F912E
:1032E0000F900FBE0F901F901895EF92FF920F93C3
:1032F0001F93E091CD01E1FF2BC02091C5013091DA
:10330000C6014091C7015091C801E090C901F090F9
:10331000CA010091CB011091CC01621B730B840B8D
:10332000950B6E157F058007910790F0E0FF04C0B4
:10333000ED7FE093CD010CC02E0D3F1D401F511FAE
:103340002093C5013093C6014093C7015093C80133
:1033500087E00E94F2131F910F91FF90EF90089564
:103360007F928F929F92AF92BF92CF92DF92EF9215
:10337000FF920F931F93CF93DF93CDB7DEB72497C0
:103380000FB6F894DEBF0FBECDBF833009F4D9C1AC
:10339000843038F4813009F4E9C0823008F0CDC1BE
:1033A0000DC0853009F4ECC1853008F4CDC18630FC
:1033B00009F4B0C4873009F04BC5DFC48FB7F89467
:1033C00010929A032091C10240E0283009F441E0B4
:1033D00030E0293009F431E0442311F4332351F073
:1033E0001092C102E091C401FF27EE0FFF1FE159C7
:1033F000FE4F108299278FBF442311F4332319F114
:10340000809173038F5F8093730380916C01833489
:10341000A1F49FB7F8942091B5018091B40182176F
:1034200041F0822F8F5F8093B501863010F01092AB
:10343000B501892F99278FBF0AC0A0E0442309F462
:10344000A1E071E006C0222311F010E069C0A0E005
:1034500070E08FB7F894992720911B018FBF22232A
:1034600041F08FB7F89499272AE02093C1028FBFCB
:1034700043C08FB7F894992760916F014091710113
:103480008FBF8FB7F894282F332750E09091B40165
:103490008091B501981709F451E02FBF552349F5E4
:1034A000662339F55FB7F89482E080936F018FB798
:1034B000F894282F332740E09091B4018091B50112
:1034C000981709F441E02FBF442311F080E006C0B3
:1034D000E091B501FF27EC54FE4F8281809370018B
:1034E000852F99278FBF83E480936C011092C401CC
:1034F0000BC04150423010F010E007C085E48093CB
:103500006C0181E08093C40111E0772349F08FB70B
:10351000F8949927A09324018FBF84E00E94F213AE
:103520008091C1028A3019F40E94E01491C41123E1
:1035300009F48EC42FB7F894332710929D0310928C
:103540009C0310926B0181E08093C1022FBF0E9407
:103550003815882309F47CC48FB7F894992729E09B
:103560002093C1028FBF0E94CD1472C45698579801
:103570001092BE0210926701539A549A579A68E0CB
:1035800070E088E090E00E94011990939503809389
:10359000940368E070E088E090E00E940119909345
:1035A000C1018093C00168E070E088E090E00E9473
:1035B000011990936A018093690168E070E088E0E6
:1035C00090E00E9401199093C0028093BF0268E0CE
:1035D00070E083E090E00E9401199093E9028093EB
:1035E000E80240E050E010C4E0919403F0919503AC
:1035F000E40FF51F0190F081E02DE20FF31F80E052
:1036000090E0A0E0B0E080839183A283B383E09157
:10361000C001F091C101E40FF51F0190F081E02D90
:10362000E20FF31F80839183A283B383E09169014A
:10363000F0916A01E40FF51F0190F081E02DE20F97
:10364000F31F80839183A283B3832C5F3F4F20328B
:10365000310551F64E5F5F4F4031510509F4D7C334
:10366000D3C3E091E802F091E902EA0DFB1D00816D
:1036700011810E0D1F1DB601882777FD8095982FAB
:103680000E947321D8016D937D938D939C93139722
:10369000E4E0F0E0EE0EFF1EF0E2EF16F10409F7B1
:1036A0000894C11CD11C23E0C216D10409F4B7C38D
:1036B000B0C3E091BF02F091C002E40FF51F01908A
:1036C000F081E02DE20FF31F80E090E0A0E0B0E099
:1036D00080839183A283B3832C5F3F4F20323105D7
:1036E00041F74E5F5F4F4031510509F09AC380E2C8
:1036F00090E00E94032390939703809396030E9487
:10370000CB136093C5017093C6018093C70190935A
:10371000C80184EF91E0A0E0B0E08093C9019093EC
:10372000CA01A093CB01B093CC018091CD018E7FD3
:1037300082608093CD0187E001C083E00E94F21394
:1037400087C35398549884C310922101109220018A
:103750008FB7F89499278FBFE0911E01F0911F0158
:1037600080912601882309F073C38385893809F085
:103770006FC3EB5FF24009F06BC31092180168C38E
:103780008FB7F89499272091280180902901909073
:103790002A0130912B01709039018FBF222309F04B
:1037A000A1C2932F9C50F4018385893809F09AC2F5
:1037B000923409F097C24CE0E42EF12CE80CF91C8D
:1037C0008401045B1F4FD8018D91BD01F801218157
:1037D0009927982F88273327822B932B8F3F91058A
:1037E00079F522C3E091E802F091E902E00FF11FC0
:1037F00020813181240F351FFB01EE0FFF1FEE0FDB
:10380000FF1FEE0DFF1D80819181A281B38189830D
:103810009A83AB83BC8389819A81AB81BC81F90196
:1038200080839183A283B3834C5F5F4F4032510505
:10383000C9F66F5F7F4F6330710509F453C2F6C25A
:1038400080911A01883091F510921A0140E050E001
:10385000F3C2E091C001F091C101E40FF51F0190A6
:10386000F081E02DE20FF31F80E090E0A0E0B0E0F7
:1038700080839183A283B383E0916901F0916A010F
:10388000E40FF51F0190F081E02DE20FF31F80831C
:103890009183A283B3832C5F3F4F20323105C9F659
:1038A0004E5F5F4F4031510509F0C6C2DB018C917C
:1038B00080931A0140E050E00091C0011091C101D5
:1038C0009701B701605E7F4FE0911A01FF27EE0F6D
:1038D000FF1FE00FF11F0190F081E02DE40FF51FB5
:1038E000D901AD90BD90CD90DD909D01A982BA82A5
:1038F000CB82DC8289819A81AB81BC818083918378
:10390000A283B3834C5F5F4F26173707E9F640E089
:1039100050E020E030E00091BF021091C002B701FA
:10392000605E7F4FE0911A01FF27EE0FFF1FE00F4F
:10393000F11F0190F081E02DE20FF31FDB01CD902C
:10394000DD90ED90FD90BD01C982DA82EB82FC82B0
:1039500089819A81AB81BC8180839183A283B38367
:103960004F5F5F4F2C5F3F4F48305105D9F6E091D4
:103970001A01FF279F01220F331F220F331F2D58DB
:103980003E4FEE0FFF1F8091C0019091C101E80FE3
:10399000F91F0190F081E02D80819181A281B38196
:1039A000F90180839183A283B38381E0809319011D
:1039B00060E070E0EE24FF2431C0E0916901F091F5
:1039C0006A01E40FF51F208131812E0D3F1DA0916A
:1039D000C001B091C101AC0DBD1DF80181918F01F5
:1039E000E82FFF27EE0FFF1FEE0FFF1F8D919C9119
:1039F000E80FF91F80819181A281B381F901808351
:103A00009183A283B3834E5F5F4F48305105A9F67F
:103A10006F5F7F4F24E030E0E20EF31E80911A01C9
:103A200099278617970744F06B01CC0CDD1C40E00A
:103A300050E000E011E0C1CF80E090E020919603DB
:103A40003091970340E050E060E070E0F90141936D
:103A5000519361937193049680329105C1F7C090A0
:103A60009403D090950340911A0155274F5F5F4F03
:103A700062ECA62E62E0B62E0F2EF7E1EF2EF7EBEA
:103A8000FF2EF1ED0F2FF8E31F2FF02D68E070E00F
:103A90008091690190916A010E945E13892B11F156
:103AA00040911A0155274F5F5F4F63E771E08091A6
:103AB0009603909197030E946A0160933501709379
:103AC000360180933701909338019F772FE632E1DA
:103AD00043E85AE30E94232218163CF481E08093C5
:103AE000190108C01092190168C08091190188233A
:103AF00009F463C020911A0133272F5F3F4F609173
:103B0000BF027091C00208E010E044E753E08091EA
:103B10009603909197030E94E20120911A013327A6
:103B20002F5F3F4F6091C0017091C10143E951E0A7
:103B300080919603909197030E94E2016091E802C0
:103B40007091E90224E0C22E21E0D22E98E0E92E05
:103B5000F12C03E010E028E030E044E451E083E998
:103B600091E00E94690204E713E084E4A82E81E05A
:103B7000B82EC0903501D0903601E0903701F0901A
:103B80003801D8016D917D918D919C91F501219124
:103B90003191419151915F010E94A020A7019601AE
:103BA0005F770E940921D8016D937D938D939D933A
:103BB0008D01B3E004391B0721F780911801882398
:103BC00009F088C0809119010E94B61480911A01F1
:103BD0009927809348031092470380911901882305
:103BE000D9F024E733E0E7E0F3E0D9014D915D91AE
:103BF0006D917D919D0149835A836B837C8389817B
:103C00009A81AB81BC8181939193A193B193B3E0ED
:103C1000E732FB07B9F0E9CF20E030E040E85FEBA6
:103C2000E7E0F3E029833A834B835C8389819A81BF
:103C3000AB81BC8181939193A193B19383E0E732EF
:103C4000F80781F78FEF809301038093000389E8E1
:103C50008093060382E48093040380912001909175
:103C60002101892B09F039C02FB7F894332785E05B
:103C700080932301109224018BEF92E090931F0117
:103C800080931E0182E090E09093210180932001B7
:103C900010922601109225018EE4809322012FBFFD
:103CA0009FB7F89480917101882311F020E006C03D
:103CB00081E0809371011092720121E0892F992790
:103CC0008FBF222309F4BBC00E94CD1481E08093F2
:103CD000180103C087E00E94B61480911A018F5F1B
:103CE00080931A018FB7F894E72DFF27EE0FFF1F7F
:103CF000E55FFE4F9182808220911C01772011F0B8
:103D00002B7F01C02D7F20931C0110922701992742
:103D10008FBF9EC080914301882361F52091F402FA
:103D20003091F5024091F6025091F702EFB7F89406
:103D3000FF276091E4027091E5028091E602909184
:103D4000E702E0903101F0903201009133011091CF
:103D500034016E0D7F1D801F911FEFBF2093F40271
:103D60003093F5024093F6025093F702109243010C
:103D70000E949C140E94CB1369C00E94CB137B014C
:103D80008C018FB7F89499271092B3018FBF80915F
:103D9000CD0181FF5DC08091C5019091C601A091C8
:103DA000C701B091C801A8019701281B390B4A0B24
:103DB0005B0BDA01C9012091C9013091CA01409120
:103DC000CB015091CC01281B390B4A0B5B0B2F3FC9
:103DD0008FEF38078FEF48078FE75807C9F11216A2
:103DE00013061406150684F52093F4023093F502A9
:103DF0004093F6025093F70281E080934301C8019B
:103E0000B7010E949C1424C020E030E0EDCBCC240C
:103E1000DD245601AA0CBB1CEE24FF2422CC40E07A
:103E200050E020E030E045CC60E070E08B01000F16
:103E3000111F40E050E0D6CC20E030E00ACD1092D7
:103E400021011092200149CFC801B7010E947519C4
:103E500024960FB6F894DEBF0FBECDBFDF91CF9191
:103E60001F910F91FF90EF90DF90CF90BF90AF9098
:103E70009F908F907F9008958091F8028F3FB1F0CE
:103E8000282F3327F901E65CFE4F80818093F802EA
:103E90008F3F11F480939B038FEF80832F3F31F08E
:103EA000822F0E94B01981E090E0089580E090E0B8
:103EB0000895FF920F931F93FFB6F89448E050E0E7
:103EC0006FEF70E08AE391E00E94FF238FEF809311
:103ED000F80280939B0381E08EBD88E080BF83E081
:103EE00083BF8CB59DB54AE72CB53DB5281739077A
:103EF00008F44150442311F0C901F6CF92B782B7BC
:103F00008917E9F32CB53DB592B782B78917E9F364
:103F10008CB59DB5821B930B4096F5E096958795E1
:103F2000FA95E1F79093FA028093F90213BE83B7F2
:103F30008EBD8EB580BF12BE1DBC1CBC8FEF86BF70
:103F400086B780937C0080B7992787709070892B03
:103F5000D1F715BA8FEF84BBD498DC981092890002
:103F60001092880080917D00846080937D00809114
:103F70008A00887F826080938A00D29AD19AD09AF0
:103F8000DA9AD99AD89A80E285BF0E943C1F88238A
:103F9000E1F780B7886080BF8BE083BF86EE81BF8A
:103FA00087B7826087BF0E94191412E006E0609113
:103FB000F9027091FA0288279927ECE0660F771FC3
:103FC000881F991FEA95D1F720E031EE40E050E0DC
:103FD0000E94E1222150304029B9832F99278093F4
:103FE00090001BB9009395001AB820939900809314
:103FF000980010939B0000939D0010929A0084E417
:1040000090E09093F0028093EF0210926F01109273
:1040100071011092C10210926B0110926C0110920A
:10402000730310929D0310929C0310929A031092B6
:10403000C4011092EB021092EA02109264011092F5
:10404000E3021092F302109268011092BF011092E5
:10405000BE011092B5011092B4010E943C1F88234A
:10406000E1F78F2D99278FBF789481E00E94F2139A
:104070008FB7F894482F552748C087B79927837082
:104080009070892B19F4E5E0F0E013C080B7992710
:1040900087709070892BD1F781B792B7891B8C30CC
:1040A00030F082B7853F18F4E3E0F0E002C0E2E0D0
:1040B000F0E087B7887BC1F480917D008B7FA1F40D
:1040C0006E9912C08AB190919A00892B807C61F41C
:1040D0008091740082FD08C0379B03C081E090E0AE
:1040E00005C085E090E002C080E090E025B78E1723
:1040F00008F4E82FFF27E457FD4FE491237E206268
:10410000E22BE5BF78948895F8948091F8028F3F70
:1041100009F4B3CF282F3327F901E65CFE4F8081E5
:104120008093F8028F3F11F480939B038FEF80837D
:104130002F3F09F4A2CF4FBF822F0E94B01998CF12
:104140005058BB27AA270ED044C135D130F03AD100
:1041500020F031F49F3F11F41EF42AC10EF4E095D3
:10416000E7FB20C1E92F46D180F3BA176207730736
:104170008407950718F071F49EF55EC10EF4E09582
:104180000B2EBA2FA02D0B01B90190010C01CA0111
:10419000A0011124FF27591B99F0593F50F4503EBC
:1041A00068F11A16F040A22F232F342F4427585FAE
:1041B000F3CF469537952795A795F0405395C9F7C6
:1041C0007EF41F16BA0B620B730B840BBAF091507E
:1041D000A1F0FF0FBB1F661F771F881FC2F70EC01D
:1041E000BA0F621F731F841F48F4879577956795F0
:1041F000B795F7959E3F08F0B3CF9395880F08F0D9
:104200009927EE0F979587950895A8D008F481E037
:1042100008950CD0DEC0D6D040F0CDD030F021F4DF
:104220005F3F19F0BFC0511108C1C2C0E3D098F37D
:104230009923C9F35523B1F3951B550BBB27AA2727
:1042400062177307840738F09F5F5F4F220F331F99
:10425000441FAA1FA9F333D00E2E3AF0E0E830D065
:1042600091505040E695001CCAF729D0FE2F27D068
:10427000660F771F881FBB1F261737074807AB0736
:10428000B0E809F0BB0B802DBF01FF2793585F4FAB
:104290002AF09E3F510568F085C0CFC05F3FECF328
:1042A000983EDCF3869577956795B795F7959F5F70
:1042B000C9F7880F911D9695879597F90895E1E0C4
:1042C000660F771F881FBB1F621773078407BA0723
:1042D00020F0621B730B840BBA0BEE1F88F7E0957E
:1042E0000895E89409C097FB3EF4909580957095E9
:1042F00061957F4F8F4F9F4F9923A9F0F92F96E932
:10430000BB279395F695879577956795B795F111A6
:10431000F8CFFAF4BB0F11F460FF1BC06F5F7F4F43
:104320008F4F9F4F16C0882311F096E911C0772355
:1043300021F09EE8872F762F05C0662371F096E85E
:10434000862F70E060E02AF09A95660F771F881F2D
:10435000DAF7880F9695879597F90895990F0008D1
:10436000550FAA0BE0E8FEEF16161706E807F90747
:10437000C0F012161306E407F50798F0621B730BE2
:10438000840B950B39F40A2661F0232B242B252B63
:1043900021F408950A2609F4A140A6958FEF811D06
:1043A000811D089597F99F6780E870E060E00895A7
:1043B0009FEF80EC089500240A941616170618063D
:1043C0000906089500240A94121613061406050619
:1043D0000895092E0394000C11F4882352F0BB0FAA
:1043E00040F4BF2B11F460FF04C06F5F7F4F8F4F0D
:1043F0009F4F089557FD9058440F551F59F05F3F48
:1044000071F04795880F97FB991F61F09F3F79F0F6
:1044100087950895121613061406551FF2CF469578
:10442000F1DF08C0161617061806991FF1CF8695FA
:104430007105610508940895E894BB2766277727DE
:10444000CB0197F908958ADF08F48FEF08950BD018
:10445000C0CFB1DF28F0B6DF18F0952309F0A2CF66
:10446000A7CF1124EACFC6DFA0F3959FD1F3950F14
:1044700050E0551F629FF001729FBB27F00DB11DE8
:10448000639FAA27F00DB11DAA1F649F6627B00D78
:10449000A11D661F829F2227B00DA11D621F739F61
:1044A000B00DA11D621F839FA00D611D221F749F6F
:1044B0003327A00D611D231F849F600D211D822FB6
:1044C000762F6A2F11249F5750408AF0E1F08823FD
:1044D0004AF0EE0FFF1FBB1F661F771F881F91500A
:1044E0005040A9F79E3F510570F05CCFA6CF5F3FCB
:1044F000ECF3983EDCF3869577956795B795F7953D
:10450000E7959F5FC1F7FE2B880F911D96958795C4
:1045100097F9089511F40EF44BCF3EC073DFD0F33A
:104520009923D9F3CEF39F57550B87FF43D000242F
:10453000A0E640EA900180585695979528F4805C53
:10454000660F771F881F20F026173707480730F4BB
:10455000621B730B840B202931294A2BA6951794D3
:104560000794202531254A2758F7660F771F881FA3
:1045700020F026173707480730F4620B730B840BC3
:10458000200D311D411DA09581F7B901842F91584F
:10459000880F9695879508959F3F31F0915020F4AC
:1045A000879577956795B795880F911D969587950F
:1045B00097F9089591505040660F771F881FD2F7E2
:1045C0000895A1E21A2EAA1BBB1BFD010DC0AA1F54
:1045D000BB1FEE1FFF1FA217B307E407F50720F06C
:1045E000A21BB30BE40BF50B661F771F881F991FE7
:1045F0001A9469F760957095809590959B01AC0130
:10460000BD01CF010895CF93DF93AC01029710F461
:1046100042E050E0A091A203B091A303FD01C0E0ED
:10462000D0E020E030E020C08081918184179507A0
:1046300069F482819381209719F09B838A8304C057
:104640009093A3038093A203CF0132C04817590768
:1046500038F42115310519F08217930708F49C01ED
:10466000EF010280F381E02D3097F1F6211531053D
:1046700089F1C901841B950B049708F4A901E0E0B6
:10468000F0E026C08D919C91119782179307E9F471
:104690004817590779F4ED018A819B81309719F009
:1046A0009383828304C09093A3038093A203CD01DC
:1046B00002964CC0841B950BFD01E80FF91F419336
:1046C000519302978D939C933DC0FD01A281B381CC
:1046D0001097C1F68091A0039091A103892B41F41A
:1046E00080911301909114019093A1038093A003F2
:1046F00020911501309116012115310541F42DB796
:104700003EB78091110190911201281B390BE09165
:10471000A003F091A103E217F307B0F42E1B3F0BA7
:104720002417350788F0CA0102962817390760F068
:10473000CF01840F951F02969093A1038093A0034D
:1047400041935193CF0102C080E090E0DF91CF917F
:104750000895CF93DF93009709F44EC0EC012297A0
:104760001B821A82A091A203B091A303109711F1AA
:1047700040E050E001C0DC01AC17BD0700F1BB8395
:10478000AA83FE0121913191E20FF31FEA17FB0783
:1047900071F42E5F3F4F8D919C911197820F931F63
:1047A00099838883FD01828193819B838A8341154C
:1047B000510559F4D093A303C093A2031DC0FD017A
:1047C00082819381AD010097B1F6FA01D383C28350
:1047D00021913191E20FF31FEC17FD0769F42E5F71
:1047E0003F4F88819981820F931FFA0191838083C3
:1047F0008A819B8193838283DF91CF910895DC012D
:0E48000001C06D9341505040E0F70895FFCF86
:10480E0001030507020004000600FFCE014602CE9A
:08481E00012000A403000000CA
:00000001FF
